{
  "abi": [
    {
      "inputs": [],
      "stateMutability": "nonpayable",
      "type": "constructor"
    },
    {
      "anonymous": false,
      "inputs": [
        {
          "indexed": true,
          "internalType": "address",
          "name": "owner",
          "type": "address"
        },
        {
          "indexed": true,
          "internalType": "address",
          "name": "approved",
          "type": "address"
        },
        {
          "indexed": true,
          "internalType": "uint256",
          "name": "tokenId",
          "type": "uint256"
        }
      ],
      "name": "Approval",
      "type": "event"
    },
    {
      "anonymous": false,
      "inputs": [
        {
          "indexed": true,
          "internalType": "address",
          "name": "owner",
          "type": "address"
        },
        {
          "indexed": true,
          "internalType": "address",
          "name": "operator",
          "type": "address"
        },
        {
          "indexed": false,
          "internalType": "bool",
          "name": "approved",
          "type": "bool"
        }
      ],
      "name": "ApprovalForAll",
      "type": "event"
    },
    {
      "anonymous": false,
      "inputs": [
        {
          "indexed": true,
          "internalType": "address",
          "name": "previousOwner",
          "type": "address"
        },
        {
          "indexed": true,
          "internalType": "address",
          "name": "newOwner",
          "type": "address"
        }
      ],
      "name": "OwnershipTransferred",
      "type": "event"
    },
    {
      "anonymous": false,
      "inputs": [
        {
          "indexed": true,
          "internalType": "address",
          "name": "from",
          "type": "address"
        },
        {
          "indexed": true,
          "internalType": "address",
          "name": "to",
          "type": "address"
        },
        {
          "indexed": true,
          "internalType": "uint256",
          "name": "tokenId",
          "type": "uint256"
        }
      ],
      "name": "Transfer",
      "type": "event"
    },
    {
      "inputs": [],
      "name": "EXECUTOR_ROLE",
      "outputs": [
        {
          "internalType": "bytes32",
          "name": "",
          "type": "bytes32"
        }
      ],
      "stateMutability": "view",
      "type": "function"
    },
    {
      "inputs": [
        {
          "internalType": "string",
          "name": "name",
          "type": "string"
        },
        {
          "internalType": "address",
          "name": "_addr",
          "type": "address"
        }
      ],
      "name": "addExecutor",
      "outputs": [],
      "stateMutability": "nonpayable",
      "type": "function"
    },
    {
      "inputs": [
        {
          "internalType": "address",
          "name": "to",
          "type": "address"
        },
        {
          "internalType": "uint256",
          "name": "tokenId",
          "type": "uint256"
        }
      ],
      "name": "approve",
      "outputs": [],
      "stateMutability": "nonpayable",
      "type": "function"
    },
    {
      "inputs": [
        {
          "internalType": "address",
          "name": "owner",
          "type": "address"
        }
      ],
      "name": "balanceOf",
      "outputs": [
        {
          "internalType": "uint256",
          "name": "",
          "type": "uint256"
        }
      ],
      "stateMutability": "view",
      "type": "function"
    },
    {
      "inputs": [
        {
          "internalType": "address",
          "name": "_seller",
          "type": "address"
        },
        {
          "internalType": "address",
          "name": "_buyer",
          "type": "address"
        },
        {
          "internalType": "uint256",
          "name": "_landToken",
          "type": "uint256"
        },
        {
          "internalType": "enum LandRegistry.SaleType",
          "name": "_sType",
          "type": "uint8"
        },
        {
          "internalType": "uint256",
          "name": "_salePrice",
          "type": "uint256"
        }
      ],
      "name": "executeSale",
      "outputs": [],
      "stateMutability": "nonpayable",
      "type": "function"
    },
    {
      "inputs": [
        {
          "internalType": "address",
          "name": "",
          "type": "address"
        }
      ],
      "name": "executors",
      "outputs": [
        {
          "internalType": "string",
          "name": "name",
          "type": "string"
        },
        {
          "internalType": "bool",
          "name": "isVal",
          "type": "bool"
        }
      ],
      "stateMutability": "view",
      "type": "function"
    },
    {
      "inputs": [
        {
          "internalType": "uint256",
          "name": "tokenId",
          "type": "uint256"
        }
      ],
      "name": "getApproved",
      "outputs": [
        {
          "internalType": "address",
          "name": "",
          "type": "address"
        }
      ],
      "stateMutability": "view",
      "type": "function"
    },
    {
      "inputs": [],
      "name": "getContractBalance",
      "outputs": [
        {
          "internalType": "uint256",
          "name": "",
          "type": "uint256"
        }
      ],
      "stateMutability": "view",
      "type": "function"
    },
    {
      "inputs": [],
      "name": "getLastSale",
      "outputs": [
        {
          "components": [
            {
              "internalType": "uint256",
              "name": "landId",
              "type": "uint256"
            },
            {
              "components": [
                {
                  "internalType": "string",
                  "name": "name",
                  "type": "string"
                },
                {
                  "internalType": "string",
                  "name": "resAddress",
                  "type": "string"
                },
                {
                  "internalType": "string",
                  "name": "care_of",
                  "type": "string"
                },
                {
                  "internalType": "string",
                  "name": "gender",
                  "type": "string"
                },
                {
                  "internalType": "address",
                  "name": "addr",
                  "type": "address"
                }
              ],
              "internalType": "struct LandRegistry.OwnerType",
              "name": "seller",
              "type": "tuple"
            },
            {
              "components": [
                {
                  "internalType": "string",
                  "name": "name",
                  "type": "string"
                },
                {
                  "internalType": "string",
                  "name": "resAddress",
                  "type": "string"
                },
                {
                  "internalType": "string",
                  "name": "care_of",
                  "type": "string"
                },
                {
                  "internalType": "string",
                  "name": "gender",
                  "type": "string"
                },
                {
                  "internalType": "address",
                  "name": "addr",
                  "type": "address"
                }
              ],
              "internalType": "struct LandRegistry.OwnerType",
              "name": "buyer",
              "type": "tuple"
            },
            {
              "internalType": "enum LandRegistry.SaleType",
              "name": "sale",
              "type": "uint8"
            },
            {
              "internalType": "uint256",
              "name": "salePrice",
              "type": "uint256"
            },
            {
              "internalType": "uint256",
              "name": "fee",
              "type": "uint256"
            },
            {
              "internalType": "bytes",
              "name": "ownerSignature",
              "type": "bytes"
            }
          ],
          "internalType": "struct LandRegistry.RegisterEntry",
          "name": "",
          "type": "tuple"
        }
      ],
      "stateMutability": "view",
      "type": "function"
    },
    {
      "inputs": [],
      "name": "getLatestLandIdx",
      "outputs": [
        {
          "internalType": "uint256",
          "name": "",
          "type": "uint256"
        }
      ],
      "stateMutability": "view",
      "type": "function"
    },
    {
      "inputs": [
        {
          "internalType": "address",
          "name": "addr",
          "type": "address"
        }
      ],
      "name": "getOwnedLands",
      "outputs": [
        {
          "internalType": "uint256[]",
          "name": "",
          "type": "uint256[]"
        }
      ],
      "stateMutability": "view",
      "type": "function"
    },
    {
      "inputs": [],
      "name": "getUsers",
      "outputs": [
        {
          "internalType": "uint256",
          "name": "",
          "type": "uint256"
        }
      ],
      "stateMutability": "view",
      "type": "function"
    },
    {
      "inputs": [
        {
          "internalType": "address",
          "name": "owner",
          "type": "address"
        },
        {
          "internalType": "address",
          "name": "operator",
          "type": "address"
        }
      ],
      "name": "isApprovedForAll",
      "outputs": [
        {
          "internalType": "bool",
          "name": "",
          "type": "bool"
        }
      ],
      "stateMutability": "view",
      "type": "function"
    },
    {
      "inputs": [
        {
          "internalType": "uint256",
          "name": "",
          "type": "uint256"
        }
      ],
      "name": "landRegister",
      "outputs": [
        {
          "internalType": "uint256",
          "name": "landId",
          "type": "uint256"
        },
        {
          "components": [
            {
              "internalType": "string",
              "name": "name",
              "type": "string"
            },
            {
              "internalType": "string",
              "name": "resAddress",
              "type": "string"
            },
            {
              "internalType": "string",
              "name": "care_of",
              "type": "string"
            },
            {
              "internalType": "string",
              "name": "gender",
              "type": "string"
            },
            {
              "internalType": "address",
              "name": "addr",
              "type": "address"
            }
          ],
          "internalType": "struct LandRegistry.OwnerType",
          "name": "seller",
          "type": "tuple"
        },
        {
          "components": [
            {
              "internalType": "string",
              "name": "name",
              "type": "string"
            },
            {
              "internalType": "string",
              "name": "resAddress",
              "type": "string"
            },
            {
              "internalType": "string",
              "name": "care_of",
              "type": "string"
            },
            {
              "internalType": "string",
              "name": "gender",
              "type": "string"
            },
            {
              "internalType": "address",
              "name": "addr",
              "type": "address"
            }
          ],
          "internalType": "struct LandRegistry.OwnerType",
          "name": "buyer",
          "type": "tuple"
        },
        {
          "internalType": "enum LandRegistry.SaleType",
          "name": "sale",
          "type": "uint8"
        },
        {
          "internalType": "uint256",
          "name": "salePrice",
          "type": "uint256"
        },
        {
          "internalType": "uint256",
          "name": "fee",
          "type": "uint256"
        },
        {
          "internalType": "bytes",
          "name": "ownerSignature",
          "type": "bytes"
        }
      ],
      "stateMutability": "view",
      "type": "function"
    },
    {
      "inputs": [
        {
          "internalType": "uint256",
          "name": "",
          "type": "uint256"
        }
      ],
      "name": "lands",
      "outputs": [
        {
          "internalType": "uint256",
          "name": "tokenId",
          "type": "uint256"
        },
        {
          "internalType": "uint256",
          "name": "minPrice",
          "type": "uint256"
        },
        {
          "internalType": "string",
          "name": "uri",
          "type": "string"
        },
        {
          "internalType": "bool",
          "name": "isSold",
          "type": "bool"
        },
        {
          "internalType": "bytes",
          "name": "builderSignature",
          "type": "bytes"
        }
      ],
      "stateMutability": "view",
      "type": "function"
    },
    {
      "inputs": [],
      "name": "name",
      "outputs": [
        {
          "internalType": "string",
          "name": "",
          "type": "string"
        }
      ],
      "stateMutability": "view",
      "type": "function"
    },
    {
      "inputs": [
        {
          "internalType": "address",
          "name": "",
          "type": "address"
        },
        {
          "internalType": "uint256",
          "name": "",
          "type": "uint256"
        }
      ],
      "name": "ownedLands",
      "outputs": [
        {
          "internalType": "uint256",
          "name": "",
          "type": "uint256"
        }
      ],
      "stateMutability": "view",
      "type": "function"
    },
    {
      "inputs": [],
      "name": "owner",
      "outputs": [
        {
          "internalType": "address",
          "name": "",
          "type": "address"
        }
      ],
      "stateMutability": "view",
      "type": "function"
    },
    {
      "inputs": [
        {
          "internalType": "uint256",
          "name": "tokenId",
          "type": "uint256"
        }
      ],
      "name": "ownerOf",
      "outputs": [
        {
          "internalType": "address",
          "name": "",
          "type": "address"
        }
      ],
      "stateMutability": "view",
      "type": "function"
    },
    {
      "inputs": [
        {
          "internalType": "string",
          "name": "_uri",
          "type": "string"
        },
        {
          "internalType": "address",
          "name": "builder",
          "type": "address"
        },
        {
          "internalType": "uint256",
          "name": "_price",
          "type": "uint256"
        }
      ],
      "name": "registerLand",
      "outputs": [
        {
          "internalType": "uint256",
          "name": "",
          "type": "uint256"
        }
      ],
      "stateMutability": "nonpayable",
      "type": "function"
    },
    {
      "inputs": [
        {
          "internalType": "string",
          "name": "_name",
          "type": "string"
        },
        {
          "internalType": "string",
          "name": "_cof",
          "type": "string"
        },
        {
          "internalType": "string",
          "name": "_resAddress",
          "type": "string"
        },
        {
          "internalType": "string",
          "name": "_gender",
          "type": "string"
        }
      ],
      "name": "registerUserInRegistry",
      "outputs": [],
      "stateMutability": "nonpayable",
      "type": "function"
    },
    {
      "inputs": [],
      "name": "renounceOwnership",
      "outputs": [],
      "stateMutability": "nonpayable",
      "type": "function"
    },
    {
      "inputs": [
        {
          "internalType": "address",
          "name": "to",
          "type": "address"
        },
        {
          "internalType": "uint256",
          "name": "tokenId",
          "type": "uint256"
        },
        {
          "internalType": "string",
          "name": "uri",
          "type": "string"
        }
      ],
      "name": "safeMint",
      "outputs": [],
      "stateMutability": "nonpayable",
      "type": "function"
    },
    {
      "inputs": [
        {
          "internalType": "address",
          "name": "from",
          "type": "address"
        },
        {
          "internalType": "address",
          "name": "to",
          "type": "address"
        },
        {
          "internalType": "uint256",
          "name": "tokenId",
          "type": "uint256"
        }
      ],
      "name": "safeTransferFrom",
      "outputs": [],
      "stateMutability": "nonpayable",
      "type": "function"
    },
    {
      "inputs": [
        {
          "internalType": "address",
          "name": "from",
          "type": "address"
        },
        {
          "internalType": "address",
          "name": "to",
          "type": "address"
        },
        {
          "internalType": "uint256",
          "name": "tokenId",
          "type": "uint256"
        },
        {
          "internalType": "bytes",
          "name": "data",
          "type": "bytes"
        }
      ],
      "name": "safeTransferFrom",
      "outputs": [],
      "stateMutability": "nonpayable",
      "type": "function"
    },
    {
      "inputs": [
        {
          "internalType": "address",
          "name": "operator",
          "type": "address"
        },
        {
          "internalType": "bool",
          "name": "approved",
          "type": "bool"
        }
      ],
      "name": "setApprovalForAll",
      "outputs": [],
      "stateMutability": "nonpayable",
      "type": "function"
    },
    {
      "inputs": [
        {
          "internalType": "bytes4",
          "name": "interfaceId",
          "type": "bytes4"
        }
      ],
      "name": "supportsInterface",
      "outputs": [
        {
          "internalType": "bool",
          "name": "",
          "type": "bool"
        }
      ],
      "stateMutability": "view",
      "type": "function"
    },
    {
      "inputs": [],
      "name": "symbol",
      "outputs": [
        {
          "internalType": "string",
          "name": "",
          "type": "string"
        }
      ],
      "stateMutability": "view",
      "type": "function"
    },
    {
      "inputs": [
        {
          "internalType": "uint256",
          "name": "tokenId",
          "type": "uint256"
        }
      ],
      "name": "tokenURI",
      "outputs": [
        {
          "internalType": "string",
          "name": "",
          "type": "string"
        }
      ],
      "stateMutability": "view",
      "type": "function"
    },
    {
      "inputs": [
        {
          "internalType": "address",
          "name": "from",
          "type": "address"
        },
        {
          "internalType": "address",
          "name": "to",
          "type": "address"
        },
        {
          "internalType": "uint256",
          "name": "tokenId",
          "type": "uint256"
        }
      ],
      "name": "transferFrom",
      "outputs": [],
      "stateMutability": "nonpayable",
      "type": "function"
    },
    {
      "inputs": [
        {
          "internalType": "address",
          "name": "newOwner",
          "type": "address"
        }
      ],
      "name": "transferOwnership",
      "outputs": [],
      "stateMutability": "nonpayable",
      "type": "function"
    },
    {
      "inputs": [
        {
          "internalType": "address",
          "name": "",
          "type": "address"
        }
      ],
      "name": "users",
      "outputs": [
        {
          "internalType": "string",
          "name": "name",
          "type": "string"
        },
        {
          "internalType": "string",
          "name": "resAddress",
          "type": "string"
        },
        {
          "internalType": "string",
          "name": "care_of",
          "type": "string"
        },
        {
          "internalType": "string",
          "name": "gender",
          "type": "string"
        },
        {
          "internalType": "address",
          "name": "addr",
          "type": "address"
        }
      ],
      "stateMutability": "view",
      "type": "function"
    },
    {
      "inputs": [],
      "name": "withdrawBalance",
      "outputs": [],
      "stateMutability": "payable",
      "type": "function"
    }
  ],
  "bytecode": "60806040523480156200001157600080fd5b506040518060400160405280600c81526020016b4c616e64526567697374727960a01b815250604051806040016040528060038152602001624c525960e81b8152508160009081620000649190620001a0565b506001620000738282620001a0565b505050620000906200008a620000a560201b60201c565b620000a9565b600060088190556009819055600a556200026c565b3390565b600780546001600160a01b038381166001600160a01b0319831681179093556040519116919082907f8be0079c531659141344cd1fd0a4f28419497f9722a3daafe3b4186f6b6457e090600090a35050565b634e487b7160e01b600052604160045260246000fd5b600181811c908216806200012657607f821691505b6020821081036200014757634e487b7160e01b600052602260045260246000fd5b50919050565b601f8211156200019b57600081815260208120601f850160051c81016020861015620001765750805b601f850160051c820191505b81811015620001975782815560010162000182565b5050505b505050565b81516001600160401b03811115620001bc57620001bc620000fb565b620001d481620001cd845462000111565b846200014d565b602080601f8311600181146200020c5760008415620001f35750858301515b600019600386901b1c1916600185901b17855562000197565b600085815260208120601f198616915b828110156200023d578886015182559484019460019091019084016200021c565b50858210156200025c5787850151600019600388901b60f8161c191681555b5050505050600190811b01905550565b6144dc806200027c6000396000f3fe6080604052600436106101ed5760003560e01c806368d3c5e51161010d578063a87430ba116100a0578063cd279c7c1161006f578063cd279c7c1461059e578063e261f1e5146105be578063e985e9c5146105ef578063ec52754d14610638578063f2fde38b1461066b57600080fd5b8063a87430ba1461050d578063b6f849911461053e578063b88d4fde1461055e578063c87b56dd1461057e57600080fd5b80638da5cb5b116100dc5780638da5cb5b1461048c57806395d89b41146104aa5780639ac2a011146104bf578063a22cb465146104ed57600080fd5b806368d3c5e5146104225780636f9fb98a1461044257806370a0823114610457578063715018a61461047757600080fd5b806323b872dd11610185578063519ea70511610154578063519ea705146103ab57806358688d52146103d85780635fd8c710146103fa5780636352211e1461040257600080fd5b806323b872dd1461032b5780633b5ee4d51461034b57806342842e0e1461036b57806349b69fc11461038b57600080fd5b806307bd0265116101c157806307bd02651461027d578063081812fc146102b1578063095ea7b3146102e95780630c1544831461030b57600080fd5b8062ce8e3e146101f257806301ffc9a71461021657806304c8a5251461024657806306fdde031461025b575b600080fd5b3480156101fe57600080fd5b50600a545b6040519081526020015b60405180910390f35b34801561022257600080fd5b506102366102313660046137fd565b61068b565b604051901515815260200161020d565b34801561025257600080fd5b506102036106dd565b34801561026757600080fd5b506102706106f3565b60405161020d9190613872565b34801561028957600080fd5b506102037f9cf85f95575c3af1e116e3d37fd41e7f36a8a373623f51ffaaa87fdd032fa76781565b3480156102bd57600080fd5b506102d16102cc366004613885565b610785565b6040516001600160a01b03909116815260200161020d565b3480156102f557600080fd5b506103096103043660046138b5565b6107ac565b005b34801561031757600080fd5b506103096103263660046139ac565b6108c6565b34801561033757600080fd5b50610309610346366004613a59565b610990565b34801561035757600080fd5b50610203610366366004613a95565b6109c1565b34801561037757600080fd5b50610309610386366004613a59565b610b2d565b34801561039757600080fd5b506103096103a6366004613adc565b610b48565b3480156103b757600080fd5b506103cb6103c6366004613b2a565b610bad565b60405161020d9190613b45565b3480156103e457600080fd5b506103ed610c19565b60405161020d9190613c42565b61030961123d565b34801561040e57600080fd5b506102d161041d366004613885565b611289565b34801561042e57600080fd5b5061030961043d366004613cd6565b6112e9565b34801561044e57600080fd5b5061020361212e565b34801561046357600080fd5b50610203610472366004613b2a565b61213f565b34801561048357600080fd5b506103096121c5565b34801561049857600080fd5b506007546001600160a01b03166102d1565b3480156104b657600080fd5b506102706121d9565b3480156104cb57600080fd5b506104df6104da366004613b2a565b6121e8565b60405161020d929190613d31565b3480156104f957600080fd5b50610309610508366004613d63565b61228f565b34801561051957600080fd5b5061052d610528366004613b2a565b61229e565b60405161020d959493929190613d9a565b34801561054a57600080fd5b506102036105593660046138b5565b6124f5565b34801561056a57600080fd5b50610309610579366004613e02565b612526565b34801561058a57600080fd5b50610270610599366004613885565b61255e565b3480156105aa57600080fd5b506103096105b9366004613e72565b612569565b3480156105ca57600080fd5b506105de6105d9366004613885565b612585565b60405161020d959493929190613ec9565b3480156105fb57600080fd5b5061023661060a366004613f0e565b6001600160a01b03918216600090815260056020908152604080832093909416825291909152205460ff1690565b34801561064457600080fd5b50610658610653366004613885565b6126cd565b60405161020d9796959493929190613f38565b34801561067757600080fd5b50610309610686366004613b2a565b612c66565b60006001600160e01b031982166380ac58cd60e01b14806106bc57506001600160e01b03198216635b5e139f60e01b145b806106d757506301ffc9a760e01b6001600160e01b03198316145b92915050565b600060016008546106ee9190613fb4565b905090565b60606000805461070290613fcb565b80601f016020809104026020016040519081016040528092919081815260200182805461072e90613fcb565b801561077b5780601f106107505761010080835404028352916020019161077b565b820191906000526020600020905b81548152906001019060200180831161075e57829003601f168201915b5050505050905090565b600061079082612cdf565b506000908152600460205260409020546001600160a01b031690565b60006107b782611289565b9050806001600160a01b0316836001600160a01b0316036108295760405162461bcd60e51b815260206004820152602160248201527f4552433732313a20617070726f76616c20746f2063757272656e74206f776e656044820152603960f91b60648201526084015b60405180910390fd5b336001600160a01b03821614806108455750610845813361060a565b6108b75760405162461bcd60e51b815260206004820152603e60248201527f4552433732313a20617070726f76652063616c6c6572206973206e6f7420746f60448201527f6b656e206f776e6572206e6f7220617070726f76656420666f7220616c6c00006064820152608401610820565b6108c18383612d3e565b505050565b6040805160a08101825285815260208082018590528183018690526060820184905233608083018190526000908152600b909152919091208151819061090c9082614053565b50602082015160018201906109219082614053565b50604082015160028201906109369082614053565b506060820151600382019061094b9082614053565b5060809190910151600490910180546001600160a01b0319166001600160a01b03909216919091179055600a805490600061098583614113565b919050555050505050565b61099a3382612dac565b6109b65760405162461bcd60e51b81526004016108209061412c565b6108c1838383612e2b565b60006109cb612fc7565b60408051606085901b6bffffffffffffffffffffffff191660208201528151601481830301815260348201928390526389c19ddb60e01b90925260009173__HeptaSign_____________________________916389c19ddb91610a309160380161417a565b600060405180830381865af4158015610a4d573d6000803e3d6000fd5b505050506040513d6000823e601f3d908101601f19168201604052610a7591908101906141b3565b6040805160a08101825260085480825260208083018881528385018b815260006060860181905260808601889052938452600c90925293909120825181559251600184015551929350916002820190610ace9082614053565b50606082015160038201805460ff191691151591909117905560808201516004820190610afb9082614053565b50506008805491506000610b0e83614113565b91905055506001600854610b229190613fb4565b9150505b9392505050565b6108c183838360405180602001604052806000815250612526565b610b5061301a565b60408051808201825283815260016020808301919091526001600160a01b0384166000908152600f9091529190912081518190610b8d9082614053565b50602091909101516001909101805460ff19169115159190911790555050565b6001600160a01b0381166000908152600e6020908152604091829020805483518184028101840190945280845260609392830182828015610c0d57602002820191906000526020600020905b815481526020019060010190808311610bf9575b50505050509050919050565b610c21613766565b60006001600854610c329190613fb4565b1015610c4557610c40613766565b919050565b600d60006001600854610c589190613fb4565b81526020019081526020016000206040518060e001604052908160008201548152602001600182016040518060a0016040529081600082018054610c9b90613fcb565b80601f0160208091040260200160405190810160405280929190818152602001828054610cc790613fcb565b8015610d145780601f10610ce957610100808354040283529160200191610d14565b820191906000526020600020905b815481529060010190602001808311610cf757829003601f168201915b50505050508152602001600182018054610d2d90613fcb565b80601f0160208091040260200160405190810160405280929190818152602001828054610d5990613fcb565b8015610da65780601f10610d7b57610100808354040283529160200191610da6565b820191906000526020600020905b815481529060010190602001808311610d8957829003601f168201915b50505050508152602001600282018054610dbf90613fcb565b80601f0160208091040260200160405190810160405280929190818152602001828054610deb90613fcb565b8015610e385780601f10610e0d57610100808354040283529160200191610e38565b820191906000526020600020905b815481529060010190602001808311610e1b57829003601f168201915b50505050508152602001600382018054610e5190613fcb565b80601f0160208091040260200160405190810160405280929190818152602001828054610e7d90613fcb565b8015610eca5780601f10610e9f57610100808354040283529160200191610eca565b820191906000526020600020905b815481529060010190602001808311610ead57829003601f168201915b5050509183525050600491909101546001600160a01b03166020918201529082526040805160a08101909152600684018054939092019290919082908290610f1190613fcb565b80601f0160208091040260200160405190810160405280929190818152602001828054610f3d90613fcb565b8015610f8a5780601f10610f5f57610100808354040283529160200191610f8a565b820191906000526020600020905b815481529060010190602001808311610f6d57829003601f168201915b50505050508152602001600182018054610fa390613fcb565b80601f0160208091040260200160405190810160405280929190818152602001828054610fcf90613fcb565b801561101c5780601f10610ff15761010080835404028352916020019161101c565b820191906000526020600020905b815481529060010190602001808311610fff57829003601f168201915b5050505050815260200160028201805461103590613fcb565b80601f016020809104026020016040519081016040528092919081815260200182805461106190613fcb565b80156110ae5780601f10611083576101008083540402835291602001916110ae565b820191906000526020600020905b81548152906001019060200180831161109157829003601f168201915b505050505081526020016003820180546110c790613fcb565b80601f01602080910402602001604051908101604052809291908181526020018280546110f390613fcb565b80156111405780601f1061111557610100808354040283529160200191611140565b820191906000526020600020905b81548152906001019060200180831161112357829003601f168201915b5050509183525050600491909101546001600160a01b0316602091820152908252600b83015491019060ff16600381111561117d5761117d613c0a565b600381111561118e5761118e613c0a565b8152602001600c8201548152602001600d8201548152602001600e820180546111b690613fcb565b80601f01602080910402602001604051908101604052809291908181526020018280546111e290613fcb565b801561122f5780601f106112045761010080835404028352916020019161122f565b820191906000526020600020905b81548152906001019060200180831161121257829003601f168201915b505050505081525050905090565b61124561301a565b6007546009546040516001600160a01b039092169181156108fc0291906000818181858888f19350505050158015611281573d6000803e3d6000fd5b506000600955565b6000818152600260205260408120546001600160a01b0316806106d75760405162461bcd60e51b8152602060048201526018602482015277115490cdcc8c4e881a5b9d985b1a59081d1bdad95b88125160421b6044820152606401610820565b6112f1612fc7565b600082600381111561130557611305613c0a565b14801561132457506000838152600c602052604090206003015460ff16155b8061135d5750600082600381111561133e5761133e613c0a565b1415801561135d57506000838152600c602052604090206003015460ff165b6113935760405162461bcd60e51b8152602060048201526007602482015266125b9d985b1a5960ca1b6044820152606401610820565b6298968060008360038111156113ab576113ab613c0a565b14806113c8575060018360038111156113c6576113c6613c0a565b145b156113f5576113d96103e883614237565b6113e490600161424b565b6113ee908261426a565b9050611462565b600283600381111561140957611409613c0a565b036114255761141a6103e883614237565b6113e490600561424b565b600383600381111561143957611439613c0a565b036114625761144a6103e883614237565b61145590600861424b565b61145f908261426a565b90505b6000600c60008681526020019081526020016000206040518060a001604052908160008201548152602001600182015481526020016002820180546114a690613fcb565b80601f01602080910402602001604051908101604052809291908181526020018280546114d290613fcb565b801561151f5780601f106114f45761010080835404028352916020019161151f565b820191906000526020600020905b81548152906001019060200180831161150257829003601f168201915b5050509183525050600382015460ff161515602082015260048201805460409092019161154b90613fcb565b80601f016020809104026020016040519081016040528092919081815260200182805461157790613fcb565b80156115c45780601f10611599576101008083540402835291602001916115c4565b820191906000526020600020905b8154815290600101906020018083116115a757829003601f168201915b5050505050815250509050600060038111156115e2576115e2613c0a565b8460038111156115f4576115f4613c0a565b0361173b57608081015160405163378f8c5360e01b815260009173__HeptaSign_____________________________9163378f8c5391611638918c90600401614282565b602060405180830381865af4158015611655573d6000803e3d6000fd5b505050506040513d601f19601f8201168201806040525081019061167991906142ac565b9050806116ba5760405162461bcd60e51b815260206004820152600f60248201526e29b4b3b730ba3ab9329022b93937b960891b6044820152606401610820565b6060820151156116f65760405162461bcd60e51b8152602060048201526007602482015266125b9d985b1a5960ca1b6044820152606401610820565b6117008887613074565b61170e86836040015161308e565b611719888888612e2b565b506000858152600c60205260409020600301805460ff19166001179055611881565b6000858152600d60205260408082209051631fad709360e21b815273__HeptaSign_____________________________91637eb5c24c9161178491600e01908c906004016142c9565b602060405180830381865af41580156117a1573d6000803e3d6000fd5b505050506040513d601f19601f820116820180604052508101906117c591906142ac565b90508061182a5760405162461bcd60e51b815260206004820152602d60248201527f54686520676976656e2053656c6c6572206973206e6f7420746865206f776e6560448201526c1c881bd9881d1a19481b185b99609a1b6064820152608401610820565b81606001516118745760405162461bcd60e51b815260206004820152601660248201527524b73b30b634b21029b0b6329021b7b73234ba34b7b760511b6044820152606401610820565b61187f888888612e2b565b505b60408051606088901b6bffffffffffffffffffffffff191660208201528151601481830301815260348201928390526389c19ddb60e01b90925260009173__HeptaSign_____________________________916389c19ddb916118e691603801614363565b600060405180830381865af4158015611903573d6000803e3d6000fd5b505050506040513d6000823e601f3d908101601f1916820160405261192b91908101906141b3565b90506040518060e00160405280878152602001600b60008b6001600160a01b03166001600160a01b031681526020019081526020016000206040518060a001604052908160008201805461197e90613fcb565b80601f01602080910402602001604051908101604052809291908181526020018280546119aa90613fcb565b80156119f75780601f106119cc576101008083540402835291602001916119f7565b820191906000526020600020905b8154815290600101906020018083116119da57829003601f168201915b50505050508152602001600182018054611a1090613fcb565b80601f0160208091040260200160405190810160405280929190818152602001828054611a3c90613fcb565b8015611a895780601f10611a5e57610100808354040283529160200191611a89565b820191906000526020600020905b815481529060010190602001808311611a6c57829003601f168201915b50505050508152602001600282018054611aa290613fcb565b80601f0160208091040260200160405190810160405280929190818152602001828054611ace90613fcb565b8015611b1b5780601f10611af057610100808354040283529160200191611b1b565b820191906000526020600020905b815481529060010190602001808311611afe57829003601f168201915b50505050508152602001600382018054611b3490613fcb565b80601f0160208091040260200160405190810160405280929190818152602001828054611b6090613fcb565b8015611bad5780601f10611b8257610100808354040283529160200191611bad565b820191906000526020600020905b815481529060010190602001808311611b9057829003601f168201915b5050509183525050600491909101546001600160a01b03908116602092830152918352908a166000908152600b8252604090819020815160a081019092528054939092019290919082908290611c0290613fcb565b80601f0160208091040260200160405190810160405280929190818152602001828054611c2e90613fcb565b8015611c7b5780601f10611c5057610100808354040283529160200191611c7b565b820191906000526020600020905b815481529060010190602001808311611c5e57829003601f168201915b50505050508152602001600182018054611c9490613fcb565b80601f0160208091040260200160405190810160405280929190818152602001828054611cc090613fcb565b8015611d0d5780601f10611ce257610100808354040283529160200191611d0d565b820191906000526020600020905b815481529060010190602001808311611cf057829003601f168201915b50505050508152602001600282018054611d2690613fcb565b80601f0160208091040260200160405190810160405280929190818152602001828054611d5290613fcb565b8015611d9f5780601f10611d7457610100808354040283529160200191611d9f565b820191906000526020600020905b815481529060010190602001808311611d8257829003601f168201915b50505050508152602001600382018054611db890613fcb565b80601f0160208091040260200160405190810160405280929190818152602001828054611de490613fcb565b8015611e315780601f10611e0657610100808354040283529160200191611e31565b820191906000526020600020905b815481529060010190602001808311611e1457829003601f168201915b5050509183525050600491909101546001600160a01b031660209182015290825201866003811115611e6557611e65613c0a565b81526020808201879052604080830187905260609092018490526000898152600d8252919091208251815590820151805160018301908190611ea79082614053565b5060208201516001820190611ebc9082614053565b5060408201516002820190611ed19082614053565b5060608201516003820190611ee69082614053565b5060809190910151600490910180546001600160a01b0319166001600160a01b039092169190911790556040820151805160068301908190611f289082614053565b5060208201516001820190611f3d9082614053565b5060408201516002820190611f529082614053565b5060608201516003820190611f679082614053565b5060809190910151600490910180546001600160a01b0319166001600160a01b039092169190911790556060820151600b8201805460ff19166001836003811115611fb457611fb4613c0a565b02179055506080820151600c82015560a0820151600d82015560c0820151600e820190611fe19082614053565b5060009150611fed9050565b856003811115611fff57611fff613c0a565b03612034576001600160a01b0387166000908152600e602090815260408220805460018101825590835291200186905561210d565b60005b6001600160a01b0389166000908152600e60205260409020548110156120e0576001600160a01b0389166000908152600e60205260409020805488919083908110612084576120846143a1565b9060005260206000200154036120ce576001600160a01b0389166000908152600e602052604090208054829081106120be576120be6143a1565b60009182526020822001556120e0565b6120d981600161426a565b9050612037565b506001600160a01b0387166000908152600e60209081526040822080546001810182559083529120018690555b826009600082825461211f919061426a565b90915550505050505050505050565b600061213861301a565b5060095490565b60006001600160a01b0382166121a95760405162461bcd60e51b815260206004820152602960248201527f4552433732313a2061646472657373207a65726f206973206e6f7420612076616044820152683634b21037bbb732b960b91b6064820152608401610820565b506001600160a01b031660009081526003602052604090205490565b6121cd61301a565b6121d76000613121565b565b60606001805461070290613fcb565b600f6020526000908152604090208054819061220390613fcb565b80601f016020809104026020016040519081016040528092919081815260200182805461222f90613fcb565b801561227c5780601f106122515761010080835404028352916020019161227c565b820191906000526020600020905b81548152906001019060200180831161225f57829003601f168201915b5050506001909301549192505060ff1682565b61229a338383613173565b5050565b600b602052600090815260409020805481906122b990613fcb565b80601f01602080910402602001604051908101604052809291908181526020018280546122e590613fcb565b80156123325780601f1061230757610100808354040283529160200191612332565b820191906000526020600020905b81548152906001019060200180831161231557829003601f168201915b50505050509080600101805461234790613fcb565b80601f016020809104026020016040519081016040528092919081815260200182805461237390613fcb565b80156123c05780601f10612395576101008083540402835291602001916123c0565b820191906000526020600020905b8154815290600101906020018083116123a357829003601f168201915b5050505050908060020180546123d590613fcb565b80601f016020809104026020016040519081016040528092919081815260200182805461240190613fcb565b801561244e5780601f106124235761010080835404028352916020019161244e565b820191906000526020600020905b81548152906001019060200180831161243157829003601f168201915b50505050509080600301805461246390613fcb565b80601f016020809104026020016040519081016040528092919081815260200182805461248f90613fcb565b80156124dc5780601f106124b1576101008083540402835291602001916124dc565b820191906000526020600020905b8154815290600101906020018083116124bf57829003601f168201915b505050600490930154919250506001600160a01b031685565b600e602052816000526040600020818154811061251157600080fd5b90600052602060002001600091509150505481565b6125303383612dac565b61254c5760405162461bcd60e51b81526004016108209061412c565b61255884848484613241565b50505050565b60606106d782613274565b61257161301a565b61257b8383613074565b6108c1828261308e565b600c60205260009081526040902080546001820154600283018054929391926125ad90613fcb565b80601f01602080910402602001604051908101604052809291908181526020018280546125d990613fcb565b80156126265780601f106125fb57610100808354040283529160200191612626565b820191906000526020600020905b81548152906001019060200180831161260957829003601f168201915b5050506003840154600485018054949560ff90921694919350915061264a90613fcb565b80601f016020809104026020016040519081016040528092919081815260200182805461267690613fcb565b80156126c35780601f10612698576101008083540402835291602001916126c3565b820191906000526020600020905b8154815290600101906020018083116126a657829003601f168201915b5050505050905085565b600d60205260009081526040908190208054825160a08101909352600182018054919391829082906126fe90613fcb565b80601f016020809104026020016040519081016040528092919081815260200182805461272a90613fcb565b80156127775780601f1061274c57610100808354040283529160200191612777565b820191906000526020600020905b81548152906001019060200180831161275a57829003601f168201915b5050505050815260200160018201805461279090613fcb565b80601f01602080910402602001604051908101604052809291908181526020018280546127bc90613fcb565b80156128095780601f106127de57610100808354040283529160200191612809565b820191906000526020600020905b8154815290600101906020018083116127ec57829003601f168201915b5050505050815260200160028201805461282290613fcb565b80601f016020809104026020016040519081016040528092919081815260200182805461284e90613fcb565b801561289b5780601f106128705761010080835404028352916020019161289b565b820191906000526020600020905b81548152906001019060200180831161287e57829003601f168201915b505050505081526020016003820180546128b490613fcb565b80601f01602080910402602001604051908101604052809291908181526020018280546128e090613fcb565b801561292d5780601f106129025761010080835404028352916020019161292d565b820191906000526020600020905b81548152906001019060200180831161291057829003601f168201915b5050509183525050600491909101546001600160a01b03166020909101526040805160a081019091526006830180549293928290829061296c90613fcb565b80601f016020809104026020016040519081016040528092919081815260200182805461299890613fcb565b80156129e55780601f106129ba576101008083540402835291602001916129e5565b820191906000526020600020905b8154815290600101906020018083116129c857829003601f168201915b505050505081526020016001820180546129fe90613fcb565b80601f0160208091040260200160405190810160405280929190818152602001828054612a2a90613fcb565b8015612a775780601f10612a4c57610100808354040283529160200191612a77565b820191906000526020600020905b815481529060010190602001808311612a5a57829003601f168201915b50505050508152602001600282018054612a9090613fcb565b80601f0160208091040260200160405190810160405280929190818152602001828054612abc90613fcb565b8015612b095780601f10612ade57610100808354040283529160200191612b09565b820191906000526020600020905b815481529060010190602001808311612aec57829003601f168201915b50505050508152602001600382018054612b2290613fcb565b80601f0160208091040260200160405190810160405280929190818152602001828054612b4e90613fcb565b8015612b9b5780601f10612b7057610100808354040283529160200191612b9b565b820191906000526020600020905b815481529060010190602001808311612b7e57829003601f168201915b5050509183525050600491909101546001600160a01b0316602090910152600b820154600c830154600d840154600e85018054949560ff9094169492939192612be390613fcb565b80601f0160208091040260200160405190810160405280929190818152602001828054612c0f90613fcb565b8015612c5c5780601f10612c3157610100808354040283529160200191612c5c565b820191906000526020600020905b815481529060010190602001808311612c3f57829003601f168201915b5050505050905087565b612c6e61301a565b6001600160a01b038116612cd35760405162461bcd60e51b815260206004820152602660248201527f4f776e61626c653a206e6577206f776e657220697320746865207a65726f206160448201526564647265737360d01b6064820152608401610820565b612cdc81613121565b50565b6000818152600260205260409020546001600160a01b0316612cdc5760405162461bcd60e51b8152602060048201526018602482015277115490cdcc8c4e881a5b9d985b1a59081d1bdad95b88125160421b6044820152606401610820565b600081815260046020526040902080546001600160a01b0319166001600160a01b0384169081179091558190612d7382611289565b6001600160a01b03167f8c5be1e5ebec7d5bd14f71427d1e84f3dd0314c0f7b2291e5b200ac8c7c3b92560405160405180910390a45050565b600080612db883611289565b9050806001600160a01b0316846001600160a01b03161480612dff57506001600160a01b0380821660009081526005602090815260408083209388168352929052205460ff165b80612e235750836001600160a01b0316612e1884610785565b6001600160a01b0316145b949350505050565b826001600160a01b0316612e3e82611289565b6001600160a01b031614612ea25760405162461bcd60e51b815260206004820152602560248201527f4552433732313a207472616e736665722066726f6d20696e636f72726563742060448201526437bbb732b960d91b6064820152608401610820565b6001600160a01b038216612f045760405162461bcd60e51b8152602060048201526024808201527f4552433732313a207472616e7366657220746f20746865207a65726f206164646044820152637265737360e01b6064820152608401610820565b612f0f600082612d3e565b6001600160a01b0383166000908152600360205260408120805460019290612f38908490613fb4565b90915550506001600160a01b0382166000908152600360205260408120805460019290612f6690849061426a565b909155505060008181526002602052604080822080546001600160a01b0319166001600160a01b0386811691821790925591518493918716917fddf252ad1be2c89b69c2b068fc378daa952ba7f163c4a11628f55a4df523b3ef91a4505050565b336000908152600f602052604090206001015460ff166121d75760405162461bcd60e51b815260206004820152600e60248201526d4f6e6c79204578656375746f727360901b6044820152606401610820565b6007546001600160a01b031633146121d75760405162461bcd60e51b815260206004820181905260248201527f4f776e61626c653a2063616c6c6572206973206e6f7420746865206f776e65726044820152606401610820565b61229a82826040518060200160405280600081525061337c565b6000828152600260205260409020546001600160a01b03166131095760405162461bcd60e51b815260206004820152602e60248201527f45524337323155524953746f726167653a2055524920736574206f66206e6f6e60448201526d32bc34b9ba32b73a103a37b5b2b760911b6064820152608401610820565b60008281526006602052604090206108c18282614053565b600780546001600160a01b038381166001600160a01b0319831681179093556040519116919082907f8be0079c531659141344cd1fd0a4f28419497f9722a3daafe3b4186f6b6457e090600090a35050565b816001600160a01b0316836001600160a01b0316036131d45760405162461bcd60e51b815260206004820152601960248201527f4552433732313a20617070726f766520746f2063616c6c6572000000000000006044820152606401610820565b6001600160a01b03838116600081815260056020908152604080832094871680845294825291829020805460ff191686151590811790915591519182527f17307eab39ab6107e8899845ad3d59bd9653f200f220920489ca2b5937696c31910160405180910390a3505050565b61324c848484612e2b565b613258848484846133af565b6125585760405162461bcd60e51b8152600401610820906143b7565b606061327f82612cdf565b6000828152600660205260408120805461329890613fcb565b80601f01602080910402602001604051908101604052809291908181526020018280546132c490613fcb565b80156133115780601f106132e657610100808354040283529160200191613311565b820191906000526020600020905b8154815290600101906020018083116132f457829003601f168201915b50505050509050600061332f60408051602081019091526000815290565b90508051600003613341575092915050565b81511561337357808260405160200161335b929190614409565b60405160208183030381529060405292505050919050565b612e23846134b0565b6133868383613523565b61339360008484846133af565b6108c15760405162461bcd60e51b8152600401610820906143b7565b60006001600160a01b0384163b156134a557604051630a85bd0160e11b81526001600160a01b0385169063150b7a02906133f3903390899088908890600401614438565b6020604051808303816000875af192505050801561342e575060408051601f3d908101601f1916820190925261342b91810190614475565b60015b61348b573d80801561345c576040519150601f19603f3d011682016040523d82523d6000602084013e613461565b606091505b5080516000036134835760405162461bcd60e51b8152600401610820906143b7565b805181602001fd5b6001600160e01b031916630a85bd0160e11b149050612e23565b506001949350505050565b60606134bb82612cdf565b60006134d260408051602081019091526000815290565b905060008151116134f25760405180602001604052806000815250610b26565b806134fc84613665565b60405160200161350d929190614409565b6040516020818303038152906040529392505050565b6001600160a01b0382166135795760405162461bcd60e51b815260206004820181905260248201527f4552433732313a206d696e7420746f20746865207a65726f20616464726573736044820152606401610820565b6000818152600260205260409020546001600160a01b0316156135de5760405162461bcd60e51b815260206004820152601c60248201527f4552433732313a20746f6b656e20616c7265616479206d696e746564000000006044820152606401610820565b6001600160a01b038216600090815260036020526040812080546001929061360790849061426a565b909155505060008181526002602052604080822080546001600160a01b0319166001600160a01b03861690811790915590518392907fddf252ad1be2c89b69c2b068fc378daa952ba7f163c4a11628f55a4df523b3ef908290a45050565b60608160000361368c5750506040805180820190915260018152600360fc1b602082015290565b8160005b81156136b657806136a081614113565b91506136af9050600a83614237565b9150613690565b60008167ffffffffffffffff8111156136d1576136d16138df565b6040519080825280601f01601f1916602001820160405280156136fb576020820181803683370190505b5090505b8415612e2357613710600183613fb4565b915061371d600a86614492565b61372890603061426a565b60f81b81838151811061373d5761373d6143a1565b60200101906001600160f81b031916908160001a90535061375f600a86614237565b94506136ff565b6040518060e00160405280600081526020016137806137af565b815260200161378d6137af565b8152602001600081526020016000815260200160008152602001606081525090565b6040518060a001604052806060815260200160608152602001606081526020016060815260200160006001600160a01b031681525090565b6001600160e01b031981168114612cdc57600080fd5b60006020828403121561380f57600080fd5b8135610b26816137e7565b60005b8381101561383557818101518382015260200161381d565b838111156125585750506000910152565b6000815180845261385e81602086016020860161381a565b601f01601f19169290920160200192915050565b602081526000610b266020830184613846565b60006020828403121561389757600080fd5b5035919050565b80356001600160a01b0381168114610c4057600080fd5b600080604083850312156138c857600080fd5b6138d18361389e565b946020939093013593505050565b634e487b7160e01b600052604160045260246000fd5b604051601f8201601f1916810167ffffffffffffffff8111828210171561391e5761391e6138df565b604052919050565b600067ffffffffffffffff821115613940576139406138df565b50601f01601f191660200190565b600061396161395c84613926565b6138f5565b905082815283838301111561397557600080fd5b828260208301376000602084830101529392505050565b600082601f83011261399d57600080fd5b610b268383356020850161394e565b600080600080608085870312156139c257600080fd5b843567ffffffffffffffff808211156139da57600080fd5b6139e68883890161398c565b955060208701359150808211156139fc57600080fd5b613a088883890161398c565b94506040870135915080821115613a1e57600080fd5b613a2a8883890161398c565b93506060870135915080821115613a4057600080fd5b50613a4d8782880161398c565b91505092959194509250565b600080600060608486031215613a6e57600080fd5b613a778461389e565b9250613a856020850161389e565b9150604084013590509250925092565b600080600060608486031215613aaa57600080fd5b833567ffffffffffffffff811115613ac157600080fd5b613acd8682870161398c565b935050613a856020850161389e565b60008060408385031215613aef57600080fd5b823567ffffffffffffffff811115613b0657600080fd5b613b128582860161398c565b925050613b216020840161389e565b90509250929050565b600060208284031215613b3c57600080fd5b610b268261389e565b6020808252825182820181905260009190848201906040850190845b81811015613b7d57835183529284019291840191600101613b61565b50909695505050505050565b6000815160a08452613b9e60a0850182613846565b905060208301518482036020860152613bb78282613846565b91505060408301518482036040860152613bd18282613846565b91505060608301518482036060860152613beb8282613846565b6080948501516001600160a01b03169590940194909452509092915050565b634e487b7160e01b600052602160045260246000fd5b60048110613c3e57634e487b7160e01b600052602160045260246000fd5b9052565b60208152815160208201526000602083015160e06040840152613c69610100840182613b89565b90506040840151601f1980858403016060860152613c878383613b89565b925060608601519150613c9d6080860183613c20565b608086015160a086015260a086015160c086015260c08601519150808584030160e086015250613ccd8282613846565b95945050505050565b600080600080600060a08688031215613cee57600080fd5b613cf78661389e565b9450613d056020870161389e565b935060408601359250606086013560048110613d2057600080fd5b949793965091946080013592915050565b604081526000613d446040830185613846565b905082151560208301529392505050565b8015158114612cdc57600080fd5b60008060408385031215613d7657600080fd5b613d7f8361389e565b91506020830135613d8f81613d55565b809150509250929050565b60a081526000613dad60a0830188613846565b8281036020840152613dbf8188613846565b90508281036040840152613dd38187613846565b90508281036060840152613de78186613846565b91505060018060a01b03831660808301529695505050505050565b60008060008060808587031215613e1857600080fd5b613e218561389e565b9350613e2f6020860161389e565b925060408501359150606085013567ffffffffffffffff811115613e5257600080fd5b8501601f81018713613e6357600080fd5b613a4d8782356020840161394e565b600080600060608486031215613e8757600080fd5b613e908461389e565b925060208401359150604084013567ffffffffffffffff811115613eb357600080fd5b613ebf8682870161398c565b9150509250925092565b85815284602082015260a060408201526000613ee860a0830186613846565b84151560608401528281036080840152613f028185613846565b98975050505050505050565b60008060408385031215613f2157600080fd5b613f2a8361389e565b9150613b216020840161389e565b87815260e060208201526000613f5160e0830189613b89565b8281036040840152613f638189613b89565b9050613f726060840188613c20565b8560808401528460a084015282810360c0840152613f908185613846565b9a9950505050505050505050565b634e487b7160e01b600052601160045260246000fd5b600082821015613fc657613fc6613f9e565b500390565b600181811c90821680613fdf57607f821691505b602082108103613fff57634e487b7160e01b600052602260045260246000fd5b50919050565b601f8211156108c157600081815260208120601f850160051c8101602086101561402c5750805b601f850160051c820191505b8181101561404b57828155600101614038565b505050505050565b815167ffffffffffffffff81111561406d5761406d6138df565b6140818161407b8454613fcb565b84614005565b602080601f8311600181146140b6576000841561409e5750858301515b600019600386901b1c1916600185901b17855561404b565b600085815260208120601f198616915b828110156140e5578886015182559484019460019091019084016140c6565b50858210156141035787850151600019600388901b60f8161c191681555b5050505050600190811b01905550565b60006001820161412557614125613f9e565b5060010190565b6020808252602e908201527f4552433732313a2063616c6c6572206973206e6f7420746f6b656e206f776e6560408201526d1c881b9bdc88185c1c1c9bdd995960921b606082015260800190565b60408152600061418d6040830184613846565b828103602084015260048152634253494760e01b60208201526040810191505092915050565b6000602082840312156141c557600080fd5b815167ffffffffffffffff8111156141dc57600080fd5b8201601f810184136141ed57600080fd5b80516141fb61395c82613926565b81815285602083850101111561421057600080fd5b613ccd82602083016020860161381a565b634e487b7160e01b600052601260045260246000fd5b60008261424657614246614221565b500490565b600081600019048311821515161561426557614265613f9e565b500290565b6000821982111561427d5761427d613f9e565b500190565b6040815260006142956040830185613846565b905060018060a01b03831660208301529392505050565b6000602082840312156142be57600080fd5b8151610b2681613d55565b6040815260008084546142db81613fcb565b80604086015260606001808416600081146142fd576001811461431757614348565b60ff1985168884015283151560051b880183019550614348565b8960005260208060002060005b8681101561433f5781548b8201870152908401908201614324565b8a018501975050505b505050506001600160a01b0385166020850152509050610b26565b6040815260006143766040830184613846565b828103602084015260098152684f574e45525f53494760b81b60208201526040810191505092915050565b634e487b7160e01b600052603260045260246000fd5b60208082526032908201527f4552433732313a207472616e7366657220746f206e6f6e20455243373231526560408201527131b2b4bb32b91034b6b83632b6b2b73a32b960711b606082015260800190565b6000835161441b81846020880161381a565b83519083019061442f81836020880161381a565b01949350505050565b6001600160a01b038581168252841660208201526040810183905260806060820181905260009061446b90830184613846565b9695505050505050565b60006020828403121561448757600080fd5b8151610b26816137e7565b6000826144a1576144a1614221565b50069056fea26469706673582212206d452bf7b526f36bfd12e8a779a60f0930435ebf5d7e73dcb84c85da9d3786b664736f6c634300080f0033",
  "bytecodeSha1": "fb916cd2e75d006fc5e2e1c228844d056b929c7d",
  "compiler": {
    "evm_version": "istanbul",
    "optimizer": {
      "enabled": true,
      "runs": 200
    },
    "version": "0.8.15+commit.e14f2714"
  },
  "contractName": "LandRegistry",
  "deployedBytecode": "6080604052600436106101ed5760003560e01c806368d3c5e51161010d578063a87430ba116100a0578063cd279c7c1161006f578063cd279c7c1461059e578063e261f1e5146105be578063e985e9c5146105ef578063ec52754d14610638578063f2fde38b1461066b57600080fd5b8063a87430ba1461050d578063b6f849911461053e578063b88d4fde1461055e578063c87b56dd1461057e57600080fd5b80638da5cb5b116100dc5780638da5cb5b1461048c57806395d89b41146104aa5780639ac2a011146104bf578063a22cb465146104ed57600080fd5b806368d3c5e5146104225780636f9fb98a1461044257806370a0823114610457578063715018a61461047757600080fd5b806323b872dd11610185578063519ea70511610154578063519ea705146103ab57806358688d52146103d85780635fd8c710146103fa5780636352211e1461040257600080fd5b806323b872dd1461032b5780633b5ee4d51461034b57806342842e0e1461036b57806349b69fc11461038b57600080fd5b806307bd0265116101c157806307bd02651461027d578063081812fc146102b1578063095ea7b3146102e95780630c1544831461030b57600080fd5b8062ce8e3e146101f257806301ffc9a71461021657806304c8a5251461024657806306fdde031461025b575b600080fd5b3480156101fe57600080fd5b50600a545b6040519081526020015b60405180910390f35b34801561022257600080fd5b506102366102313660046137fd565b61068b565b604051901515815260200161020d565b34801561025257600080fd5b506102036106dd565b34801561026757600080fd5b506102706106f3565b60405161020d9190613872565b34801561028957600080fd5b506102037f9cf85f95575c3af1e116e3d37fd41e7f36a8a373623f51ffaaa87fdd032fa76781565b3480156102bd57600080fd5b506102d16102cc366004613885565b610785565b6040516001600160a01b03909116815260200161020d565b3480156102f557600080fd5b506103096103043660046138b5565b6107ac565b005b34801561031757600080fd5b506103096103263660046139ac565b6108c6565b34801561033757600080fd5b50610309610346366004613a59565b610990565b34801561035757600080fd5b50610203610366366004613a95565b6109c1565b34801561037757600080fd5b50610309610386366004613a59565b610b2d565b34801561039757600080fd5b506103096103a6366004613adc565b610b48565b3480156103b757600080fd5b506103cb6103c6366004613b2a565b610bad565b60405161020d9190613b45565b3480156103e457600080fd5b506103ed610c19565b60405161020d9190613c42565b61030961123d565b34801561040e57600080fd5b506102d161041d366004613885565b611289565b34801561042e57600080fd5b5061030961043d366004613cd6565b6112e9565b34801561044e57600080fd5b5061020361212e565b34801561046357600080fd5b50610203610472366004613b2a565b61213f565b34801561048357600080fd5b506103096121c5565b34801561049857600080fd5b506007546001600160a01b03166102d1565b3480156104b657600080fd5b506102706121d9565b3480156104cb57600080fd5b506104df6104da366004613b2a565b6121e8565b60405161020d929190613d31565b3480156104f957600080fd5b50610309610508366004613d63565b61228f565b34801561051957600080fd5b5061052d610528366004613b2a565b61229e565b60405161020d959493929190613d9a565b34801561054a57600080fd5b506102036105593660046138b5565b6124f5565b34801561056a57600080fd5b50610309610579366004613e02565b612526565b34801561058a57600080fd5b50610270610599366004613885565b61255e565b3480156105aa57600080fd5b506103096105b9366004613e72565b612569565b3480156105ca57600080fd5b506105de6105d9366004613885565b612585565b60405161020d959493929190613ec9565b3480156105fb57600080fd5b5061023661060a366004613f0e565b6001600160a01b03918216600090815260056020908152604080832093909416825291909152205460ff1690565b34801561064457600080fd5b50610658610653366004613885565b6126cd565b60405161020d9796959493929190613f38565b34801561067757600080fd5b50610309610686366004613b2a565b612c66565b60006001600160e01b031982166380ac58cd60e01b14806106bc57506001600160e01b03198216635b5e139f60e01b145b806106d757506301ffc9a760e01b6001600160e01b03198316145b92915050565b600060016008546106ee9190613fb4565b905090565b60606000805461070290613fcb565b80601f016020809104026020016040519081016040528092919081815260200182805461072e90613fcb565b801561077b5780601f106107505761010080835404028352916020019161077b565b820191906000526020600020905b81548152906001019060200180831161075e57829003601f168201915b5050505050905090565b600061079082612cdf565b506000908152600460205260409020546001600160a01b031690565b60006107b782611289565b9050806001600160a01b0316836001600160a01b0316036108295760405162461bcd60e51b815260206004820152602160248201527f4552433732313a20617070726f76616c20746f2063757272656e74206f776e656044820152603960f91b60648201526084015b60405180910390fd5b336001600160a01b03821614806108455750610845813361060a565b6108b75760405162461bcd60e51b815260206004820152603e60248201527f4552433732313a20617070726f76652063616c6c6572206973206e6f7420746f60448201527f6b656e206f776e6572206e6f7220617070726f76656420666f7220616c6c00006064820152608401610820565b6108c18383612d3e565b505050565b6040805160a08101825285815260208082018590528183018690526060820184905233608083018190526000908152600b909152919091208151819061090c9082614053565b50602082015160018201906109219082614053565b50604082015160028201906109369082614053565b506060820151600382019061094b9082614053565b5060809190910151600490910180546001600160a01b0319166001600160a01b03909216919091179055600a805490600061098583614113565b919050555050505050565b61099a3382612dac565b6109b65760405162461bcd60e51b81526004016108209061412c565b6108c1838383612e2b565b60006109cb612fc7565b60408051606085901b6bffffffffffffffffffffffff191660208201528151601481830301815260348201928390526389c19ddb60e01b90925260009173__$c11ba5c65f01b076f5788c8463796ca5cb$__916389c19ddb91610a309160380161417a565b600060405180830381865af4158015610a4d573d6000803e3d6000fd5b505050506040513d6000823e601f3d908101601f19168201604052610a7591908101906141b3565b6040805160a08101825260085480825260208083018881528385018b815260006060860181905260808601889052938452600c90925293909120825181559251600184015551929350916002820190610ace9082614053565b50606082015160038201805460ff191691151591909117905560808201516004820190610afb9082614053565b50506008805491506000610b0e83614113565b91905055506001600854610b229190613fb4565b9150505b9392505050565b6108c183838360405180602001604052806000815250612526565b610b5061301a565b60408051808201825283815260016020808301919091526001600160a01b0384166000908152600f9091529190912081518190610b8d9082614053565b50602091909101516001909101805460ff19169115159190911790555050565b6001600160a01b0381166000908152600e6020908152604091829020805483518184028101840190945280845260609392830182828015610c0d57602002820191906000526020600020905b815481526020019060010190808311610bf9575b50505050509050919050565b610c21613766565b60006001600854610c329190613fb4565b1015610c4557610c40613766565b919050565b600d60006001600854610c589190613fb4565b81526020019081526020016000206040518060e001604052908160008201548152602001600182016040518060a0016040529081600082018054610c9b90613fcb565b80601f0160208091040260200160405190810160405280929190818152602001828054610cc790613fcb565b8015610d145780601f10610ce957610100808354040283529160200191610d14565b820191906000526020600020905b815481529060010190602001808311610cf757829003601f168201915b50505050508152602001600182018054610d2d90613fcb565b80601f0160208091040260200160405190810160405280929190818152602001828054610d5990613fcb565b8015610da65780601f10610d7b57610100808354040283529160200191610da6565b820191906000526020600020905b815481529060010190602001808311610d8957829003601f168201915b50505050508152602001600282018054610dbf90613fcb565b80601f0160208091040260200160405190810160405280929190818152602001828054610deb90613fcb565b8015610e385780601f10610e0d57610100808354040283529160200191610e38565b820191906000526020600020905b815481529060010190602001808311610e1b57829003601f168201915b50505050508152602001600382018054610e5190613fcb565b80601f0160208091040260200160405190810160405280929190818152602001828054610e7d90613fcb565b8015610eca5780601f10610e9f57610100808354040283529160200191610eca565b820191906000526020600020905b815481529060010190602001808311610ead57829003601f168201915b5050509183525050600491909101546001600160a01b03166020918201529082526040805160a08101909152600684018054939092019290919082908290610f1190613fcb565b80601f0160208091040260200160405190810160405280929190818152602001828054610f3d90613fcb565b8015610f8a5780601f10610f5f57610100808354040283529160200191610f8a565b820191906000526020600020905b815481529060010190602001808311610f6d57829003601f168201915b50505050508152602001600182018054610fa390613fcb565b80601f0160208091040260200160405190810160405280929190818152602001828054610fcf90613fcb565b801561101c5780601f10610ff15761010080835404028352916020019161101c565b820191906000526020600020905b815481529060010190602001808311610fff57829003601f168201915b5050505050815260200160028201805461103590613fcb565b80601f016020809104026020016040519081016040528092919081815260200182805461106190613fcb565b80156110ae5780601f10611083576101008083540402835291602001916110ae565b820191906000526020600020905b81548152906001019060200180831161109157829003601f168201915b505050505081526020016003820180546110c790613fcb565b80601f01602080910402602001604051908101604052809291908181526020018280546110f390613fcb565b80156111405780601f1061111557610100808354040283529160200191611140565b820191906000526020600020905b81548152906001019060200180831161112357829003601f168201915b5050509183525050600491909101546001600160a01b0316602091820152908252600b83015491019060ff16600381111561117d5761117d613c0a565b600381111561118e5761118e613c0a565b8152602001600c8201548152602001600d8201548152602001600e820180546111b690613fcb565b80601f01602080910402602001604051908101604052809291908181526020018280546111e290613fcb565b801561122f5780601f106112045761010080835404028352916020019161122f565b820191906000526020600020905b81548152906001019060200180831161121257829003601f168201915b505050505081525050905090565b61124561301a565b6007546009546040516001600160a01b039092169181156108fc0291906000818181858888f19350505050158015611281573d6000803e3d6000fd5b506000600955565b6000818152600260205260408120546001600160a01b0316806106d75760405162461bcd60e51b8152602060048201526018602482015277115490cdcc8c4e881a5b9d985b1a59081d1bdad95b88125160421b6044820152606401610820565b6112f1612fc7565b600082600381111561130557611305613c0a565b14801561132457506000838152600c602052604090206003015460ff16155b8061135d5750600082600381111561133e5761133e613c0a565b1415801561135d57506000838152600c602052604090206003015460ff165b6113935760405162461bcd60e51b8152602060048201526007602482015266125b9d985b1a5960ca1b6044820152606401610820565b6298968060008360038111156113ab576113ab613c0a565b14806113c8575060018360038111156113c6576113c6613c0a565b145b156113f5576113d96103e883614237565b6113e490600161424b565b6113ee908261426a565b9050611462565b600283600381111561140957611409613c0a565b036114255761141a6103e883614237565b6113e490600561424b565b600383600381111561143957611439613c0a565b036114625761144a6103e883614237565b61145590600861424b565b61145f908261426a565b90505b6000600c60008681526020019081526020016000206040518060a001604052908160008201548152602001600182015481526020016002820180546114a690613fcb565b80601f01602080910402602001604051908101604052809291908181526020018280546114d290613fcb565b801561151f5780601f106114f45761010080835404028352916020019161151f565b820191906000526020600020905b81548152906001019060200180831161150257829003601f168201915b5050509183525050600382015460ff161515602082015260048201805460409092019161154b90613fcb565b80601f016020809104026020016040519081016040528092919081815260200182805461157790613fcb565b80156115c45780601f10611599576101008083540402835291602001916115c4565b820191906000526020600020905b8154815290600101906020018083116115a757829003601f168201915b5050505050815250509050600060038111156115e2576115e2613c0a565b8460038111156115f4576115f4613c0a565b0361173b57608081015160405163378f8c5360e01b815260009173__$c11ba5c65f01b076f5788c8463796ca5cb$__9163378f8c5391611638918c90600401614282565b602060405180830381865af4158015611655573d6000803e3d6000fd5b505050506040513d601f19601f8201168201806040525081019061167991906142ac565b9050806116ba5760405162461bcd60e51b815260206004820152600f60248201526e29b4b3b730ba3ab9329022b93937b960891b6044820152606401610820565b6060820151156116f65760405162461bcd60e51b8152602060048201526007602482015266125b9d985b1a5960ca1b6044820152606401610820565b6117008887613074565b61170e86836040015161308e565b611719888888612e2b565b506000858152600c60205260409020600301805460ff19166001179055611881565b6000858152600d60205260408082209051631fad709360e21b815273__$c11ba5c65f01b076f5788c8463796ca5cb$__91637eb5c24c9161178491600e01908c906004016142c9565b602060405180830381865af41580156117a1573d6000803e3d6000fd5b505050506040513d601f19601f820116820180604052508101906117c591906142ac565b90508061182a5760405162461bcd60e51b815260206004820152602d60248201527f54686520676976656e2053656c6c6572206973206e6f7420746865206f776e6560448201526c1c881bd9881d1a19481b185b99609a1b6064820152608401610820565b81606001516118745760405162461bcd60e51b815260206004820152601660248201527524b73b30b634b21029b0b6329021b7b73234ba34b7b760511b6044820152606401610820565b61187f888888612e2b565b505b60408051606088901b6bffffffffffffffffffffffff191660208201528151601481830301815260348201928390526389c19ddb60e01b90925260009173__$c11ba5c65f01b076f5788c8463796ca5cb$__916389c19ddb916118e691603801614363565b600060405180830381865af4158015611903573d6000803e3d6000fd5b505050506040513d6000823e601f3d908101601f1916820160405261192b91908101906141b3565b90506040518060e00160405280878152602001600b60008b6001600160a01b03166001600160a01b031681526020019081526020016000206040518060a001604052908160008201805461197e90613fcb565b80601f01602080910402602001604051908101604052809291908181526020018280546119aa90613fcb565b80156119f75780601f106119cc576101008083540402835291602001916119f7565b820191906000526020600020905b8154815290600101906020018083116119da57829003601f168201915b50505050508152602001600182018054611a1090613fcb565b80601f0160208091040260200160405190810160405280929190818152602001828054611a3c90613fcb565b8015611a895780601f10611a5e57610100808354040283529160200191611a89565b820191906000526020600020905b815481529060010190602001808311611a6c57829003601f168201915b50505050508152602001600282018054611aa290613fcb565b80601f0160208091040260200160405190810160405280929190818152602001828054611ace90613fcb565b8015611b1b5780601f10611af057610100808354040283529160200191611b1b565b820191906000526020600020905b815481529060010190602001808311611afe57829003601f168201915b50505050508152602001600382018054611b3490613fcb565b80601f0160208091040260200160405190810160405280929190818152602001828054611b6090613fcb565b8015611bad5780601f10611b8257610100808354040283529160200191611bad565b820191906000526020600020905b815481529060010190602001808311611b9057829003601f168201915b5050509183525050600491909101546001600160a01b03908116602092830152918352908a166000908152600b8252604090819020815160a081019092528054939092019290919082908290611c0290613fcb565b80601f0160208091040260200160405190810160405280929190818152602001828054611c2e90613fcb565b8015611c7b5780601f10611c5057610100808354040283529160200191611c7b565b820191906000526020600020905b815481529060010190602001808311611c5e57829003601f168201915b50505050508152602001600182018054611c9490613fcb565b80601f0160208091040260200160405190810160405280929190818152602001828054611cc090613fcb565b8015611d0d5780601f10611ce257610100808354040283529160200191611d0d565b820191906000526020600020905b815481529060010190602001808311611cf057829003601f168201915b50505050508152602001600282018054611d2690613fcb565b80601f0160208091040260200160405190810160405280929190818152602001828054611d5290613fcb565b8015611d9f5780601f10611d7457610100808354040283529160200191611d9f565b820191906000526020600020905b815481529060010190602001808311611d8257829003601f168201915b50505050508152602001600382018054611db890613fcb565b80601f0160208091040260200160405190810160405280929190818152602001828054611de490613fcb565b8015611e315780601f10611e0657610100808354040283529160200191611e31565b820191906000526020600020905b815481529060010190602001808311611e1457829003601f168201915b5050509183525050600491909101546001600160a01b031660209182015290825201866003811115611e6557611e65613c0a565b81526020808201879052604080830187905260609092018490526000898152600d8252919091208251815590820151805160018301908190611ea79082614053565b5060208201516001820190611ebc9082614053565b5060408201516002820190611ed19082614053565b5060608201516003820190611ee69082614053565b5060809190910151600490910180546001600160a01b0319166001600160a01b039092169190911790556040820151805160068301908190611f289082614053565b5060208201516001820190611f3d9082614053565b5060408201516002820190611f529082614053565b5060608201516003820190611f679082614053565b5060809190910151600490910180546001600160a01b0319166001600160a01b039092169190911790556060820151600b8201805460ff19166001836003811115611fb457611fb4613c0a565b02179055506080820151600c82015560a0820151600d82015560c0820151600e820190611fe19082614053565b5060009150611fed9050565b856003811115611fff57611fff613c0a565b03612034576001600160a01b0387166000908152600e602090815260408220805460018101825590835291200186905561210d565b60005b6001600160a01b0389166000908152600e60205260409020548110156120e0576001600160a01b0389166000908152600e60205260409020805488919083908110612084576120846143a1565b9060005260206000200154036120ce576001600160a01b0389166000908152600e602052604090208054829081106120be576120be6143a1565b60009182526020822001556120e0565b6120d981600161426a565b9050612037565b506001600160a01b0387166000908152600e60209081526040822080546001810182559083529120018690555b826009600082825461211f919061426a565b90915550505050505050505050565b600061213861301a565b5060095490565b60006001600160a01b0382166121a95760405162461bcd60e51b815260206004820152602960248201527f4552433732313a2061646472657373207a65726f206973206e6f7420612076616044820152683634b21037bbb732b960b91b6064820152608401610820565b506001600160a01b031660009081526003602052604090205490565b6121cd61301a565b6121d76000613121565b565b60606001805461070290613fcb565b600f6020526000908152604090208054819061220390613fcb565b80601f016020809104026020016040519081016040528092919081815260200182805461222f90613fcb565b801561227c5780601f106122515761010080835404028352916020019161227c565b820191906000526020600020905b81548152906001019060200180831161225f57829003601f168201915b5050506001909301549192505060ff1682565b61229a338383613173565b5050565b600b602052600090815260409020805481906122b990613fcb565b80601f01602080910402602001604051908101604052809291908181526020018280546122e590613fcb565b80156123325780601f1061230757610100808354040283529160200191612332565b820191906000526020600020905b81548152906001019060200180831161231557829003601f168201915b50505050509080600101805461234790613fcb565b80601f016020809104026020016040519081016040528092919081815260200182805461237390613fcb565b80156123c05780601f10612395576101008083540402835291602001916123c0565b820191906000526020600020905b8154815290600101906020018083116123a357829003601f168201915b5050505050908060020180546123d590613fcb565b80601f016020809104026020016040519081016040528092919081815260200182805461240190613fcb565b801561244e5780601f106124235761010080835404028352916020019161244e565b820191906000526020600020905b81548152906001019060200180831161243157829003601f168201915b50505050509080600301805461246390613fcb565b80601f016020809104026020016040519081016040528092919081815260200182805461248f90613fcb565b80156124dc5780601f106124b1576101008083540402835291602001916124dc565b820191906000526020600020905b8154815290600101906020018083116124bf57829003601f168201915b505050600490930154919250506001600160a01b031685565b600e602052816000526040600020818154811061251157600080fd5b90600052602060002001600091509150505481565b6125303383612dac565b61254c5760405162461bcd60e51b81526004016108209061412c565b61255884848484613241565b50505050565b60606106d782613274565b61257161301a565b61257b8383613074565b6108c1828261308e565b600c60205260009081526040902080546001820154600283018054929391926125ad90613fcb565b80601f01602080910402602001604051908101604052809291908181526020018280546125d990613fcb565b80156126265780601f106125fb57610100808354040283529160200191612626565b820191906000526020600020905b81548152906001019060200180831161260957829003601f168201915b5050506003840154600485018054949560ff90921694919350915061264a90613fcb565b80601f016020809104026020016040519081016040528092919081815260200182805461267690613fcb565b80156126c35780601f10612698576101008083540402835291602001916126c3565b820191906000526020600020905b8154815290600101906020018083116126a657829003601f168201915b5050505050905085565b600d60205260009081526040908190208054825160a08101909352600182018054919391829082906126fe90613fcb565b80601f016020809104026020016040519081016040528092919081815260200182805461272a90613fcb565b80156127775780601f1061274c57610100808354040283529160200191612777565b820191906000526020600020905b81548152906001019060200180831161275a57829003601f168201915b5050505050815260200160018201805461279090613fcb565b80601f01602080910402602001604051908101604052809291908181526020018280546127bc90613fcb565b80156128095780601f106127de57610100808354040283529160200191612809565b820191906000526020600020905b8154815290600101906020018083116127ec57829003601f168201915b5050505050815260200160028201805461282290613fcb565b80601f016020809104026020016040519081016040528092919081815260200182805461284e90613fcb565b801561289b5780601f106128705761010080835404028352916020019161289b565b820191906000526020600020905b81548152906001019060200180831161287e57829003601f168201915b505050505081526020016003820180546128b490613fcb565b80601f01602080910402602001604051908101604052809291908181526020018280546128e090613fcb565b801561292d5780601f106129025761010080835404028352916020019161292d565b820191906000526020600020905b81548152906001019060200180831161291057829003601f168201915b5050509183525050600491909101546001600160a01b03166020909101526040805160a081019091526006830180549293928290829061296c90613fcb565b80601f016020809104026020016040519081016040528092919081815260200182805461299890613fcb565b80156129e55780601f106129ba576101008083540402835291602001916129e5565b820191906000526020600020905b8154815290600101906020018083116129c857829003601f168201915b505050505081526020016001820180546129fe90613fcb565b80601f0160208091040260200160405190810160405280929190818152602001828054612a2a90613fcb565b8015612a775780601f10612a4c57610100808354040283529160200191612a77565b820191906000526020600020905b815481529060010190602001808311612a5a57829003601f168201915b50505050508152602001600282018054612a9090613fcb565b80601f0160208091040260200160405190810160405280929190818152602001828054612abc90613fcb565b8015612b095780601f10612ade57610100808354040283529160200191612b09565b820191906000526020600020905b815481529060010190602001808311612aec57829003601f168201915b50505050508152602001600382018054612b2290613fcb565b80601f0160208091040260200160405190810160405280929190818152602001828054612b4e90613fcb565b8015612b9b5780601f10612b7057610100808354040283529160200191612b9b565b820191906000526020600020905b815481529060010190602001808311612b7e57829003601f168201915b5050509183525050600491909101546001600160a01b0316602090910152600b820154600c830154600d840154600e85018054949560ff9094169492939192612be390613fcb565b80601f0160208091040260200160405190810160405280929190818152602001828054612c0f90613fcb565b8015612c5c5780601f10612c3157610100808354040283529160200191612c5c565b820191906000526020600020905b815481529060010190602001808311612c3f57829003601f168201915b5050505050905087565b612c6e61301a565b6001600160a01b038116612cd35760405162461bcd60e51b815260206004820152602660248201527f4f776e61626c653a206e6577206f776e657220697320746865207a65726f206160448201526564647265737360d01b6064820152608401610820565b612cdc81613121565b50565b6000818152600260205260409020546001600160a01b0316612cdc5760405162461bcd60e51b8152602060048201526018602482015277115490cdcc8c4e881a5b9d985b1a59081d1bdad95b88125160421b6044820152606401610820565b600081815260046020526040902080546001600160a01b0319166001600160a01b0384169081179091558190612d7382611289565b6001600160a01b03167f8c5be1e5ebec7d5bd14f71427d1e84f3dd0314c0f7b2291e5b200ac8c7c3b92560405160405180910390a45050565b600080612db883611289565b9050806001600160a01b0316846001600160a01b03161480612dff57506001600160a01b0380821660009081526005602090815260408083209388168352929052205460ff165b80612e235750836001600160a01b0316612e1884610785565b6001600160a01b0316145b949350505050565b826001600160a01b0316612e3e82611289565b6001600160a01b031614612ea25760405162461bcd60e51b815260206004820152602560248201527f4552433732313a207472616e736665722066726f6d20696e636f72726563742060448201526437bbb732b960d91b6064820152608401610820565b6001600160a01b038216612f045760405162461bcd60e51b8152602060048201526024808201527f4552433732313a207472616e7366657220746f20746865207a65726f206164646044820152637265737360e01b6064820152608401610820565b612f0f600082612d3e565b6001600160a01b0383166000908152600360205260408120805460019290612f38908490613fb4565b90915550506001600160a01b0382166000908152600360205260408120805460019290612f6690849061426a565b909155505060008181526002602052604080822080546001600160a01b0319166001600160a01b0386811691821790925591518493918716917fddf252ad1be2c89b69c2b068fc378daa952ba7f163c4a11628f55a4df523b3ef91a4505050565b336000908152600f602052604090206001015460ff166121d75760405162461bcd60e51b815260206004820152600e60248201526d4f6e6c79204578656375746f727360901b6044820152606401610820565b6007546001600160a01b031633146121d75760405162461bcd60e51b815260206004820181905260248201527f4f776e61626c653a2063616c6c6572206973206e6f7420746865206f776e65726044820152606401610820565b61229a82826040518060200160405280600081525061337c565b6000828152600260205260409020546001600160a01b03166131095760405162461bcd60e51b815260206004820152602e60248201527f45524337323155524953746f726167653a2055524920736574206f66206e6f6e60448201526d32bc34b9ba32b73a103a37b5b2b760911b6064820152608401610820565b60008281526006602052604090206108c18282614053565b600780546001600160a01b038381166001600160a01b0319831681179093556040519116919082907f8be0079c531659141344cd1fd0a4f28419497f9722a3daafe3b4186f6b6457e090600090a35050565b816001600160a01b0316836001600160a01b0316036131d45760405162461bcd60e51b815260206004820152601960248201527f4552433732313a20617070726f766520746f2063616c6c6572000000000000006044820152606401610820565b6001600160a01b03838116600081815260056020908152604080832094871680845294825291829020805460ff191686151590811790915591519182527f17307eab39ab6107e8899845ad3d59bd9653f200f220920489ca2b5937696c31910160405180910390a3505050565b61324c848484612e2b565b613258848484846133af565b6125585760405162461bcd60e51b8152600401610820906143b7565b606061327f82612cdf565b6000828152600660205260408120805461329890613fcb565b80601f01602080910402602001604051908101604052809291908181526020018280546132c490613fcb565b80156133115780601f106132e657610100808354040283529160200191613311565b820191906000526020600020905b8154815290600101906020018083116132f457829003601f168201915b50505050509050600061332f60408051602081019091526000815290565b90508051600003613341575092915050565b81511561337357808260405160200161335b929190614409565b60405160208183030381529060405292505050919050565b612e23846134b0565b6133868383613523565b61339360008484846133af565b6108c15760405162461bcd60e51b8152600401610820906143b7565b60006001600160a01b0384163b156134a557604051630a85bd0160e11b81526001600160a01b0385169063150b7a02906133f3903390899088908890600401614438565b6020604051808303816000875af192505050801561342e575060408051601f3d908101601f1916820190925261342b91810190614475565b60015b61348b573d80801561345c576040519150601f19603f3d011682016040523d82523d6000602084013e613461565b606091505b5080516000036134835760405162461bcd60e51b8152600401610820906143b7565b805181602001fd5b6001600160e01b031916630a85bd0160e11b149050612e23565b506001949350505050565b60606134bb82612cdf565b60006134d260408051602081019091526000815290565b905060008151116134f25760405180602001604052806000815250610b26565b806134fc84613665565b60405160200161350d929190614409565b6040516020818303038152906040529392505050565b6001600160a01b0382166135795760405162461bcd60e51b815260206004820181905260248201527f4552433732313a206d696e7420746f20746865207a65726f20616464726573736044820152606401610820565b6000818152600260205260409020546001600160a01b0316156135de5760405162461bcd60e51b815260206004820152601c60248201527f4552433732313a20746f6b656e20616c7265616479206d696e746564000000006044820152606401610820565b6001600160a01b038216600090815260036020526040812080546001929061360790849061426a565b909155505060008181526002602052604080822080546001600160a01b0319166001600160a01b03861690811790915590518392907fddf252ad1be2c89b69c2b068fc378daa952ba7f163c4a11628f55a4df523b3ef908290a45050565b60608160000361368c5750506040805180820190915260018152600360fc1b602082015290565b8160005b81156136b657806136a081614113565b91506136af9050600a83614237565b9150613690565b60008167ffffffffffffffff8111156136d1576136d16138df565b6040519080825280601f01601f1916602001820160405280156136fb576020820181803683370190505b5090505b8415612e2357613710600183613fb4565b915061371d600a86614492565b61372890603061426a565b60f81b81838151811061373d5761373d6143a1565b60200101906001600160f81b031916908160001a90535061375f600a86614237565b94506136ff565b6040518060e00160405280600081526020016137806137af565b815260200161378d6137af565b8152602001600081526020016000815260200160008152602001606081525090565b6040518060a001604052806060815260200160608152602001606081526020016060815260200160006001600160a01b031681525090565b6001600160e01b031981168114612cdc57600080fd5b60006020828403121561380f57600080fd5b8135610b26816137e7565b60005b8381101561383557818101518382015260200161381d565b838111156125585750506000910152565b6000815180845261385e81602086016020860161381a565b601f01601f19169290920160200192915050565b602081526000610b266020830184613846565b60006020828403121561389757600080fd5b5035919050565b80356001600160a01b0381168114610c4057600080fd5b600080604083850312156138c857600080fd5b6138d18361389e565b946020939093013593505050565b634e487b7160e01b600052604160045260246000fd5b604051601f8201601f1916810167ffffffffffffffff8111828210171561391e5761391e6138df565b604052919050565b600067ffffffffffffffff821115613940576139406138df565b50601f01601f191660200190565b600061396161395c84613926565b6138f5565b905082815283838301111561397557600080fd5b828260208301376000602084830101529392505050565b600082601f83011261399d57600080fd5b610b268383356020850161394e565b600080600080608085870312156139c257600080fd5b843567ffffffffffffffff808211156139da57600080fd5b6139e68883890161398c565b955060208701359150808211156139fc57600080fd5b613a088883890161398c565b94506040870135915080821115613a1e57600080fd5b613a2a8883890161398c565b93506060870135915080821115613a4057600080fd5b50613a4d8782880161398c565b91505092959194509250565b600080600060608486031215613a6e57600080fd5b613a778461389e565b9250613a856020850161389e565b9150604084013590509250925092565b600080600060608486031215613aaa57600080fd5b833567ffffffffffffffff811115613ac157600080fd5b613acd8682870161398c565b935050613a856020850161389e565b60008060408385031215613aef57600080fd5b823567ffffffffffffffff811115613b0657600080fd5b613b128582860161398c565b925050613b216020840161389e565b90509250929050565b600060208284031215613b3c57600080fd5b610b268261389e565b6020808252825182820181905260009190848201906040850190845b81811015613b7d57835183529284019291840191600101613b61565b50909695505050505050565b6000815160a08452613b9e60a0850182613846565b905060208301518482036020860152613bb78282613846565b91505060408301518482036040860152613bd18282613846565b91505060608301518482036060860152613beb8282613846565b6080948501516001600160a01b03169590940194909452509092915050565b634e487b7160e01b600052602160045260246000fd5b60048110613c3e57634e487b7160e01b600052602160045260246000fd5b9052565b60208152815160208201526000602083015160e06040840152613c69610100840182613b89565b90506040840151601f1980858403016060860152613c878383613b89565b925060608601519150613c9d6080860183613c20565b608086015160a086015260a086015160c086015260c08601519150808584030160e086015250613ccd8282613846565b95945050505050565b600080600080600060a08688031215613cee57600080fd5b613cf78661389e565b9450613d056020870161389e565b935060408601359250606086013560048110613d2057600080fd5b949793965091946080013592915050565b604081526000613d446040830185613846565b905082151560208301529392505050565b8015158114612cdc57600080fd5b60008060408385031215613d7657600080fd5b613d7f8361389e565b91506020830135613d8f81613d55565b809150509250929050565b60a081526000613dad60a0830188613846565b8281036020840152613dbf8188613846565b90508281036040840152613dd38187613846565b90508281036060840152613de78186613846565b91505060018060a01b03831660808301529695505050505050565b60008060008060808587031215613e1857600080fd5b613e218561389e565b9350613e2f6020860161389e565b925060408501359150606085013567ffffffffffffffff811115613e5257600080fd5b8501601f81018713613e6357600080fd5b613a4d8782356020840161394e565b600080600060608486031215613e8757600080fd5b613e908461389e565b925060208401359150604084013567ffffffffffffffff811115613eb357600080fd5b613ebf8682870161398c565b9150509250925092565b85815284602082015260a060408201526000613ee860a0830186613846565b84151560608401528281036080840152613f028185613846565b98975050505050505050565b60008060408385031215613f2157600080fd5b613f2a8361389e565b9150613b216020840161389e565b87815260e060208201526000613f5160e0830189613b89565b8281036040840152613f638189613b89565b9050613f726060840188613c20565b8560808401528460a084015282810360c0840152613f908185613846565b9a9950505050505050505050565b634e487b7160e01b600052601160045260246000fd5b600082821015613fc657613fc6613f9e565b500390565b600181811c90821680613fdf57607f821691505b602082108103613fff57634e487b7160e01b600052602260045260246000fd5b50919050565b601f8211156108c157600081815260208120601f850160051c8101602086101561402c5750805b601f850160051c820191505b8181101561404b57828155600101614038565b505050505050565b815167ffffffffffffffff81111561406d5761406d6138df565b6140818161407b8454613fcb565b84614005565b602080601f8311600181146140b6576000841561409e5750858301515b600019600386901b1c1916600185901b17855561404b565b600085815260208120601f198616915b828110156140e5578886015182559484019460019091019084016140c6565b50858210156141035787850151600019600388901b60f8161c191681555b5050505050600190811b01905550565b60006001820161412557614125613f9e565b5060010190565b6020808252602e908201527f4552433732313a2063616c6c6572206973206e6f7420746f6b656e206f776e6560408201526d1c881b9bdc88185c1c1c9bdd995960921b606082015260800190565b60408152600061418d6040830184613846565b828103602084015260048152634253494760e01b60208201526040810191505092915050565b6000602082840312156141c557600080fd5b815167ffffffffffffffff8111156141dc57600080fd5b8201601f810184136141ed57600080fd5b80516141fb61395c82613926565b81815285602083850101111561421057600080fd5b613ccd82602083016020860161381a565b634e487b7160e01b600052601260045260246000fd5b60008261424657614246614221565b500490565b600081600019048311821515161561426557614265613f9e565b500290565b6000821982111561427d5761427d613f9e565b500190565b6040815260006142956040830185613846565b905060018060a01b03831660208301529392505050565b6000602082840312156142be57600080fd5b8151610b2681613d55565b6040815260008084546142db81613fcb565b80604086015260606001808416600081146142fd576001811461431757614348565b60ff1985168884015283151560051b880183019550614348565b8960005260208060002060005b8681101561433f5781548b8201870152908401908201614324565b8a018501975050505b505050506001600160a01b0385166020850152509050610b26565b6040815260006143766040830184613846565b828103602084015260098152684f574e45525f53494760b81b60208201526040810191505092915050565b634e487b7160e01b600052603260045260246000fd5b60208082526032908201527f4552433732313a207472616e7366657220746f206e6f6e20455243373231526560408201527131b2b4bb32b91034b6b83632b6b2b73a32b960711b606082015260800190565b6000835161441b81846020880161381a565b83519083019061442f81836020880161381a565b01949350505050565b6001600160a01b038581168252841660208201526040810183905260806060820181905260009061446b90830184613846565b9695505050505050565b60006020828403121561448757600080fd5b8151610b26816137e7565b6000826144a1576144a1614221565b50069056fea26469706673582212206d452bf7b526f36bfd12e8a779a60f0930435ebf5d7e73dcb84c85da9d3786b664736f6c634300080f0033",
  "language": "Solidity",
  "natspec": {
    "kind": "dev",
    "methods": {
      "approve(address,uint256)": {
        "details": "See {IERC721-approve}."
      },
      "balanceOf(address)": {
        "details": "See {IERC721-balanceOf}."
      },
      "getApproved(uint256)": {
        "details": "See {IERC721-getApproved}."
      },
      "isApprovedForAll(address,address)": {
        "details": "See {IERC721-isApprovedForAll}."
      },
      "name()": {
        "details": "See {IERC721Metadata-name}."
      },
      "owner()": {
        "details": "Returns the address of the current owner."
      },
      "ownerOf(uint256)": {
        "details": "See {IERC721-ownerOf}."
      },
      "renounceOwnership()": {
        "details": "Leaves the contract without owner. It will not be possible to call `onlyOwner` functions anymore. Can only be called by the current owner. NOTE: Renouncing ownership will leave the contract without an owner, thereby removing any functionality that is only available to the owner."
      },
      "safeTransferFrom(address,address,uint256)": {
        "details": "See {IERC721-safeTransferFrom}."
      },
      "safeTransferFrom(address,address,uint256,bytes)": {
        "details": "See {IERC721-safeTransferFrom}."
      },
      "setApprovalForAll(address,bool)": {
        "details": "See {IERC721-setApprovalForAll}."
      },
      "supportsInterface(bytes4)": {
        "details": "See {IERC165-supportsInterface}."
      },
      "symbol()": {
        "details": "See {IERC721Metadata-symbol}."
      },
      "transferFrom(address,address,uint256)": {
        "details": "See {IERC721-transferFrom}."
      },
      "transferOwnership(address)": {
        "details": "Transfers ownership of the contract to a new account (`newOwner`). Can only be called by the current owner."
      }
    },
    "version": 1
  },
  "opcodes": "PUSH1 0x80 PUSH1 0x40 MSTORE PUSH1 0x4 CALLDATASIZE LT PUSH2 0x1ED JUMPI PUSH1 0x0 CALLDATALOAD PUSH1 0xE0 SHR DUP1 PUSH4 0x68D3C5E5 GT PUSH2 0x10D JUMPI DUP1 PUSH4 0xA87430BA GT PUSH2 0xA0 JUMPI DUP1 PUSH4 0xCD279C7C GT PUSH2 0x6F JUMPI DUP1 PUSH4 0xCD279C7C EQ PUSH2 0x59E JUMPI DUP1 PUSH4 0xE261F1E5 EQ PUSH2 0x5BE JUMPI DUP1 PUSH4 0xE985E9C5 EQ PUSH2 0x5EF JUMPI DUP1 PUSH4 0xEC52754D EQ PUSH2 0x638 JUMPI DUP1 PUSH4 0xF2FDE38B EQ PUSH2 0x66B JUMPI PUSH1 0x0 DUP1 REVERT JUMPDEST DUP1 PUSH4 0xA87430BA EQ PUSH2 0x50D JUMPI DUP1 PUSH4 0xB6F84991 EQ PUSH2 0x53E JUMPI DUP1 PUSH4 0xB88D4FDE EQ PUSH2 0x55E JUMPI DUP1 PUSH4 0xC87B56DD EQ PUSH2 0x57E JUMPI PUSH1 0x0 DUP1 REVERT JUMPDEST DUP1 PUSH4 0x8DA5CB5B GT PUSH2 0xDC JUMPI DUP1 PUSH4 0x8DA5CB5B EQ PUSH2 0x48C JUMPI DUP1 PUSH4 0x95D89B41 EQ PUSH2 0x4AA JUMPI DUP1 PUSH4 0x9AC2A011 EQ PUSH2 0x4BF JUMPI DUP1 PUSH4 0xA22CB465 EQ PUSH2 0x4ED JUMPI PUSH1 0x0 DUP1 REVERT JUMPDEST DUP1 PUSH4 0x68D3C5E5 EQ PUSH2 0x422 JUMPI DUP1 PUSH4 0x6F9FB98A EQ PUSH2 0x442 JUMPI DUP1 PUSH4 0x70A08231 EQ PUSH2 0x457 JUMPI DUP1 PUSH4 0x715018A6 EQ PUSH2 0x477 JUMPI PUSH1 0x0 DUP1 REVERT JUMPDEST DUP1 PUSH4 0x23B872DD GT PUSH2 0x185 JUMPI DUP1 PUSH4 0x519EA705 GT PUSH2 0x154 JUMPI DUP1 PUSH4 0x519EA705 EQ PUSH2 0x3AB JUMPI DUP1 PUSH4 0x58688D52 EQ PUSH2 0x3D8 JUMPI DUP1 PUSH4 0x5FD8C710 EQ PUSH2 0x3FA JUMPI DUP1 PUSH4 0x6352211E EQ PUSH2 0x402 JUMPI PUSH1 0x0 DUP1 REVERT JUMPDEST DUP1 PUSH4 0x23B872DD EQ PUSH2 0x32B JUMPI DUP1 PUSH4 0x3B5EE4D5 EQ PUSH2 0x34B JUMPI DUP1 PUSH4 0x42842E0E EQ PUSH2 0x36B JUMPI DUP1 PUSH4 0x49B69FC1 EQ PUSH2 0x38B JUMPI PUSH1 0x0 DUP1 REVERT JUMPDEST DUP1 PUSH4 0x7BD0265 GT PUSH2 0x1C1 JUMPI DUP1 PUSH4 0x7BD0265 EQ PUSH2 0x27D JUMPI DUP1 PUSH4 0x81812FC EQ PUSH2 0x2B1 JUMPI DUP1 PUSH4 0x95EA7B3 EQ PUSH2 0x2E9 JUMPI DUP1 PUSH4 0xC154483 EQ PUSH2 0x30B JUMPI PUSH1 0x0 DUP1 REVERT JUMPDEST DUP1 PUSH3 0xCE8E3E EQ PUSH2 0x1F2 JUMPI DUP1 PUSH4 0x1FFC9A7 EQ PUSH2 0x216 JUMPI DUP1 PUSH4 0x4C8A525 EQ PUSH2 0x246 JUMPI DUP1 PUSH4 0x6FDDE03 EQ PUSH2 0x25B JUMPI JUMPDEST PUSH1 0x0 DUP1 REVERT JUMPDEST CALLVALUE DUP1 ISZERO PUSH2 0x1FE JUMPI PUSH1 0x0 DUP1 REVERT JUMPDEST POP PUSH1 0xA SLOAD JUMPDEST PUSH1 0x40 MLOAD SWAP1 DUP2 MSTORE PUSH1 0x20 ADD JUMPDEST PUSH1 0x40 MLOAD DUP1 SWAP2 SUB SWAP1 RETURN JUMPDEST CALLVALUE DUP1 ISZERO PUSH2 0x222 JUMPI PUSH1 0x0 DUP1 REVERT JUMPDEST POP PUSH2 0x236 PUSH2 0x231 CALLDATASIZE PUSH1 0x4 PUSH2 0x37FD JUMP JUMPDEST PUSH2 0x68B JUMP JUMPDEST PUSH1 0x40 MLOAD SWAP1 ISZERO ISZERO DUP2 MSTORE PUSH1 0x20 ADD PUSH2 0x20D JUMP JUMPDEST CALLVALUE DUP1 ISZERO PUSH2 0x252 JUMPI PUSH1 0x0 DUP1 REVERT JUMPDEST POP PUSH2 0x203 PUSH2 0x6DD JUMP JUMPDEST CALLVALUE DUP1 ISZERO PUSH2 0x267 JUMPI PUSH1 0x0 DUP1 REVERT JUMPDEST POP PUSH2 0x270 PUSH2 0x6F3 JUMP JUMPDEST PUSH1 0x40 MLOAD PUSH2 0x20D SWAP2 SWAP1 PUSH2 0x3872 JUMP JUMPDEST CALLVALUE DUP1 ISZERO PUSH2 0x289 JUMPI PUSH1 0x0 DUP1 REVERT JUMPDEST POP PUSH2 0x203 PUSH32 0x9CF85F95575C3AF1E116E3D37FD41E7F36A8A373623F51FFAAA87FDD032FA767 DUP2 JUMP JUMPDEST CALLVALUE DUP1 ISZERO PUSH2 0x2BD JUMPI PUSH1 0x0 DUP1 REVERT JUMPDEST POP PUSH2 0x2D1 PUSH2 0x2CC CALLDATASIZE PUSH1 0x4 PUSH2 0x3885 JUMP JUMPDEST PUSH2 0x785 JUMP JUMPDEST PUSH1 0x40 MLOAD PUSH1 0x1 PUSH1 0x1 PUSH1 0xA0 SHL SUB SWAP1 SWAP2 AND DUP2 MSTORE PUSH1 0x20 ADD PUSH2 0x20D JUMP JUMPDEST CALLVALUE DUP1 ISZERO PUSH2 0x2F5 JUMPI PUSH1 0x0 DUP1 REVERT JUMPDEST POP PUSH2 0x309 PUSH2 0x304 CALLDATASIZE PUSH1 0x4 PUSH2 0x38B5 JUMP JUMPDEST PUSH2 0x7AC JUMP JUMPDEST STOP JUMPDEST CALLVALUE DUP1 ISZERO PUSH2 0x317 JUMPI PUSH1 0x0 DUP1 REVERT JUMPDEST POP PUSH2 0x309 PUSH2 0x326 CALLDATASIZE PUSH1 0x4 PUSH2 0x39AC JUMP JUMPDEST PUSH2 0x8C6 JUMP JUMPDEST CALLVALUE DUP1 ISZERO PUSH2 0x337 JUMPI PUSH1 0x0 DUP1 REVERT JUMPDEST POP PUSH2 0x309 PUSH2 0x346 CALLDATASIZE PUSH1 0x4 PUSH2 0x3A59 JUMP JUMPDEST PUSH2 0x990 JUMP JUMPDEST CALLVALUE DUP1 ISZERO PUSH2 0x357 JUMPI PUSH1 0x0 DUP1 REVERT JUMPDEST POP PUSH2 0x203 PUSH2 0x366 CALLDATASIZE PUSH1 0x4 PUSH2 0x3A95 JUMP JUMPDEST PUSH2 0x9C1 JUMP JUMPDEST CALLVALUE DUP1 ISZERO PUSH2 0x377 JUMPI PUSH1 0x0 DUP1 REVERT JUMPDEST POP PUSH2 0x309 PUSH2 0x386 CALLDATASIZE PUSH1 0x4 PUSH2 0x3A59 JUMP JUMPDEST PUSH2 0xB2D JUMP JUMPDEST CALLVALUE DUP1 ISZERO PUSH2 0x397 JUMPI PUSH1 0x0 DUP1 REVERT JUMPDEST POP PUSH2 0x309 PUSH2 0x3A6 CALLDATASIZE PUSH1 0x4 PUSH2 0x3ADC JUMP JUMPDEST PUSH2 0xB48 JUMP JUMPDEST CALLVALUE DUP1 ISZERO PUSH2 0x3B7 JUMPI PUSH1 0x0 DUP1 REVERT JUMPDEST POP PUSH2 0x3CB PUSH2 0x3C6 CALLDATASIZE PUSH1 0x4 PUSH2 0x3B2A JUMP JUMPDEST PUSH2 0xBAD JUMP JUMPDEST PUSH1 0x40 MLOAD PUSH2 0x20D SWAP2 SWAP1 PUSH2 0x3B45 JUMP JUMPDEST CALLVALUE DUP1 ISZERO PUSH2 0x3E4 JUMPI PUSH1 0x0 DUP1 REVERT JUMPDEST POP PUSH2 0x3ED PUSH2 0xC19 JUMP JUMPDEST PUSH1 0x40 MLOAD PUSH2 0x20D SWAP2 SWAP1 PUSH2 0x3C42 JUMP JUMPDEST PUSH2 0x309 PUSH2 0x123D JUMP JUMPDEST CALLVALUE DUP1 ISZERO PUSH2 0x40E JUMPI PUSH1 0x0 DUP1 REVERT JUMPDEST POP PUSH2 0x2D1 PUSH2 0x41D CALLDATASIZE PUSH1 0x4 PUSH2 0x3885 JUMP JUMPDEST PUSH2 0x1289 JUMP JUMPDEST CALLVALUE DUP1 ISZERO PUSH2 0x42E JUMPI PUSH1 0x0 DUP1 REVERT JUMPDEST POP PUSH2 0x309 PUSH2 0x43D CALLDATASIZE PUSH1 0x4 PUSH2 0x3CD6 JUMP JUMPDEST PUSH2 0x12E9 JUMP JUMPDEST CALLVALUE DUP1 ISZERO PUSH2 0x44E JUMPI PUSH1 0x0 DUP1 REVERT JUMPDEST POP PUSH2 0x203 PUSH2 0x212E JUMP JUMPDEST CALLVALUE DUP1 ISZERO PUSH2 0x463 JUMPI PUSH1 0x0 DUP1 REVERT JUMPDEST POP PUSH2 0x203 PUSH2 0x472 CALLDATASIZE PUSH1 0x4 PUSH2 0x3B2A JUMP JUMPDEST PUSH2 0x213F JUMP JUMPDEST CALLVALUE DUP1 ISZERO PUSH2 0x483 JUMPI PUSH1 0x0 DUP1 REVERT JUMPDEST POP PUSH2 0x309 PUSH2 0x21C5 JUMP JUMPDEST CALLVALUE DUP1 ISZERO PUSH2 0x498 JUMPI PUSH1 0x0 DUP1 REVERT JUMPDEST POP PUSH1 0x7 SLOAD PUSH1 0x1 PUSH1 0x1 PUSH1 0xA0 SHL SUB AND PUSH2 0x2D1 JUMP JUMPDEST CALLVALUE DUP1 ISZERO PUSH2 0x4B6 JUMPI PUSH1 0x0 DUP1 REVERT JUMPDEST POP PUSH2 0x270 PUSH2 0x21D9 JUMP JUMPDEST CALLVALUE DUP1 ISZERO PUSH2 0x4CB JUMPI PUSH1 0x0 DUP1 REVERT JUMPDEST POP PUSH2 0x4DF PUSH2 0x4DA CALLDATASIZE PUSH1 0x4 PUSH2 0x3B2A JUMP JUMPDEST PUSH2 0x21E8 JUMP JUMPDEST PUSH1 0x40 MLOAD PUSH2 0x20D SWAP3 SWAP2 SWAP1 PUSH2 0x3D31 JUMP JUMPDEST CALLVALUE DUP1 ISZERO PUSH2 0x4F9 JUMPI PUSH1 0x0 DUP1 REVERT JUMPDEST POP PUSH2 0x309 PUSH2 0x508 CALLDATASIZE PUSH1 0x4 PUSH2 0x3D63 JUMP JUMPDEST PUSH2 0x228F JUMP JUMPDEST CALLVALUE DUP1 ISZERO PUSH2 0x519 JUMPI PUSH1 0x0 DUP1 REVERT JUMPDEST POP PUSH2 0x52D PUSH2 0x528 CALLDATASIZE PUSH1 0x4 PUSH2 0x3B2A JUMP JUMPDEST PUSH2 0x229E JUMP JUMPDEST PUSH1 0x40 MLOAD PUSH2 0x20D SWAP6 SWAP5 SWAP4 SWAP3 SWAP2 SWAP1 PUSH2 0x3D9A JUMP JUMPDEST CALLVALUE DUP1 ISZERO PUSH2 0x54A JUMPI PUSH1 0x0 DUP1 REVERT JUMPDEST POP PUSH2 0x203 PUSH2 0x559 CALLDATASIZE PUSH1 0x4 PUSH2 0x38B5 JUMP JUMPDEST PUSH2 0x24F5 JUMP JUMPDEST CALLVALUE DUP1 ISZERO PUSH2 0x56A JUMPI PUSH1 0x0 DUP1 REVERT JUMPDEST POP PUSH2 0x309 PUSH2 0x579 CALLDATASIZE PUSH1 0x4 PUSH2 0x3E02 JUMP JUMPDEST PUSH2 0x2526 JUMP JUMPDEST CALLVALUE DUP1 ISZERO PUSH2 0x58A JUMPI PUSH1 0x0 DUP1 REVERT JUMPDEST POP PUSH2 0x270 PUSH2 0x599 CALLDATASIZE PUSH1 0x4 PUSH2 0x3885 JUMP JUMPDEST PUSH2 0x255E JUMP JUMPDEST CALLVALUE DUP1 ISZERO PUSH2 0x5AA JUMPI PUSH1 0x0 DUP1 REVERT JUMPDEST POP PUSH2 0x309 PUSH2 0x5B9 CALLDATASIZE PUSH1 0x4 PUSH2 0x3E72 JUMP JUMPDEST PUSH2 0x2569 JUMP JUMPDEST CALLVALUE DUP1 ISZERO PUSH2 0x5CA JUMPI PUSH1 0x0 DUP1 REVERT JUMPDEST POP PUSH2 0x5DE PUSH2 0x5D9 CALLDATASIZE PUSH1 0x4 PUSH2 0x3885 JUMP JUMPDEST PUSH2 0x2585 JUMP JUMPDEST PUSH1 0x40 MLOAD PUSH2 0x20D SWAP6 SWAP5 SWAP4 SWAP3 SWAP2 SWAP1 PUSH2 0x3EC9 JUMP JUMPDEST CALLVALUE DUP1 ISZERO PUSH2 0x5FB JUMPI PUSH1 0x0 DUP1 REVERT JUMPDEST POP PUSH2 0x236 PUSH2 0x60A CALLDATASIZE PUSH1 0x4 PUSH2 0x3F0E JUMP JUMPDEST PUSH1 0x1 PUSH1 0x1 PUSH1 0xA0 SHL SUB SWAP2 DUP3 AND PUSH1 0x0 SWAP1 DUP2 MSTORE PUSH1 0x5 PUSH1 0x20 SWAP1 DUP2 MSTORE PUSH1 0x40 DUP1 DUP4 KECCAK256 SWAP4 SWAP1 SWAP5 AND DUP3 MSTORE SWAP2 SWAP1 SWAP2 MSTORE KECCAK256 SLOAD PUSH1 0xFF AND SWAP1 JUMP JUMPDEST CALLVALUE DUP1 ISZERO PUSH2 0x644 JUMPI PUSH1 0x0 DUP1 REVERT JUMPDEST POP PUSH2 0x658 PUSH2 0x653 CALLDATASIZE PUSH1 0x4 PUSH2 0x3885 JUMP JUMPDEST PUSH2 0x26CD JUMP JUMPDEST PUSH1 0x40 MLOAD PUSH2 0x20D SWAP8 SWAP7 SWAP6 SWAP5 SWAP4 SWAP3 SWAP2 SWAP1 PUSH2 0x3F38 JUMP JUMPDEST CALLVALUE DUP1 ISZERO PUSH2 0x677 JUMPI PUSH1 0x0 DUP1 REVERT JUMPDEST POP PUSH2 0x309 PUSH2 0x686 CALLDATASIZE PUSH1 0x4 PUSH2 0x3B2A JUMP JUMPDEST PUSH2 0x2C66 JUMP JUMPDEST PUSH1 0x0 PUSH1 0x1 PUSH1 0x1 PUSH1 0xE0 SHL SUB NOT DUP3 AND PUSH4 0x80AC58CD PUSH1 0xE0 SHL EQ DUP1 PUSH2 0x6BC JUMPI POP PUSH1 0x1 PUSH1 0x1 PUSH1 0xE0 SHL SUB NOT DUP3 AND PUSH4 0x5B5E139F PUSH1 0xE0 SHL EQ JUMPDEST DUP1 PUSH2 0x6D7 JUMPI POP PUSH4 0x1FFC9A7 PUSH1 0xE0 SHL PUSH1 0x1 PUSH1 0x1 PUSH1 0xE0 SHL SUB NOT DUP4 AND EQ JUMPDEST SWAP3 SWAP2 POP POP JUMP JUMPDEST PUSH1 0x0 PUSH1 0x1 PUSH1 0x8 SLOAD PUSH2 0x6EE SWAP2 SWAP1 PUSH2 0x3FB4 JUMP JUMPDEST SWAP1 POP SWAP1 JUMP JUMPDEST PUSH1 0x60 PUSH1 0x0 DUP1 SLOAD PUSH2 0x702 SWAP1 PUSH2 0x3FCB JUMP JUMPDEST DUP1 PUSH1 0x1F ADD PUSH1 0x20 DUP1 SWAP2 DIV MUL PUSH1 0x20 ADD PUSH1 0x40 MLOAD SWAP1 DUP2 ADD PUSH1 0x40 MSTORE DUP1 SWAP3 SWAP2 SWAP1 DUP2 DUP2 MSTORE PUSH1 0x20 ADD DUP3 DUP1 SLOAD PUSH2 0x72E SWAP1 PUSH2 0x3FCB JUMP JUMPDEST DUP1 ISZERO PUSH2 0x77B JUMPI DUP1 PUSH1 0x1F LT PUSH2 0x750 JUMPI PUSH2 0x100 DUP1 DUP4 SLOAD DIV MUL DUP4 MSTORE SWAP2 PUSH1 0x20 ADD SWAP2 PUSH2 0x77B JUMP JUMPDEST DUP3 ADD SWAP2 SWAP1 PUSH1 0x0 MSTORE PUSH1 0x20 PUSH1 0x0 KECCAK256 SWAP1 JUMPDEST DUP2 SLOAD DUP2 MSTORE SWAP1 PUSH1 0x1 ADD SWAP1 PUSH1 0x20 ADD DUP1 DUP4 GT PUSH2 0x75E JUMPI DUP3 SWAP1 SUB PUSH1 0x1F AND DUP3 ADD SWAP2 JUMPDEST POP POP POP POP POP SWAP1 POP SWAP1 JUMP JUMPDEST PUSH1 0x0 PUSH2 0x790 DUP3 PUSH2 0x2CDF JUMP JUMPDEST POP PUSH1 0x0 SWAP1 DUP2 MSTORE PUSH1 0x4 PUSH1 0x20 MSTORE PUSH1 0x40 SWAP1 KECCAK256 SLOAD PUSH1 0x1 PUSH1 0x1 PUSH1 0xA0 SHL SUB AND SWAP1 JUMP JUMPDEST PUSH1 0x0 PUSH2 0x7B7 DUP3 PUSH2 0x1289 JUMP JUMPDEST SWAP1 POP DUP1 PUSH1 0x1 PUSH1 0x1 PUSH1 0xA0 SHL SUB AND DUP4 PUSH1 0x1 PUSH1 0x1 PUSH1 0xA0 SHL SUB AND SUB PUSH2 0x829 JUMPI PUSH1 0x40 MLOAD PUSH3 0x461BCD PUSH1 0xE5 SHL DUP2 MSTORE PUSH1 0x20 PUSH1 0x4 DUP3 ADD MSTORE PUSH1 0x21 PUSH1 0x24 DUP3 ADD MSTORE PUSH32 0x4552433732313A20617070726F76616C20746F2063757272656E74206F776E65 PUSH1 0x44 DUP3 ADD MSTORE PUSH1 0x39 PUSH1 0xF9 SHL PUSH1 0x64 DUP3 ADD MSTORE PUSH1 0x84 ADD JUMPDEST PUSH1 0x40 MLOAD DUP1 SWAP2 SUB SWAP1 REVERT JUMPDEST CALLER PUSH1 0x1 PUSH1 0x1 PUSH1 0xA0 SHL SUB DUP3 AND EQ DUP1 PUSH2 0x845 JUMPI POP PUSH2 0x845 DUP2 CALLER PUSH2 0x60A JUMP JUMPDEST PUSH2 0x8B7 JUMPI PUSH1 0x40 MLOAD PUSH3 0x461BCD PUSH1 0xE5 SHL DUP2 MSTORE PUSH1 0x20 PUSH1 0x4 DUP3 ADD MSTORE PUSH1 0x3E PUSH1 0x24 DUP3 ADD MSTORE PUSH32 0x4552433732313A20617070726F76652063616C6C6572206973206E6F7420746F PUSH1 0x44 DUP3 ADD MSTORE PUSH32 0x6B656E206F776E6572206E6F7220617070726F76656420666F7220616C6C0000 PUSH1 0x64 DUP3 ADD MSTORE PUSH1 0x84 ADD PUSH2 0x820 JUMP JUMPDEST PUSH2 0x8C1 DUP4 DUP4 PUSH2 0x2D3E JUMP JUMPDEST POP POP POP JUMP JUMPDEST PUSH1 0x40 DUP1 MLOAD PUSH1 0xA0 DUP2 ADD DUP3 MSTORE DUP6 DUP2 MSTORE PUSH1 0x20 DUP1 DUP3 ADD DUP6 SWAP1 MSTORE DUP2 DUP4 ADD DUP7 SWAP1 MSTORE PUSH1 0x60 DUP3 ADD DUP5 SWAP1 MSTORE CALLER PUSH1 0x80 DUP4 ADD DUP2 SWAP1 MSTORE PUSH1 0x0 SWAP1 DUP2 MSTORE PUSH1 0xB SWAP1 SWAP2 MSTORE SWAP2 SWAP1 SWAP2 KECCAK256 DUP2 MLOAD DUP2 SWAP1 PUSH2 0x90C SWAP1 DUP3 PUSH2 0x4053 JUMP JUMPDEST POP PUSH1 0x20 DUP3 ADD MLOAD PUSH1 0x1 DUP3 ADD SWAP1 PUSH2 0x921 SWAP1 DUP3 PUSH2 0x4053 JUMP JUMPDEST POP PUSH1 0x40 DUP3 ADD MLOAD PUSH1 0x2 DUP3 ADD SWAP1 PUSH2 0x936 SWAP1 DUP3 PUSH2 0x4053 JUMP JUMPDEST POP PUSH1 0x60 DUP3 ADD MLOAD PUSH1 0x3 DUP3 ADD SWAP1 PUSH2 0x94B SWAP1 DUP3 PUSH2 0x4053 JUMP JUMPDEST POP PUSH1 0x80 SWAP2 SWAP1 SWAP2 ADD MLOAD PUSH1 0x4 SWAP1 SWAP2 ADD DUP1 SLOAD PUSH1 0x1 PUSH1 0x1 PUSH1 0xA0 SHL SUB NOT AND PUSH1 0x1 PUSH1 0x1 PUSH1 0xA0 SHL SUB SWAP1 SWAP3 AND SWAP2 SWAP1 SWAP2 OR SWAP1 SSTORE PUSH1 0xA DUP1 SLOAD SWAP1 PUSH1 0x0 PUSH2 0x985 DUP4 PUSH2 0x4113 JUMP JUMPDEST SWAP2 SWAP1 POP SSTORE POP POP POP POP POP JUMP JUMPDEST PUSH2 0x99A CALLER DUP3 PUSH2 0x2DAC JUMP JUMPDEST PUSH2 0x9B6 JUMPI PUSH1 0x40 MLOAD PUSH3 0x461BCD PUSH1 0xE5 SHL DUP2 MSTORE PUSH1 0x4 ADD PUSH2 0x820 SWAP1 PUSH2 0x412C JUMP JUMPDEST PUSH2 0x8C1 DUP4 DUP4 DUP4 PUSH2 0x2E2B JUMP JUMPDEST PUSH1 0x0 PUSH2 0x9CB PUSH2 0x2FC7 JUMP JUMPDEST PUSH1 0x40 DUP1 MLOAD PUSH1 0x60 DUP6 SWAP1 SHL PUSH12 0xFFFFFFFFFFFFFFFFFFFFFFFF NOT AND PUSH1 0x20 DUP3 ADD MSTORE DUP2 MLOAD PUSH1 0x14 DUP2 DUP4 SUB ADD DUP2 MSTORE PUSH1 0x34 DUP3 ADD SWAP3 DUP4 SWAP1 MSTORE PUSH4 0x89C19DDB PUSH1 0xE0 SHL SWAP1 SWAP3 MSTORE PUSH1 0x0 SWAP2 PUSH20 0x0 SWAP2 PUSH4 0x89C19DDB SWAP2 PUSH2 0xA30 SWAP2 PUSH1 0x38 ADD PUSH2 0x417A JUMP JUMPDEST PUSH1 0x0 PUSH1 0x40 MLOAD DUP1 DUP4 SUB DUP2 DUP7 GAS DELEGATECALL ISZERO DUP1 ISZERO PUSH2 0xA4D JUMPI RETURNDATASIZE PUSH1 0x0 DUP1 RETURNDATACOPY RETURNDATASIZE PUSH1 0x0 REVERT JUMPDEST POP POP POP POP PUSH1 0x40 MLOAD RETURNDATASIZE PUSH1 0x0 DUP3 RETURNDATACOPY PUSH1 0x1F RETURNDATASIZE SWAP1 DUP2 ADD PUSH1 0x1F NOT AND DUP3 ADD PUSH1 0x40 MSTORE PUSH2 0xA75 SWAP2 SWAP1 DUP2 ADD SWAP1 PUSH2 0x41B3 JUMP JUMPDEST PUSH1 0x40 DUP1 MLOAD PUSH1 0xA0 DUP2 ADD DUP3 MSTORE PUSH1 0x8 SLOAD DUP1 DUP3 MSTORE PUSH1 0x20 DUP1 DUP4 ADD DUP9 DUP2 MSTORE DUP4 DUP6 ADD DUP12 DUP2 MSTORE PUSH1 0x0 PUSH1 0x60 DUP7 ADD DUP2 SWAP1 MSTORE PUSH1 0x80 DUP7 ADD DUP9 SWAP1 MSTORE SWAP4 DUP5 MSTORE PUSH1 0xC SWAP1 SWAP3 MSTORE SWAP4 SWAP1 SWAP2 KECCAK256 DUP3 MLOAD DUP2 SSTORE SWAP3 MLOAD PUSH1 0x1 DUP5 ADD SSTORE MLOAD SWAP3 SWAP4 POP SWAP2 PUSH1 0x2 DUP3 ADD SWAP1 PUSH2 0xACE SWAP1 DUP3 PUSH2 0x4053 JUMP JUMPDEST POP PUSH1 0x60 DUP3 ADD MLOAD PUSH1 0x3 DUP3 ADD DUP1 SLOAD PUSH1 0xFF NOT AND SWAP2 ISZERO ISZERO SWAP2 SWAP1 SWAP2 OR SWAP1 SSTORE PUSH1 0x80 DUP3 ADD MLOAD PUSH1 0x4 DUP3 ADD SWAP1 PUSH2 0xAFB SWAP1 DUP3 PUSH2 0x4053 JUMP JUMPDEST POP POP PUSH1 0x8 DUP1 SLOAD SWAP2 POP PUSH1 0x0 PUSH2 0xB0E DUP4 PUSH2 0x4113 JUMP JUMPDEST SWAP2 SWAP1 POP SSTORE POP PUSH1 0x1 PUSH1 0x8 SLOAD PUSH2 0xB22 SWAP2 SWAP1 PUSH2 0x3FB4 JUMP JUMPDEST SWAP2 POP POP JUMPDEST SWAP4 SWAP3 POP POP POP JUMP JUMPDEST PUSH2 0x8C1 DUP4 DUP4 DUP4 PUSH1 0x40 MLOAD DUP1 PUSH1 0x20 ADD PUSH1 0x40 MSTORE DUP1 PUSH1 0x0 DUP2 MSTORE POP PUSH2 0x2526 JUMP JUMPDEST PUSH2 0xB50 PUSH2 0x301A JUMP JUMPDEST PUSH1 0x40 DUP1 MLOAD DUP1 DUP3 ADD DUP3 MSTORE DUP4 DUP2 MSTORE PUSH1 0x1 PUSH1 0x20 DUP1 DUP4 ADD SWAP2 SWAP1 SWAP2 MSTORE PUSH1 0x1 PUSH1 0x1 PUSH1 0xA0 SHL SUB DUP5 AND PUSH1 0x0 SWAP1 DUP2 MSTORE PUSH1 0xF SWAP1 SWAP2 MSTORE SWAP2 SWAP1 SWAP2 KECCAK256 DUP2 MLOAD DUP2 SWAP1 PUSH2 0xB8D SWAP1 DUP3 PUSH2 0x4053 JUMP JUMPDEST POP PUSH1 0x20 SWAP2 SWAP1 SWAP2 ADD MLOAD PUSH1 0x1 SWAP1 SWAP2 ADD DUP1 SLOAD PUSH1 0xFF NOT AND SWAP2 ISZERO ISZERO SWAP2 SWAP1 SWAP2 OR SWAP1 SSTORE POP POP JUMP JUMPDEST PUSH1 0x1 PUSH1 0x1 PUSH1 0xA0 SHL SUB DUP2 AND PUSH1 0x0 SWAP1 DUP2 MSTORE PUSH1 0xE PUSH1 0x20 SWAP1 DUP2 MSTORE PUSH1 0x40 SWAP2 DUP3 SWAP1 KECCAK256 DUP1 SLOAD DUP4 MLOAD DUP2 DUP5 MUL DUP2 ADD DUP5 ADD SWAP1 SWAP5 MSTORE DUP1 DUP5 MSTORE PUSH1 0x60 SWAP4 SWAP3 DUP4 ADD DUP3 DUP3 DUP1 ISZERO PUSH2 0xC0D JUMPI PUSH1 0x20 MUL DUP3 ADD SWAP2 SWAP1 PUSH1 0x0 MSTORE PUSH1 0x20 PUSH1 0x0 KECCAK256 SWAP1 JUMPDEST DUP2 SLOAD DUP2 MSTORE PUSH1 0x20 ADD SWAP1 PUSH1 0x1 ADD SWAP1 DUP1 DUP4 GT PUSH2 0xBF9 JUMPI JUMPDEST POP POP POP POP POP SWAP1 POP SWAP2 SWAP1 POP JUMP JUMPDEST PUSH2 0xC21 PUSH2 0x3766 JUMP JUMPDEST PUSH1 0x0 PUSH1 0x1 PUSH1 0x8 SLOAD PUSH2 0xC32 SWAP2 SWAP1 PUSH2 0x3FB4 JUMP JUMPDEST LT ISZERO PUSH2 0xC45 JUMPI PUSH2 0xC40 PUSH2 0x3766 JUMP JUMPDEST SWAP2 SWAP1 POP JUMP JUMPDEST PUSH1 0xD PUSH1 0x0 PUSH1 0x1 PUSH1 0x8 SLOAD PUSH2 0xC58 SWAP2 SWAP1 PUSH2 0x3FB4 JUMP JUMPDEST DUP2 MSTORE PUSH1 0x20 ADD SWAP1 DUP2 MSTORE PUSH1 0x20 ADD PUSH1 0x0 KECCAK256 PUSH1 0x40 MLOAD DUP1 PUSH1 0xE0 ADD PUSH1 0x40 MSTORE SWAP1 DUP2 PUSH1 0x0 DUP3 ADD SLOAD DUP2 MSTORE PUSH1 0x20 ADD PUSH1 0x1 DUP3 ADD PUSH1 0x40 MLOAD DUP1 PUSH1 0xA0 ADD PUSH1 0x40 MSTORE SWAP1 DUP2 PUSH1 0x0 DUP3 ADD DUP1 SLOAD PUSH2 0xC9B SWAP1 PUSH2 0x3FCB JUMP JUMPDEST DUP1 PUSH1 0x1F ADD PUSH1 0x20 DUP1 SWAP2 DIV MUL PUSH1 0x20 ADD PUSH1 0x40 MLOAD SWAP1 DUP2 ADD PUSH1 0x40 MSTORE DUP1 SWAP3 SWAP2 SWAP1 DUP2 DUP2 MSTORE PUSH1 0x20 ADD DUP3 DUP1 SLOAD PUSH2 0xCC7 SWAP1 PUSH2 0x3FCB JUMP JUMPDEST DUP1 ISZERO PUSH2 0xD14 JUMPI DUP1 PUSH1 0x1F LT PUSH2 0xCE9 JUMPI PUSH2 0x100 DUP1 DUP4 SLOAD DIV MUL DUP4 MSTORE SWAP2 PUSH1 0x20 ADD SWAP2 PUSH2 0xD14 JUMP JUMPDEST DUP3 ADD SWAP2 SWAP1 PUSH1 0x0 MSTORE PUSH1 0x20 PUSH1 0x0 KECCAK256 SWAP1 JUMPDEST DUP2 SLOAD DUP2 MSTORE SWAP1 PUSH1 0x1 ADD SWAP1 PUSH1 0x20 ADD DUP1 DUP4 GT PUSH2 0xCF7 JUMPI DUP3 SWAP1 SUB PUSH1 0x1F AND DUP3 ADD SWAP2 JUMPDEST POP POP POP POP POP DUP2 MSTORE PUSH1 0x20 ADD PUSH1 0x1 DUP3 ADD DUP1 SLOAD PUSH2 0xD2D SWAP1 PUSH2 0x3FCB JUMP JUMPDEST DUP1 PUSH1 0x1F ADD PUSH1 0x20 DUP1 SWAP2 DIV MUL PUSH1 0x20 ADD PUSH1 0x40 MLOAD SWAP1 DUP2 ADD PUSH1 0x40 MSTORE DUP1 SWAP3 SWAP2 SWAP1 DUP2 DUP2 MSTORE PUSH1 0x20 ADD DUP3 DUP1 SLOAD PUSH2 0xD59 SWAP1 PUSH2 0x3FCB JUMP JUMPDEST DUP1 ISZERO PUSH2 0xDA6 JUMPI DUP1 PUSH1 0x1F LT PUSH2 0xD7B JUMPI PUSH2 0x100 DUP1 DUP4 SLOAD DIV MUL DUP4 MSTORE SWAP2 PUSH1 0x20 ADD SWAP2 PUSH2 0xDA6 JUMP JUMPDEST DUP3 ADD SWAP2 SWAP1 PUSH1 0x0 MSTORE PUSH1 0x20 PUSH1 0x0 KECCAK256 SWAP1 JUMPDEST DUP2 SLOAD DUP2 MSTORE SWAP1 PUSH1 0x1 ADD SWAP1 PUSH1 0x20 ADD DUP1 DUP4 GT PUSH2 0xD89 JUMPI DUP3 SWAP1 SUB PUSH1 0x1F AND DUP3 ADD SWAP2 JUMPDEST POP POP POP POP POP DUP2 MSTORE PUSH1 0x20 ADD PUSH1 0x2 DUP3 ADD DUP1 SLOAD PUSH2 0xDBF SWAP1 PUSH2 0x3FCB JUMP JUMPDEST DUP1 PUSH1 0x1F ADD PUSH1 0x20 DUP1 SWAP2 DIV MUL PUSH1 0x20 ADD PUSH1 0x40 MLOAD SWAP1 DUP2 ADD PUSH1 0x40 MSTORE DUP1 SWAP3 SWAP2 SWAP1 DUP2 DUP2 MSTORE PUSH1 0x20 ADD DUP3 DUP1 SLOAD PUSH2 0xDEB SWAP1 PUSH2 0x3FCB JUMP JUMPDEST DUP1 ISZERO PUSH2 0xE38 JUMPI DUP1 PUSH1 0x1F LT PUSH2 0xE0D JUMPI PUSH2 0x100 DUP1 DUP4 SLOAD DIV MUL DUP4 MSTORE SWAP2 PUSH1 0x20 ADD SWAP2 PUSH2 0xE38 JUMP JUMPDEST DUP3 ADD SWAP2 SWAP1 PUSH1 0x0 MSTORE PUSH1 0x20 PUSH1 0x0 KECCAK256 SWAP1 JUMPDEST DUP2 SLOAD DUP2 MSTORE SWAP1 PUSH1 0x1 ADD SWAP1 PUSH1 0x20 ADD DUP1 DUP4 GT PUSH2 0xE1B JUMPI DUP3 SWAP1 SUB PUSH1 0x1F AND DUP3 ADD SWAP2 JUMPDEST POP POP POP POP POP DUP2 MSTORE PUSH1 0x20 ADD PUSH1 0x3 DUP3 ADD DUP1 SLOAD PUSH2 0xE51 SWAP1 PUSH2 0x3FCB JUMP JUMPDEST DUP1 PUSH1 0x1F ADD PUSH1 0x20 DUP1 SWAP2 DIV MUL PUSH1 0x20 ADD PUSH1 0x40 MLOAD SWAP1 DUP2 ADD PUSH1 0x40 MSTORE DUP1 SWAP3 SWAP2 SWAP1 DUP2 DUP2 MSTORE PUSH1 0x20 ADD DUP3 DUP1 SLOAD PUSH2 0xE7D SWAP1 PUSH2 0x3FCB JUMP JUMPDEST DUP1 ISZERO PUSH2 0xECA JUMPI DUP1 PUSH1 0x1F LT PUSH2 0xE9F JUMPI PUSH2 0x100 DUP1 DUP4 SLOAD DIV MUL DUP4 MSTORE SWAP2 PUSH1 0x20 ADD SWAP2 PUSH2 0xECA JUMP JUMPDEST DUP3 ADD SWAP2 SWAP1 PUSH1 0x0 MSTORE PUSH1 0x20 PUSH1 0x0 KECCAK256 SWAP1 JUMPDEST DUP2 SLOAD DUP2 MSTORE SWAP1 PUSH1 0x1 ADD SWAP1 PUSH1 0x20 ADD DUP1 DUP4 GT PUSH2 0xEAD JUMPI DUP3 SWAP1 SUB PUSH1 0x1F AND DUP3 ADD SWAP2 JUMPDEST POP POP POP SWAP2 DUP4 MSTORE POP POP PUSH1 0x4 SWAP2 SWAP1 SWAP2 ADD SLOAD PUSH1 0x1 PUSH1 0x1 PUSH1 0xA0 SHL SUB AND PUSH1 0x20 SWAP2 DUP3 ADD MSTORE SWAP1 DUP3 MSTORE PUSH1 0x40 DUP1 MLOAD PUSH1 0xA0 DUP2 ADD SWAP1 SWAP2 MSTORE PUSH1 0x6 DUP5 ADD DUP1 SLOAD SWAP4 SWAP1 SWAP3 ADD SWAP3 SWAP1 SWAP2 SWAP1 DUP3 SWAP1 DUP3 SWAP1 PUSH2 0xF11 SWAP1 PUSH2 0x3FCB JUMP JUMPDEST DUP1 PUSH1 0x1F ADD PUSH1 0x20 DUP1 SWAP2 DIV MUL PUSH1 0x20 ADD PUSH1 0x40 MLOAD SWAP1 DUP2 ADD PUSH1 0x40 MSTORE DUP1 SWAP3 SWAP2 SWAP1 DUP2 DUP2 MSTORE PUSH1 0x20 ADD DUP3 DUP1 SLOAD PUSH2 0xF3D SWAP1 PUSH2 0x3FCB JUMP JUMPDEST DUP1 ISZERO PUSH2 0xF8A JUMPI DUP1 PUSH1 0x1F LT PUSH2 0xF5F JUMPI PUSH2 0x100 DUP1 DUP4 SLOAD DIV MUL DUP4 MSTORE SWAP2 PUSH1 0x20 ADD SWAP2 PUSH2 0xF8A JUMP JUMPDEST DUP3 ADD SWAP2 SWAP1 PUSH1 0x0 MSTORE PUSH1 0x20 PUSH1 0x0 KECCAK256 SWAP1 JUMPDEST DUP2 SLOAD DUP2 MSTORE SWAP1 PUSH1 0x1 ADD SWAP1 PUSH1 0x20 ADD DUP1 DUP4 GT PUSH2 0xF6D JUMPI DUP3 SWAP1 SUB PUSH1 0x1F AND DUP3 ADD SWAP2 JUMPDEST POP POP POP POP POP DUP2 MSTORE PUSH1 0x20 ADD PUSH1 0x1 DUP3 ADD DUP1 SLOAD PUSH2 0xFA3 SWAP1 PUSH2 0x3FCB JUMP JUMPDEST DUP1 PUSH1 0x1F ADD PUSH1 0x20 DUP1 SWAP2 DIV MUL PUSH1 0x20 ADD PUSH1 0x40 MLOAD SWAP1 DUP2 ADD PUSH1 0x40 MSTORE DUP1 SWAP3 SWAP2 SWAP1 DUP2 DUP2 MSTORE PUSH1 0x20 ADD DUP3 DUP1 SLOAD PUSH2 0xFCF SWAP1 PUSH2 0x3FCB JUMP JUMPDEST DUP1 ISZERO PUSH2 0x101C JUMPI DUP1 PUSH1 0x1F LT PUSH2 0xFF1 JUMPI PUSH2 0x100 DUP1 DUP4 SLOAD DIV MUL DUP4 MSTORE SWAP2 PUSH1 0x20 ADD SWAP2 PUSH2 0x101C JUMP JUMPDEST DUP3 ADD SWAP2 SWAP1 PUSH1 0x0 MSTORE PUSH1 0x20 PUSH1 0x0 KECCAK256 SWAP1 JUMPDEST DUP2 SLOAD DUP2 MSTORE SWAP1 PUSH1 0x1 ADD SWAP1 PUSH1 0x20 ADD DUP1 DUP4 GT PUSH2 0xFFF JUMPI DUP3 SWAP1 SUB PUSH1 0x1F AND DUP3 ADD SWAP2 JUMPDEST POP POP POP POP POP DUP2 MSTORE PUSH1 0x20 ADD PUSH1 0x2 DUP3 ADD DUP1 SLOAD PUSH2 0x1035 SWAP1 PUSH2 0x3FCB JUMP JUMPDEST DUP1 PUSH1 0x1F ADD PUSH1 0x20 DUP1 SWAP2 DIV MUL PUSH1 0x20 ADD PUSH1 0x40 MLOAD SWAP1 DUP2 ADD PUSH1 0x40 MSTORE DUP1 SWAP3 SWAP2 SWAP1 DUP2 DUP2 MSTORE PUSH1 0x20 ADD DUP3 DUP1 SLOAD PUSH2 0x1061 SWAP1 PUSH2 0x3FCB JUMP JUMPDEST DUP1 ISZERO PUSH2 0x10AE JUMPI DUP1 PUSH1 0x1F LT PUSH2 0x1083 JUMPI PUSH2 0x100 DUP1 DUP4 SLOAD DIV MUL DUP4 MSTORE SWAP2 PUSH1 0x20 ADD SWAP2 PUSH2 0x10AE JUMP JUMPDEST DUP3 ADD SWAP2 SWAP1 PUSH1 0x0 MSTORE PUSH1 0x20 PUSH1 0x0 KECCAK256 SWAP1 JUMPDEST DUP2 SLOAD DUP2 MSTORE SWAP1 PUSH1 0x1 ADD SWAP1 PUSH1 0x20 ADD DUP1 DUP4 GT PUSH2 0x1091 JUMPI DUP3 SWAP1 SUB PUSH1 0x1F AND DUP3 ADD SWAP2 JUMPDEST POP POP POP POP POP DUP2 MSTORE PUSH1 0x20 ADD PUSH1 0x3 DUP3 ADD DUP1 SLOAD PUSH2 0x10C7 SWAP1 PUSH2 0x3FCB JUMP JUMPDEST DUP1 PUSH1 0x1F ADD PUSH1 0x20 DUP1 SWAP2 DIV MUL PUSH1 0x20 ADD PUSH1 0x40 MLOAD SWAP1 DUP2 ADD PUSH1 0x40 MSTORE DUP1 SWAP3 SWAP2 SWAP1 DUP2 DUP2 MSTORE PUSH1 0x20 ADD DUP3 DUP1 SLOAD PUSH2 0x10F3 SWAP1 PUSH2 0x3FCB JUMP JUMPDEST DUP1 ISZERO PUSH2 0x1140 JUMPI DUP1 PUSH1 0x1F LT PUSH2 0x1115 JUMPI PUSH2 0x100 DUP1 DUP4 SLOAD DIV MUL DUP4 MSTORE SWAP2 PUSH1 0x20 ADD SWAP2 PUSH2 0x1140 JUMP JUMPDEST DUP3 ADD SWAP2 SWAP1 PUSH1 0x0 MSTORE PUSH1 0x20 PUSH1 0x0 KECCAK256 SWAP1 JUMPDEST DUP2 SLOAD DUP2 MSTORE SWAP1 PUSH1 0x1 ADD SWAP1 PUSH1 0x20 ADD DUP1 DUP4 GT PUSH2 0x1123 JUMPI DUP3 SWAP1 SUB PUSH1 0x1F AND DUP3 ADD SWAP2 JUMPDEST POP POP POP SWAP2 DUP4 MSTORE POP POP PUSH1 0x4 SWAP2 SWAP1 SWAP2 ADD SLOAD PUSH1 0x1 PUSH1 0x1 PUSH1 0xA0 SHL SUB AND PUSH1 0x20 SWAP2 DUP3 ADD MSTORE SWAP1 DUP3 MSTORE PUSH1 0xB DUP4 ADD SLOAD SWAP2 ADD SWAP1 PUSH1 0xFF AND PUSH1 0x3 DUP2 GT ISZERO PUSH2 0x117D JUMPI PUSH2 0x117D PUSH2 0x3C0A JUMP JUMPDEST PUSH1 0x3 DUP2 GT ISZERO PUSH2 0x118E JUMPI PUSH2 0x118E PUSH2 0x3C0A JUMP JUMPDEST DUP2 MSTORE PUSH1 0x20 ADD PUSH1 0xC DUP3 ADD SLOAD DUP2 MSTORE PUSH1 0x20 ADD PUSH1 0xD DUP3 ADD SLOAD DUP2 MSTORE PUSH1 0x20 ADD PUSH1 0xE DUP3 ADD DUP1 SLOAD PUSH2 0x11B6 SWAP1 PUSH2 0x3FCB JUMP JUMPDEST DUP1 PUSH1 0x1F ADD PUSH1 0x20 DUP1 SWAP2 DIV MUL PUSH1 0x20 ADD PUSH1 0x40 MLOAD SWAP1 DUP2 ADD PUSH1 0x40 MSTORE DUP1 SWAP3 SWAP2 SWAP1 DUP2 DUP2 MSTORE PUSH1 0x20 ADD DUP3 DUP1 SLOAD PUSH2 0x11E2 SWAP1 PUSH2 0x3FCB JUMP JUMPDEST DUP1 ISZERO PUSH2 0x122F JUMPI DUP1 PUSH1 0x1F LT PUSH2 0x1204 JUMPI PUSH2 0x100 DUP1 DUP4 SLOAD DIV MUL DUP4 MSTORE SWAP2 PUSH1 0x20 ADD SWAP2 PUSH2 0x122F JUMP JUMPDEST DUP3 ADD SWAP2 SWAP1 PUSH1 0x0 MSTORE PUSH1 0x20 PUSH1 0x0 KECCAK256 SWAP1 JUMPDEST DUP2 SLOAD DUP2 MSTORE SWAP1 PUSH1 0x1 ADD SWAP1 PUSH1 0x20 ADD DUP1 DUP4 GT PUSH2 0x1212 JUMPI DUP3 SWAP1 SUB PUSH1 0x1F AND DUP3 ADD SWAP2 JUMPDEST POP POP POP POP POP DUP2 MSTORE POP POP SWAP1 POP SWAP1 JUMP JUMPDEST PUSH2 0x1245 PUSH2 0x301A JUMP JUMPDEST PUSH1 0x7 SLOAD PUSH1 0x9 SLOAD PUSH1 0x40 MLOAD PUSH1 0x1 PUSH1 0x1 PUSH1 0xA0 SHL SUB SWAP1 SWAP3 AND SWAP2 DUP2 ISZERO PUSH2 0x8FC MUL SWAP2 SWAP1 PUSH1 0x0 DUP2 DUP2 DUP2 DUP6 DUP9 DUP9 CALL SWAP4 POP POP POP POP ISZERO DUP1 ISZERO PUSH2 0x1281 JUMPI RETURNDATASIZE PUSH1 0x0 DUP1 RETURNDATACOPY RETURNDATASIZE PUSH1 0x0 REVERT JUMPDEST POP PUSH1 0x0 PUSH1 0x9 SSTORE JUMP JUMPDEST PUSH1 0x0 DUP2 DUP2 MSTORE PUSH1 0x2 PUSH1 0x20 MSTORE PUSH1 0x40 DUP2 KECCAK256 SLOAD PUSH1 0x1 PUSH1 0x1 PUSH1 0xA0 SHL SUB AND DUP1 PUSH2 0x6D7 JUMPI PUSH1 0x40 MLOAD PUSH3 0x461BCD PUSH1 0xE5 SHL DUP2 MSTORE PUSH1 0x20 PUSH1 0x4 DUP3 ADD MSTORE PUSH1 0x18 PUSH1 0x24 DUP3 ADD MSTORE PUSH24 0x115490CDCC8C4E881A5B9D985B1A59081D1BDAD95B881251 PUSH1 0x42 SHL PUSH1 0x44 DUP3 ADD MSTORE PUSH1 0x64 ADD PUSH2 0x820 JUMP JUMPDEST PUSH2 0x12F1 PUSH2 0x2FC7 JUMP JUMPDEST PUSH1 0x0 DUP3 PUSH1 0x3 DUP2 GT ISZERO PUSH2 0x1305 JUMPI PUSH2 0x1305 PUSH2 0x3C0A JUMP JUMPDEST EQ DUP1 ISZERO PUSH2 0x1324 JUMPI POP PUSH1 0x0 DUP4 DUP2 MSTORE PUSH1 0xC PUSH1 0x20 MSTORE PUSH1 0x40 SWAP1 KECCAK256 PUSH1 0x3 ADD SLOAD PUSH1 0xFF AND ISZERO JUMPDEST DUP1 PUSH2 0x135D JUMPI POP PUSH1 0x0 DUP3 PUSH1 0x3 DUP2 GT ISZERO PUSH2 0x133E JUMPI PUSH2 0x133E PUSH2 0x3C0A JUMP JUMPDEST EQ ISZERO DUP1 ISZERO PUSH2 0x135D JUMPI POP PUSH1 0x0 DUP4 DUP2 MSTORE PUSH1 0xC PUSH1 0x20 MSTORE PUSH1 0x40 SWAP1 KECCAK256 PUSH1 0x3 ADD SLOAD PUSH1 0xFF AND JUMPDEST PUSH2 0x1393 JUMPI PUSH1 0x40 MLOAD PUSH3 0x461BCD PUSH1 0xE5 SHL DUP2 MSTORE PUSH1 0x20 PUSH1 0x4 DUP3 ADD MSTORE PUSH1 0x7 PUSH1 0x24 DUP3 ADD MSTORE PUSH7 0x125B9D985B1A59 PUSH1 0xCA SHL PUSH1 0x44 DUP3 ADD MSTORE PUSH1 0x64 ADD PUSH2 0x820 JUMP JUMPDEST PUSH3 0x989680 PUSH1 0x0 DUP4 PUSH1 0x3 DUP2 GT ISZERO PUSH2 0x13AB JUMPI PUSH2 0x13AB PUSH2 0x3C0A JUMP JUMPDEST EQ DUP1 PUSH2 0x13C8 JUMPI POP PUSH1 0x1 DUP4 PUSH1 0x3 DUP2 GT ISZERO PUSH2 0x13C6 JUMPI PUSH2 0x13C6 PUSH2 0x3C0A JUMP JUMPDEST EQ JUMPDEST ISZERO PUSH2 0x13F5 JUMPI PUSH2 0x13D9 PUSH2 0x3E8 DUP4 PUSH2 0x4237 JUMP JUMPDEST PUSH2 0x13E4 SWAP1 PUSH1 0x1 PUSH2 0x424B JUMP JUMPDEST PUSH2 0x13EE SWAP1 DUP3 PUSH2 0x426A JUMP JUMPDEST SWAP1 POP PUSH2 0x1462 JUMP JUMPDEST PUSH1 0x2 DUP4 PUSH1 0x3 DUP2 GT ISZERO PUSH2 0x1409 JUMPI PUSH2 0x1409 PUSH2 0x3C0A JUMP JUMPDEST SUB PUSH2 0x1425 JUMPI PUSH2 0x141A PUSH2 0x3E8 DUP4 PUSH2 0x4237 JUMP JUMPDEST PUSH2 0x13E4 SWAP1 PUSH1 0x5 PUSH2 0x424B JUMP JUMPDEST PUSH1 0x3 DUP4 PUSH1 0x3 DUP2 GT ISZERO PUSH2 0x1439 JUMPI PUSH2 0x1439 PUSH2 0x3C0A JUMP JUMPDEST SUB PUSH2 0x1462 JUMPI PUSH2 0x144A PUSH2 0x3E8 DUP4 PUSH2 0x4237 JUMP JUMPDEST PUSH2 0x1455 SWAP1 PUSH1 0x8 PUSH2 0x424B JUMP JUMPDEST PUSH2 0x145F SWAP1 DUP3 PUSH2 0x426A JUMP JUMPDEST SWAP1 POP JUMPDEST PUSH1 0x0 PUSH1 0xC PUSH1 0x0 DUP7 DUP2 MSTORE PUSH1 0x20 ADD SWAP1 DUP2 MSTORE PUSH1 0x20 ADD PUSH1 0x0 KECCAK256 PUSH1 0x40 MLOAD DUP1 PUSH1 0xA0 ADD PUSH1 0x40 MSTORE SWAP1 DUP2 PUSH1 0x0 DUP3 ADD SLOAD DUP2 MSTORE PUSH1 0x20 ADD PUSH1 0x1 DUP3 ADD SLOAD DUP2 MSTORE PUSH1 0x20 ADD PUSH1 0x2 DUP3 ADD DUP1 SLOAD PUSH2 0x14A6 SWAP1 PUSH2 0x3FCB JUMP JUMPDEST DUP1 PUSH1 0x1F ADD PUSH1 0x20 DUP1 SWAP2 DIV MUL PUSH1 0x20 ADD PUSH1 0x40 MLOAD SWAP1 DUP2 ADD PUSH1 0x40 MSTORE DUP1 SWAP3 SWAP2 SWAP1 DUP2 DUP2 MSTORE PUSH1 0x20 ADD DUP3 DUP1 SLOAD PUSH2 0x14D2 SWAP1 PUSH2 0x3FCB JUMP JUMPDEST DUP1 ISZERO PUSH2 0x151F JUMPI DUP1 PUSH1 0x1F LT PUSH2 0x14F4 JUMPI PUSH2 0x100 DUP1 DUP4 SLOAD DIV MUL DUP4 MSTORE SWAP2 PUSH1 0x20 ADD SWAP2 PUSH2 0x151F JUMP JUMPDEST DUP3 ADD SWAP2 SWAP1 PUSH1 0x0 MSTORE PUSH1 0x20 PUSH1 0x0 KECCAK256 SWAP1 JUMPDEST DUP2 SLOAD DUP2 MSTORE SWAP1 PUSH1 0x1 ADD SWAP1 PUSH1 0x20 ADD DUP1 DUP4 GT PUSH2 0x1502 JUMPI DUP3 SWAP1 SUB PUSH1 0x1F AND DUP3 ADD SWAP2 JUMPDEST POP POP POP SWAP2 DUP4 MSTORE POP POP PUSH1 0x3 DUP3 ADD SLOAD PUSH1 0xFF AND ISZERO ISZERO PUSH1 0x20 DUP3 ADD MSTORE PUSH1 0x4 DUP3 ADD DUP1 SLOAD PUSH1 0x40 SWAP1 SWAP3 ADD SWAP2 PUSH2 0x154B SWAP1 PUSH2 0x3FCB JUMP JUMPDEST DUP1 PUSH1 0x1F ADD PUSH1 0x20 DUP1 SWAP2 DIV MUL PUSH1 0x20 ADD PUSH1 0x40 MLOAD SWAP1 DUP2 ADD PUSH1 0x40 MSTORE DUP1 SWAP3 SWAP2 SWAP1 DUP2 DUP2 MSTORE PUSH1 0x20 ADD DUP3 DUP1 SLOAD PUSH2 0x1577 SWAP1 PUSH2 0x3FCB JUMP JUMPDEST DUP1 ISZERO PUSH2 0x15C4 JUMPI DUP1 PUSH1 0x1F LT PUSH2 0x1599 JUMPI PUSH2 0x100 DUP1 DUP4 SLOAD DIV MUL DUP4 MSTORE SWAP2 PUSH1 0x20 ADD SWAP2 PUSH2 0x15C4 JUMP JUMPDEST DUP3 ADD SWAP2 SWAP1 PUSH1 0x0 MSTORE PUSH1 0x20 PUSH1 0x0 KECCAK256 SWAP1 JUMPDEST DUP2 SLOAD DUP2 MSTORE SWAP1 PUSH1 0x1 ADD SWAP1 PUSH1 0x20 ADD DUP1 DUP4 GT PUSH2 0x15A7 JUMPI DUP3 SWAP1 SUB PUSH1 0x1F AND DUP3 ADD SWAP2 JUMPDEST POP POP POP POP POP DUP2 MSTORE POP POP SWAP1 POP PUSH1 0x0 PUSH1 0x3 DUP2 GT ISZERO PUSH2 0x15E2 JUMPI PUSH2 0x15E2 PUSH2 0x3C0A JUMP JUMPDEST DUP5 PUSH1 0x3 DUP2 GT ISZERO PUSH2 0x15F4 JUMPI PUSH2 0x15F4 PUSH2 0x3C0A JUMP JUMPDEST SUB PUSH2 0x173B JUMPI PUSH1 0x80 DUP2 ADD MLOAD PUSH1 0x40 MLOAD PUSH4 0x378F8C53 PUSH1 0xE0 SHL DUP2 MSTORE PUSH1 0x0 SWAP2 PUSH20 0x0 SWAP2 PUSH4 0x378F8C53 SWAP2 PUSH2 0x1638 SWAP2 DUP13 SWAP1 PUSH1 0x4 ADD PUSH2 0x4282 JUMP JUMPDEST PUSH1 0x20 PUSH1 0x40 MLOAD DUP1 DUP4 SUB DUP2 DUP7 GAS DELEGATECALL ISZERO DUP1 ISZERO PUSH2 0x1655 JUMPI RETURNDATASIZE PUSH1 0x0 DUP1 RETURNDATACOPY RETURNDATASIZE PUSH1 0x0 REVERT JUMPDEST POP POP POP POP PUSH1 0x40 MLOAD RETURNDATASIZE PUSH1 0x1F NOT PUSH1 0x1F DUP3 ADD AND DUP3 ADD DUP1 PUSH1 0x40 MSTORE POP DUP2 ADD SWAP1 PUSH2 0x1679 SWAP2 SWAP1 PUSH2 0x42AC JUMP JUMPDEST SWAP1 POP DUP1 PUSH2 0x16BA JUMPI PUSH1 0x40 MLOAD PUSH3 0x461BCD PUSH1 0xE5 SHL DUP2 MSTORE PUSH1 0x20 PUSH1 0x4 DUP3 ADD MSTORE PUSH1 0xF PUSH1 0x24 DUP3 ADD MSTORE PUSH15 0x29B4B3B730BA3AB9329022B93937B9 PUSH1 0x89 SHL PUSH1 0x44 DUP3 ADD MSTORE PUSH1 0x64 ADD PUSH2 0x820 JUMP JUMPDEST PUSH1 0x60 DUP3 ADD MLOAD ISZERO PUSH2 0x16F6 JUMPI PUSH1 0x40 MLOAD PUSH3 0x461BCD PUSH1 0xE5 SHL DUP2 MSTORE PUSH1 0x20 PUSH1 0x4 DUP3 ADD MSTORE PUSH1 0x7 PUSH1 0x24 DUP3 ADD MSTORE PUSH7 0x125B9D985B1A59 PUSH1 0xCA SHL PUSH1 0x44 DUP3 ADD MSTORE PUSH1 0x64 ADD PUSH2 0x820 JUMP JUMPDEST PUSH2 0x1700 DUP9 DUP8 PUSH2 0x3074 JUMP JUMPDEST PUSH2 0x170E DUP7 DUP4 PUSH1 0x40 ADD MLOAD PUSH2 0x308E JUMP JUMPDEST PUSH2 0x1719 DUP9 DUP9 DUP9 PUSH2 0x2E2B JUMP JUMPDEST POP PUSH1 0x0 DUP6 DUP2 MSTORE PUSH1 0xC PUSH1 0x20 MSTORE PUSH1 0x40 SWAP1 KECCAK256 PUSH1 0x3 ADD DUP1 SLOAD PUSH1 0xFF NOT AND PUSH1 0x1 OR SWAP1 SSTORE PUSH2 0x1881 JUMP JUMPDEST PUSH1 0x0 DUP6 DUP2 MSTORE PUSH1 0xD PUSH1 0x20 MSTORE PUSH1 0x40 DUP1 DUP3 KECCAK256 SWAP1 MLOAD PUSH4 0x1FAD7093 PUSH1 0xE2 SHL DUP2 MSTORE PUSH20 0x0 SWAP2 PUSH4 0x7EB5C24C SWAP2 PUSH2 0x1784 SWAP2 PUSH1 0xE ADD SWAP1 DUP13 SWAP1 PUSH1 0x4 ADD PUSH2 0x42C9 JUMP JUMPDEST PUSH1 0x20 PUSH1 0x40 MLOAD DUP1 DUP4 SUB DUP2 DUP7 GAS DELEGATECALL ISZERO DUP1 ISZERO PUSH2 0x17A1 JUMPI RETURNDATASIZE PUSH1 0x0 DUP1 RETURNDATACOPY RETURNDATASIZE PUSH1 0x0 REVERT JUMPDEST POP POP POP POP PUSH1 0x40 MLOAD RETURNDATASIZE PUSH1 0x1F NOT PUSH1 0x1F DUP3 ADD AND DUP3 ADD DUP1 PUSH1 0x40 MSTORE POP DUP2 ADD SWAP1 PUSH2 0x17C5 SWAP2 SWAP1 PUSH2 0x42AC JUMP JUMPDEST SWAP1 POP DUP1 PUSH2 0x182A JUMPI PUSH1 0x40 MLOAD PUSH3 0x461BCD PUSH1 0xE5 SHL DUP2 MSTORE PUSH1 0x20 PUSH1 0x4 DUP3 ADD MSTORE PUSH1 0x2D PUSH1 0x24 DUP3 ADD MSTORE PUSH32 0x54686520676976656E2053656C6C6572206973206E6F7420746865206F776E65 PUSH1 0x44 DUP3 ADD MSTORE PUSH13 0x1C881BD9881D1A19481B185B99 PUSH1 0x9A SHL PUSH1 0x64 DUP3 ADD MSTORE PUSH1 0x84 ADD PUSH2 0x820 JUMP JUMPDEST DUP2 PUSH1 0x60 ADD MLOAD PUSH2 0x1874 JUMPI PUSH1 0x40 MLOAD PUSH3 0x461BCD PUSH1 0xE5 SHL DUP2 MSTORE PUSH1 0x20 PUSH1 0x4 DUP3 ADD MSTORE PUSH1 0x16 PUSH1 0x24 DUP3 ADD MSTORE PUSH22 0x24B73B30B634B21029B0B6329021B7B73234BA34B7B7 PUSH1 0x51 SHL PUSH1 0x44 DUP3 ADD MSTORE PUSH1 0x64 ADD PUSH2 0x820 JUMP JUMPDEST PUSH2 0x187F DUP9 DUP9 DUP9 PUSH2 0x2E2B JUMP JUMPDEST POP JUMPDEST PUSH1 0x40 DUP1 MLOAD PUSH1 0x60 DUP9 SWAP1 SHL PUSH12 0xFFFFFFFFFFFFFFFFFFFFFFFF NOT AND PUSH1 0x20 DUP3 ADD MSTORE DUP2 MLOAD PUSH1 0x14 DUP2 DUP4 SUB ADD DUP2 MSTORE PUSH1 0x34 DUP3 ADD SWAP3 DUP4 SWAP1 MSTORE PUSH4 0x89C19DDB PUSH1 0xE0 SHL SWAP1 SWAP3 MSTORE PUSH1 0x0 SWAP2 PUSH20 0x0 SWAP2 PUSH4 0x89C19DDB SWAP2 PUSH2 0x18E6 SWAP2 PUSH1 0x38 ADD PUSH2 0x4363 JUMP JUMPDEST PUSH1 0x0 PUSH1 0x40 MLOAD DUP1 DUP4 SUB DUP2 DUP7 GAS DELEGATECALL ISZERO DUP1 ISZERO PUSH2 0x1903 JUMPI RETURNDATASIZE PUSH1 0x0 DUP1 RETURNDATACOPY RETURNDATASIZE PUSH1 0x0 REVERT JUMPDEST POP POP POP POP PUSH1 0x40 MLOAD RETURNDATASIZE PUSH1 0x0 DUP3 RETURNDATACOPY PUSH1 0x1F RETURNDATASIZE SWAP1 DUP2 ADD PUSH1 0x1F NOT AND DUP3 ADD PUSH1 0x40 MSTORE PUSH2 0x192B SWAP2 SWAP1 DUP2 ADD SWAP1 PUSH2 0x41B3 JUMP JUMPDEST SWAP1 POP PUSH1 0x40 MLOAD DUP1 PUSH1 0xE0 ADD PUSH1 0x40 MSTORE DUP1 DUP8 DUP2 MSTORE PUSH1 0x20 ADD PUSH1 0xB PUSH1 0x0 DUP12 PUSH1 0x1 PUSH1 0x1 PUSH1 0xA0 SHL SUB AND PUSH1 0x1 PUSH1 0x1 PUSH1 0xA0 SHL SUB AND DUP2 MSTORE PUSH1 0x20 ADD SWAP1 DUP2 MSTORE PUSH1 0x20 ADD PUSH1 0x0 KECCAK256 PUSH1 0x40 MLOAD DUP1 PUSH1 0xA0 ADD PUSH1 0x40 MSTORE SWAP1 DUP2 PUSH1 0x0 DUP3 ADD DUP1 SLOAD PUSH2 0x197E SWAP1 PUSH2 0x3FCB JUMP JUMPDEST DUP1 PUSH1 0x1F ADD PUSH1 0x20 DUP1 SWAP2 DIV MUL PUSH1 0x20 ADD PUSH1 0x40 MLOAD SWAP1 DUP2 ADD PUSH1 0x40 MSTORE DUP1 SWAP3 SWAP2 SWAP1 DUP2 DUP2 MSTORE PUSH1 0x20 ADD DUP3 DUP1 SLOAD PUSH2 0x19AA SWAP1 PUSH2 0x3FCB JUMP JUMPDEST DUP1 ISZERO PUSH2 0x19F7 JUMPI DUP1 PUSH1 0x1F LT PUSH2 0x19CC JUMPI PUSH2 0x100 DUP1 DUP4 SLOAD DIV MUL DUP4 MSTORE SWAP2 PUSH1 0x20 ADD SWAP2 PUSH2 0x19F7 JUMP JUMPDEST DUP3 ADD SWAP2 SWAP1 PUSH1 0x0 MSTORE PUSH1 0x20 PUSH1 0x0 KECCAK256 SWAP1 JUMPDEST DUP2 SLOAD DUP2 MSTORE SWAP1 PUSH1 0x1 ADD SWAP1 PUSH1 0x20 ADD DUP1 DUP4 GT PUSH2 0x19DA JUMPI DUP3 SWAP1 SUB PUSH1 0x1F AND DUP3 ADD SWAP2 JUMPDEST POP POP POP POP POP DUP2 MSTORE PUSH1 0x20 ADD PUSH1 0x1 DUP3 ADD DUP1 SLOAD PUSH2 0x1A10 SWAP1 PUSH2 0x3FCB JUMP JUMPDEST DUP1 PUSH1 0x1F ADD PUSH1 0x20 DUP1 SWAP2 DIV MUL PUSH1 0x20 ADD PUSH1 0x40 MLOAD SWAP1 DUP2 ADD PUSH1 0x40 MSTORE DUP1 SWAP3 SWAP2 SWAP1 DUP2 DUP2 MSTORE PUSH1 0x20 ADD DUP3 DUP1 SLOAD PUSH2 0x1A3C SWAP1 PUSH2 0x3FCB JUMP JUMPDEST DUP1 ISZERO PUSH2 0x1A89 JUMPI DUP1 PUSH1 0x1F LT PUSH2 0x1A5E JUMPI PUSH2 0x100 DUP1 DUP4 SLOAD DIV MUL DUP4 MSTORE SWAP2 PUSH1 0x20 ADD SWAP2 PUSH2 0x1A89 JUMP JUMPDEST DUP3 ADD SWAP2 SWAP1 PUSH1 0x0 MSTORE PUSH1 0x20 PUSH1 0x0 KECCAK256 SWAP1 JUMPDEST DUP2 SLOAD DUP2 MSTORE SWAP1 PUSH1 0x1 ADD SWAP1 PUSH1 0x20 ADD DUP1 DUP4 GT PUSH2 0x1A6C JUMPI DUP3 SWAP1 SUB PUSH1 0x1F AND DUP3 ADD SWAP2 JUMPDEST POP POP POP POP POP DUP2 MSTORE PUSH1 0x20 ADD PUSH1 0x2 DUP3 ADD DUP1 SLOAD PUSH2 0x1AA2 SWAP1 PUSH2 0x3FCB JUMP JUMPDEST DUP1 PUSH1 0x1F ADD PUSH1 0x20 DUP1 SWAP2 DIV MUL PUSH1 0x20 ADD PUSH1 0x40 MLOAD SWAP1 DUP2 ADD PUSH1 0x40 MSTORE DUP1 SWAP3 SWAP2 SWAP1 DUP2 DUP2 MSTORE PUSH1 0x20 ADD DUP3 DUP1 SLOAD PUSH2 0x1ACE SWAP1 PUSH2 0x3FCB JUMP JUMPDEST DUP1 ISZERO PUSH2 0x1B1B JUMPI DUP1 PUSH1 0x1F LT PUSH2 0x1AF0 JUMPI PUSH2 0x100 DUP1 DUP4 SLOAD DIV MUL DUP4 MSTORE SWAP2 PUSH1 0x20 ADD SWAP2 PUSH2 0x1B1B JUMP JUMPDEST DUP3 ADD SWAP2 SWAP1 PUSH1 0x0 MSTORE PUSH1 0x20 PUSH1 0x0 KECCAK256 SWAP1 JUMPDEST DUP2 SLOAD DUP2 MSTORE SWAP1 PUSH1 0x1 ADD SWAP1 PUSH1 0x20 ADD DUP1 DUP4 GT PUSH2 0x1AFE JUMPI DUP3 SWAP1 SUB PUSH1 0x1F AND DUP3 ADD SWAP2 JUMPDEST POP POP POP POP POP DUP2 MSTORE PUSH1 0x20 ADD PUSH1 0x3 DUP3 ADD DUP1 SLOAD PUSH2 0x1B34 SWAP1 PUSH2 0x3FCB JUMP JUMPDEST DUP1 PUSH1 0x1F ADD PUSH1 0x20 DUP1 SWAP2 DIV MUL PUSH1 0x20 ADD PUSH1 0x40 MLOAD SWAP1 DUP2 ADD PUSH1 0x40 MSTORE DUP1 SWAP3 SWAP2 SWAP1 DUP2 DUP2 MSTORE PUSH1 0x20 ADD DUP3 DUP1 SLOAD PUSH2 0x1B60 SWAP1 PUSH2 0x3FCB JUMP JUMPDEST DUP1 ISZERO PUSH2 0x1BAD JUMPI DUP1 PUSH1 0x1F LT PUSH2 0x1B82 JUMPI PUSH2 0x100 DUP1 DUP4 SLOAD DIV MUL DUP4 MSTORE SWAP2 PUSH1 0x20 ADD SWAP2 PUSH2 0x1BAD JUMP JUMPDEST DUP3 ADD SWAP2 SWAP1 PUSH1 0x0 MSTORE PUSH1 0x20 PUSH1 0x0 KECCAK256 SWAP1 JUMPDEST DUP2 SLOAD DUP2 MSTORE SWAP1 PUSH1 0x1 ADD SWAP1 PUSH1 0x20 ADD DUP1 DUP4 GT PUSH2 0x1B90 JUMPI DUP3 SWAP1 SUB PUSH1 0x1F AND DUP3 ADD SWAP2 JUMPDEST POP POP POP SWAP2 DUP4 MSTORE POP POP PUSH1 0x4 SWAP2 SWAP1 SWAP2 ADD SLOAD PUSH1 0x1 PUSH1 0x1 PUSH1 0xA0 SHL SUB SWAP1 DUP2 AND PUSH1 0x20 SWAP3 DUP4 ADD MSTORE SWAP2 DUP4 MSTORE SWAP1 DUP11 AND PUSH1 0x0 SWAP1 DUP2 MSTORE PUSH1 0xB DUP3 MSTORE PUSH1 0x40 SWAP1 DUP2 SWAP1 KECCAK256 DUP2 MLOAD PUSH1 0xA0 DUP2 ADD SWAP1 SWAP3 MSTORE DUP1 SLOAD SWAP4 SWAP1 SWAP3 ADD SWAP3 SWAP1 SWAP2 SWAP1 DUP3 SWAP1 DUP3 SWAP1 PUSH2 0x1C02 SWAP1 PUSH2 0x3FCB JUMP JUMPDEST DUP1 PUSH1 0x1F ADD PUSH1 0x20 DUP1 SWAP2 DIV MUL PUSH1 0x20 ADD PUSH1 0x40 MLOAD SWAP1 DUP2 ADD PUSH1 0x40 MSTORE DUP1 SWAP3 SWAP2 SWAP1 DUP2 DUP2 MSTORE PUSH1 0x20 ADD DUP3 DUP1 SLOAD PUSH2 0x1C2E SWAP1 PUSH2 0x3FCB JUMP JUMPDEST DUP1 ISZERO PUSH2 0x1C7B JUMPI DUP1 PUSH1 0x1F LT PUSH2 0x1C50 JUMPI PUSH2 0x100 DUP1 DUP4 SLOAD DIV MUL DUP4 MSTORE SWAP2 PUSH1 0x20 ADD SWAP2 PUSH2 0x1C7B JUMP JUMPDEST DUP3 ADD SWAP2 SWAP1 PUSH1 0x0 MSTORE PUSH1 0x20 PUSH1 0x0 KECCAK256 SWAP1 JUMPDEST DUP2 SLOAD DUP2 MSTORE SWAP1 PUSH1 0x1 ADD SWAP1 PUSH1 0x20 ADD DUP1 DUP4 GT PUSH2 0x1C5E JUMPI DUP3 SWAP1 SUB PUSH1 0x1F AND DUP3 ADD SWAP2 JUMPDEST POP POP POP POP POP DUP2 MSTORE PUSH1 0x20 ADD PUSH1 0x1 DUP3 ADD DUP1 SLOAD PUSH2 0x1C94 SWAP1 PUSH2 0x3FCB JUMP JUMPDEST DUP1 PUSH1 0x1F ADD PUSH1 0x20 DUP1 SWAP2 DIV MUL PUSH1 0x20 ADD PUSH1 0x40 MLOAD SWAP1 DUP2 ADD PUSH1 0x40 MSTORE DUP1 SWAP3 SWAP2 SWAP1 DUP2 DUP2 MSTORE PUSH1 0x20 ADD DUP3 DUP1 SLOAD PUSH2 0x1CC0 SWAP1 PUSH2 0x3FCB JUMP JUMPDEST DUP1 ISZERO PUSH2 0x1D0D JUMPI DUP1 PUSH1 0x1F LT PUSH2 0x1CE2 JUMPI PUSH2 0x100 DUP1 DUP4 SLOAD DIV MUL DUP4 MSTORE SWAP2 PUSH1 0x20 ADD SWAP2 PUSH2 0x1D0D JUMP JUMPDEST DUP3 ADD SWAP2 SWAP1 PUSH1 0x0 MSTORE PUSH1 0x20 PUSH1 0x0 KECCAK256 SWAP1 JUMPDEST DUP2 SLOAD DUP2 MSTORE SWAP1 PUSH1 0x1 ADD SWAP1 PUSH1 0x20 ADD DUP1 DUP4 GT PUSH2 0x1CF0 JUMPI DUP3 SWAP1 SUB PUSH1 0x1F AND DUP3 ADD SWAP2 JUMPDEST POP POP POP POP POP DUP2 MSTORE PUSH1 0x20 ADD PUSH1 0x2 DUP3 ADD DUP1 SLOAD PUSH2 0x1D26 SWAP1 PUSH2 0x3FCB JUMP JUMPDEST DUP1 PUSH1 0x1F ADD PUSH1 0x20 DUP1 SWAP2 DIV MUL PUSH1 0x20 ADD PUSH1 0x40 MLOAD SWAP1 DUP2 ADD PUSH1 0x40 MSTORE DUP1 SWAP3 SWAP2 SWAP1 DUP2 DUP2 MSTORE PUSH1 0x20 ADD DUP3 DUP1 SLOAD PUSH2 0x1D52 SWAP1 PUSH2 0x3FCB JUMP JUMPDEST DUP1 ISZERO PUSH2 0x1D9F JUMPI DUP1 PUSH1 0x1F LT PUSH2 0x1D74 JUMPI PUSH2 0x100 DUP1 DUP4 SLOAD DIV MUL DUP4 MSTORE SWAP2 PUSH1 0x20 ADD SWAP2 PUSH2 0x1D9F JUMP JUMPDEST DUP3 ADD SWAP2 SWAP1 PUSH1 0x0 MSTORE PUSH1 0x20 PUSH1 0x0 KECCAK256 SWAP1 JUMPDEST DUP2 SLOAD DUP2 MSTORE SWAP1 PUSH1 0x1 ADD SWAP1 PUSH1 0x20 ADD DUP1 DUP4 GT PUSH2 0x1D82 JUMPI DUP3 SWAP1 SUB PUSH1 0x1F AND DUP3 ADD SWAP2 JUMPDEST POP POP POP POP POP DUP2 MSTORE PUSH1 0x20 ADD PUSH1 0x3 DUP3 ADD DUP1 SLOAD PUSH2 0x1DB8 SWAP1 PUSH2 0x3FCB JUMP JUMPDEST DUP1 PUSH1 0x1F ADD PUSH1 0x20 DUP1 SWAP2 DIV MUL PUSH1 0x20 ADD PUSH1 0x40 MLOAD SWAP1 DUP2 ADD PUSH1 0x40 MSTORE DUP1 SWAP3 SWAP2 SWAP1 DUP2 DUP2 MSTORE PUSH1 0x20 ADD DUP3 DUP1 SLOAD PUSH2 0x1DE4 SWAP1 PUSH2 0x3FCB JUMP JUMPDEST DUP1 ISZERO PUSH2 0x1E31 JUMPI DUP1 PUSH1 0x1F LT PUSH2 0x1E06 JUMPI PUSH2 0x100 DUP1 DUP4 SLOAD DIV MUL DUP4 MSTORE SWAP2 PUSH1 0x20 ADD SWAP2 PUSH2 0x1E31 JUMP JUMPDEST DUP3 ADD SWAP2 SWAP1 PUSH1 0x0 MSTORE PUSH1 0x20 PUSH1 0x0 KECCAK256 SWAP1 JUMPDEST DUP2 SLOAD DUP2 MSTORE SWAP1 PUSH1 0x1 ADD SWAP1 PUSH1 0x20 ADD DUP1 DUP4 GT PUSH2 0x1E14 JUMPI DUP3 SWAP1 SUB PUSH1 0x1F AND DUP3 ADD SWAP2 JUMPDEST POP POP POP SWAP2 DUP4 MSTORE POP POP PUSH1 0x4 SWAP2 SWAP1 SWAP2 ADD SLOAD PUSH1 0x1 PUSH1 0x1 PUSH1 0xA0 SHL SUB AND PUSH1 0x20 SWAP2 DUP3 ADD MSTORE SWAP1 DUP3 MSTORE ADD DUP7 PUSH1 0x3 DUP2 GT ISZERO PUSH2 0x1E65 JUMPI PUSH2 0x1E65 PUSH2 0x3C0A JUMP JUMPDEST DUP2 MSTORE PUSH1 0x20 DUP1 DUP3 ADD DUP8 SWAP1 MSTORE PUSH1 0x40 DUP1 DUP4 ADD DUP8 SWAP1 MSTORE PUSH1 0x60 SWAP1 SWAP3 ADD DUP5 SWAP1 MSTORE PUSH1 0x0 DUP10 DUP2 MSTORE PUSH1 0xD DUP3 MSTORE SWAP2 SWAP1 SWAP2 KECCAK256 DUP3 MLOAD DUP2 SSTORE SWAP1 DUP3 ADD MLOAD DUP1 MLOAD PUSH1 0x1 DUP4 ADD SWAP1 DUP2 SWAP1 PUSH2 0x1EA7 SWAP1 DUP3 PUSH2 0x4053 JUMP JUMPDEST POP PUSH1 0x20 DUP3 ADD MLOAD PUSH1 0x1 DUP3 ADD SWAP1 PUSH2 0x1EBC SWAP1 DUP3 PUSH2 0x4053 JUMP JUMPDEST POP PUSH1 0x40 DUP3 ADD MLOAD PUSH1 0x2 DUP3 ADD SWAP1 PUSH2 0x1ED1 SWAP1 DUP3 PUSH2 0x4053 JUMP JUMPDEST POP PUSH1 0x60 DUP3 ADD MLOAD PUSH1 0x3 DUP3 ADD SWAP1 PUSH2 0x1EE6 SWAP1 DUP3 PUSH2 0x4053 JUMP JUMPDEST POP PUSH1 0x80 SWAP2 SWAP1 SWAP2 ADD MLOAD PUSH1 0x4 SWAP1 SWAP2 ADD DUP1 SLOAD PUSH1 0x1 PUSH1 0x1 PUSH1 0xA0 SHL SUB NOT AND PUSH1 0x1 PUSH1 0x1 PUSH1 0xA0 SHL SUB SWAP1 SWAP3 AND SWAP2 SWAP1 SWAP2 OR SWAP1 SSTORE PUSH1 0x40 DUP3 ADD MLOAD DUP1 MLOAD PUSH1 0x6 DUP4 ADD SWAP1 DUP2 SWAP1 PUSH2 0x1F28 SWAP1 DUP3 PUSH2 0x4053 JUMP JUMPDEST POP PUSH1 0x20 DUP3 ADD MLOAD PUSH1 0x1 DUP3 ADD SWAP1 PUSH2 0x1F3D SWAP1 DUP3 PUSH2 0x4053 JUMP JUMPDEST POP PUSH1 0x40 DUP3 ADD MLOAD PUSH1 0x2 DUP3 ADD SWAP1 PUSH2 0x1F52 SWAP1 DUP3 PUSH2 0x4053 JUMP JUMPDEST POP PUSH1 0x60 DUP3 ADD MLOAD PUSH1 0x3 DUP3 ADD SWAP1 PUSH2 0x1F67 SWAP1 DUP3 PUSH2 0x4053 JUMP JUMPDEST POP PUSH1 0x80 SWAP2 SWAP1 SWAP2 ADD MLOAD PUSH1 0x4 SWAP1 SWAP2 ADD DUP1 SLOAD PUSH1 0x1 PUSH1 0x1 PUSH1 0xA0 SHL SUB NOT AND PUSH1 0x1 PUSH1 0x1 PUSH1 0xA0 SHL SUB SWAP1 SWAP3 AND SWAP2 SWAP1 SWAP2 OR SWAP1 SSTORE PUSH1 0x60 DUP3 ADD MLOAD PUSH1 0xB DUP3 ADD DUP1 SLOAD PUSH1 0xFF NOT AND PUSH1 0x1 DUP4 PUSH1 0x3 DUP2 GT ISZERO PUSH2 0x1FB4 JUMPI PUSH2 0x1FB4 PUSH2 0x3C0A JUMP JUMPDEST MUL OR SWAP1 SSTORE POP PUSH1 0x80 DUP3 ADD MLOAD PUSH1 0xC DUP3 ADD SSTORE PUSH1 0xA0 DUP3 ADD MLOAD PUSH1 0xD DUP3 ADD SSTORE PUSH1 0xC0 DUP3 ADD MLOAD PUSH1 0xE DUP3 ADD SWAP1 PUSH2 0x1FE1 SWAP1 DUP3 PUSH2 0x4053 JUMP JUMPDEST POP PUSH1 0x0 SWAP2 POP PUSH2 0x1FED SWAP1 POP JUMP JUMPDEST DUP6 PUSH1 0x3 DUP2 GT ISZERO PUSH2 0x1FFF JUMPI PUSH2 0x1FFF PUSH2 0x3C0A JUMP JUMPDEST SUB PUSH2 0x2034 JUMPI PUSH1 0x1 PUSH1 0x1 PUSH1 0xA0 SHL SUB DUP8 AND PUSH1 0x0 SWAP1 DUP2 MSTORE PUSH1 0xE PUSH1 0x20 SWAP1 DUP2 MSTORE PUSH1 0x40 DUP3 KECCAK256 DUP1 SLOAD PUSH1 0x1 DUP2 ADD DUP3 SSTORE SWAP1 DUP4 MSTORE SWAP2 KECCAK256 ADD DUP7 SWAP1 SSTORE PUSH2 0x210D JUMP JUMPDEST PUSH1 0x0 JUMPDEST PUSH1 0x1 PUSH1 0x1 PUSH1 0xA0 SHL SUB DUP10 AND PUSH1 0x0 SWAP1 DUP2 MSTORE PUSH1 0xE PUSH1 0x20 MSTORE PUSH1 0x40 SWAP1 KECCAK256 SLOAD DUP2 LT ISZERO PUSH2 0x20E0 JUMPI PUSH1 0x1 PUSH1 0x1 PUSH1 0xA0 SHL SUB DUP10 AND PUSH1 0x0 SWAP1 DUP2 MSTORE PUSH1 0xE PUSH1 0x20 MSTORE PUSH1 0x40 SWAP1 KECCAK256 DUP1 SLOAD DUP9 SWAP2 SWAP1 DUP4 SWAP1 DUP2 LT PUSH2 0x2084 JUMPI PUSH2 0x2084 PUSH2 0x43A1 JUMP JUMPDEST SWAP1 PUSH1 0x0 MSTORE PUSH1 0x20 PUSH1 0x0 KECCAK256 ADD SLOAD SUB PUSH2 0x20CE JUMPI PUSH1 0x1 PUSH1 0x1 PUSH1 0xA0 SHL SUB DUP10 AND PUSH1 0x0 SWAP1 DUP2 MSTORE PUSH1 0xE PUSH1 0x20 MSTORE PUSH1 0x40 SWAP1 KECCAK256 DUP1 SLOAD DUP3 SWAP1 DUP2 LT PUSH2 0x20BE JUMPI PUSH2 0x20BE PUSH2 0x43A1 JUMP JUMPDEST PUSH1 0x0 SWAP2 DUP3 MSTORE PUSH1 0x20 DUP3 KECCAK256 ADD SSTORE PUSH2 0x20E0 JUMP JUMPDEST PUSH2 0x20D9 DUP2 PUSH1 0x1 PUSH2 0x426A JUMP JUMPDEST SWAP1 POP PUSH2 0x2037 JUMP JUMPDEST POP PUSH1 0x1 PUSH1 0x1 PUSH1 0xA0 SHL SUB DUP8 AND PUSH1 0x0 SWAP1 DUP2 MSTORE PUSH1 0xE PUSH1 0x20 SWAP1 DUP2 MSTORE PUSH1 0x40 DUP3 KECCAK256 DUP1 SLOAD PUSH1 0x1 DUP2 ADD DUP3 SSTORE SWAP1 DUP4 MSTORE SWAP2 KECCAK256 ADD DUP7 SWAP1 SSTORE JUMPDEST DUP3 PUSH1 0x9 PUSH1 0x0 DUP3 DUP3 SLOAD PUSH2 0x211F SWAP2 SWAP1 PUSH2 0x426A JUMP JUMPDEST SWAP1 SWAP2 SSTORE POP POP POP POP POP POP POP POP POP POP JUMP JUMPDEST PUSH1 0x0 PUSH2 0x2138 PUSH2 0x301A JUMP JUMPDEST POP PUSH1 0x9 SLOAD SWAP1 JUMP JUMPDEST PUSH1 0x0 PUSH1 0x1 PUSH1 0x1 PUSH1 0xA0 SHL SUB DUP3 AND PUSH2 0x21A9 JUMPI PUSH1 0x40 MLOAD PUSH3 0x461BCD PUSH1 0xE5 SHL DUP2 MSTORE PUSH1 0x20 PUSH1 0x4 DUP3 ADD MSTORE PUSH1 0x29 PUSH1 0x24 DUP3 ADD MSTORE PUSH32 0x4552433732313A2061646472657373207A65726F206973206E6F742061207661 PUSH1 0x44 DUP3 ADD MSTORE PUSH9 0x3634B21037BBB732B9 PUSH1 0xB9 SHL PUSH1 0x64 DUP3 ADD MSTORE PUSH1 0x84 ADD PUSH2 0x820 JUMP JUMPDEST POP PUSH1 0x1 PUSH1 0x1 PUSH1 0xA0 SHL SUB AND PUSH1 0x0 SWAP1 DUP2 MSTORE PUSH1 0x3 PUSH1 0x20 MSTORE PUSH1 0x40 SWAP1 KECCAK256 SLOAD SWAP1 JUMP JUMPDEST PUSH2 0x21CD PUSH2 0x301A JUMP JUMPDEST PUSH2 0x21D7 PUSH1 0x0 PUSH2 0x3121 JUMP JUMPDEST JUMP JUMPDEST PUSH1 0x60 PUSH1 0x1 DUP1 SLOAD PUSH2 0x702 SWAP1 PUSH2 0x3FCB JUMP JUMPDEST PUSH1 0xF PUSH1 0x20 MSTORE PUSH1 0x0 SWAP1 DUP2 MSTORE PUSH1 0x40 SWAP1 KECCAK256 DUP1 SLOAD DUP2 SWAP1 PUSH2 0x2203 SWAP1 PUSH2 0x3FCB JUMP JUMPDEST DUP1 PUSH1 0x1F ADD PUSH1 0x20 DUP1 SWAP2 DIV MUL PUSH1 0x20 ADD PUSH1 0x40 MLOAD SWAP1 DUP2 ADD PUSH1 0x40 MSTORE DUP1 SWAP3 SWAP2 SWAP1 DUP2 DUP2 MSTORE PUSH1 0x20 ADD DUP3 DUP1 SLOAD PUSH2 0x222F SWAP1 PUSH2 0x3FCB JUMP JUMPDEST DUP1 ISZERO PUSH2 0x227C JUMPI DUP1 PUSH1 0x1F LT PUSH2 0x2251 JUMPI PUSH2 0x100 DUP1 DUP4 SLOAD DIV MUL DUP4 MSTORE SWAP2 PUSH1 0x20 ADD SWAP2 PUSH2 0x227C JUMP JUMPDEST DUP3 ADD SWAP2 SWAP1 PUSH1 0x0 MSTORE PUSH1 0x20 PUSH1 0x0 KECCAK256 SWAP1 JUMPDEST DUP2 SLOAD DUP2 MSTORE SWAP1 PUSH1 0x1 ADD SWAP1 PUSH1 0x20 ADD DUP1 DUP4 GT PUSH2 0x225F JUMPI DUP3 SWAP1 SUB PUSH1 0x1F AND DUP3 ADD SWAP2 JUMPDEST POP POP POP PUSH1 0x1 SWAP1 SWAP4 ADD SLOAD SWAP2 SWAP3 POP POP PUSH1 0xFF AND DUP3 JUMP JUMPDEST PUSH2 0x229A CALLER DUP4 DUP4 PUSH2 0x3173 JUMP JUMPDEST POP POP JUMP JUMPDEST PUSH1 0xB PUSH1 0x20 MSTORE PUSH1 0x0 SWAP1 DUP2 MSTORE PUSH1 0x40 SWAP1 KECCAK256 DUP1 SLOAD DUP2 SWAP1 PUSH2 0x22B9 SWAP1 PUSH2 0x3FCB JUMP JUMPDEST DUP1 PUSH1 0x1F ADD PUSH1 0x20 DUP1 SWAP2 DIV MUL PUSH1 0x20 ADD PUSH1 0x40 MLOAD SWAP1 DUP2 ADD PUSH1 0x40 MSTORE DUP1 SWAP3 SWAP2 SWAP1 DUP2 DUP2 MSTORE PUSH1 0x20 ADD DUP3 DUP1 SLOAD PUSH2 0x22E5 SWAP1 PUSH2 0x3FCB JUMP JUMPDEST DUP1 ISZERO PUSH2 0x2332 JUMPI DUP1 PUSH1 0x1F LT PUSH2 0x2307 JUMPI PUSH2 0x100 DUP1 DUP4 SLOAD DIV MUL DUP4 MSTORE SWAP2 PUSH1 0x20 ADD SWAP2 PUSH2 0x2332 JUMP JUMPDEST DUP3 ADD SWAP2 SWAP1 PUSH1 0x0 MSTORE PUSH1 0x20 PUSH1 0x0 KECCAK256 SWAP1 JUMPDEST DUP2 SLOAD DUP2 MSTORE SWAP1 PUSH1 0x1 ADD SWAP1 PUSH1 0x20 ADD DUP1 DUP4 GT PUSH2 0x2315 JUMPI DUP3 SWAP1 SUB PUSH1 0x1F AND DUP3 ADD SWAP2 JUMPDEST POP POP POP POP POP SWAP1 DUP1 PUSH1 0x1 ADD DUP1 SLOAD PUSH2 0x2347 SWAP1 PUSH2 0x3FCB JUMP JUMPDEST DUP1 PUSH1 0x1F ADD PUSH1 0x20 DUP1 SWAP2 DIV MUL PUSH1 0x20 ADD PUSH1 0x40 MLOAD SWAP1 DUP2 ADD PUSH1 0x40 MSTORE DUP1 SWAP3 SWAP2 SWAP1 DUP2 DUP2 MSTORE PUSH1 0x20 ADD DUP3 DUP1 SLOAD PUSH2 0x2373 SWAP1 PUSH2 0x3FCB JUMP JUMPDEST DUP1 ISZERO PUSH2 0x23C0 JUMPI DUP1 PUSH1 0x1F LT PUSH2 0x2395 JUMPI PUSH2 0x100 DUP1 DUP4 SLOAD DIV MUL DUP4 MSTORE SWAP2 PUSH1 0x20 ADD SWAP2 PUSH2 0x23C0 JUMP JUMPDEST DUP3 ADD SWAP2 SWAP1 PUSH1 0x0 MSTORE PUSH1 0x20 PUSH1 0x0 KECCAK256 SWAP1 JUMPDEST DUP2 SLOAD DUP2 MSTORE SWAP1 PUSH1 0x1 ADD SWAP1 PUSH1 0x20 ADD DUP1 DUP4 GT PUSH2 0x23A3 JUMPI DUP3 SWAP1 SUB PUSH1 0x1F AND DUP3 ADD SWAP2 JUMPDEST POP POP POP POP POP SWAP1 DUP1 PUSH1 0x2 ADD DUP1 SLOAD PUSH2 0x23D5 SWAP1 PUSH2 0x3FCB JUMP JUMPDEST DUP1 PUSH1 0x1F ADD PUSH1 0x20 DUP1 SWAP2 DIV MUL PUSH1 0x20 ADD PUSH1 0x40 MLOAD SWAP1 DUP2 ADD PUSH1 0x40 MSTORE DUP1 SWAP3 SWAP2 SWAP1 DUP2 DUP2 MSTORE PUSH1 0x20 ADD DUP3 DUP1 SLOAD PUSH2 0x2401 SWAP1 PUSH2 0x3FCB JUMP JUMPDEST DUP1 ISZERO PUSH2 0x244E JUMPI DUP1 PUSH1 0x1F LT PUSH2 0x2423 JUMPI PUSH2 0x100 DUP1 DUP4 SLOAD DIV MUL DUP4 MSTORE SWAP2 PUSH1 0x20 ADD SWAP2 PUSH2 0x244E JUMP JUMPDEST DUP3 ADD SWAP2 SWAP1 PUSH1 0x0 MSTORE PUSH1 0x20 PUSH1 0x0 KECCAK256 SWAP1 JUMPDEST DUP2 SLOAD DUP2 MSTORE SWAP1 PUSH1 0x1 ADD SWAP1 PUSH1 0x20 ADD DUP1 DUP4 GT PUSH2 0x2431 JUMPI DUP3 SWAP1 SUB PUSH1 0x1F AND DUP3 ADD SWAP2 JUMPDEST POP POP POP POP POP SWAP1 DUP1 PUSH1 0x3 ADD DUP1 SLOAD PUSH2 0x2463 SWAP1 PUSH2 0x3FCB JUMP JUMPDEST DUP1 PUSH1 0x1F ADD PUSH1 0x20 DUP1 SWAP2 DIV MUL PUSH1 0x20 ADD PUSH1 0x40 MLOAD SWAP1 DUP2 ADD PUSH1 0x40 MSTORE DUP1 SWAP3 SWAP2 SWAP1 DUP2 DUP2 MSTORE PUSH1 0x20 ADD DUP3 DUP1 SLOAD PUSH2 0x248F SWAP1 PUSH2 0x3FCB JUMP JUMPDEST DUP1 ISZERO PUSH2 0x24DC JUMPI DUP1 PUSH1 0x1F LT PUSH2 0x24B1 JUMPI PUSH2 0x100 DUP1 DUP4 SLOAD DIV MUL DUP4 MSTORE SWAP2 PUSH1 0x20 ADD SWAP2 PUSH2 0x24DC JUMP JUMPDEST DUP3 ADD SWAP2 SWAP1 PUSH1 0x0 MSTORE PUSH1 0x20 PUSH1 0x0 KECCAK256 SWAP1 JUMPDEST DUP2 SLOAD DUP2 MSTORE SWAP1 PUSH1 0x1 ADD SWAP1 PUSH1 0x20 ADD DUP1 DUP4 GT PUSH2 0x24BF JUMPI DUP3 SWAP1 SUB PUSH1 0x1F AND DUP3 ADD SWAP2 JUMPDEST POP POP POP PUSH1 0x4 SWAP1 SWAP4 ADD SLOAD SWAP2 SWAP3 POP POP PUSH1 0x1 PUSH1 0x1 PUSH1 0xA0 SHL SUB AND DUP6 JUMP JUMPDEST PUSH1 0xE PUSH1 0x20 MSTORE DUP2 PUSH1 0x0 MSTORE PUSH1 0x40 PUSH1 0x0 KECCAK256 DUP2 DUP2 SLOAD DUP2 LT PUSH2 0x2511 JUMPI PUSH1 0x0 DUP1 REVERT JUMPDEST SWAP1 PUSH1 0x0 MSTORE PUSH1 0x20 PUSH1 0x0 KECCAK256 ADD PUSH1 0x0 SWAP2 POP SWAP2 POP POP SLOAD DUP2 JUMP JUMPDEST PUSH2 0x2530 CALLER DUP4 PUSH2 0x2DAC JUMP JUMPDEST PUSH2 0x254C JUMPI PUSH1 0x40 MLOAD PUSH3 0x461BCD PUSH1 0xE5 SHL DUP2 MSTORE PUSH1 0x4 ADD PUSH2 0x820 SWAP1 PUSH2 0x412C JUMP JUMPDEST PUSH2 0x2558 DUP5 DUP5 DUP5 DUP5 PUSH2 0x3241 JUMP JUMPDEST POP POP POP POP JUMP JUMPDEST PUSH1 0x60 PUSH2 0x6D7 DUP3 PUSH2 0x3274 JUMP JUMPDEST PUSH2 0x2571 PUSH2 0x301A JUMP JUMPDEST PUSH2 0x257B DUP4 DUP4 PUSH2 0x3074 JUMP JUMPDEST PUSH2 0x8C1 DUP3 DUP3 PUSH2 0x308E JUMP JUMPDEST PUSH1 0xC PUSH1 0x20 MSTORE PUSH1 0x0 SWAP1 DUP2 MSTORE PUSH1 0x40 SWAP1 KECCAK256 DUP1 SLOAD PUSH1 0x1 DUP3 ADD SLOAD PUSH1 0x2 DUP4 ADD DUP1 SLOAD SWAP3 SWAP4 SWAP2 SWAP3 PUSH2 0x25AD SWAP1 PUSH2 0x3FCB JUMP JUMPDEST DUP1 PUSH1 0x1F ADD PUSH1 0x20 DUP1 SWAP2 DIV MUL PUSH1 0x20 ADD PUSH1 0x40 MLOAD SWAP1 DUP2 ADD PUSH1 0x40 MSTORE DUP1 SWAP3 SWAP2 SWAP1 DUP2 DUP2 MSTORE PUSH1 0x20 ADD DUP3 DUP1 SLOAD PUSH2 0x25D9 SWAP1 PUSH2 0x3FCB JUMP JUMPDEST DUP1 ISZERO PUSH2 0x2626 JUMPI DUP1 PUSH1 0x1F LT PUSH2 0x25FB JUMPI PUSH2 0x100 DUP1 DUP4 SLOAD DIV MUL DUP4 MSTORE SWAP2 PUSH1 0x20 ADD SWAP2 PUSH2 0x2626 JUMP JUMPDEST DUP3 ADD SWAP2 SWAP1 PUSH1 0x0 MSTORE PUSH1 0x20 PUSH1 0x0 KECCAK256 SWAP1 JUMPDEST DUP2 SLOAD DUP2 MSTORE SWAP1 PUSH1 0x1 ADD SWAP1 PUSH1 0x20 ADD DUP1 DUP4 GT PUSH2 0x2609 JUMPI DUP3 SWAP1 SUB PUSH1 0x1F AND DUP3 ADD SWAP2 JUMPDEST POP POP POP PUSH1 0x3 DUP5 ADD SLOAD PUSH1 0x4 DUP6 ADD DUP1 SLOAD SWAP5 SWAP6 PUSH1 0xFF SWAP1 SWAP3 AND SWAP5 SWAP2 SWAP4 POP SWAP2 POP PUSH2 0x264A SWAP1 PUSH2 0x3FCB JUMP JUMPDEST DUP1 PUSH1 0x1F ADD PUSH1 0x20 DUP1 SWAP2 DIV MUL PUSH1 0x20 ADD PUSH1 0x40 MLOAD SWAP1 DUP2 ADD PUSH1 0x40 MSTORE DUP1 SWAP3 SWAP2 SWAP1 DUP2 DUP2 MSTORE PUSH1 0x20 ADD DUP3 DUP1 SLOAD PUSH2 0x2676 SWAP1 PUSH2 0x3FCB JUMP JUMPDEST DUP1 ISZERO PUSH2 0x26C3 JUMPI DUP1 PUSH1 0x1F LT PUSH2 0x2698 JUMPI PUSH2 0x100 DUP1 DUP4 SLOAD DIV MUL DUP4 MSTORE SWAP2 PUSH1 0x20 ADD SWAP2 PUSH2 0x26C3 JUMP JUMPDEST DUP3 ADD SWAP2 SWAP1 PUSH1 0x0 MSTORE PUSH1 0x20 PUSH1 0x0 KECCAK256 SWAP1 JUMPDEST DUP2 SLOAD DUP2 MSTORE SWAP1 PUSH1 0x1 ADD SWAP1 PUSH1 0x20 ADD DUP1 DUP4 GT PUSH2 0x26A6 JUMPI DUP3 SWAP1 SUB PUSH1 0x1F AND DUP3 ADD SWAP2 JUMPDEST POP POP POP POP POP SWAP1 POP DUP6 JUMP JUMPDEST PUSH1 0xD PUSH1 0x20 MSTORE PUSH1 0x0 SWAP1 DUP2 MSTORE PUSH1 0x40 SWAP1 DUP2 SWAP1 KECCAK256 DUP1 SLOAD DUP3 MLOAD PUSH1 0xA0 DUP2 ADD SWAP1 SWAP4 MSTORE PUSH1 0x1 DUP3 ADD DUP1 SLOAD SWAP2 SWAP4 SWAP2 DUP3 SWAP1 DUP3 SWAP1 PUSH2 0x26FE SWAP1 PUSH2 0x3FCB JUMP JUMPDEST DUP1 PUSH1 0x1F ADD PUSH1 0x20 DUP1 SWAP2 DIV MUL PUSH1 0x20 ADD PUSH1 0x40 MLOAD SWAP1 DUP2 ADD PUSH1 0x40 MSTORE DUP1 SWAP3 SWAP2 SWAP1 DUP2 DUP2 MSTORE PUSH1 0x20 ADD DUP3 DUP1 SLOAD PUSH2 0x272A SWAP1 PUSH2 0x3FCB JUMP JUMPDEST DUP1 ISZERO PUSH2 0x2777 JUMPI DUP1 PUSH1 0x1F LT PUSH2 0x274C JUMPI PUSH2 0x100 DUP1 DUP4 SLOAD DIV MUL DUP4 MSTORE SWAP2 PUSH1 0x20 ADD SWAP2 PUSH2 0x2777 JUMP JUMPDEST DUP3 ADD SWAP2 SWAP1 PUSH1 0x0 MSTORE PUSH1 0x20 PUSH1 0x0 KECCAK256 SWAP1 JUMPDEST DUP2 SLOAD DUP2 MSTORE SWAP1 PUSH1 0x1 ADD SWAP1 PUSH1 0x20 ADD DUP1 DUP4 GT PUSH2 0x275A JUMPI DUP3 SWAP1 SUB PUSH1 0x1F AND DUP3 ADD SWAP2 JUMPDEST POP POP POP POP POP DUP2 MSTORE PUSH1 0x20 ADD PUSH1 0x1 DUP3 ADD DUP1 SLOAD PUSH2 0x2790 SWAP1 PUSH2 0x3FCB JUMP JUMPDEST DUP1 PUSH1 0x1F ADD PUSH1 0x20 DUP1 SWAP2 DIV MUL PUSH1 0x20 ADD PUSH1 0x40 MLOAD SWAP1 DUP2 ADD PUSH1 0x40 MSTORE DUP1 SWAP3 SWAP2 SWAP1 DUP2 DUP2 MSTORE PUSH1 0x20 ADD DUP3 DUP1 SLOAD PUSH2 0x27BC SWAP1 PUSH2 0x3FCB JUMP JUMPDEST DUP1 ISZERO PUSH2 0x2809 JUMPI DUP1 PUSH1 0x1F LT PUSH2 0x27DE JUMPI PUSH2 0x100 DUP1 DUP4 SLOAD DIV MUL DUP4 MSTORE SWAP2 PUSH1 0x20 ADD SWAP2 PUSH2 0x2809 JUMP JUMPDEST DUP3 ADD SWAP2 SWAP1 PUSH1 0x0 MSTORE PUSH1 0x20 PUSH1 0x0 KECCAK256 SWAP1 JUMPDEST DUP2 SLOAD DUP2 MSTORE SWAP1 PUSH1 0x1 ADD SWAP1 PUSH1 0x20 ADD DUP1 DUP4 GT PUSH2 0x27EC JUMPI DUP3 SWAP1 SUB PUSH1 0x1F AND DUP3 ADD SWAP2 JUMPDEST POP POP POP POP POP DUP2 MSTORE PUSH1 0x20 ADD PUSH1 0x2 DUP3 ADD DUP1 SLOAD PUSH2 0x2822 SWAP1 PUSH2 0x3FCB JUMP JUMPDEST DUP1 PUSH1 0x1F ADD PUSH1 0x20 DUP1 SWAP2 DIV MUL PUSH1 0x20 ADD PUSH1 0x40 MLOAD SWAP1 DUP2 ADD PUSH1 0x40 MSTORE DUP1 SWAP3 SWAP2 SWAP1 DUP2 DUP2 MSTORE PUSH1 0x20 ADD DUP3 DUP1 SLOAD PUSH2 0x284E SWAP1 PUSH2 0x3FCB JUMP JUMPDEST DUP1 ISZERO PUSH2 0x289B JUMPI DUP1 PUSH1 0x1F LT PUSH2 0x2870 JUMPI PUSH2 0x100 DUP1 DUP4 SLOAD DIV MUL DUP4 MSTORE SWAP2 PUSH1 0x20 ADD SWAP2 PUSH2 0x289B JUMP JUMPDEST DUP3 ADD SWAP2 SWAP1 PUSH1 0x0 MSTORE PUSH1 0x20 PUSH1 0x0 KECCAK256 SWAP1 JUMPDEST DUP2 SLOAD DUP2 MSTORE SWAP1 PUSH1 0x1 ADD SWAP1 PUSH1 0x20 ADD DUP1 DUP4 GT PUSH2 0x287E JUMPI DUP3 SWAP1 SUB PUSH1 0x1F AND DUP3 ADD SWAP2 JUMPDEST POP POP POP POP POP DUP2 MSTORE PUSH1 0x20 ADD PUSH1 0x3 DUP3 ADD DUP1 SLOAD PUSH2 0x28B4 SWAP1 PUSH2 0x3FCB JUMP JUMPDEST DUP1 PUSH1 0x1F ADD PUSH1 0x20 DUP1 SWAP2 DIV MUL PUSH1 0x20 ADD PUSH1 0x40 MLOAD SWAP1 DUP2 ADD PUSH1 0x40 MSTORE DUP1 SWAP3 SWAP2 SWAP1 DUP2 DUP2 MSTORE PUSH1 0x20 ADD DUP3 DUP1 SLOAD PUSH2 0x28E0 SWAP1 PUSH2 0x3FCB JUMP JUMPDEST DUP1 ISZERO PUSH2 0x292D JUMPI DUP1 PUSH1 0x1F LT PUSH2 0x2902 JUMPI PUSH2 0x100 DUP1 DUP4 SLOAD DIV MUL DUP4 MSTORE SWAP2 PUSH1 0x20 ADD SWAP2 PUSH2 0x292D JUMP JUMPDEST DUP3 ADD SWAP2 SWAP1 PUSH1 0x0 MSTORE PUSH1 0x20 PUSH1 0x0 KECCAK256 SWAP1 JUMPDEST DUP2 SLOAD DUP2 MSTORE SWAP1 PUSH1 0x1 ADD SWAP1 PUSH1 0x20 ADD DUP1 DUP4 GT PUSH2 0x2910 JUMPI DUP3 SWAP1 SUB PUSH1 0x1F AND DUP3 ADD SWAP2 JUMPDEST POP POP POP SWAP2 DUP4 MSTORE POP POP PUSH1 0x4 SWAP2 SWAP1 SWAP2 ADD SLOAD PUSH1 0x1 PUSH1 0x1 PUSH1 0xA0 SHL SUB AND PUSH1 0x20 SWAP1 SWAP2 ADD MSTORE PUSH1 0x40 DUP1 MLOAD PUSH1 0xA0 DUP2 ADD SWAP1 SWAP2 MSTORE PUSH1 0x6 DUP4 ADD DUP1 SLOAD SWAP3 SWAP4 SWAP3 DUP3 SWAP1 DUP3 SWAP1 PUSH2 0x296C SWAP1 PUSH2 0x3FCB JUMP JUMPDEST DUP1 PUSH1 0x1F ADD PUSH1 0x20 DUP1 SWAP2 DIV MUL PUSH1 0x20 ADD PUSH1 0x40 MLOAD SWAP1 DUP2 ADD PUSH1 0x40 MSTORE DUP1 SWAP3 SWAP2 SWAP1 DUP2 DUP2 MSTORE PUSH1 0x20 ADD DUP3 DUP1 SLOAD PUSH2 0x2998 SWAP1 PUSH2 0x3FCB JUMP JUMPDEST DUP1 ISZERO PUSH2 0x29E5 JUMPI DUP1 PUSH1 0x1F LT PUSH2 0x29BA JUMPI PUSH2 0x100 DUP1 DUP4 SLOAD DIV MUL DUP4 MSTORE SWAP2 PUSH1 0x20 ADD SWAP2 PUSH2 0x29E5 JUMP JUMPDEST DUP3 ADD SWAP2 SWAP1 PUSH1 0x0 MSTORE PUSH1 0x20 PUSH1 0x0 KECCAK256 SWAP1 JUMPDEST DUP2 SLOAD DUP2 MSTORE SWAP1 PUSH1 0x1 ADD SWAP1 PUSH1 0x20 ADD DUP1 DUP4 GT PUSH2 0x29C8 JUMPI DUP3 SWAP1 SUB PUSH1 0x1F AND DUP3 ADD SWAP2 JUMPDEST POP POP POP POP POP DUP2 MSTORE PUSH1 0x20 ADD PUSH1 0x1 DUP3 ADD DUP1 SLOAD PUSH2 0x29FE SWAP1 PUSH2 0x3FCB JUMP JUMPDEST DUP1 PUSH1 0x1F ADD PUSH1 0x20 DUP1 SWAP2 DIV MUL PUSH1 0x20 ADD PUSH1 0x40 MLOAD SWAP1 DUP2 ADD PUSH1 0x40 MSTORE DUP1 SWAP3 SWAP2 SWAP1 DUP2 DUP2 MSTORE PUSH1 0x20 ADD DUP3 DUP1 SLOAD PUSH2 0x2A2A SWAP1 PUSH2 0x3FCB JUMP JUMPDEST DUP1 ISZERO PUSH2 0x2A77 JUMPI DUP1 PUSH1 0x1F LT PUSH2 0x2A4C JUMPI PUSH2 0x100 DUP1 DUP4 SLOAD DIV MUL DUP4 MSTORE SWAP2 PUSH1 0x20 ADD SWAP2 PUSH2 0x2A77 JUMP JUMPDEST DUP3 ADD SWAP2 SWAP1 PUSH1 0x0 MSTORE PUSH1 0x20 PUSH1 0x0 KECCAK256 SWAP1 JUMPDEST DUP2 SLOAD DUP2 MSTORE SWAP1 PUSH1 0x1 ADD SWAP1 PUSH1 0x20 ADD DUP1 DUP4 GT PUSH2 0x2A5A JUMPI DUP3 SWAP1 SUB PUSH1 0x1F AND DUP3 ADD SWAP2 JUMPDEST POP POP POP POP POP DUP2 MSTORE PUSH1 0x20 ADD PUSH1 0x2 DUP3 ADD DUP1 SLOAD PUSH2 0x2A90 SWAP1 PUSH2 0x3FCB JUMP JUMPDEST DUP1 PUSH1 0x1F ADD PUSH1 0x20 DUP1 SWAP2 DIV MUL PUSH1 0x20 ADD PUSH1 0x40 MLOAD SWAP1 DUP2 ADD PUSH1 0x40 MSTORE DUP1 SWAP3 SWAP2 SWAP1 DUP2 DUP2 MSTORE PUSH1 0x20 ADD DUP3 DUP1 SLOAD PUSH2 0x2ABC SWAP1 PUSH2 0x3FCB JUMP JUMPDEST DUP1 ISZERO PUSH2 0x2B09 JUMPI DUP1 PUSH1 0x1F LT PUSH2 0x2ADE JUMPI PUSH2 0x100 DUP1 DUP4 SLOAD DIV MUL DUP4 MSTORE SWAP2 PUSH1 0x20 ADD SWAP2 PUSH2 0x2B09 JUMP JUMPDEST DUP3 ADD SWAP2 SWAP1 PUSH1 0x0 MSTORE PUSH1 0x20 PUSH1 0x0 KECCAK256 SWAP1 JUMPDEST DUP2 SLOAD DUP2 MSTORE SWAP1 PUSH1 0x1 ADD SWAP1 PUSH1 0x20 ADD DUP1 DUP4 GT PUSH2 0x2AEC JUMPI DUP3 SWAP1 SUB PUSH1 0x1F AND DUP3 ADD SWAP2 JUMPDEST POP POP POP POP POP DUP2 MSTORE PUSH1 0x20 ADD PUSH1 0x3 DUP3 ADD DUP1 SLOAD PUSH2 0x2B22 SWAP1 PUSH2 0x3FCB JUMP JUMPDEST DUP1 PUSH1 0x1F ADD PUSH1 0x20 DUP1 SWAP2 DIV MUL PUSH1 0x20 ADD PUSH1 0x40 MLOAD SWAP1 DUP2 ADD PUSH1 0x40 MSTORE DUP1 SWAP3 SWAP2 SWAP1 DUP2 DUP2 MSTORE PUSH1 0x20 ADD DUP3 DUP1 SLOAD PUSH2 0x2B4E SWAP1 PUSH2 0x3FCB JUMP JUMPDEST DUP1 ISZERO PUSH2 0x2B9B JUMPI DUP1 PUSH1 0x1F LT PUSH2 0x2B70 JUMPI PUSH2 0x100 DUP1 DUP4 SLOAD DIV MUL DUP4 MSTORE SWAP2 PUSH1 0x20 ADD SWAP2 PUSH2 0x2B9B JUMP JUMPDEST DUP3 ADD SWAP2 SWAP1 PUSH1 0x0 MSTORE PUSH1 0x20 PUSH1 0x0 KECCAK256 SWAP1 JUMPDEST DUP2 SLOAD DUP2 MSTORE SWAP1 PUSH1 0x1 ADD SWAP1 PUSH1 0x20 ADD DUP1 DUP4 GT PUSH2 0x2B7E JUMPI DUP3 SWAP1 SUB PUSH1 0x1F AND DUP3 ADD SWAP2 JUMPDEST POP POP POP SWAP2 DUP4 MSTORE POP POP PUSH1 0x4 SWAP2 SWAP1 SWAP2 ADD SLOAD PUSH1 0x1 PUSH1 0x1 PUSH1 0xA0 SHL SUB AND PUSH1 0x20 SWAP1 SWAP2 ADD MSTORE PUSH1 0xB DUP3 ADD SLOAD PUSH1 0xC DUP4 ADD SLOAD PUSH1 0xD DUP5 ADD SLOAD PUSH1 0xE DUP6 ADD DUP1 SLOAD SWAP5 SWAP6 PUSH1 0xFF SWAP1 SWAP5 AND SWAP5 SWAP3 SWAP4 SWAP2 SWAP3 PUSH2 0x2BE3 SWAP1 PUSH2 0x3FCB JUMP JUMPDEST DUP1 PUSH1 0x1F ADD PUSH1 0x20 DUP1 SWAP2 DIV MUL PUSH1 0x20 ADD PUSH1 0x40 MLOAD SWAP1 DUP2 ADD PUSH1 0x40 MSTORE DUP1 SWAP3 SWAP2 SWAP1 DUP2 DUP2 MSTORE PUSH1 0x20 ADD DUP3 DUP1 SLOAD PUSH2 0x2C0F SWAP1 PUSH2 0x3FCB JUMP JUMPDEST DUP1 ISZERO PUSH2 0x2C5C JUMPI DUP1 PUSH1 0x1F LT PUSH2 0x2C31 JUMPI PUSH2 0x100 DUP1 DUP4 SLOAD DIV MUL DUP4 MSTORE SWAP2 PUSH1 0x20 ADD SWAP2 PUSH2 0x2C5C JUMP JUMPDEST DUP3 ADD SWAP2 SWAP1 PUSH1 0x0 MSTORE PUSH1 0x20 PUSH1 0x0 KECCAK256 SWAP1 JUMPDEST DUP2 SLOAD DUP2 MSTORE SWAP1 PUSH1 0x1 ADD SWAP1 PUSH1 0x20 ADD DUP1 DUP4 GT PUSH2 0x2C3F JUMPI DUP3 SWAP1 SUB PUSH1 0x1F AND DUP3 ADD SWAP2 JUMPDEST POP POP POP POP POP SWAP1 POP DUP8 JUMP JUMPDEST PUSH2 0x2C6E PUSH2 0x301A JUMP JUMPDEST PUSH1 0x1 PUSH1 0x1 PUSH1 0xA0 SHL SUB DUP2 AND PUSH2 0x2CD3 JUMPI PUSH1 0x40 MLOAD PUSH3 0x461BCD PUSH1 0xE5 SHL DUP2 MSTORE PUSH1 0x20 PUSH1 0x4 DUP3 ADD MSTORE PUSH1 0x26 PUSH1 0x24 DUP3 ADD MSTORE PUSH32 0x4F776E61626C653A206E6577206F776E657220697320746865207A65726F2061 PUSH1 0x44 DUP3 ADD MSTORE PUSH6 0x646472657373 PUSH1 0xD0 SHL PUSH1 0x64 DUP3 ADD MSTORE PUSH1 0x84 ADD PUSH2 0x820 JUMP JUMPDEST PUSH2 0x2CDC DUP2 PUSH2 0x3121 JUMP JUMPDEST POP JUMP JUMPDEST PUSH1 0x0 DUP2 DUP2 MSTORE PUSH1 0x2 PUSH1 0x20 MSTORE PUSH1 0x40 SWAP1 KECCAK256 SLOAD PUSH1 0x1 PUSH1 0x1 PUSH1 0xA0 SHL SUB AND PUSH2 0x2CDC JUMPI PUSH1 0x40 MLOAD PUSH3 0x461BCD PUSH1 0xE5 SHL DUP2 MSTORE PUSH1 0x20 PUSH1 0x4 DUP3 ADD MSTORE PUSH1 0x18 PUSH1 0x24 DUP3 ADD MSTORE PUSH24 0x115490CDCC8C4E881A5B9D985B1A59081D1BDAD95B881251 PUSH1 0x42 SHL PUSH1 0x44 DUP3 ADD MSTORE PUSH1 0x64 ADD PUSH2 0x820 JUMP JUMPDEST PUSH1 0x0 DUP2 DUP2 MSTORE PUSH1 0x4 PUSH1 0x20 MSTORE PUSH1 0x40 SWAP1 KECCAK256 DUP1 SLOAD PUSH1 0x1 PUSH1 0x1 PUSH1 0xA0 SHL SUB NOT AND PUSH1 0x1 PUSH1 0x1 PUSH1 0xA0 SHL SUB DUP5 AND SWAP1 DUP2 OR SWAP1 SWAP2 SSTORE DUP2 SWAP1 PUSH2 0x2D73 DUP3 PUSH2 0x1289 JUMP JUMPDEST PUSH1 0x1 PUSH1 0x1 PUSH1 0xA0 SHL SUB AND PUSH32 0x8C5BE1E5EBEC7D5BD14F71427D1E84F3DD0314C0F7B2291E5B200AC8C7C3B925 PUSH1 0x40 MLOAD PUSH1 0x40 MLOAD DUP1 SWAP2 SUB SWAP1 LOG4 POP POP JUMP JUMPDEST PUSH1 0x0 DUP1 PUSH2 0x2DB8 DUP4 PUSH2 0x1289 JUMP JUMPDEST SWAP1 POP DUP1 PUSH1 0x1 PUSH1 0x1 PUSH1 0xA0 SHL SUB AND DUP5 PUSH1 0x1 PUSH1 0x1 PUSH1 0xA0 SHL SUB AND EQ DUP1 PUSH2 0x2DFF JUMPI POP PUSH1 0x1 PUSH1 0x1 PUSH1 0xA0 SHL SUB DUP1 DUP3 AND PUSH1 0x0 SWAP1 DUP2 MSTORE PUSH1 0x5 PUSH1 0x20 SWAP1 DUP2 MSTORE PUSH1 0x40 DUP1 DUP4 KECCAK256 SWAP4 DUP9 AND DUP4 MSTORE SWAP3 SWAP1 MSTORE KECCAK256 SLOAD PUSH1 0xFF AND JUMPDEST DUP1 PUSH2 0x2E23 JUMPI POP DUP4 PUSH1 0x1 PUSH1 0x1 PUSH1 0xA0 SHL SUB AND PUSH2 0x2E18 DUP5 PUSH2 0x785 JUMP JUMPDEST PUSH1 0x1 PUSH1 0x1 PUSH1 0xA0 SHL SUB AND EQ JUMPDEST SWAP5 SWAP4 POP POP POP POP JUMP JUMPDEST DUP3 PUSH1 0x1 PUSH1 0x1 PUSH1 0xA0 SHL SUB AND PUSH2 0x2E3E DUP3 PUSH2 0x1289 JUMP JUMPDEST PUSH1 0x1 PUSH1 0x1 PUSH1 0xA0 SHL SUB AND EQ PUSH2 0x2EA2 JUMPI PUSH1 0x40 MLOAD PUSH3 0x461BCD PUSH1 0xE5 SHL DUP2 MSTORE PUSH1 0x20 PUSH1 0x4 DUP3 ADD MSTORE PUSH1 0x25 PUSH1 0x24 DUP3 ADD MSTORE PUSH32 0x4552433732313A207472616E736665722066726F6D20696E636F727265637420 PUSH1 0x44 DUP3 ADD MSTORE PUSH5 0x37BBB732B9 PUSH1 0xD9 SHL PUSH1 0x64 DUP3 ADD MSTORE PUSH1 0x84 ADD PUSH2 0x820 JUMP JUMPDEST PUSH1 0x1 PUSH1 0x1 PUSH1 0xA0 SHL SUB DUP3 AND PUSH2 0x2F04 JUMPI PUSH1 0x40 MLOAD PUSH3 0x461BCD PUSH1 0xE5 SHL DUP2 MSTORE PUSH1 0x20 PUSH1 0x4 DUP3 ADD MSTORE PUSH1 0x24 DUP1 DUP3 ADD MSTORE PUSH32 0x4552433732313A207472616E7366657220746F20746865207A65726F20616464 PUSH1 0x44 DUP3 ADD MSTORE PUSH4 0x72657373 PUSH1 0xE0 SHL PUSH1 0x64 DUP3 ADD MSTORE PUSH1 0x84 ADD PUSH2 0x820 JUMP JUMPDEST PUSH2 0x2F0F PUSH1 0x0 DUP3 PUSH2 0x2D3E JUMP JUMPDEST PUSH1 0x1 PUSH1 0x1 PUSH1 0xA0 SHL SUB DUP4 AND PUSH1 0x0 SWAP1 DUP2 MSTORE PUSH1 0x3 PUSH1 0x20 MSTORE PUSH1 0x40 DUP2 KECCAK256 DUP1 SLOAD PUSH1 0x1 SWAP3 SWAP1 PUSH2 0x2F38 SWAP1 DUP5 SWAP1 PUSH2 0x3FB4 JUMP JUMPDEST SWAP1 SWAP2 SSTORE POP POP PUSH1 0x1 PUSH1 0x1 PUSH1 0xA0 SHL SUB DUP3 AND PUSH1 0x0 SWAP1 DUP2 MSTORE PUSH1 0x3 PUSH1 0x20 MSTORE PUSH1 0x40 DUP2 KECCAK256 DUP1 SLOAD PUSH1 0x1 SWAP3 SWAP1 PUSH2 0x2F66 SWAP1 DUP5 SWAP1 PUSH2 0x426A JUMP JUMPDEST SWAP1 SWAP2 SSTORE POP POP PUSH1 0x0 DUP2 DUP2 MSTORE PUSH1 0x2 PUSH1 0x20 MSTORE PUSH1 0x40 DUP1 DUP3 KECCAK256 DUP1 SLOAD PUSH1 0x1 PUSH1 0x1 PUSH1 0xA0 SHL SUB NOT AND PUSH1 0x1 PUSH1 0x1 PUSH1 0xA0 SHL SUB DUP7 DUP2 AND SWAP2 DUP3 OR SWAP1 SWAP3 SSTORE SWAP2 MLOAD DUP5 SWAP4 SWAP2 DUP8 AND SWAP2 PUSH32 0xDDF252AD1BE2C89B69C2B068FC378DAA952BA7F163C4A11628F55A4DF523B3EF SWAP2 LOG4 POP POP POP JUMP JUMPDEST CALLER PUSH1 0x0 SWAP1 DUP2 MSTORE PUSH1 0xF PUSH1 0x20 MSTORE PUSH1 0x40 SWAP1 KECCAK256 PUSH1 0x1 ADD SLOAD PUSH1 0xFF AND PUSH2 0x21D7 JUMPI PUSH1 0x40 MLOAD PUSH3 0x461BCD PUSH1 0xE5 SHL DUP2 MSTORE PUSH1 0x20 PUSH1 0x4 DUP3 ADD MSTORE PUSH1 0xE PUSH1 0x24 DUP3 ADD MSTORE PUSH14 0x4F6E6C79204578656375746F7273 PUSH1 0x90 SHL PUSH1 0x44 DUP3 ADD MSTORE PUSH1 0x64 ADD PUSH2 0x820 JUMP JUMPDEST PUSH1 0x7 SLOAD PUSH1 0x1 PUSH1 0x1 PUSH1 0xA0 SHL SUB AND CALLER EQ PUSH2 0x21D7 JUMPI PUSH1 0x40 MLOAD PUSH3 0x461BCD PUSH1 0xE5 SHL DUP2 MSTORE PUSH1 0x20 PUSH1 0x4 DUP3 ADD DUP2 SWAP1 MSTORE PUSH1 0x24 DUP3 ADD MSTORE PUSH32 0x4F776E61626C653A2063616C6C6572206973206E6F7420746865206F776E6572 PUSH1 0x44 DUP3 ADD MSTORE PUSH1 0x64 ADD PUSH2 0x820 JUMP JUMPDEST PUSH2 0x229A DUP3 DUP3 PUSH1 0x40 MLOAD DUP1 PUSH1 0x20 ADD PUSH1 0x40 MSTORE DUP1 PUSH1 0x0 DUP2 MSTORE POP PUSH2 0x337C JUMP JUMPDEST PUSH1 0x0 DUP3 DUP2 MSTORE PUSH1 0x2 PUSH1 0x20 MSTORE PUSH1 0x40 SWAP1 KECCAK256 SLOAD PUSH1 0x1 PUSH1 0x1 PUSH1 0xA0 SHL SUB AND PUSH2 0x3109 JUMPI PUSH1 0x40 MLOAD PUSH3 0x461BCD PUSH1 0xE5 SHL DUP2 MSTORE PUSH1 0x20 PUSH1 0x4 DUP3 ADD MSTORE PUSH1 0x2E PUSH1 0x24 DUP3 ADD MSTORE PUSH32 0x45524337323155524953746F726167653A2055524920736574206F66206E6F6E PUSH1 0x44 DUP3 ADD MSTORE PUSH14 0x32BC34B9BA32B73A103A37B5B2B7 PUSH1 0x91 SHL PUSH1 0x64 DUP3 ADD MSTORE PUSH1 0x84 ADD PUSH2 0x820 JUMP JUMPDEST PUSH1 0x0 DUP3 DUP2 MSTORE PUSH1 0x6 PUSH1 0x20 MSTORE PUSH1 0x40 SWAP1 KECCAK256 PUSH2 0x8C1 DUP3 DUP3 PUSH2 0x4053 JUMP JUMPDEST PUSH1 0x7 DUP1 SLOAD PUSH1 0x1 PUSH1 0x1 PUSH1 0xA0 SHL SUB DUP4 DUP2 AND PUSH1 0x1 PUSH1 0x1 PUSH1 0xA0 SHL SUB NOT DUP4 AND DUP2 OR SWAP1 SWAP4 SSTORE PUSH1 0x40 MLOAD SWAP2 AND SWAP2 SWAP1 DUP3 SWAP1 PUSH32 0x8BE0079C531659141344CD1FD0A4F28419497F9722A3DAAFE3B4186F6B6457E0 SWAP1 PUSH1 0x0 SWAP1 LOG3 POP POP JUMP JUMPDEST DUP2 PUSH1 0x1 PUSH1 0x1 PUSH1 0xA0 SHL SUB AND DUP4 PUSH1 0x1 PUSH1 0x1 PUSH1 0xA0 SHL SUB AND SUB PUSH2 0x31D4 JUMPI PUSH1 0x40 MLOAD PUSH3 0x461BCD PUSH1 0xE5 SHL DUP2 MSTORE PUSH1 0x20 PUSH1 0x4 DUP3 ADD MSTORE PUSH1 0x19 PUSH1 0x24 DUP3 ADD MSTORE PUSH32 0x4552433732313A20617070726F766520746F2063616C6C657200000000000000 PUSH1 0x44 DUP3 ADD MSTORE PUSH1 0x64 ADD PUSH2 0x820 JUMP JUMPDEST PUSH1 0x1 PUSH1 0x1 PUSH1 0xA0 SHL SUB DUP4 DUP2 AND PUSH1 0x0 DUP2 DUP2 MSTORE PUSH1 0x5 PUSH1 0x20 SWAP1 DUP2 MSTORE PUSH1 0x40 DUP1 DUP4 KECCAK256 SWAP5 DUP8 AND DUP1 DUP5 MSTORE SWAP5 DUP3 MSTORE SWAP2 DUP3 SWAP1 KECCAK256 DUP1 SLOAD PUSH1 0xFF NOT AND DUP7 ISZERO ISZERO SWAP1 DUP2 OR SWAP1 SWAP2 SSTORE SWAP2 MLOAD SWAP2 DUP3 MSTORE PUSH32 0x17307EAB39AB6107E8899845AD3D59BD9653F200F220920489CA2B5937696C31 SWAP2 ADD PUSH1 0x40 MLOAD DUP1 SWAP2 SUB SWAP1 LOG3 POP POP POP JUMP JUMPDEST PUSH2 0x324C DUP5 DUP5 DUP5 PUSH2 0x2E2B JUMP JUMPDEST PUSH2 0x3258 DUP5 DUP5 DUP5 DUP5 PUSH2 0x33AF JUMP JUMPDEST PUSH2 0x2558 JUMPI PUSH1 0x40 MLOAD PUSH3 0x461BCD PUSH1 0xE5 SHL DUP2 MSTORE PUSH1 0x4 ADD PUSH2 0x820 SWAP1 PUSH2 0x43B7 JUMP JUMPDEST PUSH1 0x60 PUSH2 0x327F DUP3 PUSH2 0x2CDF JUMP JUMPDEST PUSH1 0x0 DUP3 DUP2 MSTORE PUSH1 0x6 PUSH1 0x20 MSTORE PUSH1 0x40 DUP2 KECCAK256 DUP1 SLOAD PUSH2 0x3298 SWAP1 PUSH2 0x3FCB JUMP JUMPDEST DUP1 PUSH1 0x1F ADD PUSH1 0x20 DUP1 SWAP2 DIV MUL PUSH1 0x20 ADD PUSH1 0x40 MLOAD SWAP1 DUP2 ADD PUSH1 0x40 MSTORE DUP1 SWAP3 SWAP2 SWAP1 DUP2 DUP2 MSTORE PUSH1 0x20 ADD DUP3 DUP1 SLOAD PUSH2 0x32C4 SWAP1 PUSH2 0x3FCB JUMP JUMPDEST DUP1 ISZERO PUSH2 0x3311 JUMPI DUP1 PUSH1 0x1F LT PUSH2 0x32E6 JUMPI PUSH2 0x100 DUP1 DUP4 SLOAD DIV MUL DUP4 MSTORE SWAP2 PUSH1 0x20 ADD SWAP2 PUSH2 0x3311 JUMP JUMPDEST DUP3 ADD SWAP2 SWAP1 PUSH1 0x0 MSTORE PUSH1 0x20 PUSH1 0x0 KECCAK256 SWAP1 JUMPDEST DUP2 SLOAD DUP2 MSTORE SWAP1 PUSH1 0x1 ADD SWAP1 PUSH1 0x20 ADD DUP1 DUP4 GT PUSH2 0x32F4 JUMPI DUP3 SWAP1 SUB PUSH1 0x1F AND DUP3 ADD SWAP2 JUMPDEST POP POP POP POP POP SWAP1 POP PUSH1 0x0 PUSH2 0x332F PUSH1 0x40 DUP1 MLOAD PUSH1 0x20 DUP2 ADD SWAP1 SWAP2 MSTORE PUSH1 0x0 DUP2 MSTORE SWAP1 JUMP JUMPDEST SWAP1 POP DUP1 MLOAD PUSH1 0x0 SUB PUSH2 0x3341 JUMPI POP SWAP3 SWAP2 POP POP JUMP JUMPDEST DUP2 MLOAD ISZERO PUSH2 0x3373 JUMPI DUP1 DUP3 PUSH1 0x40 MLOAD PUSH1 0x20 ADD PUSH2 0x335B SWAP3 SWAP2 SWAP1 PUSH2 0x4409 JUMP JUMPDEST PUSH1 0x40 MLOAD PUSH1 0x20 DUP2 DUP4 SUB SUB DUP2 MSTORE SWAP1 PUSH1 0x40 MSTORE SWAP3 POP POP POP SWAP2 SWAP1 POP JUMP JUMPDEST PUSH2 0x2E23 DUP5 PUSH2 0x34B0 JUMP JUMPDEST PUSH2 0x3386 DUP4 DUP4 PUSH2 0x3523 JUMP JUMPDEST PUSH2 0x3393 PUSH1 0x0 DUP5 DUP5 DUP5 PUSH2 0x33AF JUMP JUMPDEST PUSH2 0x8C1 JUMPI PUSH1 0x40 MLOAD PUSH3 0x461BCD PUSH1 0xE5 SHL DUP2 MSTORE PUSH1 0x4 ADD PUSH2 0x820 SWAP1 PUSH2 0x43B7 JUMP JUMPDEST PUSH1 0x0 PUSH1 0x1 PUSH1 0x1 PUSH1 0xA0 SHL SUB DUP5 AND EXTCODESIZE ISZERO PUSH2 0x34A5 JUMPI PUSH1 0x40 MLOAD PUSH4 0xA85BD01 PUSH1 0xE1 SHL DUP2 MSTORE PUSH1 0x1 PUSH1 0x1 PUSH1 0xA0 SHL SUB DUP6 AND SWAP1 PUSH4 0x150B7A02 SWAP1 PUSH2 0x33F3 SWAP1 CALLER SWAP1 DUP10 SWAP1 DUP9 SWAP1 DUP9 SWAP1 PUSH1 0x4 ADD PUSH2 0x4438 JUMP JUMPDEST PUSH1 0x20 PUSH1 0x40 MLOAD DUP1 DUP4 SUB DUP2 PUSH1 0x0 DUP8 GAS CALL SWAP3 POP POP POP DUP1 ISZERO PUSH2 0x342E JUMPI POP PUSH1 0x40 DUP1 MLOAD PUSH1 0x1F RETURNDATASIZE SWAP1 DUP2 ADD PUSH1 0x1F NOT AND DUP3 ADD SWAP1 SWAP3 MSTORE PUSH2 0x342B SWAP2 DUP2 ADD SWAP1 PUSH2 0x4475 JUMP JUMPDEST PUSH1 0x1 JUMPDEST PUSH2 0x348B JUMPI RETURNDATASIZE DUP1 DUP1 ISZERO PUSH2 0x345C JUMPI PUSH1 0x40 MLOAD SWAP2 POP PUSH1 0x1F NOT PUSH1 0x3F RETURNDATASIZE ADD AND DUP3 ADD PUSH1 0x40 MSTORE RETURNDATASIZE DUP3 MSTORE RETURNDATASIZE PUSH1 0x0 PUSH1 0x20 DUP5 ADD RETURNDATACOPY PUSH2 0x3461 JUMP JUMPDEST PUSH1 0x60 SWAP2 POP JUMPDEST POP DUP1 MLOAD PUSH1 0x0 SUB PUSH2 0x3483 JUMPI PUSH1 0x40 MLOAD PUSH3 0x461BCD PUSH1 0xE5 SHL DUP2 MSTORE PUSH1 0x4 ADD PUSH2 0x820 SWAP1 PUSH2 0x43B7 JUMP JUMPDEST DUP1 MLOAD DUP2 PUSH1 0x20 ADD REVERT JUMPDEST PUSH1 0x1 PUSH1 0x1 PUSH1 0xE0 SHL SUB NOT AND PUSH4 0xA85BD01 PUSH1 0xE1 SHL EQ SWAP1 POP PUSH2 0x2E23 JUMP JUMPDEST POP PUSH1 0x1 SWAP5 SWAP4 POP POP POP POP JUMP JUMPDEST PUSH1 0x60 PUSH2 0x34BB DUP3 PUSH2 0x2CDF JUMP JUMPDEST PUSH1 0x0 PUSH2 0x34D2 PUSH1 0x40 DUP1 MLOAD PUSH1 0x20 DUP2 ADD SWAP1 SWAP2 MSTORE PUSH1 0x0 DUP2 MSTORE SWAP1 JUMP JUMPDEST SWAP1 POP PUSH1 0x0 DUP2 MLOAD GT PUSH2 0x34F2 JUMPI PUSH1 0x40 MLOAD DUP1 PUSH1 0x20 ADD PUSH1 0x40 MSTORE DUP1 PUSH1 0x0 DUP2 MSTORE POP PUSH2 0xB26 JUMP JUMPDEST DUP1 PUSH2 0x34FC DUP5 PUSH2 0x3665 JUMP JUMPDEST PUSH1 0x40 MLOAD PUSH1 0x20 ADD PUSH2 0x350D SWAP3 SWAP2 SWAP1 PUSH2 0x4409 JUMP JUMPDEST PUSH1 0x40 MLOAD PUSH1 0x20 DUP2 DUP4 SUB SUB DUP2 MSTORE SWAP1 PUSH1 0x40 MSTORE SWAP4 SWAP3 POP POP POP JUMP JUMPDEST PUSH1 0x1 PUSH1 0x1 PUSH1 0xA0 SHL SUB DUP3 AND PUSH2 0x3579 JUMPI PUSH1 0x40 MLOAD PUSH3 0x461BCD PUSH1 0xE5 SHL DUP2 MSTORE PUSH1 0x20 PUSH1 0x4 DUP3 ADD DUP2 SWAP1 MSTORE PUSH1 0x24 DUP3 ADD MSTORE PUSH32 0x4552433732313A206D696E7420746F20746865207A65726F2061646472657373 PUSH1 0x44 DUP3 ADD MSTORE PUSH1 0x64 ADD PUSH2 0x820 JUMP JUMPDEST PUSH1 0x0 DUP2 DUP2 MSTORE PUSH1 0x2 PUSH1 0x20 MSTORE PUSH1 0x40 SWAP1 KECCAK256 SLOAD PUSH1 0x1 PUSH1 0x1 PUSH1 0xA0 SHL SUB AND ISZERO PUSH2 0x35DE JUMPI PUSH1 0x40 MLOAD PUSH3 0x461BCD PUSH1 0xE5 SHL DUP2 MSTORE PUSH1 0x20 PUSH1 0x4 DUP3 ADD MSTORE PUSH1 0x1C PUSH1 0x24 DUP3 ADD MSTORE PUSH32 0x4552433732313A20746F6B656E20616C7265616479206D696E74656400000000 PUSH1 0x44 DUP3 ADD MSTORE PUSH1 0x64 ADD PUSH2 0x820 JUMP JUMPDEST PUSH1 0x1 PUSH1 0x1 PUSH1 0xA0 SHL SUB DUP3 AND PUSH1 0x0 SWAP1 DUP2 MSTORE PUSH1 0x3 PUSH1 0x20 MSTORE PUSH1 0x40 DUP2 KECCAK256 DUP1 SLOAD PUSH1 0x1 SWAP3 SWAP1 PUSH2 0x3607 SWAP1 DUP5 SWAP1 PUSH2 0x426A JUMP JUMPDEST SWAP1 SWAP2 SSTORE POP POP PUSH1 0x0 DUP2 DUP2 MSTORE PUSH1 0x2 PUSH1 0x20 MSTORE PUSH1 0x40 DUP1 DUP3 KECCAK256 DUP1 SLOAD PUSH1 0x1 PUSH1 0x1 PUSH1 0xA0 SHL SUB NOT AND PUSH1 0x1 PUSH1 0x1 PUSH1 0xA0 SHL SUB DUP7 AND SWAP1 DUP2 OR SWAP1 SWAP2 SSTORE SWAP1 MLOAD DUP4 SWAP3 SWAP1 PUSH32 0xDDF252AD1BE2C89B69C2B068FC378DAA952BA7F163C4A11628F55A4DF523B3EF SWAP1 DUP3 SWAP1 LOG4 POP POP JUMP JUMPDEST PUSH1 0x60 DUP2 PUSH1 0x0 SUB PUSH2 0x368C JUMPI POP POP PUSH1 0x40 DUP1 MLOAD DUP1 DUP3 ADD SWAP1 SWAP2 MSTORE PUSH1 0x1 DUP2 MSTORE PUSH1 0x3 PUSH1 0xFC SHL PUSH1 0x20 DUP3 ADD MSTORE SWAP1 JUMP JUMPDEST DUP2 PUSH1 0x0 JUMPDEST DUP2 ISZERO PUSH2 0x36B6 JUMPI DUP1 PUSH2 0x36A0 DUP2 PUSH2 0x4113 JUMP JUMPDEST SWAP2 POP PUSH2 0x36AF SWAP1 POP PUSH1 0xA DUP4 PUSH2 0x4237 JUMP JUMPDEST SWAP2 POP PUSH2 0x3690 JUMP JUMPDEST PUSH1 0x0 DUP2 PUSH8 0xFFFFFFFFFFFFFFFF DUP2 GT ISZERO PUSH2 0x36D1 JUMPI PUSH2 0x36D1 PUSH2 0x38DF JUMP JUMPDEST PUSH1 0x40 MLOAD SWAP1 DUP1 DUP3 MSTORE DUP1 PUSH1 0x1F ADD PUSH1 0x1F NOT AND PUSH1 0x20 ADD DUP3 ADD PUSH1 0x40 MSTORE DUP1 ISZERO PUSH2 0x36FB JUMPI PUSH1 0x20 DUP3 ADD DUP2 DUP1 CALLDATASIZE DUP4 CALLDATACOPY ADD SWAP1 POP JUMPDEST POP SWAP1 POP JUMPDEST DUP5 ISZERO PUSH2 0x2E23 JUMPI PUSH2 0x3710 PUSH1 0x1 DUP4 PUSH2 0x3FB4 JUMP JUMPDEST SWAP2 POP PUSH2 0x371D PUSH1 0xA DUP7 PUSH2 0x4492 JUMP JUMPDEST PUSH2 0x3728 SWAP1 PUSH1 0x30 PUSH2 0x426A JUMP JUMPDEST PUSH1 0xF8 SHL DUP2 DUP4 DUP2 MLOAD DUP2 LT PUSH2 0x373D JUMPI PUSH2 0x373D PUSH2 0x43A1 JUMP JUMPDEST PUSH1 0x20 ADD ADD SWAP1 PUSH1 0x1 PUSH1 0x1 PUSH1 0xF8 SHL SUB NOT AND SWAP1 DUP2 PUSH1 0x0 BYTE SWAP1 MSTORE8 POP PUSH2 0x375F PUSH1 0xA DUP7 PUSH2 0x4237 JUMP JUMPDEST SWAP5 POP PUSH2 0x36FF JUMP JUMPDEST PUSH1 0x40 MLOAD DUP1 PUSH1 0xE0 ADD PUSH1 0x40 MSTORE DUP1 PUSH1 0x0 DUP2 MSTORE PUSH1 0x20 ADD PUSH2 0x3780 PUSH2 0x37AF JUMP JUMPDEST DUP2 MSTORE PUSH1 0x20 ADD PUSH2 0x378D PUSH2 0x37AF JUMP JUMPDEST DUP2 MSTORE PUSH1 0x20 ADD PUSH1 0x0 DUP2 MSTORE PUSH1 0x20 ADD PUSH1 0x0 DUP2 MSTORE PUSH1 0x20 ADD PUSH1 0x0 DUP2 MSTORE PUSH1 0x20 ADD PUSH1 0x60 DUP2 MSTORE POP SWAP1 JUMP JUMPDEST PUSH1 0x40 MLOAD DUP1 PUSH1 0xA0 ADD PUSH1 0x40 MSTORE DUP1 PUSH1 0x60 DUP2 MSTORE PUSH1 0x20 ADD PUSH1 0x60 DUP2 MSTORE PUSH1 0x20 ADD PUSH1 0x60 DUP2 MSTORE PUSH1 0x20 ADD PUSH1 0x60 DUP2 MSTORE PUSH1 0x20 ADD PUSH1 0x0 PUSH1 0x1 PUSH1 0x1 PUSH1 0xA0 SHL SUB AND DUP2 MSTORE POP SWAP1 JUMP JUMPDEST PUSH1 0x1 PUSH1 0x1 PUSH1 0xE0 SHL SUB NOT DUP2 AND DUP2 EQ PUSH2 0x2CDC JUMPI PUSH1 0x0 DUP1 REVERT JUMPDEST PUSH1 0x0 PUSH1 0x20 DUP3 DUP5 SUB SLT ISZERO PUSH2 0x380F JUMPI PUSH1 0x0 DUP1 REVERT JUMPDEST DUP2 CALLDATALOAD PUSH2 0xB26 DUP2 PUSH2 0x37E7 JUMP JUMPDEST PUSH1 0x0 JUMPDEST DUP4 DUP2 LT ISZERO PUSH2 0x3835 JUMPI DUP2 DUP2 ADD MLOAD DUP4 DUP3 ADD MSTORE PUSH1 0x20 ADD PUSH2 0x381D JUMP JUMPDEST DUP4 DUP2 GT ISZERO PUSH2 0x2558 JUMPI POP POP PUSH1 0x0 SWAP2 ADD MSTORE JUMP JUMPDEST PUSH1 0x0 DUP2 MLOAD DUP1 DUP5 MSTORE PUSH2 0x385E DUP2 PUSH1 0x20 DUP7 ADD PUSH1 0x20 DUP7 ADD PUSH2 0x381A JUMP JUMPDEST PUSH1 0x1F ADD PUSH1 0x1F NOT AND SWAP3 SWAP1 SWAP3 ADD PUSH1 0x20 ADD SWAP3 SWAP2 POP POP JUMP JUMPDEST PUSH1 0x20 DUP2 MSTORE PUSH1 0x0 PUSH2 0xB26 PUSH1 0x20 DUP4 ADD DUP5 PUSH2 0x3846 JUMP JUMPDEST PUSH1 0x0 PUSH1 0x20 DUP3 DUP5 SUB SLT ISZERO PUSH2 0x3897 JUMPI PUSH1 0x0 DUP1 REVERT JUMPDEST POP CALLDATALOAD SWAP2 SWAP1 POP JUMP JUMPDEST DUP1 CALLDATALOAD PUSH1 0x1 PUSH1 0x1 PUSH1 0xA0 SHL SUB DUP2 AND DUP2 EQ PUSH2 0xC40 JUMPI PUSH1 0x0 DUP1 REVERT JUMPDEST PUSH1 0x0 DUP1 PUSH1 0x40 DUP4 DUP6 SUB SLT ISZERO PUSH2 0x38C8 JUMPI PUSH1 0x0 DUP1 REVERT JUMPDEST PUSH2 0x38D1 DUP4 PUSH2 0x389E JUMP JUMPDEST SWAP5 PUSH1 0x20 SWAP4 SWAP1 SWAP4 ADD CALLDATALOAD SWAP4 POP POP POP JUMP JUMPDEST PUSH4 0x4E487B71 PUSH1 0xE0 SHL PUSH1 0x0 MSTORE PUSH1 0x41 PUSH1 0x4 MSTORE PUSH1 0x24 PUSH1 0x0 REVERT JUMPDEST PUSH1 0x40 MLOAD PUSH1 0x1F DUP3 ADD PUSH1 0x1F NOT AND DUP2 ADD PUSH8 0xFFFFFFFFFFFFFFFF DUP2 GT DUP3 DUP3 LT OR ISZERO PUSH2 0x391E JUMPI PUSH2 0x391E PUSH2 0x38DF JUMP JUMPDEST PUSH1 0x40 MSTORE SWAP2 SWAP1 POP JUMP JUMPDEST PUSH1 0x0 PUSH8 0xFFFFFFFFFFFFFFFF DUP3 GT ISZERO PUSH2 0x3940 JUMPI PUSH2 0x3940 PUSH2 0x38DF JUMP JUMPDEST POP PUSH1 0x1F ADD PUSH1 0x1F NOT AND PUSH1 0x20 ADD SWAP1 JUMP JUMPDEST PUSH1 0x0 PUSH2 0x3961 PUSH2 0x395C DUP5 PUSH2 0x3926 JUMP JUMPDEST PUSH2 0x38F5 JUMP JUMPDEST SWAP1 POP DUP3 DUP2 MSTORE DUP4 DUP4 DUP4 ADD GT ISZERO PUSH2 0x3975 JUMPI PUSH1 0x0 DUP1 REVERT JUMPDEST DUP3 DUP3 PUSH1 0x20 DUP4 ADD CALLDATACOPY PUSH1 0x0 PUSH1 0x20 DUP5 DUP4 ADD ADD MSTORE SWAP4 SWAP3 POP POP POP JUMP JUMPDEST PUSH1 0x0 DUP3 PUSH1 0x1F DUP4 ADD SLT PUSH2 0x399D JUMPI PUSH1 0x0 DUP1 REVERT JUMPDEST PUSH2 0xB26 DUP4 DUP4 CALLDATALOAD PUSH1 0x20 DUP6 ADD PUSH2 0x394E JUMP JUMPDEST PUSH1 0x0 DUP1 PUSH1 0x0 DUP1 PUSH1 0x80 DUP6 DUP8 SUB SLT ISZERO PUSH2 0x39C2 JUMPI PUSH1 0x0 DUP1 REVERT JUMPDEST DUP5 CALLDATALOAD PUSH8 0xFFFFFFFFFFFFFFFF DUP1 DUP3 GT ISZERO PUSH2 0x39DA JUMPI PUSH1 0x0 DUP1 REVERT JUMPDEST PUSH2 0x39E6 DUP9 DUP4 DUP10 ADD PUSH2 0x398C JUMP JUMPDEST SWAP6 POP PUSH1 0x20 DUP8 ADD CALLDATALOAD SWAP2 POP DUP1 DUP3 GT ISZERO PUSH2 0x39FC JUMPI PUSH1 0x0 DUP1 REVERT JUMPDEST PUSH2 0x3A08 DUP9 DUP4 DUP10 ADD PUSH2 0x398C JUMP JUMPDEST SWAP5 POP PUSH1 0x40 DUP8 ADD CALLDATALOAD SWAP2 POP DUP1 DUP3 GT ISZERO PUSH2 0x3A1E JUMPI PUSH1 0x0 DUP1 REVERT JUMPDEST PUSH2 0x3A2A DUP9 DUP4 DUP10 ADD PUSH2 0x398C JUMP JUMPDEST SWAP4 POP PUSH1 0x60 DUP8 ADD CALLDATALOAD SWAP2 POP DUP1 DUP3 GT ISZERO PUSH2 0x3A40 JUMPI PUSH1 0x0 DUP1 REVERT JUMPDEST POP PUSH2 0x3A4D DUP8 DUP3 DUP9 ADD PUSH2 0x398C JUMP JUMPDEST SWAP2 POP POP SWAP3 SWAP6 SWAP2 SWAP5 POP SWAP3 POP JUMP JUMPDEST PUSH1 0x0 DUP1 PUSH1 0x0 PUSH1 0x60 DUP5 DUP7 SUB SLT ISZERO PUSH2 0x3A6E JUMPI PUSH1 0x0 DUP1 REVERT JUMPDEST PUSH2 0x3A77 DUP5 PUSH2 0x389E JUMP JUMPDEST SWAP3 POP PUSH2 0x3A85 PUSH1 0x20 DUP6 ADD PUSH2 0x389E JUMP JUMPDEST SWAP2 POP PUSH1 0x40 DUP5 ADD CALLDATALOAD SWAP1 POP SWAP3 POP SWAP3 POP SWAP3 JUMP JUMPDEST PUSH1 0x0 DUP1 PUSH1 0x0 PUSH1 0x60 DUP5 DUP7 SUB SLT ISZERO PUSH2 0x3AAA JUMPI PUSH1 0x0 DUP1 REVERT JUMPDEST DUP4 CALLDATALOAD PUSH8 0xFFFFFFFFFFFFFFFF DUP2 GT ISZERO PUSH2 0x3AC1 JUMPI PUSH1 0x0 DUP1 REVERT JUMPDEST PUSH2 0x3ACD DUP7 DUP3 DUP8 ADD PUSH2 0x398C JUMP JUMPDEST SWAP4 POP POP PUSH2 0x3A85 PUSH1 0x20 DUP6 ADD PUSH2 0x389E JUMP JUMPDEST PUSH1 0x0 DUP1 PUSH1 0x40 DUP4 DUP6 SUB SLT ISZERO PUSH2 0x3AEF JUMPI PUSH1 0x0 DUP1 REVERT JUMPDEST DUP3 CALLDATALOAD PUSH8 0xFFFFFFFFFFFFFFFF DUP2 GT ISZERO PUSH2 0x3B06 JUMPI PUSH1 0x0 DUP1 REVERT JUMPDEST PUSH2 0x3B12 DUP6 DUP3 DUP7 ADD PUSH2 0x398C JUMP JUMPDEST SWAP3 POP POP PUSH2 0x3B21 PUSH1 0x20 DUP5 ADD PUSH2 0x389E JUMP JUMPDEST SWAP1 POP SWAP3 POP SWAP3 SWAP1 POP JUMP JUMPDEST PUSH1 0x0 PUSH1 0x20 DUP3 DUP5 SUB SLT ISZERO PUSH2 0x3B3C JUMPI PUSH1 0x0 DUP1 REVERT JUMPDEST PUSH2 0xB26 DUP3 PUSH2 0x389E JUMP JUMPDEST PUSH1 0x20 DUP1 DUP3 MSTORE DUP3 MLOAD DUP3 DUP3 ADD DUP2 SWAP1 MSTORE PUSH1 0x0 SWAP2 SWAP1 DUP5 DUP3 ADD SWAP1 PUSH1 0x40 DUP6 ADD SWAP1 DUP5 JUMPDEST DUP2 DUP2 LT ISZERO PUSH2 0x3B7D JUMPI DUP4 MLOAD DUP4 MSTORE SWAP3 DUP5 ADD SWAP3 SWAP2 DUP5 ADD SWAP2 PUSH1 0x1 ADD PUSH2 0x3B61 JUMP JUMPDEST POP SWAP1 SWAP7 SWAP6 POP POP POP POP POP POP JUMP JUMPDEST PUSH1 0x0 DUP2 MLOAD PUSH1 0xA0 DUP5 MSTORE PUSH2 0x3B9E PUSH1 0xA0 DUP6 ADD DUP3 PUSH2 0x3846 JUMP JUMPDEST SWAP1 POP PUSH1 0x20 DUP4 ADD MLOAD DUP5 DUP3 SUB PUSH1 0x20 DUP7 ADD MSTORE PUSH2 0x3BB7 DUP3 DUP3 PUSH2 0x3846 JUMP JUMPDEST SWAP2 POP POP PUSH1 0x40 DUP4 ADD MLOAD DUP5 DUP3 SUB PUSH1 0x40 DUP7 ADD MSTORE PUSH2 0x3BD1 DUP3 DUP3 PUSH2 0x3846 JUMP JUMPDEST SWAP2 POP POP PUSH1 0x60 DUP4 ADD MLOAD DUP5 DUP3 SUB PUSH1 0x60 DUP7 ADD MSTORE PUSH2 0x3BEB DUP3 DUP3 PUSH2 0x3846 JUMP JUMPDEST PUSH1 0x80 SWAP5 DUP6 ADD MLOAD PUSH1 0x1 PUSH1 0x1 PUSH1 0xA0 SHL SUB AND SWAP6 SWAP1 SWAP5 ADD SWAP5 SWAP1 SWAP5 MSTORE POP SWAP1 SWAP3 SWAP2 POP POP JUMP JUMPDEST PUSH4 0x4E487B71 PUSH1 0xE0 SHL PUSH1 0x0 MSTORE PUSH1 0x21 PUSH1 0x4 MSTORE PUSH1 0x24 PUSH1 0x0 REVERT JUMPDEST PUSH1 0x4 DUP2 LT PUSH2 0x3C3E JUMPI PUSH4 0x4E487B71 PUSH1 0xE0 SHL PUSH1 0x0 MSTORE PUSH1 0x21 PUSH1 0x4 MSTORE PUSH1 0x24 PUSH1 0x0 REVERT JUMPDEST SWAP1 MSTORE JUMP JUMPDEST PUSH1 0x20 DUP2 MSTORE DUP2 MLOAD PUSH1 0x20 DUP3 ADD MSTORE PUSH1 0x0 PUSH1 0x20 DUP4 ADD MLOAD PUSH1 0xE0 PUSH1 0x40 DUP5 ADD MSTORE PUSH2 0x3C69 PUSH2 0x100 DUP5 ADD DUP3 PUSH2 0x3B89 JUMP JUMPDEST SWAP1 POP PUSH1 0x40 DUP5 ADD MLOAD PUSH1 0x1F NOT DUP1 DUP6 DUP5 SUB ADD PUSH1 0x60 DUP7 ADD MSTORE PUSH2 0x3C87 DUP4 DUP4 PUSH2 0x3B89 JUMP JUMPDEST SWAP3 POP PUSH1 0x60 DUP7 ADD MLOAD SWAP2 POP PUSH2 0x3C9D PUSH1 0x80 DUP7 ADD DUP4 PUSH2 0x3C20 JUMP JUMPDEST PUSH1 0x80 DUP7 ADD MLOAD PUSH1 0xA0 DUP7 ADD MSTORE PUSH1 0xA0 DUP7 ADD MLOAD PUSH1 0xC0 DUP7 ADD MSTORE PUSH1 0xC0 DUP7 ADD MLOAD SWAP2 POP DUP1 DUP6 DUP5 SUB ADD PUSH1 0xE0 DUP7 ADD MSTORE POP PUSH2 0x3CCD DUP3 DUP3 PUSH2 0x3846 JUMP JUMPDEST SWAP6 SWAP5 POP POP POP POP POP JUMP JUMPDEST PUSH1 0x0 DUP1 PUSH1 0x0 DUP1 PUSH1 0x0 PUSH1 0xA0 DUP7 DUP9 SUB SLT ISZERO PUSH2 0x3CEE JUMPI PUSH1 0x0 DUP1 REVERT JUMPDEST PUSH2 0x3CF7 DUP7 PUSH2 0x389E JUMP JUMPDEST SWAP5 POP PUSH2 0x3D05 PUSH1 0x20 DUP8 ADD PUSH2 0x389E JUMP JUMPDEST SWAP4 POP PUSH1 0x40 DUP7 ADD CALLDATALOAD SWAP3 POP PUSH1 0x60 DUP7 ADD CALLDATALOAD PUSH1 0x4 DUP2 LT PUSH2 0x3D20 JUMPI PUSH1 0x0 DUP1 REVERT JUMPDEST SWAP5 SWAP8 SWAP4 SWAP7 POP SWAP2 SWAP5 PUSH1 0x80 ADD CALLDATALOAD SWAP3 SWAP2 POP POP JUMP JUMPDEST PUSH1 0x40 DUP2 MSTORE PUSH1 0x0 PUSH2 0x3D44 PUSH1 0x40 DUP4 ADD DUP6 PUSH2 0x3846 JUMP JUMPDEST SWAP1 POP DUP3 ISZERO ISZERO PUSH1 0x20 DUP4 ADD MSTORE SWAP4 SWAP3 POP POP POP JUMP JUMPDEST DUP1 ISZERO ISZERO DUP2 EQ PUSH2 0x2CDC JUMPI PUSH1 0x0 DUP1 REVERT JUMPDEST PUSH1 0x0 DUP1 PUSH1 0x40 DUP4 DUP6 SUB SLT ISZERO PUSH2 0x3D76 JUMPI PUSH1 0x0 DUP1 REVERT JUMPDEST PUSH2 0x3D7F DUP4 PUSH2 0x389E JUMP JUMPDEST SWAP2 POP PUSH1 0x20 DUP4 ADD CALLDATALOAD PUSH2 0x3D8F DUP2 PUSH2 0x3D55 JUMP JUMPDEST DUP1 SWAP2 POP POP SWAP3 POP SWAP3 SWAP1 POP JUMP JUMPDEST PUSH1 0xA0 DUP2 MSTORE PUSH1 0x0 PUSH2 0x3DAD PUSH1 0xA0 DUP4 ADD DUP9 PUSH2 0x3846 JUMP JUMPDEST DUP3 DUP2 SUB PUSH1 0x20 DUP5 ADD MSTORE PUSH2 0x3DBF DUP2 DUP9 PUSH2 0x3846 JUMP JUMPDEST SWAP1 POP DUP3 DUP2 SUB PUSH1 0x40 DUP5 ADD MSTORE PUSH2 0x3DD3 DUP2 DUP8 PUSH2 0x3846 JUMP JUMPDEST SWAP1 POP DUP3 DUP2 SUB PUSH1 0x60 DUP5 ADD MSTORE PUSH2 0x3DE7 DUP2 DUP7 PUSH2 0x3846 JUMP JUMPDEST SWAP2 POP POP PUSH1 0x1 DUP1 PUSH1 0xA0 SHL SUB DUP4 AND PUSH1 0x80 DUP4 ADD MSTORE SWAP7 SWAP6 POP POP POP POP POP POP JUMP JUMPDEST PUSH1 0x0 DUP1 PUSH1 0x0 DUP1 PUSH1 0x80 DUP6 DUP8 SUB SLT ISZERO PUSH2 0x3E18 JUMPI PUSH1 0x0 DUP1 REVERT JUMPDEST PUSH2 0x3E21 DUP6 PUSH2 0x389E JUMP JUMPDEST SWAP4 POP PUSH2 0x3E2F PUSH1 0x20 DUP7 ADD PUSH2 0x389E JUMP JUMPDEST SWAP3 POP PUSH1 0x40 DUP6 ADD CALLDATALOAD SWAP2 POP PUSH1 0x60 DUP6 ADD CALLDATALOAD PUSH8 0xFFFFFFFFFFFFFFFF DUP2 GT ISZERO PUSH2 0x3E52 JUMPI PUSH1 0x0 DUP1 REVERT JUMPDEST DUP6 ADD PUSH1 0x1F DUP2 ADD DUP8 SGT PUSH2 0x3E63 JUMPI PUSH1 0x0 DUP1 REVERT JUMPDEST PUSH2 0x3A4D DUP8 DUP3 CALLDATALOAD PUSH1 0x20 DUP5 ADD PUSH2 0x394E JUMP JUMPDEST PUSH1 0x0 DUP1 PUSH1 0x0 PUSH1 0x60 DUP5 DUP7 SUB SLT ISZERO PUSH2 0x3E87 JUMPI PUSH1 0x0 DUP1 REVERT JUMPDEST PUSH2 0x3E90 DUP5 PUSH2 0x389E JUMP JUMPDEST SWAP3 POP PUSH1 0x20 DUP5 ADD CALLDATALOAD SWAP2 POP PUSH1 0x40 DUP5 ADD CALLDATALOAD PUSH8 0xFFFFFFFFFFFFFFFF DUP2 GT ISZERO PUSH2 0x3EB3 JUMPI PUSH1 0x0 DUP1 REVERT JUMPDEST PUSH2 0x3EBF DUP7 DUP3 DUP8 ADD PUSH2 0x398C JUMP JUMPDEST SWAP2 POP POP SWAP3 POP SWAP3 POP SWAP3 JUMP JUMPDEST DUP6 DUP2 MSTORE DUP5 PUSH1 0x20 DUP3 ADD MSTORE PUSH1 0xA0 PUSH1 0x40 DUP3 ADD MSTORE PUSH1 0x0 PUSH2 0x3EE8 PUSH1 0xA0 DUP4 ADD DUP7 PUSH2 0x3846 JUMP JUMPDEST DUP5 ISZERO ISZERO PUSH1 0x60 DUP5 ADD MSTORE DUP3 DUP2 SUB PUSH1 0x80 DUP5 ADD MSTORE PUSH2 0x3F02 DUP2 DUP6 PUSH2 0x3846 JUMP JUMPDEST SWAP9 SWAP8 POP POP POP POP POP POP POP POP JUMP JUMPDEST PUSH1 0x0 DUP1 PUSH1 0x40 DUP4 DUP6 SUB SLT ISZERO PUSH2 0x3F21 JUMPI PUSH1 0x0 DUP1 REVERT JUMPDEST PUSH2 0x3F2A DUP4 PUSH2 0x389E JUMP JUMPDEST SWAP2 POP PUSH2 0x3B21 PUSH1 0x20 DUP5 ADD PUSH2 0x389E JUMP JUMPDEST DUP8 DUP2 MSTORE PUSH1 0xE0 PUSH1 0x20 DUP3 ADD MSTORE PUSH1 0x0 PUSH2 0x3F51 PUSH1 0xE0 DUP4 ADD DUP10 PUSH2 0x3B89 JUMP JUMPDEST DUP3 DUP2 SUB PUSH1 0x40 DUP5 ADD MSTORE PUSH2 0x3F63 DUP2 DUP10 PUSH2 0x3B89 JUMP JUMPDEST SWAP1 POP PUSH2 0x3F72 PUSH1 0x60 DUP5 ADD DUP9 PUSH2 0x3C20 JUMP JUMPDEST DUP6 PUSH1 0x80 DUP5 ADD MSTORE DUP5 PUSH1 0xA0 DUP5 ADD MSTORE DUP3 DUP2 SUB PUSH1 0xC0 DUP5 ADD MSTORE PUSH2 0x3F90 DUP2 DUP6 PUSH2 0x3846 JUMP JUMPDEST SWAP11 SWAP10 POP POP POP POP POP POP POP POP POP POP JUMP JUMPDEST PUSH4 0x4E487B71 PUSH1 0xE0 SHL PUSH1 0x0 MSTORE PUSH1 0x11 PUSH1 0x4 MSTORE PUSH1 0x24 PUSH1 0x0 REVERT JUMPDEST PUSH1 0x0 DUP3 DUP3 LT ISZERO PUSH2 0x3FC6 JUMPI PUSH2 0x3FC6 PUSH2 0x3F9E JUMP JUMPDEST POP SUB SWAP1 JUMP JUMPDEST PUSH1 0x1 DUP2 DUP2 SHR SWAP1 DUP3 AND DUP1 PUSH2 0x3FDF JUMPI PUSH1 0x7F DUP3 AND SWAP2 POP JUMPDEST PUSH1 0x20 DUP3 LT DUP2 SUB PUSH2 0x3FFF JUMPI PUSH4 0x4E487B71 PUSH1 0xE0 SHL PUSH1 0x0 MSTORE PUSH1 0x22 PUSH1 0x4 MSTORE PUSH1 0x24 PUSH1 0x0 REVERT JUMPDEST POP SWAP2 SWAP1 POP JUMP JUMPDEST PUSH1 0x1F DUP3 GT ISZERO PUSH2 0x8C1 JUMPI PUSH1 0x0 DUP2 DUP2 MSTORE PUSH1 0x20 DUP2 KECCAK256 PUSH1 0x1F DUP6 ADD PUSH1 0x5 SHR DUP2 ADD PUSH1 0x20 DUP7 LT ISZERO PUSH2 0x402C JUMPI POP DUP1 JUMPDEST PUSH1 0x1F DUP6 ADD PUSH1 0x5 SHR DUP3 ADD SWAP2 POP JUMPDEST DUP2 DUP2 LT ISZERO PUSH2 0x404B JUMPI DUP3 DUP2 SSTORE PUSH1 0x1 ADD PUSH2 0x4038 JUMP JUMPDEST POP POP POP POP POP POP JUMP JUMPDEST DUP2 MLOAD PUSH8 0xFFFFFFFFFFFFFFFF DUP2 GT ISZERO PUSH2 0x406D JUMPI PUSH2 0x406D PUSH2 0x38DF JUMP JUMPDEST PUSH2 0x4081 DUP2 PUSH2 0x407B DUP5 SLOAD PUSH2 0x3FCB JUMP JUMPDEST DUP5 PUSH2 0x4005 JUMP JUMPDEST PUSH1 0x20 DUP1 PUSH1 0x1F DUP4 GT PUSH1 0x1 DUP2 EQ PUSH2 0x40B6 JUMPI PUSH1 0x0 DUP5 ISZERO PUSH2 0x409E JUMPI POP DUP6 DUP4 ADD MLOAD JUMPDEST PUSH1 0x0 NOT PUSH1 0x3 DUP7 SWAP1 SHL SHR NOT AND PUSH1 0x1 DUP6 SWAP1 SHL OR DUP6 SSTORE PUSH2 0x404B JUMP JUMPDEST PUSH1 0x0 DUP6 DUP2 MSTORE PUSH1 0x20 DUP2 KECCAK256 PUSH1 0x1F NOT DUP7 AND SWAP2 JUMPDEST DUP3 DUP2 LT ISZERO PUSH2 0x40E5 JUMPI DUP9 DUP7 ADD MLOAD DUP3 SSTORE SWAP5 DUP5 ADD SWAP5 PUSH1 0x1 SWAP1 SWAP2 ADD SWAP1 DUP5 ADD PUSH2 0x40C6 JUMP JUMPDEST POP DUP6 DUP3 LT ISZERO PUSH2 0x4103 JUMPI DUP8 DUP6 ADD MLOAD PUSH1 0x0 NOT PUSH1 0x3 DUP9 SWAP1 SHL PUSH1 0xF8 AND SHR NOT AND DUP2 SSTORE JUMPDEST POP POP POP POP POP PUSH1 0x1 SWAP1 DUP2 SHL ADD SWAP1 SSTORE POP JUMP JUMPDEST PUSH1 0x0 PUSH1 0x1 DUP3 ADD PUSH2 0x4125 JUMPI PUSH2 0x4125 PUSH2 0x3F9E JUMP JUMPDEST POP PUSH1 0x1 ADD SWAP1 JUMP JUMPDEST PUSH1 0x20 DUP1 DUP3 MSTORE PUSH1 0x2E SWAP1 DUP3 ADD MSTORE PUSH32 0x4552433732313A2063616C6C6572206973206E6F7420746F6B656E206F776E65 PUSH1 0x40 DUP3 ADD MSTORE PUSH14 0x1C881B9BDC88185C1C1C9BDD9959 PUSH1 0x92 SHL PUSH1 0x60 DUP3 ADD MSTORE PUSH1 0x80 ADD SWAP1 JUMP JUMPDEST PUSH1 0x40 DUP2 MSTORE PUSH1 0x0 PUSH2 0x418D PUSH1 0x40 DUP4 ADD DUP5 PUSH2 0x3846 JUMP JUMPDEST DUP3 DUP2 SUB PUSH1 0x20 DUP5 ADD MSTORE PUSH1 0x4 DUP2 MSTORE PUSH4 0x42534947 PUSH1 0xE0 SHL PUSH1 0x20 DUP3 ADD MSTORE PUSH1 0x40 DUP2 ADD SWAP2 POP POP SWAP3 SWAP2 POP POP JUMP JUMPDEST PUSH1 0x0 PUSH1 0x20 DUP3 DUP5 SUB SLT ISZERO PUSH2 0x41C5 JUMPI PUSH1 0x0 DUP1 REVERT JUMPDEST DUP2 MLOAD PUSH8 0xFFFFFFFFFFFFFFFF DUP2 GT ISZERO PUSH2 0x41DC JUMPI PUSH1 0x0 DUP1 REVERT JUMPDEST DUP3 ADD PUSH1 0x1F DUP2 ADD DUP5 SGT PUSH2 0x41ED JUMPI PUSH1 0x0 DUP1 REVERT JUMPDEST DUP1 MLOAD PUSH2 0x41FB PUSH2 0x395C DUP3 PUSH2 0x3926 JUMP JUMPDEST DUP2 DUP2 MSTORE DUP6 PUSH1 0x20 DUP4 DUP6 ADD ADD GT ISZERO PUSH2 0x4210 JUMPI PUSH1 0x0 DUP1 REVERT JUMPDEST PUSH2 0x3CCD DUP3 PUSH1 0x20 DUP4 ADD PUSH1 0x20 DUP7 ADD PUSH2 0x381A JUMP JUMPDEST PUSH4 0x4E487B71 PUSH1 0xE0 SHL PUSH1 0x0 MSTORE PUSH1 0x12 PUSH1 0x4 MSTORE PUSH1 0x24 PUSH1 0x0 REVERT JUMPDEST PUSH1 0x0 DUP3 PUSH2 0x4246 JUMPI PUSH2 0x4246 PUSH2 0x4221 JUMP JUMPDEST POP DIV SWAP1 JUMP JUMPDEST PUSH1 0x0 DUP2 PUSH1 0x0 NOT DIV DUP4 GT DUP3 ISZERO ISZERO AND ISZERO PUSH2 0x4265 JUMPI PUSH2 0x4265 PUSH2 0x3F9E JUMP JUMPDEST POP MUL SWAP1 JUMP JUMPDEST PUSH1 0x0 DUP3 NOT DUP3 GT ISZERO PUSH2 0x427D JUMPI PUSH2 0x427D PUSH2 0x3F9E JUMP JUMPDEST POP ADD SWAP1 JUMP JUMPDEST PUSH1 0x40 DUP2 MSTORE PUSH1 0x0 PUSH2 0x4295 PUSH1 0x40 DUP4 ADD DUP6 PUSH2 0x3846 JUMP JUMPDEST SWAP1 POP PUSH1 0x1 DUP1 PUSH1 0xA0 SHL SUB DUP4 AND PUSH1 0x20 DUP4 ADD MSTORE SWAP4 SWAP3 POP POP POP JUMP JUMPDEST PUSH1 0x0 PUSH1 0x20 DUP3 DUP5 SUB SLT ISZERO PUSH2 0x42BE JUMPI PUSH1 0x0 DUP1 REVERT JUMPDEST DUP2 MLOAD PUSH2 0xB26 DUP2 PUSH2 0x3D55 JUMP JUMPDEST PUSH1 0x40 DUP2 MSTORE PUSH1 0x0 DUP1 DUP5 SLOAD PUSH2 0x42DB DUP2 PUSH2 0x3FCB JUMP JUMPDEST DUP1 PUSH1 0x40 DUP7 ADD MSTORE PUSH1 0x60 PUSH1 0x1 DUP1 DUP5 AND PUSH1 0x0 DUP2 EQ PUSH2 0x42FD JUMPI PUSH1 0x1 DUP2 EQ PUSH2 0x4317 JUMPI PUSH2 0x4348 JUMP JUMPDEST PUSH1 0xFF NOT DUP6 AND DUP9 DUP5 ADD MSTORE DUP4 ISZERO ISZERO PUSH1 0x5 SHL DUP9 ADD DUP4 ADD SWAP6 POP PUSH2 0x4348 JUMP JUMPDEST DUP10 PUSH1 0x0 MSTORE PUSH1 0x20 DUP1 PUSH1 0x0 KECCAK256 PUSH1 0x0 JUMPDEST DUP7 DUP2 LT ISZERO PUSH2 0x433F JUMPI DUP2 SLOAD DUP12 DUP3 ADD DUP8 ADD MSTORE SWAP1 DUP5 ADD SWAP1 DUP3 ADD PUSH2 0x4324 JUMP JUMPDEST DUP11 ADD DUP6 ADD SWAP8 POP POP POP JUMPDEST POP POP POP POP PUSH1 0x1 PUSH1 0x1 PUSH1 0xA0 SHL SUB DUP6 AND PUSH1 0x20 DUP6 ADD MSTORE POP SWAP1 POP PUSH2 0xB26 JUMP JUMPDEST PUSH1 0x40 DUP2 MSTORE PUSH1 0x0 PUSH2 0x4376 PUSH1 0x40 DUP4 ADD DUP5 PUSH2 0x3846 JUMP JUMPDEST DUP3 DUP2 SUB PUSH1 0x20 DUP5 ADD MSTORE PUSH1 0x9 DUP2 MSTORE PUSH9 0x4F574E45525F534947 PUSH1 0xB8 SHL PUSH1 0x20 DUP3 ADD MSTORE PUSH1 0x40 DUP2 ADD SWAP2 POP POP SWAP3 SWAP2 POP POP JUMP JUMPDEST PUSH4 0x4E487B71 PUSH1 0xE0 SHL PUSH1 0x0 MSTORE PUSH1 0x32 PUSH1 0x4 MSTORE PUSH1 0x24 PUSH1 0x0 REVERT JUMPDEST PUSH1 0x20 DUP1 DUP3 MSTORE PUSH1 0x32 SWAP1 DUP3 ADD MSTORE PUSH32 0x4552433732313A207472616E7366657220746F206E6F6E204552433732315265 PUSH1 0x40 DUP3 ADD MSTORE PUSH18 0x31B2B4BB32B91034B6B83632B6B2B73A32B9 PUSH1 0x71 SHL PUSH1 0x60 DUP3 ADD MSTORE PUSH1 0x80 ADD SWAP1 JUMP JUMPDEST PUSH1 0x0 DUP4 MLOAD PUSH2 0x441B DUP2 DUP5 PUSH1 0x20 DUP9 ADD PUSH2 0x381A JUMP JUMPDEST DUP4 MLOAD SWAP1 DUP4 ADD SWAP1 PUSH2 0x442F DUP2 DUP4 PUSH1 0x20 DUP9 ADD PUSH2 0x381A JUMP JUMPDEST ADD SWAP5 SWAP4 POP POP POP POP JUMP JUMPDEST PUSH1 0x1 PUSH1 0x1 PUSH1 0xA0 SHL SUB DUP6 DUP2 AND DUP3 MSTORE DUP5 AND PUSH1 0x20 DUP3 ADD MSTORE PUSH1 0x40 DUP2 ADD DUP4 SWAP1 MSTORE PUSH1 0x80 PUSH1 0x60 DUP3 ADD DUP2 SWAP1 MSTORE PUSH1 0x0 SWAP1 PUSH2 0x446B SWAP1 DUP4 ADD DUP5 PUSH2 0x3846 JUMP JUMPDEST SWAP7 SWAP6 POP POP POP POP POP POP JUMP JUMPDEST PUSH1 0x0 PUSH1 0x20 DUP3 DUP5 SUB SLT ISZERO PUSH2 0x4487 JUMPI PUSH1 0x0 DUP1 REVERT JUMPDEST DUP2 MLOAD PUSH2 0xB26 DUP2 PUSH2 0x37E7 JUMP JUMPDEST PUSH1 0x0 DUP3 PUSH2 0x44A1 JUMPI PUSH2 0x44A1 PUSH2 0x4221 JUMP JUMPDEST POP MOD SWAP1 JUMP INVALID LOG2 PUSH5 0x6970667358 0x22 SLT KECCAK256 PUSH14 0x452BF7B526F36BFD12E8A779A60F MULMOD ADDRESS NUMBER 0x5E 0xBF 0x5D PUSH31 0x73DCB84C85DA9D3786B664736F6C634300080F003300000000000000000000 ",
  "sha1": "0cba0ae3077710c741eb5977e73e05f09fd04b28",
  "source": "// SPDX-License-Identifier: MIT\npragma solidity ^0.8.14;\n\nimport \"@openzeppelin/contracts/token/ERC721/ERC721.sol\";\nimport \"@openzeppelin/contracts/token/ERC721/extensions/ERC721URIStorage.sol\";\nimport \"@openzeppelin/contracts/access/Ownable.sol\";\nimport \"@openzeppelin/contracts/utils/cryptography/ECDSA.sol\";\nimport {HeptaSign} from \"./HeptaSign.sol\";\n\ncontract LandRegistry is ERC721, ERC721URIStorage, Ownable {\n    using ECDSA for bytes32;\n    bytes32 public constant EXECUTOR_ROLE = keccak256(\"EXECUTOR\");\n    uint256 registerIndex;\n    uint256 contractBalance;\n    uint noUsers;\n\n    constructor() ERC721(\"LandRegistry\", \"LRY\") {\n        registerIndex = 0;\n        contractBalance = 0;\n        noUsers = 0;\n    }\n\n    enum SaleType {\n        NEW,\n        RESALE,\n        INHERITANCE,\n        GIFT\n    }\n\n    struct OwnerType {\n        string name;\n        string resAddress;\n        string care_of;\n        string gender;\n        address addr;\n    }\n\n    struct RegisterEntry {\n        uint256 landId;\n        OwnerType seller;\n        OwnerType buyer;\n        SaleType sale;\n        uint256 salePrice;\n        uint256 fee;\n        bytes ownerSignature;\n    }\n\n    struct LandVoucher {\n        uint256 tokenId;\n        uint256 minPrice;\n        string uri;\n        bool isSold;\n        bytes builderSignature;\n    }\n\n    struct Executor {\n        string name;\n        bool isVal;\n    }\n\n    mapping(address => OwnerType) public users;\n    mapping(uint256 => LandVoucher) public lands;\n    mapping(uint256 => RegisterEntry) public landRegister;\n    mapping(address => uint256[]) public ownedLands;\n    mapping(address => Executor) public executors;\n\n    function getUsers() external view returns(uint) {\n        return noUsers;\n    }\n\n    function getOwnedLands(address addr) external view returns(uint256[] memory) {\n        return ownedLands[addr];\n    }\n\n    function getLastSale() external view returns(RegisterEntry memory) {\n        if (registerIndex - 1 < 0) {\n            RegisterEntry memory emptyEntry;\n            return emptyEntry;\n        }\n        return landRegister[registerIndex-1];\n    }\n\n    function hasRole(address _addr) internal view returns (bool) {\n        return executors[_addr].isVal;\n    }\n\n    function onlyExecutor() internal view {\n        require(\n            hasRole(msg.sender),\n            \"Only Executors\"\n        );\n    }\n\n    function safeMint(\n        address to,\n        uint256 tokenId,\n        string memory uri\n    ) public onlyOwner {\n        _safeMint(to, tokenId);\n        _setTokenURI(tokenId, uri);\n    }\n\n    function getContractBalance() public view onlyOwner returns (uint256) {\n        return contractBalance;\n    }\n\n    function withdrawBalance() public payable onlyOwner {\n        payable(owner()).transfer(contractBalance);\n        contractBalance = 0;\n    }\n\n    function addExecutor(string memory name, address _addr) public onlyOwner {\n        executors[_addr] = Executor(name, true);\n    }\n\n    function registerUserInRegistry(\n        string memory _name,\n        string memory _cof,\n        string memory _resAddress,\n        string memory _gender\n    ) public {\n        users[msg.sender] = OwnerType(_name, _resAddress, _cof, _gender, msg.sender);\n        noUsers++;\n    }\n\n    function getLatestLandIdx() external view returns (uint256) {\n        return registerIndex - 1;\n    }\n\n    function registerLand(\n        string memory _uri,\n        address builder,\n        uint256 _price\n    ) public returns (uint256) {\n        onlyExecutor();\n        bytes memory signature = bytes(\n            HeptaSign.concat(string(abi.encodePacked(builder)), \"BSIG\")\n        );\n        lands[registerIndex] = LandVoucher(\n            registerIndex,\n            _price,\n            _uri,\n            false,\n            signature\n        );\n        registerIndex++;\n        return registerIndex - 1;\n    }\n\n    \n\n    function executeSale(\n        address _seller,\n        address _buyer,\n        uint256 _landToken,\n        SaleType _sType,\n        uint256 _salePrice\n    ) public {\n        onlyExecutor();\n        require(\n            (_sType == SaleType.NEW && lands[_landToken].isSold == false) ||\n                (_sType != SaleType.NEW && lands[_landToken].isSold),\n            \"Invalid\"\n        );\n\n        uint256 fees = 10000000;\n\n        if (_sType == SaleType.NEW || _sType == SaleType.RESALE) {\n            fees += (_salePrice / 1000) * 1;\n        } else if (_sType == SaleType.INHERITANCE) {\n            fees += (_salePrice / 1000) * 5;\n        } else if (_sType == SaleType.GIFT) {\n            fees += (_salePrice / 1000) * 8;\n        }\n        LandVoucher memory lv = lands[_landToken];\n        if (_sType == SaleType.NEW) {\n            bool verified = HeptaSign._verify(lv.builderSignature, _seller);\n            require(verified, \"Signature Error\");\n            require(lv.isSold == false, \"Invalid\");\n            _safeMint(_seller, _landToken);\n            _setTokenURI(_landToken, lv.uri);\n            _transfer(_seller, _buyer, _landToken);\n            lands[_landToken].isSold = true;\n        } else {\n            bool verifyOwnershipOfSeller = HeptaSign._verifyOwnerSignature(\n                landRegister[_landToken].ownerSignature,\n                _seller\n            );\n            require(\n                verifyOwnershipOfSeller,\n                \"The given Seller is not the owner of the land\"\n            );\n            require(lv.isSold, \"Invalid Sale Condition\");\n            _transfer(_seller, _buyer, _landToken);\n        }\n        bytes memory newOwnerSignature = bytes(\n            HeptaSign.concat(string(abi.encodePacked(_buyer)), \"OWNER_SIG\")\n        );\n        landRegister[_landToken] = RegisterEntry(\n            _landToken,\n            users[_seller],\n            users[_buyer],\n            _sType,\n            _salePrice,\n            fees,\n            newOwnerSignature\n        );\n        if (_sType == SaleType.NEW) {\n            ownedLands[_buyer].push(_landToken);\n        } else {\n            for (uint256 i = 0; i < ownedLands[_seller].length; i = i + 1) {\n                if (ownedLands[_seller][i] == _landToken) {\n                    delete ownedLands[_seller][i];\n                    break;\n                }\n            }\n            ownedLands[_buyer].push(_landToken);\n        }\n        contractBalance += fees;\n    }\n\n    // The following functions are overrides required by Solidity.\n\n    function _burn(uint256 tokenId)\n        internal\n        override(ERC721, ERC721URIStorage)\n    {\n        super._burn(tokenId);\n    }\n\n    function tokenURI(uint256 tokenId)\n        public\n        view\n        override(ERC721, ERC721URIStorage)\n        returns (string memory)\n    {\n        return super.tokenURI(tokenId);\n    }\n}\n",
  "sourcePath": "contracts/LandRegistry.sol",
  "type": "contract"
}