{
  "abi": [
    {
      "inputs": [],
      "stateMutability": "nonpayable",
      "type": "constructor"
    },
    {
      "anonymous": false,
      "inputs": [
        {
          "indexed": true,
          "internalType": "address",
          "name": "owner",
          "type": "address"
        },
        {
          "indexed": true,
          "internalType": "address",
          "name": "approved",
          "type": "address"
        },
        {
          "indexed": true,
          "internalType": "uint256",
          "name": "tokenId",
          "type": "uint256"
        }
      ],
      "name": "Approval",
      "type": "event"
    },
    {
      "anonymous": false,
      "inputs": [
        {
          "indexed": true,
          "internalType": "address",
          "name": "owner",
          "type": "address"
        },
        {
          "indexed": true,
          "internalType": "address",
          "name": "operator",
          "type": "address"
        },
        {
          "indexed": false,
          "internalType": "bool",
          "name": "approved",
          "type": "bool"
        }
      ],
      "name": "ApprovalForAll",
      "type": "event"
    },
    {
      "anonymous": false,
      "inputs": [
        {
          "indexed": true,
          "internalType": "address",
          "name": "previousOwner",
          "type": "address"
        },
        {
          "indexed": true,
          "internalType": "address",
          "name": "newOwner",
          "type": "address"
        }
      ],
      "name": "OwnershipTransferred",
      "type": "event"
    },
    {
      "anonymous": false,
      "inputs": [
        {
          "indexed": true,
          "internalType": "address",
          "name": "from",
          "type": "address"
        },
        {
          "indexed": true,
          "internalType": "address",
          "name": "to",
          "type": "address"
        },
        {
          "indexed": true,
          "internalType": "uint256",
          "name": "tokenId",
          "type": "uint256"
        }
      ],
      "name": "Transfer",
      "type": "event"
    },
    {
      "inputs": [],
      "name": "EXECUTOR_ROLE",
      "outputs": [
        {
          "internalType": "bytes32",
          "name": "",
          "type": "bytes32"
        }
      ],
      "stateMutability": "view",
      "type": "function"
    },
    {
      "inputs": [
        {
          "internalType": "string",
          "name": "name",
          "type": "string"
        },
        {
          "internalType": "address",
          "name": "_addr",
          "type": "address"
        }
      ],
      "name": "addExecutor",
      "outputs": [],
      "stateMutability": "nonpayable",
      "type": "function"
    },
    {
      "inputs": [
        {
          "internalType": "address",
          "name": "to",
          "type": "address"
        },
        {
          "internalType": "uint256",
          "name": "tokenId",
          "type": "uint256"
        }
      ],
      "name": "approve",
      "outputs": [],
      "stateMutability": "nonpayable",
      "type": "function"
    },
    {
      "inputs": [
        {
          "internalType": "address",
          "name": "owner",
          "type": "address"
        }
      ],
      "name": "balanceOf",
      "outputs": [
        {
          "internalType": "uint256",
          "name": "",
          "type": "uint256"
        }
      ],
      "stateMutability": "view",
      "type": "function"
    },
    {
      "inputs": [
        {
          "internalType": "address",
          "name": "_seller",
          "type": "address"
        },
        {
          "internalType": "address",
          "name": "_buyer",
          "type": "address"
        },
        {
          "internalType": "uint256",
          "name": "_landToken",
          "type": "uint256"
        },
        {
          "internalType": "enum LandRegistry.SaleType",
          "name": "_sType",
          "type": "uint8"
        },
        {
          "internalType": "uint256",
          "name": "_salePrice",
          "type": "uint256"
        }
      ],
      "name": "executeSale",
      "outputs": [],
      "stateMutability": "nonpayable",
      "type": "function"
    },
    {
      "inputs": [
        {
          "internalType": "address",
          "name": "",
          "type": "address"
        }
      ],
      "name": "executors",
      "outputs": [
        {
          "internalType": "string",
          "name": "name",
          "type": "string"
        },
        {
          "internalType": "bool",
          "name": "isVal",
          "type": "bool"
        }
      ],
      "stateMutability": "view",
      "type": "function"
    },
    {
      "inputs": [
        {
          "internalType": "uint256",
          "name": "tokenId",
          "type": "uint256"
        }
      ],
      "name": "getApproved",
      "outputs": [
        {
          "internalType": "address",
          "name": "",
          "type": "address"
        }
      ],
      "stateMutability": "view",
      "type": "function"
    },
    {
      "inputs": [],
      "name": "getContractBalance",
      "outputs": [
        {
          "internalType": "uint256",
          "name": "",
          "type": "uint256"
        }
      ],
      "stateMutability": "view",
      "type": "function"
    },
    {
      "inputs": [],
      "name": "getOwnedAssets",
      "outputs": [
        {
          "internalType": "uint256[]",
          "name": "",
          "type": "uint256[]"
        }
      ],
      "stateMutability": "view",
      "type": "function"
    },
    {
      "inputs": [],
      "name": "getUserDetails",
      "outputs": [
        {
          "components": [
            {
              "internalType": "string",
              "name": "name",
              "type": "string"
            },
            {
              "internalType": "string",
              "name": "resAddress",
              "type": "string"
            },
            {
              "internalType": "string",
              "name": "care_of",
              "type": "string"
            },
            {
              "internalType": "string",
              "name": "gender",
              "type": "string"
            }
          ],
          "internalType": "struct LandRegistry.OwnerType",
          "name": "",
          "type": "tuple"
        }
      ],
      "stateMutability": "view",
      "type": "function"
    },
    {
      "inputs": [
        {
          "internalType": "address",
          "name": "owner",
          "type": "address"
        },
        {
          "internalType": "address",
          "name": "operator",
          "type": "address"
        }
      ],
      "name": "isApprovedForAll",
      "outputs": [
        {
          "internalType": "bool",
          "name": "",
          "type": "bool"
        }
      ],
      "stateMutability": "view",
      "type": "function"
    },
    {
      "inputs": [
        {
          "internalType": "uint256",
          "name": "",
          "type": "uint256"
        }
      ],
      "name": "landRegister",
      "outputs": [
        {
          "internalType": "uint256",
          "name": "landId",
          "type": "uint256"
        },
        {
          "components": [
            {
              "internalType": "string",
              "name": "name",
              "type": "string"
            },
            {
              "internalType": "string",
              "name": "resAddress",
              "type": "string"
            },
            {
              "internalType": "string",
              "name": "care_of",
              "type": "string"
            },
            {
              "internalType": "string",
              "name": "gender",
              "type": "string"
            }
          ],
          "internalType": "struct LandRegistry.OwnerType",
          "name": "seller",
          "type": "tuple"
        },
        {
          "components": [
            {
              "internalType": "string",
              "name": "name",
              "type": "string"
            },
            {
              "internalType": "string",
              "name": "resAddress",
              "type": "string"
            },
            {
              "internalType": "string",
              "name": "care_of",
              "type": "string"
            },
            {
              "internalType": "string",
              "name": "gender",
              "type": "string"
            }
          ],
          "internalType": "struct LandRegistry.OwnerType",
          "name": "buyer",
          "type": "tuple"
        },
        {
          "internalType": "enum LandRegistry.SaleType",
          "name": "sale",
          "type": "uint8"
        },
        {
          "internalType": "uint256",
          "name": "salePrice",
          "type": "uint256"
        },
        {
          "internalType": "uint256",
          "name": "fee",
          "type": "uint256"
        },
        {
          "internalType": "bytes",
          "name": "ownerSignature",
          "type": "bytes"
        }
      ],
      "stateMutability": "view",
      "type": "function"
    },
    {
      "inputs": [
        {
          "internalType": "uint256",
          "name": "",
          "type": "uint256"
        }
      ],
      "name": "lands",
      "outputs": [
        {
          "internalType": "uint256",
          "name": "tokenId",
          "type": "uint256"
        },
        {
          "internalType": "uint256",
          "name": "minPrice",
          "type": "uint256"
        },
        {
          "internalType": "string",
          "name": "uri",
          "type": "string"
        },
        {
          "internalType": "bool",
          "name": "isSold",
          "type": "bool"
        },
        {
          "internalType": "bytes",
          "name": "builderSignature",
          "type": "bytes"
        }
      ],
      "stateMutability": "view",
      "type": "function"
    },
    {
      "inputs": [],
      "name": "name",
      "outputs": [
        {
          "internalType": "string",
          "name": "",
          "type": "string"
        }
      ],
      "stateMutability": "view",
      "type": "function"
    },
    {
      "inputs": [
        {
          "internalType": "address",
          "name": "",
          "type": "address"
        },
        {
          "internalType": "uint256",
          "name": "",
          "type": "uint256"
        }
      ],
      "name": "ownedLands",
      "outputs": [
        {
          "internalType": "uint256",
          "name": "",
          "type": "uint256"
        }
      ],
      "stateMutability": "view",
      "type": "function"
    },
    {
      "inputs": [],
      "name": "owner",
      "outputs": [
        {
          "internalType": "address",
          "name": "",
          "type": "address"
        }
      ],
      "stateMutability": "view",
      "type": "function"
    },
    {
      "inputs": [
        {
          "internalType": "uint256",
          "name": "tokenId",
          "type": "uint256"
        }
      ],
      "name": "ownerOf",
      "outputs": [
        {
          "internalType": "address",
          "name": "",
          "type": "address"
        }
      ],
      "stateMutability": "view",
      "type": "function"
    },
    {
      "inputs": [
        {
          "internalType": "string",
          "name": "_uri",
          "type": "string"
        },
        {
          "internalType": "address",
          "name": "builder",
          "type": "address"
        },
        {
          "internalType": "uint256",
          "name": "_price",
          "type": "uint256"
        }
      ],
      "name": "registerLand",
      "outputs": [],
      "stateMutability": "nonpayable",
      "type": "function"
    },
    {
      "inputs": [
        {
          "internalType": "string",
          "name": "_name",
          "type": "string"
        },
        {
          "internalType": "string",
          "name": "_cof",
          "type": "string"
        },
        {
          "internalType": "string",
          "name": "_resAddress",
          "type": "string"
        },
        {
          "internalType": "string",
          "name": "_gender",
          "type": "string"
        }
      ],
      "name": "registerUserInRegistry",
      "outputs": [],
      "stateMutability": "nonpayable",
      "type": "function"
    },
    {
      "inputs": [],
      "name": "renounceOwnership",
      "outputs": [],
      "stateMutability": "nonpayable",
      "type": "function"
    },
    {
      "inputs": [
        {
          "internalType": "address",
          "name": "to",
          "type": "address"
        },
        {
          "internalType": "uint256",
          "name": "tokenId",
          "type": "uint256"
        },
        {
          "internalType": "string",
          "name": "uri",
          "type": "string"
        }
      ],
      "name": "safeMint",
      "outputs": [],
      "stateMutability": "nonpayable",
      "type": "function"
    },
    {
      "inputs": [
        {
          "internalType": "address",
          "name": "from",
          "type": "address"
        },
        {
          "internalType": "address",
          "name": "to",
          "type": "address"
        },
        {
          "internalType": "uint256",
          "name": "tokenId",
          "type": "uint256"
        }
      ],
      "name": "safeTransferFrom",
      "outputs": [],
      "stateMutability": "nonpayable",
      "type": "function"
    },
    {
      "inputs": [
        {
          "internalType": "address",
          "name": "from",
          "type": "address"
        },
        {
          "internalType": "address",
          "name": "to",
          "type": "address"
        },
        {
          "internalType": "uint256",
          "name": "tokenId",
          "type": "uint256"
        },
        {
          "internalType": "bytes",
          "name": "data",
          "type": "bytes"
        }
      ],
      "name": "safeTransferFrom",
      "outputs": [],
      "stateMutability": "nonpayable",
      "type": "function"
    },
    {
      "inputs": [
        {
          "internalType": "address",
          "name": "operator",
          "type": "address"
        },
        {
          "internalType": "bool",
          "name": "approved",
          "type": "bool"
        }
      ],
      "name": "setApprovalForAll",
      "outputs": [],
      "stateMutability": "nonpayable",
      "type": "function"
    },
    {
      "inputs": [
        {
          "internalType": "bytes4",
          "name": "interfaceId",
          "type": "bytes4"
        }
      ],
      "name": "supportsInterface",
      "outputs": [
        {
          "internalType": "bool",
          "name": "",
          "type": "bool"
        }
      ],
      "stateMutability": "view",
      "type": "function"
    },
    {
      "inputs": [],
      "name": "symbol",
      "outputs": [
        {
          "internalType": "string",
          "name": "",
          "type": "string"
        }
      ],
      "stateMutability": "view",
      "type": "function"
    },
    {
      "inputs": [
        {
          "internalType": "uint256",
          "name": "tokenId",
          "type": "uint256"
        }
      ],
      "name": "tokenURI",
      "outputs": [
        {
          "internalType": "string",
          "name": "",
          "type": "string"
        }
      ],
      "stateMutability": "view",
      "type": "function"
    },
    {
      "inputs": [
        {
          "internalType": "address",
          "name": "from",
          "type": "address"
        },
        {
          "internalType": "address",
          "name": "to",
          "type": "address"
        },
        {
          "internalType": "uint256",
          "name": "tokenId",
          "type": "uint256"
        }
      ],
      "name": "transferFrom",
      "outputs": [],
      "stateMutability": "nonpayable",
      "type": "function"
    },
    {
      "inputs": [
        {
          "internalType": "address",
          "name": "newOwner",
          "type": "address"
        }
      ],
      "name": "transferOwnership",
      "outputs": [],
      "stateMutability": "nonpayable",
      "type": "function"
    },
    {
      "inputs": [],
      "name": "withdrawBalance",
      "outputs": [],
      "stateMutability": "payable",
      "type": "function"
    }
  ],
  "bytecode": "60806040523480156200001157600080fd5b506040518060400160405280600c81526020016b4c616e64526567697374727960a01b815250604051806040016040528060038152602001624c525960e81b81525081600090816200006491906200019b565b5060016200007382826200019b565b505050620000906200008a620000a060201b60201c565b620000a4565b6000600881905560095562000267565b3390565b600780546001600160a01b038381166001600160a01b0319831681179093556040519116919082907f8be0079c531659141344cd1fd0a4f28419497f9722a3daafe3b4186f6b6457e090600090a35050565b634e487b7160e01b600052604160045260246000fd5b600181811c908216806200012157607f821691505b6020821081036200014257634e487b7160e01b600052602260045260246000fd5b50919050565b601f8211156200019657600081815260208120601f850160051c81016020861015620001715750805b601f850160051c820191505b8181101562000192578281556001016200017d565b5050505b505050565b81516001600160401b03811115620001b757620001b7620000f6565b620001cf81620001c884546200010c565b8462000148565b602080601f831160018114620002075760008415620001ee5750858301515b600019600386901b1c1916600185901b17855562000192565b600085815260208120601f198616915b82811015620002385788860151825594840194600190910190840162000217565b5085821015620002575787850151600019600388901b60f8161c191681555b5050505050600190811b01905550565b6139f280620002776000396000f3fe6080604052600436106101cd5760003560e01c806370a08231116100f7578063b6f8499111610095578063e261f1e511610064578063e261f1e51461053c578063e985e9c51461056d578063ec52754d146105b6578063f2fde38b146105e957600080fd5b8063b6f84991146104bc578063b88d4fde146104dc578063c87b56dd146104fc578063cd279c7c1461051c57600080fd5b8063942886be116100d1578063942886be1461043757806395d89b41146104595780639ac2a0111461046e578063a22cb4651461049c57600080fd5b806370a08231146103e4578063715018a6146104045780638da5cb5b1461041957600080fd5b80632985bc941161016f5780635fd8c7101161013e5780635fd8c710146103875780636352211e1461038f57806368d3c5e5146103af5780636f9fb98a146103cf57600080fd5b80632985bc94146103055780633b5ee4d51461032757806342842e0e1461034757806349b69fc11461036757600080fd5b8063081812fc116101ab578063081812fc1461026b578063095ea7b3146102a35780630c154483146102c557806323b872dd146102e557600080fd5b806301ffc9a7146101d257806306fdde031461020757806307bd026514610229575b600080fd5b3480156101de57600080fd5b506101f26101ed366004612f93565b610609565b60405190151581526020015b60405180910390f35b34801561021357600080fd5b5061021c61065b565b6040516101fe9190613008565b34801561023557600080fd5b5061025d7f9cf85f95575c3af1e116e3d37fd41e7f36a8a373623f51ffaaa87fdd032fa76781565b6040519081526020016101fe565b34801561027757600080fd5b5061028b61028636600461301b565b6106ed565b6040516001600160a01b0390911681526020016101fe565b3480156102af57600080fd5b506102c36102be366004613050565b610714565b005b3480156102d157600080fd5b506102c36102e0366004613126565b61082e565b3480156102f157600080fd5b506102c36103003660046131d3565b6108b5565b34801561031157600080fd5b5061031a6108e6565b6040516101fe919061320f565b34801561033357600080fd5b506102c3610342366004613253565b610946565b34801561035357600080fd5b506102c36103623660046131d3565b610a32565b34801561037357600080fd5b506102c361038236600461329a565b610a4d565b6102c3610ab2565b34801561039b57600080fd5b5061028b6103aa36600461301b565b610afe565b3480156103bb57600080fd5b506102c36103ca3660046132e8565b610b5e565b3480156103db57600080fd5b5061025d611880565b3480156103f057600080fd5b5061025d6103ff366004613343565b611891565b34801561041057600080fd5b506102c3611917565b34801561042557600080fd5b506007546001600160a01b031661028b565b34801561044357600080fd5b5061044c61192b565b6040516101fe91906133c9565b34801561046557600080fd5b5061021c611bbc565b34801561047a57600080fd5b5061048e610489366004613343565b611bcb565b6040516101fe9291906133dc565b3480156104a857600080fd5b506102c36104b7366004613400565b611c72565b3480156104c857600080fd5b5061025d6104d7366004613050565b611c81565b3480156104e857600080fd5b506102c36104f736600461343c565b611cb2565b34801561050857600080fd5b5061021c61051736600461301b565b611cea565b34801561052857600080fd5b506102c36105373660046134ac565b611cf5565b34801561054857600080fd5b5061055c61055736600461301b565b611d11565b6040516101fe959493929190613503565b34801561057957600080fd5b506101f2610588366004613548565b6001600160a01b03918216600090815260056020908152604080832093909416825291909152205460ff1690565b3480156105c257600080fd5b506105d66105d136600461301b565b611e59565b6040516101fe9796959493929190613588565b3480156105f557600080fd5b506102c3610604366004613343565b6123c8565b60006001600160e01b031982166380ac58cd60e01b148061063a57506001600160e01b03198216635b5e139f60e01b145b8061065557506301ffc9a760e01b6001600160e01b03198316145b92915050565b60606000805461066a90613605565b80601f016020809104026020016040519081016040528092919081815260200182805461069690613605565b80156106e35780601f106106b8576101008083540402835291602001916106e3565b820191906000526020600020905b8154815290600101906020018083116106c657829003601f168201915b5050505050905090565b60006106f882612441565b506000908152600460205260409020546001600160a01b031690565b600061071f82610afe565b9050806001600160a01b0316836001600160a01b0316036107915760405162461bcd60e51b815260206004820152602160248201527f4552433732313a20617070726f76616c20746f2063757272656e74206f776e656044820152603960f91b60648201526084015b60405180910390fd5b336001600160a01b03821614806107ad57506107ad8133610588565b61081f5760405162461bcd60e51b815260206004820152603e60248201527f4552433732313a20617070726f76652063616c6c6572206973206e6f7420746f60448201527f6b656e206f776e6572206e6f7220617070726f76656420666f7220616c6c00006064820152608401610788565b61082983836124a0565b505050565b60408051608081018252858152602080820185905281830186905260608201849052336000908152600a909152919091208151819061086d908261368d565b5060208201516001820190610882908261368d565b5060408201516002820190610897908261368d565b50606082015160038201906108ac908261368d565b50505050505050565b6108bf338261250e565b6108db5760405162461bcd60e51b81526004016107889061374d565b61082983838361258d565b336000908152600d60209081526040918290208054835181840281018401909452808452606093928301828280156106e357602002820191906000526020600020905b815481526020019060010190808311610929575050505050905090565b61094e612729565b600061098e83604051602001610964919061379b565b60408051601f1981840301815282820190915260048252634253494760e01b60208301529061277c565b6040805160a08101825260085480825260208083018781528385018a815260006060860181905260808601889052938452600b909252939091208251815592516001840155519293509160028201906109e7908261368d565b50606082015160038201805460ff191691151591909117905560808201516004820190610a14908261368d565b50506008805491506000610a27836137ce565b919050555050505050565b61082983838360405180602001604052806000815250611cb2565b610a556127a8565b60408051808201825283815260016020808301919091526001600160a01b0384166000908152600e9091529190912081518190610a92908261368d565b50602091909101516001909101805460ff19169115159190911790555050565b610aba6127a8565b6007546009546040516001600160a01b039092169181156108fc0291906000818181858888f19350505050158015610af6573d6000803e3d6000fd5b506000600955565b6000818152600260205260408120546001600160a01b0316806106555760405162461bcd60e51b8152602060048201526018602482015277115490cdcc8c4e881a5b9d985b1a59081d1bdad95b88125160421b6044820152606401610788565b610b66612729565b6000826003811115610b7a57610b7a613572565b148015610b9957506000838152600b602052604090206003015460ff16155b80610bd257506000826003811115610bb357610bb3613572565b14158015610bd257506000838152600b602052604090206003015460ff165b610c085760405162461bcd60e51b8152602060048201526007602482015266125b9d985b1a5960ca1b6044820152606401610788565b629896806000836003811115610c2057610c20613572565b1480610c3d57506001836003811115610c3b57610c3b613572565b145b15610c6a57610c4e6103e8836137fd565b610c59906001613811565b610c639082613830565b9050610cd7565b6002836003811115610c7e57610c7e613572565b03610c9a57610c8f6103e8836137fd565b610c59906005613811565b6003836003811115610cae57610cae613572565b03610cd757610cbf6103e8836137fd565b610cca906008613811565b610cd49082613830565b90505b6000600b60008681526020019081526020016000206040518060a00160405290816000820154815260200160018201548152602001600282018054610d1b90613605565b80601f0160208091040260200160405190810160405280929190818152602001828054610d4790613605565b8015610d945780601f10610d6957610100808354040283529160200191610d94565b820191906000526020600020905b815481529060010190602001808311610d7757829003601f168201915b5050509183525050600382015460ff1615156020820152600482018054604090920191610dc090613605565b80601f0160208091040260200160405190810160405280929190818152602001828054610dec90613605565b8015610e395780601f10610e0e57610100808354040283529160200191610e39565b820191906000526020600020905b815481529060010190602001808311610e1c57829003601f168201915b505050505081525050905060006003811115610e5757610e57613572565b846003811115610e6957610e69613572565b03610f40576000610e7e826080015189612802565b905080610ebf5760405162461bcd60e51b815260206004820152600f60248201526e29b4b3b730ba3ab9329022b93937b960891b6044820152606401610788565b606082015115610efb5760405162461bcd60e51b8152602060048201526007602482015266125b9d985b1a5960ca1b6044820152606401610788565b610f058887612873565b610f1386836040015161288d565b610f1e88888861258d565b506000858152600b60205260409020600301805460ff191660011790556110a1565b6000858152600c602081905260408220018054610fe59190610f6190613605565b80601f0160208091040260200160405190810160405280929190818152602001828054610f8d90613605565b8015610fda5780601f10610faf57610100808354040283529160200191610fda565b820191906000526020600020905b815481529060010190602001808311610fbd57829003601f168201915b505050505089612920565b90508061104a5760405162461bcd60e51b815260206004820152602d60248201527f54686520676976656e2053656c6c6572206973206e6f7420746865206f776e6560448201526c1c881bd9881d1a19481b185b99609a1b6064820152608401610788565b81606001516110945760405162461bcd60e51b815260206004820152601660248201527524b73b30b634b21029b0b6329021b7b73234ba34b7b760511b6044820152606401610788565b61109f88888861258d565b505b60006110e6876040516020016110b7919061379b565b60408051601f1981840301815282820190915260098252684f574e45525f53494760b81b60208301529061277c565b90506040518060e00160405280878152602001600a60008b6001600160a01b03166001600160a01b0316815260200190815260200160002060405180608001604052908160008201805461113990613605565b80601f016020809104026020016040519081016040528092919081815260200182805461116590613605565b80156111b25780601f10611187576101008083540402835291602001916111b2565b820191906000526020600020905b81548152906001019060200180831161119557829003601f168201915b505050505081526020016001820180546111cb90613605565b80601f01602080910402602001604051908101604052809291908181526020018280546111f790613605565b80156112445780601f1061121957610100808354040283529160200191611244565b820191906000526020600020905b81548152906001019060200180831161122757829003601f168201915b5050505050815260200160028201805461125d90613605565b80601f016020809104026020016040519081016040528092919081815260200182805461128990613605565b80156112d65780601f106112ab576101008083540402835291602001916112d6565b820191906000526020600020905b8154815290600101906020018083116112b957829003601f168201915b505050505081526020016003820180546112ef90613605565b80601f016020809104026020016040519081016040528092919081815260200182805461131b90613605565b80156113685780601f1061133d57610100808354040283529160200191611368565b820191906000526020600020905b81548152906001019060200180831161134b57829003601f168201915b5050505050815250508152602001600a60008a6001600160a01b03166001600160a01b031681526020019081526020016000206040518060800160405290816000820180546113b690613605565b80601f01602080910402602001604051908101604052809291908181526020018280546113e290613605565b801561142f5780601f106114045761010080835404028352916020019161142f565b820191906000526020600020905b81548152906001019060200180831161141257829003601f168201915b5050505050815260200160018201805461144890613605565b80601f016020809104026020016040519081016040528092919081815260200182805461147490613605565b80156114c15780601f10611496576101008083540402835291602001916114c1565b820191906000526020600020905b8154815290600101906020018083116114a457829003601f168201915b505050505081526020016002820180546114da90613605565b80601f016020809104026020016040519081016040528092919081815260200182805461150690613605565b80156115535780601f1061152857610100808354040283529160200191611553565b820191906000526020600020905b81548152906001019060200180831161153657829003601f168201915b5050505050815260200160038201805461156c90613605565b80601f016020809104026020016040519081016040528092919081815260200182805461159890613605565b80156115e55780601f106115ba576101008083540402835291602001916115e5565b820191906000526020600020905b8154815290600101906020018083116115c857829003601f168201915b505050505081525050815260200186600381111561160557611605613572565b81526020808201879052604080830187905260609092018490526000898152600c8252919091208251815590820151805160018301908190611647908261368d565b506020820151600182019061165c908261368d565b5060408201516002820190611671908261368d565b5060608201516003820190611686908261368d565b50505060408201518051600583019081906116a1908261368d565b50602082015160018201906116b6908261368d565b50604082015160028201906116cb908261368d565b50606082015160038201906116e0908261368d565b505050606082015160098201805460ff1916600183600381111561170657611706613572565b02179055506080820151600a82015560a0820151600b82015560c0820151600c820190611733908261368d565b506000915061173f9050565b85600381111561175157611751613572565b03611786576001600160a01b0387166000908152600d602090815260408220805460018101825590835291200186905561185f565b60005b6001600160a01b0389166000908152600d6020526040902054811015611832576001600160a01b0389166000908152600d602052604090208054889190839081106117d6576117d6613848565b906000526020600020015403611820576001600160a01b0389166000908152600d6020526040902080548290811061181057611810613848565b6000918252602082200155611832565b61182b816001613830565b9050611789565b506001600160a01b0387166000908152600d60209081526040822080546001810182559083529120018690555b82600960008282546118719190613830565b90915550505050505050505050565b600061188a6127a8565b5060095490565b60006001600160a01b0382166118fb5760405162461bcd60e51b815260206004820152602960248201527f4552433732313a2061646472657373207a65726f206973206e6f7420612076616044820152683634b21037bbb732b960b91b6064820152608401610788565b506001600160a01b031660009081526003602052604090205490565b61191f6127a8565b6119296000612937565b565b6119566040518060800160405280606081526020016060815260200160608152602001606081525090565b336000908152600a60205260409081902081516080810190925280548290829061197f90613605565b80601f01602080910402602001604051908101604052809291908181526020018280546119ab90613605565b80156119f85780601f106119cd576101008083540402835291602001916119f8565b820191906000526020600020905b8154815290600101906020018083116119db57829003601f168201915b50505050508152602001600182018054611a1190613605565b80601f0160208091040260200160405190810160405280929190818152602001828054611a3d90613605565b8015611a8a5780601f10611a5f57610100808354040283529160200191611a8a565b820191906000526020600020905b815481529060010190602001808311611a6d57829003601f168201915b50505050508152602001600282018054611aa390613605565b80601f0160208091040260200160405190810160405280929190818152602001828054611acf90613605565b8015611b1c5780601f10611af157610100808354040283529160200191611b1c565b820191906000526020600020905b815481529060010190602001808311611aff57829003601f168201915b50505050508152602001600382018054611b3590613605565b80601f0160208091040260200160405190810160405280929190818152602001828054611b6190613605565b8015611bae5780601f10611b8357610100808354040283529160200191611bae565b820191906000526020600020905b815481529060010190602001808311611b9157829003601f168201915b505050505081525050905090565b60606001805461066a90613605565b600e60205260009081526040902080548190611be690613605565b80601f0160208091040260200160405190810160405280929190818152602001828054611c1290613605565b8015611c5f5780601f10611c3457610100808354040283529160200191611c5f565b820191906000526020600020905b815481529060010190602001808311611c4257829003601f168201915b5050506001909301549192505060ff1682565b611c7d338383612989565b5050565b600d6020528160005260406000208181548110611c9d57600080fd5b90600052602060002001600091509150505481565b611cbc338361250e565b611cd85760405162461bcd60e51b81526004016107889061374d565b611ce484848484612a57565b50505050565b606061065582612a8a565b611cfd6127a8565b611d078383612873565b610829828261288d565b600b6020526000908152604090208054600182015460028301805492939192611d3990613605565b80601f0160208091040260200160405190810160405280929190818152602001828054611d6590613605565b8015611db25780601f10611d8757610100808354040283529160200191611db2565b820191906000526020600020905b815481529060010190602001808311611d9557829003601f168201915b5050506003840154600485018054949560ff909216949193509150611dd690613605565b80601f0160208091040260200160405190810160405280929190818152602001828054611e0290613605565b8015611e4f5780601f10611e2457610100808354040283529160200191611e4f565b820191906000526020600020905b815481529060010190602001808311611e3257829003601f168201915b5050505050905085565b600c6020526000908152604090819020805482516080810190935260018201805491939182908290611e8a90613605565b80601f0160208091040260200160405190810160405280929190818152602001828054611eb690613605565b8015611f035780601f10611ed857610100808354040283529160200191611f03565b820191906000526020600020905b815481529060010190602001808311611ee657829003601f168201915b50505050508152602001600182018054611f1c90613605565b80601f0160208091040260200160405190810160405280929190818152602001828054611f4890613605565b8015611f955780601f10611f6a57610100808354040283529160200191611f95565b820191906000526020600020905b815481529060010190602001808311611f7857829003601f168201915b50505050508152602001600282018054611fae90613605565b80601f0160208091040260200160405190810160405280929190818152602001828054611fda90613605565b80156120275780601f10611ffc57610100808354040283529160200191612027565b820191906000526020600020905b81548152906001019060200180831161200a57829003601f168201915b5050505050815260200160038201805461204090613605565b80601f016020809104026020016040519081016040528092919081815260200182805461206c90613605565b80156120b95780601f1061208e576101008083540402835291602001916120b9565b820191906000526020600020905b81548152906001019060200180831161209c57829003601f168201915b50505050508152505090806005016040518060800160405290816000820180546120e290613605565b80601f016020809104026020016040519081016040528092919081815260200182805461210e90613605565b801561215b5780601f106121305761010080835404028352916020019161215b565b820191906000526020600020905b81548152906001019060200180831161213e57829003601f168201915b5050505050815260200160018201805461217490613605565b80601f01602080910402602001604051908101604052809291908181526020018280546121a090613605565b80156121ed5780601f106121c2576101008083540402835291602001916121ed565b820191906000526020600020905b8154815290600101906020018083116121d057829003601f168201915b5050505050815260200160028201805461220690613605565b80601f016020809104026020016040519081016040528092919081815260200182805461223290613605565b801561227f5780601f106122545761010080835404028352916020019161227f565b820191906000526020600020905b81548152906001019060200180831161226257829003601f168201915b5050505050815260200160038201805461229890613605565b80601f01602080910402602001604051908101604052809291908181526020018280546122c490613605565b80156123115780601f106122e657610100808354040283529160200191612311565b820191906000526020600020905b8154815290600101906020018083116122f457829003601f168201915b505050919092525050506009820154600a830154600b840154600c85018054949560ff909416949293919261234590613605565b80601f016020809104026020016040519081016040528092919081815260200182805461237190613605565b80156123be5780601f10612393576101008083540402835291602001916123be565b820191906000526020600020905b8154815290600101906020018083116123a157829003601f168201915b5050505050905087565b6123d06127a8565b6001600160a01b0381166124355760405162461bcd60e51b815260206004820152602660248201527f4f776e61626c653a206e6577206f776e657220697320746865207a65726f206160448201526564647265737360d01b6064820152608401610788565b61243e81612937565b50565b6000818152600260205260409020546001600160a01b031661243e5760405162461bcd60e51b8152602060048201526018602482015277115490cdcc8c4e881a5b9d985b1a59081d1bdad95b88125160421b6044820152606401610788565b600081815260046020526040902080546001600160a01b0319166001600160a01b03841690811790915581906124d582610afe565b6001600160a01b03167f8c5be1e5ebec7d5bd14f71427d1e84f3dd0314c0f7b2291e5b200ac8c7c3b92560405160405180910390a45050565b60008061251a83610afe565b9050806001600160a01b0316846001600160a01b0316148061256157506001600160a01b0380821660009081526005602090815260408083209388168352929052205460ff165b806125855750836001600160a01b031661257a846106ed565b6001600160a01b0316145b949350505050565b826001600160a01b03166125a082610afe565b6001600160a01b0316146126045760405162461bcd60e51b815260206004820152602560248201527f4552433732313a207472616e736665722066726f6d20696e636f72726563742060448201526437bbb732b960d91b6064820152608401610788565b6001600160a01b0382166126665760405162461bcd60e51b8152602060048201526024808201527f4552433732313a207472616e7366657220746f20746865207a65726f206164646044820152637265737360e01b6064820152608401610788565b6126716000826124a0565b6001600160a01b038316600090815260036020526040812080546001929061269a90849061385e565b90915550506001600160a01b03821660009081526003602052604081208054600192906126c8908490613830565b909155505060008181526002602052604080822080546001600160a01b0319166001600160a01b0386811691821790925591518493918716917fddf252ad1be2c89b69c2b068fc378daa952ba7f163c4a11628f55a4df523b3ef91a4505050565b336000908152600e602052604090206001015460ff166119295760405162461bcd60e51b815260206004820152600e60248201526d4f6e6c79204578656375746f727360901b6044820152606401610788565b60608282604051602001612791929190613875565b604051602081830303815290604052905092915050565b6007546001600160a01b031633146119295760405162461bcd60e51b815260206004820181905260248201527f4f776e61626c653a2063616c6c6572206973206e6f7420746865206f776e65726044820152606401610788565b60008061281983604051602001610964919061379b565b90508360405160200161282c91906138b1565b604051602081830303815290604052805190602001208160405160200161285391906138b1565b604051602081830303815290604052805190602001201491505092915050565b611c7d828260405180602001604052806000815250612b92565b6000828152600260205260409020546001600160a01b03166129085760405162461bcd60e51b815260206004820152602e60248201527f45524337323155524953746f726167653a2055524920736574206f66206e6f6e60448201526d32bc34b9ba32b73a103a37b5b2b760911b6064820152608401610788565b6000828152600660205260409020610829828261368d565b600080612819836040516020016110b7919061379b565b600780546001600160a01b038381166001600160a01b0319831681179093556040519116919082907f8be0079c531659141344cd1fd0a4f28419497f9722a3daafe3b4186f6b6457e090600090a35050565b816001600160a01b0316836001600160a01b0316036129ea5760405162461bcd60e51b815260206004820152601960248201527f4552433732313a20617070726f766520746f2063616c6c6572000000000000006044820152606401610788565b6001600160a01b03838116600081815260056020908152604080832094871680845294825291829020805460ff191686151590811790915591519182527f17307eab39ab6107e8899845ad3d59bd9653f200f220920489ca2b5937696c31910160405180910390a3505050565b612a6284848461258d565b612a6e84848484612bc5565b611ce45760405162461bcd60e51b8152600401610788906138cd565b6060612a9582612441565b60008281526006602052604081208054612aae90613605565b80601f0160208091040260200160405190810160405280929190818152602001828054612ada90613605565b8015612b275780601f10612afc57610100808354040283529160200191612b27565b820191906000526020600020905b815481529060010190602001808311612b0a57829003601f168201915b505050505090506000612b4560408051602081019091526000815290565b90508051600003612b57575092915050565b815115612b89578082604051602001612b7192919061391f565b60405160208183030381529060405292505050919050565b61258584612cc6565b612b9c8383612d3a565b612ba96000848484612bc5565b6108295760405162461bcd60e51b8152600401610788906138cd565b60006001600160a01b0384163b15612cbb57604051630a85bd0160e11b81526001600160a01b0385169063150b7a0290612c0990339089908890889060040161394e565b6020604051808303816000875af1925050508015612c44575060408051601f3d908101601f19168201909252612c419181019061398b565b60015b612ca1573d808015612c72576040519150601f19603f3d011682016040523d82523d6000602084013e612c77565b606091505b508051600003612c995760405162461bcd60e51b8152600401610788906138cd565b805181602001fd5b6001600160e01b031916630a85bd0160e11b149050612585565b506001949350505050565b6060612cd182612441565b6000612ce860408051602081019091526000815290565b90506000815111612d085760405180602001604052806000815250612d33565b80612d1284612e7c565b604051602001612d2392919061391f565b6040516020818303038152906040525b9392505050565b6001600160a01b038216612d905760405162461bcd60e51b815260206004820181905260248201527f4552433732313a206d696e7420746f20746865207a65726f20616464726573736044820152606401610788565b6000818152600260205260409020546001600160a01b031615612df55760405162461bcd60e51b815260206004820152601c60248201527f4552433732313a20746f6b656e20616c7265616479206d696e746564000000006044820152606401610788565b6001600160a01b0382166000908152600360205260408120805460019290612e1e908490613830565b909155505060008181526002602052604080822080546001600160a01b0319166001600160a01b03861690811790915590518392907fddf252ad1be2c89b69c2b068fc378daa952ba7f163c4a11628f55a4df523b3ef908290a45050565b606081600003612ea35750506040805180820190915260018152600360fc1b602082015290565b8160005b8115612ecd5780612eb7816137ce565b9150612ec69050600a836137fd565b9150612ea7565b60008167ffffffffffffffff811115612ee857612ee861307a565b6040519080825280601f01601f191660200182016040528015612f12576020820181803683370190505b5090505b841561258557612f2760018361385e565b9150612f34600a866139a8565b612f3f906030613830565b60f81b818381518110612f5457612f54613848565b60200101906001600160f81b031916908160001a905350612f76600a866137fd565b9450612f16565b6001600160e01b03198116811461243e57600080fd5b600060208284031215612fa557600080fd5b8135612d3381612f7d565b60005b83811015612fcb578181015183820152602001612fb3565b83811115611ce45750506000910152565b60008151808452612ff4816020860160208601612fb0565b601f01601f19169290920160200192915050565b602081526000612d336020830184612fdc565b60006020828403121561302d57600080fd5b5035919050565b80356001600160a01b038116811461304b57600080fd5b919050565b6000806040838503121561306357600080fd5b61306c83613034565b946020939093013593505050565b634e487b7160e01b600052604160045260246000fd5b600067ffffffffffffffff808411156130ab576130ab61307a565b604051601f8501601f19908116603f011681019082821181831017156130d3576130d361307a565b816040528093508581528686860111156130ec57600080fd5b858560208301376000602087830101525050509392505050565b600082601f83011261311757600080fd5b612d3383833560208501613090565b6000806000806080858703121561313c57600080fd5b843567ffffffffffffffff8082111561315457600080fd5b61316088838901613106565b9550602087013591508082111561317657600080fd5b61318288838901613106565b9450604087013591508082111561319857600080fd5b6131a488838901613106565b935060608701359150808211156131ba57600080fd5b506131c787828801613106565b91505092959194509250565b6000806000606084860312156131e857600080fd5b6131f184613034565b92506131ff60208501613034565b9150604084013590509250925092565b6020808252825182820181905260009190848201906040850190845b818110156132475783518352928401929184019160010161322b565b50909695505050505050565b60008060006060848603121561326857600080fd5b833567ffffffffffffffff81111561327f57600080fd5b61328b86828701613106565b9350506131ff60208501613034565b600080604083850312156132ad57600080fd5b823567ffffffffffffffff8111156132c457600080fd5b6132d085828601613106565b9250506132df60208401613034565b90509250929050565b600080600080600060a0868803121561330057600080fd5b61330986613034565b945061331760208701613034565b93506040860135925060608601356004811061333257600080fd5b949793965091946080013592915050565b60006020828403121561335557600080fd5b612d3382613034565b60008151608084526133736080850182612fdc565b90506020830151848203602086015261338c8282612fdc565b915050604083015184820360408601526133a68282612fdc565b915050606083015184820360608601526133c08282612fdc565b95945050505050565b602081526000612d33602083018461335e565b6040815260006133ef6040830185612fdc565b905082151560208301529392505050565b6000806040838503121561341357600080fd5b61341c83613034565b91506020830135801515811461343157600080fd5b809150509250929050565b6000806000806080858703121561345257600080fd5b61345b85613034565b935061346960208601613034565b925060408501359150606085013567ffffffffffffffff81111561348c57600080fd5b8501601f8101871361349d57600080fd5b6131c787823560208401613090565b6000806000606084860312156134c157600080fd5b6134ca84613034565b925060208401359150604084013567ffffffffffffffff8111156134ed57600080fd5b6134f986828701613106565b9150509250925092565b85815284602082015260a06040820152600061352260a0830186612fdc565b8415156060840152828103608084015261353c8185612fdc565b98975050505050505050565b6000806040838503121561355b57600080fd5b61356483613034565b91506132df60208401613034565b634e487b7160e01b600052602160045260246000fd5b87815260e0602082015260006135a160e083018961335e565b82810360408401526135b3818961335e565b9050600487106135d357634e487b7160e01b600052602160045260246000fd5b8660608401528560808401528460a084015282810360c08401526135f78185612fdc565b9a9950505050505050505050565b600181811c9082168061361957607f821691505b60208210810361363957634e487b7160e01b600052602260045260246000fd5b50919050565b601f82111561082957600081815260208120601f850160051c810160208610156136665750805b601f850160051c820191505b8181101561368557828155600101613672565b505050505050565b815167ffffffffffffffff8111156136a7576136a761307a565b6136bb816136b58454613605565b8461363f565b602080601f8311600181146136f057600084156136d85750858301515b600019600386901b1c1916600185901b178555613685565b600085815260208120601f198616915b8281101561371f57888601518255948401946001909101908401613700565b508582101561373d5787850151600019600388901b60f8161c191681555b5050505050600190811b01905550565b6020808252602e908201527f4552433732313a2063616c6c6572206973206e6f7420746f6b656e206f776e6560408201526d1c881b9bdc88185c1c1c9bdd995960921b606082015260800190565b60609190911b6bffffffffffffffffffffffff1916815260140190565b634e487b7160e01b600052601160045260246000fd5b6000600182016137e0576137e06137b8565b5060010190565b634e487b7160e01b600052601260045260246000fd5b60008261380c5761380c6137e7565b500490565b600081600019048311821515161561382b5761382b6137b8565b500290565b60008219821115613843576138436137b8565b500190565b634e487b7160e01b600052603260045260246000fd5b600082821015613870576138706137b8565b500390565b60008351613887818460208801612fb0565b605f60f81b90830190815283516138a5816001840160208801612fb0565b01600101949350505050565b600082516138c3818460208701612fb0565b9190910192915050565b60208082526032908201527f4552433732313a207472616e7366657220746f206e6f6e20455243373231526560408201527131b2b4bb32b91034b6b83632b6b2b73a32b960711b606082015260800190565b60008351613931818460208801612fb0565b835190830190613945818360208801612fb0565b01949350505050565b6001600160a01b038581168252841660208201526040810183905260806060820181905260009061398190830184612fdc565b9695505050505050565b60006020828403121561399d57600080fd5b8151612d3381612f7d565b6000826139b7576139b76137e7565b50069056fea26469706673582212209fb335db9a37952b1e4484e970be31fe42c074cbdcb3f390a0ae6610d05d5f8564736f6c634300080f0033",
  "bytecodeSha1": "834ca364f1e6562ebddf3cad14457e7a28b727ac",
  "compiler": {
    "evm_version": "istanbul",
    "optimizer": {
      "enabled": true,
      "runs": 200
    },
    "version": "0.8.15+commit.e14f2714"
  },
  "contractName": "LandRegistry",
  "language": "Solidity",
  "natspec": {
    "kind": "dev",
    "methods": {
      "approve(address,uint256)": {
        "details": "See {IERC721-approve}."
      },
      "balanceOf(address)": {
        "details": "See {IERC721-balanceOf}."
      },
      "getApproved(uint256)": {
        "details": "See {IERC721-getApproved}."
      },
      "isApprovedForAll(address,address)": {
        "details": "See {IERC721-isApprovedForAll}."
      },
      "name()": {
        "details": "See {IERC721Metadata-name}."
      },
      "owner()": {
        "details": "Returns the address of the current owner."
      },
      "ownerOf(uint256)": {
        "details": "See {IERC721-ownerOf}."
      },
      "renounceOwnership()": {
        "details": "Leaves the contract without owner. It will not be possible to call `onlyOwner` functions anymore. Can only be called by the current owner. NOTE: Renouncing ownership will leave the contract without an owner, thereby removing any functionality that is only available to the owner."
      },
      "safeTransferFrom(address,address,uint256)": {
        "details": "See {IERC721-safeTransferFrom}."
      },
      "safeTransferFrom(address,address,uint256,bytes)": {
        "details": "See {IERC721-safeTransferFrom}."
      },
      "setApprovalForAll(address,bool)": {
        "details": "See {IERC721-setApprovalForAll}."
      },
      "supportsInterface(bytes4)": {
        "details": "See {IERC165-supportsInterface}."
      },
      "symbol()": {
        "details": "See {IERC721Metadata-symbol}."
      },
      "transferFrom(address,address,uint256)": {
        "details": "See {IERC721-transferFrom}."
      },
      "transferOwnership(address)": {
        "details": "Transfers ownership of the contract to a new account (`newOwner`). Can only be called by the current owner."
      }
    },
    "version": 1
  },
  "opcodes": "PUSH1 0x80 PUSH1 0x40 MSTORE PUSH1 0x4 CALLDATASIZE LT PUSH2 0x1CD JUMPI PUSH1 0x0 CALLDATALOAD PUSH1 0xE0 SHR DUP1 PUSH4 0x70A08231 GT PUSH2 0xF7 JUMPI DUP1 PUSH4 0xB6F84991 GT PUSH2 0x95 JUMPI DUP1 PUSH4 0xE261F1E5 GT PUSH2 0x64 JUMPI DUP1 PUSH4 0xE261F1E5 EQ PUSH2 0x53C JUMPI DUP1 PUSH4 0xE985E9C5 EQ PUSH2 0x56D JUMPI DUP1 PUSH4 0xEC52754D EQ PUSH2 0x5B6 JUMPI DUP1 PUSH4 0xF2FDE38B EQ PUSH2 0x5E9 JUMPI PUSH1 0x0 DUP1 REVERT JUMPDEST DUP1 PUSH4 0xB6F84991 EQ PUSH2 0x4BC JUMPI DUP1 PUSH4 0xB88D4FDE EQ PUSH2 0x4DC JUMPI DUP1 PUSH4 0xC87B56DD EQ PUSH2 0x4FC JUMPI DUP1 PUSH4 0xCD279C7C EQ PUSH2 0x51C JUMPI PUSH1 0x0 DUP1 REVERT JUMPDEST DUP1 PUSH4 0x942886BE GT PUSH2 0xD1 JUMPI DUP1 PUSH4 0x942886BE EQ PUSH2 0x437 JUMPI DUP1 PUSH4 0x95D89B41 EQ PUSH2 0x459 JUMPI DUP1 PUSH4 0x9AC2A011 EQ PUSH2 0x46E JUMPI DUP1 PUSH4 0xA22CB465 EQ PUSH2 0x49C JUMPI PUSH1 0x0 DUP1 REVERT JUMPDEST DUP1 PUSH4 0x70A08231 EQ PUSH2 0x3E4 JUMPI DUP1 PUSH4 0x715018A6 EQ PUSH2 0x404 JUMPI DUP1 PUSH4 0x8DA5CB5B EQ PUSH2 0x419 JUMPI PUSH1 0x0 DUP1 REVERT JUMPDEST DUP1 PUSH4 0x2985BC94 GT PUSH2 0x16F JUMPI DUP1 PUSH4 0x5FD8C710 GT PUSH2 0x13E JUMPI DUP1 PUSH4 0x5FD8C710 EQ PUSH2 0x387 JUMPI DUP1 PUSH4 0x6352211E EQ PUSH2 0x38F JUMPI DUP1 PUSH4 0x68D3C5E5 EQ PUSH2 0x3AF JUMPI DUP1 PUSH4 0x6F9FB98A EQ PUSH2 0x3CF JUMPI PUSH1 0x0 DUP1 REVERT JUMPDEST DUP1 PUSH4 0x2985BC94 EQ PUSH2 0x305 JUMPI DUP1 PUSH4 0x3B5EE4D5 EQ PUSH2 0x327 JUMPI DUP1 PUSH4 0x42842E0E EQ PUSH2 0x347 JUMPI DUP1 PUSH4 0x49B69FC1 EQ PUSH2 0x367 JUMPI PUSH1 0x0 DUP1 REVERT JUMPDEST DUP1 PUSH4 0x81812FC GT PUSH2 0x1AB JUMPI DUP1 PUSH4 0x81812FC EQ PUSH2 0x26B JUMPI DUP1 PUSH4 0x95EA7B3 EQ PUSH2 0x2A3 JUMPI DUP1 PUSH4 0xC154483 EQ PUSH2 0x2C5 JUMPI DUP1 PUSH4 0x23B872DD EQ PUSH2 0x2E5 JUMPI PUSH1 0x0 DUP1 REVERT JUMPDEST DUP1 PUSH4 0x1FFC9A7 EQ PUSH2 0x1D2 JUMPI DUP1 PUSH4 0x6FDDE03 EQ PUSH2 0x207 JUMPI DUP1 PUSH4 0x7BD0265 EQ PUSH2 0x229 JUMPI JUMPDEST PUSH1 0x0 DUP1 REVERT JUMPDEST CALLVALUE DUP1 ISZERO PUSH2 0x1DE JUMPI PUSH1 0x0 DUP1 REVERT JUMPDEST POP PUSH2 0x1F2 PUSH2 0x1ED CALLDATASIZE PUSH1 0x4 PUSH2 0x2F93 JUMP JUMPDEST PUSH2 0x609 JUMP JUMPDEST PUSH1 0x40 MLOAD SWAP1 ISZERO ISZERO DUP2 MSTORE PUSH1 0x20 ADD JUMPDEST PUSH1 0x40 MLOAD DUP1 SWAP2 SUB SWAP1 RETURN JUMPDEST CALLVALUE DUP1 ISZERO PUSH2 0x213 JUMPI PUSH1 0x0 DUP1 REVERT JUMPDEST POP PUSH2 0x21C PUSH2 0x65B JUMP JUMPDEST PUSH1 0x40 MLOAD PUSH2 0x1FE SWAP2 SWAP1 PUSH2 0x3008 JUMP JUMPDEST CALLVALUE DUP1 ISZERO PUSH2 0x235 JUMPI PUSH1 0x0 DUP1 REVERT JUMPDEST POP PUSH2 0x25D PUSH32 0x9CF85F95575C3AF1E116E3D37FD41E7F36A8A373623F51FFAAA87FDD032FA767 DUP2 JUMP JUMPDEST PUSH1 0x40 MLOAD SWAP1 DUP2 MSTORE PUSH1 0x20 ADD PUSH2 0x1FE JUMP JUMPDEST CALLVALUE DUP1 ISZERO PUSH2 0x277 JUMPI PUSH1 0x0 DUP1 REVERT JUMPDEST POP PUSH2 0x28B PUSH2 0x286 CALLDATASIZE PUSH1 0x4 PUSH2 0x301B JUMP JUMPDEST PUSH2 0x6ED JUMP JUMPDEST PUSH1 0x40 MLOAD PUSH1 0x1 PUSH1 0x1 PUSH1 0xA0 SHL SUB SWAP1 SWAP2 AND DUP2 MSTORE PUSH1 0x20 ADD PUSH2 0x1FE JUMP JUMPDEST CALLVALUE DUP1 ISZERO PUSH2 0x2AF JUMPI PUSH1 0x0 DUP1 REVERT JUMPDEST POP PUSH2 0x2C3 PUSH2 0x2BE CALLDATASIZE PUSH1 0x4 PUSH2 0x3050 JUMP JUMPDEST PUSH2 0x714 JUMP JUMPDEST STOP JUMPDEST CALLVALUE DUP1 ISZERO PUSH2 0x2D1 JUMPI PUSH1 0x0 DUP1 REVERT JUMPDEST POP PUSH2 0x2C3 PUSH2 0x2E0 CALLDATASIZE PUSH1 0x4 PUSH2 0x3126 JUMP JUMPDEST PUSH2 0x82E JUMP JUMPDEST CALLVALUE DUP1 ISZERO PUSH2 0x2F1 JUMPI PUSH1 0x0 DUP1 REVERT JUMPDEST POP PUSH2 0x2C3 PUSH2 0x300 CALLDATASIZE PUSH1 0x4 PUSH2 0x31D3 JUMP JUMPDEST PUSH2 0x8B5 JUMP JUMPDEST CALLVALUE DUP1 ISZERO PUSH2 0x311 JUMPI PUSH1 0x0 DUP1 REVERT JUMPDEST POP PUSH2 0x31A PUSH2 0x8E6 JUMP JUMPDEST PUSH1 0x40 MLOAD PUSH2 0x1FE SWAP2 SWAP1 PUSH2 0x320F JUMP JUMPDEST CALLVALUE DUP1 ISZERO PUSH2 0x333 JUMPI PUSH1 0x0 DUP1 REVERT JUMPDEST POP PUSH2 0x2C3 PUSH2 0x342 CALLDATASIZE PUSH1 0x4 PUSH2 0x3253 JUMP JUMPDEST PUSH2 0x946 JUMP JUMPDEST CALLVALUE DUP1 ISZERO PUSH2 0x353 JUMPI PUSH1 0x0 DUP1 REVERT JUMPDEST POP PUSH2 0x2C3 PUSH2 0x362 CALLDATASIZE PUSH1 0x4 PUSH2 0x31D3 JUMP JUMPDEST PUSH2 0xA32 JUMP JUMPDEST CALLVALUE DUP1 ISZERO PUSH2 0x373 JUMPI PUSH1 0x0 DUP1 REVERT JUMPDEST POP PUSH2 0x2C3 PUSH2 0x382 CALLDATASIZE PUSH1 0x4 PUSH2 0x329A JUMP JUMPDEST PUSH2 0xA4D JUMP JUMPDEST PUSH2 0x2C3 PUSH2 0xAB2 JUMP JUMPDEST CALLVALUE DUP1 ISZERO PUSH2 0x39B JUMPI PUSH1 0x0 DUP1 REVERT JUMPDEST POP PUSH2 0x28B PUSH2 0x3AA CALLDATASIZE PUSH1 0x4 PUSH2 0x301B JUMP JUMPDEST PUSH2 0xAFE JUMP JUMPDEST CALLVALUE DUP1 ISZERO PUSH2 0x3BB JUMPI PUSH1 0x0 DUP1 REVERT JUMPDEST POP PUSH2 0x2C3 PUSH2 0x3CA CALLDATASIZE PUSH1 0x4 PUSH2 0x32E8 JUMP JUMPDEST PUSH2 0xB5E JUMP JUMPDEST CALLVALUE DUP1 ISZERO PUSH2 0x3DB JUMPI PUSH1 0x0 DUP1 REVERT JUMPDEST POP PUSH2 0x25D PUSH2 0x1880 JUMP JUMPDEST CALLVALUE DUP1 ISZERO PUSH2 0x3F0 JUMPI PUSH1 0x0 DUP1 REVERT JUMPDEST POP PUSH2 0x25D PUSH2 0x3FF CALLDATASIZE PUSH1 0x4 PUSH2 0x3343 JUMP JUMPDEST PUSH2 0x1891 JUMP JUMPDEST CALLVALUE DUP1 ISZERO PUSH2 0x410 JUMPI PUSH1 0x0 DUP1 REVERT JUMPDEST POP PUSH2 0x2C3 PUSH2 0x1917 JUMP JUMPDEST CALLVALUE DUP1 ISZERO PUSH2 0x425 JUMPI PUSH1 0x0 DUP1 REVERT JUMPDEST POP PUSH1 0x7 SLOAD PUSH1 0x1 PUSH1 0x1 PUSH1 0xA0 SHL SUB AND PUSH2 0x28B JUMP JUMPDEST CALLVALUE DUP1 ISZERO PUSH2 0x443 JUMPI PUSH1 0x0 DUP1 REVERT JUMPDEST POP PUSH2 0x44C PUSH2 0x192B JUMP JUMPDEST PUSH1 0x40 MLOAD PUSH2 0x1FE SWAP2 SWAP1 PUSH2 0x33C9 JUMP JUMPDEST CALLVALUE DUP1 ISZERO PUSH2 0x465 JUMPI PUSH1 0x0 DUP1 REVERT JUMPDEST POP PUSH2 0x21C PUSH2 0x1BBC JUMP JUMPDEST CALLVALUE DUP1 ISZERO PUSH2 0x47A JUMPI PUSH1 0x0 DUP1 REVERT JUMPDEST POP PUSH2 0x48E PUSH2 0x489 CALLDATASIZE PUSH1 0x4 PUSH2 0x3343 JUMP JUMPDEST PUSH2 0x1BCB JUMP JUMPDEST PUSH1 0x40 MLOAD PUSH2 0x1FE SWAP3 SWAP2 SWAP1 PUSH2 0x33DC JUMP JUMPDEST CALLVALUE DUP1 ISZERO PUSH2 0x4A8 JUMPI PUSH1 0x0 DUP1 REVERT JUMPDEST POP PUSH2 0x2C3 PUSH2 0x4B7 CALLDATASIZE PUSH1 0x4 PUSH2 0x3400 JUMP JUMPDEST PUSH2 0x1C72 JUMP JUMPDEST CALLVALUE DUP1 ISZERO PUSH2 0x4C8 JUMPI PUSH1 0x0 DUP1 REVERT JUMPDEST POP PUSH2 0x25D PUSH2 0x4D7 CALLDATASIZE PUSH1 0x4 PUSH2 0x3050 JUMP JUMPDEST PUSH2 0x1C81 JUMP JUMPDEST CALLVALUE DUP1 ISZERO PUSH2 0x4E8 JUMPI PUSH1 0x0 DUP1 REVERT JUMPDEST POP PUSH2 0x2C3 PUSH2 0x4F7 CALLDATASIZE PUSH1 0x4 PUSH2 0x343C JUMP JUMPDEST PUSH2 0x1CB2 JUMP JUMPDEST CALLVALUE DUP1 ISZERO PUSH2 0x508 JUMPI PUSH1 0x0 DUP1 REVERT JUMPDEST POP PUSH2 0x21C PUSH2 0x517 CALLDATASIZE PUSH1 0x4 PUSH2 0x301B JUMP JUMPDEST PUSH2 0x1CEA JUMP JUMPDEST CALLVALUE DUP1 ISZERO PUSH2 0x528 JUMPI PUSH1 0x0 DUP1 REVERT JUMPDEST POP PUSH2 0x2C3 PUSH2 0x537 CALLDATASIZE PUSH1 0x4 PUSH2 0x34AC JUMP JUMPDEST PUSH2 0x1CF5 JUMP JUMPDEST CALLVALUE DUP1 ISZERO PUSH2 0x548 JUMPI PUSH1 0x0 DUP1 REVERT JUMPDEST POP PUSH2 0x55C PUSH2 0x557 CALLDATASIZE PUSH1 0x4 PUSH2 0x301B JUMP JUMPDEST PUSH2 0x1D11 JUMP JUMPDEST PUSH1 0x40 MLOAD PUSH2 0x1FE SWAP6 SWAP5 SWAP4 SWAP3 SWAP2 SWAP1 PUSH2 0x3503 JUMP JUMPDEST CALLVALUE DUP1 ISZERO PUSH2 0x579 JUMPI PUSH1 0x0 DUP1 REVERT JUMPDEST POP PUSH2 0x1F2 PUSH2 0x588 CALLDATASIZE PUSH1 0x4 PUSH2 0x3548 JUMP JUMPDEST PUSH1 0x1 PUSH1 0x1 PUSH1 0xA0 SHL SUB SWAP2 DUP3 AND PUSH1 0x0 SWAP1 DUP2 MSTORE PUSH1 0x5 PUSH1 0x20 SWAP1 DUP2 MSTORE PUSH1 0x40 DUP1 DUP4 KECCAK256 SWAP4 SWAP1 SWAP5 AND DUP3 MSTORE SWAP2 SWAP1 SWAP2 MSTORE KECCAK256 SLOAD PUSH1 0xFF AND SWAP1 JUMP JUMPDEST CALLVALUE DUP1 ISZERO PUSH2 0x5C2 JUMPI PUSH1 0x0 DUP1 REVERT JUMPDEST POP PUSH2 0x5D6 PUSH2 0x5D1 CALLDATASIZE PUSH1 0x4 PUSH2 0x301B JUMP JUMPDEST PUSH2 0x1E59 JUMP JUMPDEST PUSH1 0x40 MLOAD PUSH2 0x1FE SWAP8 SWAP7 SWAP6 SWAP5 SWAP4 SWAP3 SWAP2 SWAP1 PUSH2 0x3588 JUMP JUMPDEST CALLVALUE DUP1 ISZERO PUSH2 0x5F5 JUMPI PUSH1 0x0 DUP1 REVERT JUMPDEST POP PUSH2 0x2C3 PUSH2 0x604 CALLDATASIZE PUSH1 0x4 PUSH2 0x3343 JUMP JUMPDEST PUSH2 0x23C8 JUMP JUMPDEST PUSH1 0x0 PUSH1 0x1 PUSH1 0x1 PUSH1 0xE0 SHL SUB NOT DUP3 AND PUSH4 0x80AC58CD PUSH1 0xE0 SHL EQ DUP1 PUSH2 0x63A JUMPI POP PUSH1 0x1 PUSH1 0x1 PUSH1 0xE0 SHL SUB NOT DUP3 AND PUSH4 0x5B5E139F PUSH1 0xE0 SHL EQ JUMPDEST DUP1 PUSH2 0x655 JUMPI POP PUSH4 0x1FFC9A7 PUSH1 0xE0 SHL PUSH1 0x1 PUSH1 0x1 PUSH1 0xE0 SHL SUB NOT DUP4 AND EQ JUMPDEST SWAP3 SWAP2 POP POP JUMP JUMPDEST PUSH1 0x60 PUSH1 0x0 DUP1 SLOAD PUSH2 0x66A SWAP1 PUSH2 0x3605 JUMP JUMPDEST DUP1 PUSH1 0x1F ADD PUSH1 0x20 DUP1 SWAP2 DIV MUL PUSH1 0x20 ADD PUSH1 0x40 MLOAD SWAP1 DUP2 ADD PUSH1 0x40 MSTORE DUP1 SWAP3 SWAP2 SWAP1 DUP2 DUP2 MSTORE PUSH1 0x20 ADD DUP3 DUP1 SLOAD PUSH2 0x696 SWAP1 PUSH2 0x3605 JUMP JUMPDEST DUP1 ISZERO PUSH2 0x6E3 JUMPI DUP1 PUSH1 0x1F LT PUSH2 0x6B8 JUMPI PUSH2 0x100 DUP1 DUP4 SLOAD DIV MUL DUP4 MSTORE SWAP2 PUSH1 0x20 ADD SWAP2 PUSH2 0x6E3 JUMP JUMPDEST DUP3 ADD SWAP2 SWAP1 PUSH1 0x0 MSTORE PUSH1 0x20 PUSH1 0x0 KECCAK256 SWAP1 JUMPDEST DUP2 SLOAD DUP2 MSTORE SWAP1 PUSH1 0x1 ADD SWAP1 PUSH1 0x20 ADD DUP1 DUP4 GT PUSH2 0x6C6 JUMPI DUP3 SWAP1 SUB PUSH1 0x1F AND DUP3 ADD SWAP2 JUMPDEST POP POP POP POP POP SWAP1 POP SWAP1 JUMP JUMPDEST PUSH1 0x0 PUSH2 0x6F8 DUP3 PUSH2 0x2441 JUMP JUMPDEST POP PUSH1 0x0 SWAP1 DUP2 MSTORE PUSH1 0x4 PUSH1 0x20 MSTORE PUSH1 0x40 SWAP1 KECCAK256 SLOAD PUSH1 0x1 PUSH1 0x1 PUSH1 0xA0 SHL SUB AND SWAP1 JUMP JUMPDEST PUSH1 0x0 PUSH2 0x71F DUP3 PUSH2 0xAFE JUMP JUMPDEST SWAP1 POP DUP1 PUSH1 0x1 PUSH1 0x1 PUSH1 0xA0 SHL SUB AND DUP4 PUSH1 0x1 PUSH1 0x1 PUSH1 0xA0 SHL SUB AND SUB PUSH2 0x791 JUMPI PUSH1 0x40 MLOAD PUSH3 0x461BCD PUSH1 0xE5 SHL DUP2 MSTORE PUSH1 0x20 PUSH1 0x4 DUP3 ADD MSTORE PUSH1 0x21 PUSH1 0x24 DUP3 ADD MSTORE PUSH32 0x4552433732313A20617070726F76616C20746F2063757272656E74206F776E65 PUSH1 0x44 DUP3 ADD MSTORE PUSH1 0x39 PUSH1 0xF9 SHL PUSH1 0x64 DUP3 ADD MSTORE PUSH1 0x84 ADD JUMPDEST PUSH1 0x40 MLOAD DUP1 SWAP2 SUB SWAP1 REVERT JUMPDEST CALLER PUSH1 0x1 PUSH1 0x1 PUSH1 0xA0 SHL SUB DUP3 AND EQ DUP1 PUSH2 0x7AD JUMPI POP PUSH2 0x7AD DUP2 CALLER PUSH2 0x588 JUMP JUMPDEST PUSH2 0x81F JUMPI PUSH1 0x40 MLOAD PUSH3 0x461BCD PUSH1 0xE5 SHL DUP2 MSTORE PUSH1 0x20 PUSH1 0x4 DUP3 ADD MSTORE PUSH1 0x3E PUSH1 0x24 DUP3 ADD MSTORE PUSH32 0x4552433732313A20617070726F76652063616C6C6572206973206E6F7420746F PUSH1 0x44 DUP3 ADD MSTORE PUSH32 0x6B656E206F776E6572206E6F7220617070726F76656420666F7220616C6C0000 PUSH1 0x64 DUP3 ADD MSTORE PUSH1 0x84 ADD PUSH2 0x788 JUMP JUMPDEST PUSH2 0x829 DUP4 DUP4 PUSH2 0x24A0 JUMP JUMPDEST POP POP POP JUMP JUMPDEST PUSH1 0x40 DUP1 MLOAD PUSH1 0x80 DUP2 ADD DUP3 MSTORE DUP6 DUP2 MSTORE PUSH1 0x20 DUP1 DUP3 ADD DUP6 SWAP1 MSTORE DUP2 DUP4 ADD DUP7 SWAP1 MSTORE PUSH1 0x60 DUP3 ADD DUP5 SWAP1 MSTORE CALLER PUSH1 0x0 SWAP1 DUP2 MSTORE PUSH1 0xA SWAP1 SWAP2 MSTORE SWAP2 SWAP1 SWAP2 KECCAK256 DUP2 MLOAD DUP2 SWAP1 PUSH2 0x86D SWAP1 DUP3 PUSH2 0x368D JUMP JUMPDEST POP PUSH1 0x20 DUP3 ADD MLOAD PUSH1 0x1 DUP3 ADD SWAP1 PUSH2 0x882 SWAP1 DUP3 PUSH2 0x368D JUMP JUMPDEST POP PUSH1 0x40 DUP3 ADD MLOAD PUSH1 0x2 DUP3 ADD SWAP1 PUSH2 0x897 SWAP1 DUP3 PUSH2 0x368D JUMP JUMPDEST POP PUSH1 0x60 DUP3 ADD MLOAD PUSH1 0x3 DUP3 ADD SWAP1 PUSH2 0x8AC SWAP1 DUP3 PUSH2 0x368D JUMP JUMPDEST POP POP POP POP POP POP POP JUMP JUMPDEST PUSH2 0x8BF CALLER DUP3 PUSH2 0x250E JUMP JUMPDEST PUSH2 0x8DB JUMPI PUSH1 0x40 MLOAD PUSH3 0x461BCD PUSH1 0xE5 SHL DUP2 MSTORE PUSH1 0x4 ADD PUSH2 0x788 SWAP1 PUSH2 0x374D JUMP JUMPDEST PUSH2 0x829 DUP4 DUP4 DUP4 PUSH2 0x258D JUMP JUMPDEST CALLER PUSH1 0x0 SWAP1 DUP2 MSTORE PUSH1 0xD PUSH1 0x20 SWAP1 DUP2 MSTORE PUSH1 0x40 SWAP2 DUP3 SWAP1 KECCAK256 DUP1 SLOAD DUP4 MLOAD DUP2 DUP5 MUL DUP2 ADD DUP5 ADD SWAP1 SWAP5 MSTORE DUP1 DUP5 MSTORE PUSH1 0x60 SWAP4 SWAP3 DUP4 ADD DUP3 DUP3 DUP1 ISZERO PUSH2 0x6E3 JUMPI PUSH1 0x20 MUL DUP3 ADD SWAP2 SWAP1 PUSH1 0x0 MSTORE PUSH1 0x20 PUSH1 0x0 KECCAK256 SWAP1 JUMPDEST DUP2 SLOAD DUP2 MSTORE PUSH1 0x20 ADD SWAP1 PUSH1 0x1 ADD SWAP1 DUP1 DUP4 GT PUSH2 0x929 JUMPI POP POP POP POP POP SWAP1 POP SWAP1 JUMP JUMPDEST PUSH2 0x94E PUSH2 0x2729 JUMP JUMPDEST PUSH1 0x0 PUSH2 0x98E DUP4 PUSH1 0x40 MLOAD PUSH1 0x20 ADD PUSH2 0x964 SWAP2 SWAP1 PUSH2 0x379B JUMP JUMPDEST PUSH1 0x40 DUP1 MLOAD PUSH1 0x1F NOT DUP2 DUP5 SUB ADD DUP2 MSTORE DUP3 DUP3 ADD SWAP1 SWAP2 MSTORE PUSH1 0x4 DUP3 MSTORE PUSH4 0x42534947 PUSH1 0xE0 SHL PUSH1 0x20 DUP4 ADD MSTORE SWAP1 PUSH2 0x277C JUMP JUMPDEST PUSH1 0x40 DUP1 MLOAD PUSH1 0xA0 DUP2 ADD DUP3 MSTORE PUSH1 0x8 SLOAD DUP1 DUP3 MSTORE PUSH1 0x20 DUP1 DUP4 ADD DUP8 DUP2 MSTORE DUP4 DUP6 ADD DUP11 DUP2 MSTORE PUSH1 0x0 PUSH1 0x60 DUP7 ADD DUP2 SWAP1 MSTORE PUSH1 0x80 DUP7 ADD DUP9 SWAP1 MSTORE SWAP4 DUP5 MSTORE PUSH1 0xB SWAP1 SWAP3 MSTORE SWAP4 SWAP1 SWAP2 KECCAK256 DUP3 MLOAD DUP2 SSTORE SWAP3 MLOAD PUSH1 0x1 DUP5 ADD SSTORE MLOAD SWAP3 SWAP4 POP SWAP2 PUSH1 0x2 DUP3 ADD SWAP1 PUSH2 0x9E7 SWAP1 DUP3 PUSH2 0x368D JUMP JUMPDEST POP PUSH1 0x60 DUP3 ADD MLOAD PUSH1 0x3 DUP3 ADD DUP1 SLOAD PUSH1 0xFF NOT AND SWAP2 ISZERO ISZERO SWAP2 SWAP1 SWAP2 OR SWAP1 SSTORE PUSH1 0x80 DUP3 ADD MLOAD PUSH1 0x4 DUP3 ADD SWAP1 PUSH2 0xA14 SWAP1 DUP3 PUSH2 0x368D JUMP JUMPDEST POP POP PUSH1 0x8 DUP1 SLOAD SWAP2 POP PUSH1 0x0 PUSH2 0xA27 DUP4 PUSH2 0x37CE JUMP JUMPDEST SWAP2 SWAP1 POP SSTORE POP POP POP POP POP JUMP JUMPDEST PUSH2 0x829 DUP4 DUP4 DUP4 PUSH1 0x40 MLOAD DUP1 PUSH1 0x20 ADD PUSH1 0x40 MSTORE DUP1 PUSH1 0x0 DUP2 MSTORE POP PUSH2 0x1CB2 JUMP JUMPDEST PUSH2 0xA55 PUSH2 0x27A8 JUMP JUMPDEST PUSH1 0x40 DUP1 MLOAD DUP1 DUP3 ADD DUP3 MSTORE DUP4 DUP2 MSTORE PUSH1 0x1 PUSH1 0x20 DUP1 DUP4 ADD SWAP2 SWAP1 SWAP2 MSTORE PUSH1 0x1 PUSH1 0x1 PUSH1 0xA0 SHL SUB DUP5 AND PUSH1 0x0 SWAP1 DUP2 MSTORE PUSH1 0xE SWAP1 SWAP2 MSTORE SWAP2 SWAP1 SWAP2 KECCAK256 DUP2 MLOAD DUP2 SWAP1 PUSH2 0xA92 SWAP1 DUP3 PUSH2 0x368D JUMP JUMPDEST POP PUSH1 0x20 SWAP2 SWAP1 SWAP2 ADD MLOAD PUSH1 0x1 SWAP1 SWAP2 ADD DUP1 SLOAD PUSH1 0xFF NOT AND SWAP2 ISZERO ISZERO SWAP2 SWAP1 SWAP2 OR SWAP1 SSTORE POP POP JUMP JUMPDEST PUSH2 0xABA PUSH2 0x27A8 JUMP JUMPDEST PUSH1 0x7 SLOAD PUSH1 0x9 SLOAD PUSH1 0x40 MLOAD PUSH1 0x1 PUSH1 0x1 PUSH1 0xA0 SHL SUB SWAP1 SWAP3 AND SWAP2 DUP2 ISZERO PUSH2 0x8FC MUL SWAP2 SWAP1 PUSH1 0x0 DUP2 DUP2 DUP2 DUP6 DUP9 DUP9 CALL SWAP4 POP POP POP POP ISZERO DUP1 ISZERO PUSH2 0xAF6 JUMPI RETURNDATASIZE PUSH1 0x0 DUP1 RETURNDATACOPY RETURNDATASIZE PUSH1 0x0 REVERT JUMPDEST POP PUSH1 0x0 PUSH1 0x9 SSTORE JUMP JUMPDEST PUSH1 0x0 DUP2 DUP2 MSTORE PUSH1 0x2 PUSH1 0x20 MSTORE PUSH1 0x40 DUP2 KECCAK256 SLOAD PUSH1 0x1 PUSH1 0x1 PUSH1 0xA0 SHL SUB AND DUP1 PUSH2 0x655 JUMPI PUSH1 0x40 MLOAD PUSH3 0x461BCD PUSH1 0xE5 SHL DUP2 MSTORE PUSH1 0x20 PUSH1 0x4 DUP3 ADD MSTORE PUSH1 0x18 PUSH1 0x24 DUP3 ADD MSTORE PUSH24 0x115490CDCC8C4E881A5B9D985B1A59081D1BDAD95B881251 PUSH1 0x42 SHL PUSH1 0x44 DUP3 ADD MSTORE PUSH1 0x64 ADD PUSH2 0x788 JUMP JUMPDEST PUSH2 0xB66 PUSH2 0x2729 JUMP JUMPDEST PUSH1 0x0 DUP3 PUSH1 0x3 DUP2 GT ISZERO PUSH2 0xB7A JUMPI PUSH2 0xB7A PUSH2 0x3572 JUMP JUMPDEST EQ DUP1 ISZERO PUSH2 0xB99 JUMPI POP PUSH1 0x0 DUP4 DUP2 MSTORE PUSH1 0xB PUSH1 0x20 MSTORE PUSH1 0x40 SWAP1 KECCAK256 PUSH1 0x3 ADD SLOAD PUSH1 0xFF AND ISZERO JUMPDEST DUP1 PUSH2 0xBD2 JUMPI POP PUSH1 0x0 DUP3 PUSH1 0x3 DUP2 GT ISZERO PUSH2 0xBB3 JUMPI PUSH2 0xBB3 PUSH2 0x3572 JUMP JUMPDEST EQ ISZERO DUP1 ISZERO PUSH2 0xBD2 JUMPI POP PUSH1 0x0 DUP4 DUP2 MSTORE PUSH1 0xB PUSH1 0x20 MSTORE PUSH1 0x40 SWAP1 KECCAK256 PUSH1 0x3 ADD SLOAD PUSH1 0xFF AND JUMPDEST PUSH2 0xC08 JUMPI PUSH1 0x40 MLOAD PUSH3 0x461BCD PUSH1 0xE5 SHL DUP2 MSTORE PUSH1 0x20 PUSH1 0x4 DUP3 ADD MSTORE PUSH1 0x7 PUSH1 0x24 DUP3 ADD MSTORE PUSH7 0x125B9D985B1A59 PUSH1 0xCA SHL PUSH1 0x44 DUP3 ADD MSTORE PUSH1 0x64 ADD PUSH2 0x788 JUMP JUMPDEST PUSH3 0x989680 PUSH1 0x0 DUP4 PUSH1 0x3 DUP2 GT ISZERO PUSH2 0xC20 JUMPI PUSH2 0xC20 PUSH2 0x3572 JUMP JUMPDEST EQ DUP1 PUSH2 0xC3D JUMPI POP PUSH1 0x1 DUP4 PUSH1 0x3 DUP2 GT ISZERO PUSH2 0xC3B JUMPI PUSH2 0xC3B PUSH2 0x3572 JUMP JUMPDEST EQ JUMPDEST ISZERO PUSH2 0xC6A JUMPI PUSH2 0xC4E PUSH2 0x3E8 DUP4 PUSH2 0x37FD JUMP JUMPDEST PUSH2 0xC59 SWAP1 PUSH1 0x1 PUSH2 0x3811 JUMP JUMPDEST PUSH2 0xC63 SWAP1 DUP3 PUSH2 0x3830 JUMP JUMPDEST SWAP1 POP PUSH2 0xCD7 JUMP JUMPDEST PUSH1 0x2 DUP4 PUSH1 0x3 DUP2 GT ISZERO PUSH2 0xC7E JUMPI PUSH2 0xC7E PUSH2 0x3572 JUMP JUMPDEST SUB PUSH2 0xC9A JUMPI PUSH2 0xC8F PUSH2 0x3E8 DUP4 PUSH2 0x37FD JUMP JUMPDEST PUSH2 0xC59 SWAP1 PUSH1 0x5 PUSH2 0x3811 JUMP JUMPDEST PUSH1 0x3 DUP4 PUSH1 0x3 DUP2 GT ISZERO PUSH2 0xCAE JUMPI PUSH2 0xCAE PUSH2 0x3572 JUMP JUMPDEST SUB PUSH2 0xCD7 JUMPI PUSH2 0xCBF PUSH2 0x3E8 DUP4 PUSH2 0x37FD JUMP JUMPDEST PUSH2 0xCCA SWAP1 PUSH1 0x8 PUSH2 0x3811 JUMP JUMPDEST PUSH2 0xCD4 SWAP1 DUP3 PUSH2 0x3830 JUMP JUMPDEST SWAP1 POP JUMPDEST PUSH1 0x0 PUSH1 0xB PUSH1 0x0 DUP7 DUP2 MSTORE PUSH1 0x20 ADD SWAP1 DUP2 MSTORE PUSH1 0x20 ADD PUSH1 0x0 KECCAK256 PUSH1 0x40 MLOAD DUP1 PUSH1 0xA0 ADD PUSH1 0x40 MSTORE SWAP1 DUP2 PUSH1 0x0 DUP3 ADD SLOAD DUP2 MSTORE PUSH1 0x20 ADD PUSH1 0x1 DUP3 ADD SLOAD DUP2 MSTORE PUSH1 0x20 ADD PUSH1 0x2 DUP3 ADD DUP1 SLOAD PUSH2 0xD1B SWAP1 PUSH2 0x3605 JUMP JUMPDEST DUP1 PUSH1 0x1F ADD PUSH1 0x20 DUP1 SWAP2 DIV MUL PUSH1 0x20 ADD PUSH1 0x40 MLOAD SWAP1 DUP2 ADD PUSH1 0x40 MSTORE DUP1 SWAP3 SWAP2 SWAP1 DUP2 DUP2 MSTORE PUSH1 0x20 ADD DUP3 DUP1 SLOAD PUSH2 0xD47 SWAP1 PUSH2 0x3605 JUMP JUMPDEST DUP1 ISZERO PUSH2 0xD94 JUMPI DUP1 PUSH1 0x1F LT PUSH2 0xD69 JUMPI PUSH2 0x100 DUP1 DUP4 SLOAD DIV MUL DUP4 MSTORE SWAP2 PUSH1 0x20 ADD SWAP2 PUSH2 0xD94 JUMP JUMPDEST DUP3 ADD SWAP2 SWAP1 PUSH1 0x0 MSTORE PUSH1 0x20 PUSH1 0x0 KECCAK256 SWAP1 JUMPDEST DUP2 SLOAD DUP2 MSTORE SWAP1 PUSH1 0x1 ADD SWAP1 PUSH1 0x20 ADD DUP1 DUP4 GT PUSH2 0xD77 JUMPI DUP3 SWAP1 SUB PUSH1 0x1F AND DUP3 ADD SWAP2 JUMPDEST POP POP POP SWAP2 DUP4 MSTORE POP POP PUSH1 0x3 DUP3 ADD SLOAD PUSH1 0xFF AND ISZERO ISZERO PUSH1 0x20 DUP3 ADD MSTORE PUSH1 0x4 DUP3 ADD DUP1 SLOAD PUSH1 0x40 SWAP1 SWAP3 ADD SWAP2 PUSH2 0xDC0 SWAP1 PUSH2 0x3605 JUMP JUMPDEST DUP1 PUSH1 0x1F ADD PUSH1 0x20 DUP1 SWAP2 DIV MUL PUSH1 0x20 ADD PUSH1 0x40 MLOAD SWAP1 DUP2 ADD PUSH1 0x40 MSTORE DUP1 SWAP3 SWAP2 SWAP1 DUP2 DUP2 MSTORE PUSH1 0x20 ADD DUP3 DUP1 SLOAD PUSH2 0xDEC SWAP1 PUSH2 0x3605 JUMP JUMPDEST DUP1 ISZERO PUSH2 0xE39 JUMPI DUP1 PUSH1 0x1F LT PUSH2 0xE0E JUMPI PUSH2 0x100 DUP1 DUP4 SLOAD DIV MUL DUP4 MSTORE SWAP2 PUSH1 0x20 ADD SWAP2 PUSH2 0xE39 JUMP JUMPDEST DUP3 ADD SWAP2 SWAP1 PUSH1 0x0 MSTORE PUSH1 0x20 PUSH1 0x0 KECCAK256 SWAP1 JUMPDEST DUP2 SLOAD DUP2 MSTORE SWAP1 PUSH1 0x1 ADD SWAP1 PUSH1 0x20 ADD DUP1 DUP4 GT PUSH2 0xE1C JUMPI DUP3 SWAP1 SUB PUSH1 0x1F AND DUP3 ADD SWAP2 JUMPDEST POP POP POP POP POP DUP2 MSTORE POP POP SWAP1 POP PUSH1 0x0 PUSH1 0x3 DUP2 GT ISZERO PUSH2 0xE57 JUMPI PUSH2 0xE57 PUSH2 0x3572 JUMP JUMPDEST DUP5 PUSH1 0x3 DUP2 GT ISZERO PUSH2 0xE69 JUMPI PUSH2 0xE69 PUSH2 0x3572 JUMP JUMPDEST SUB PUSH2 0xF40 JUMPI PUSH1 0x0 PUSH2 0xE7E DUP3 PUSH1 0x80 ADD MLOAD DUP10 PUSH2 0x2802 JUMP JUMPDEST SWAP1 POP DUP1 PUSH2 0xEBF JUMPI PUSH1 0x40 MLOAD PUSH3 0x461BCD PUSH1 0xE5 SHL DUP2 MSTORE PUSH1 0x20 PUSH1 0x4 DUP3 ADD MSTORE PUSH1 0xF PUSH1 0x24 DUP3 ADD MSTORE PUSH15 0x29B4B3B730BA3AB9329022B93937B9 PUSH1 0x89 SHL PUSH1 0x44 DUP3 ADD MSTORE PUSH1 0x64 ADD PUSH2 0x788 JUMP JUMPDEST PUSH1 0x60 DUP3 ADD MLOAD ISZERO PUSH2 0xEFB JUMPI PUSH1 0x40 MLOAD PUSH3 0x461BCD PUSH1 0xE5 SHL DUP2 MSTORE PUSH1 0x20 PUSH1 0x4 DUP3 ADD MSTORE PUSH1 0x7 PUSH1 0x24 DUP3 ADD MSTORE PUSH7 0x125B9D985B1A59 PUSH1 0xCA SHL PUSH1 0x44 DUP3 ADD MSTORE PUSH1 0x64 ADD PUSH2 0x788 JUMP JUMPDEST PUSH2 0xF05 DUP9 DUP8 PUSH2 0x2873 JUMP JUMPDEST PUSH2 0xF13 DUP7 DUP4 PUSH1 0x40 ADD MLOAD PUSH2 0x288D JUMP JUMPDEST PUSH2 0xF1E DUP9 DUP9 DUP9 PUSH2 0x258D JUMP JUMPDEST POP PUSH1 0x0 DUP6 DUP2 MSTORE PUSH1 0xB PUSH1 0x20 MSTORE PUSH1 0x40 SWAP1 KECCAK256 PUSH1 0x3 ADD DUP1 SLOAD PUSH1 0xFF NOT AND PUSH1 0x1 OR SWAP1 SSTORE PUSH2 0x10A1 JUMP JUMPDEST PUSH1 0x0 DUP6 DUP2 MSTORE PUSH1 0xC PUSH1 0x20 DUP2 SWAP1 MSTORE PUSH1 0x40 DUP3 KECCAK256 ADD DUP1 SLOAD PUSH2 0xFE5 SWAP2 SWAP1 PUSH2 0xF61 SWAP1 PUSH2 0x3605 JUMP JUMPDEST DUP1 PUSH1 0x1F ADD PUSH1 0x20 DUP1 SWAP2 DIV MUL PUSH1 0x20 ADD PUSH1 0x40 MLOAD SWAP1 DUP2 ADD PUSH1 0x40 MSTORE DUP1 SWAP3 SWAP2 SWAP1 DUP2 DUP2 MSTORE PUSH1 0x20 ADD DUP3 DUP1 SLOAD PUSH2 0xF8D SWAP1 PUSH2 0x3605 JUMP JUMPDEST DUP1 ISZERO PUSH2 0xFDA JUMPI DUP1 PUSH1 0x1F LT PUSH2 0xFAF JUMPI PUSH2 0x100 DUP1 DUP4 SLOAD DIV MUL DUP4 MSTORE SWAP2 PUSH1 0x20 ADD SWAP2 PUSH2 0xFDA JUMP JUMPDEST DUP3 ADD SWAP2 SWAP1 PUSH1 0x0 MSTORE PUSH1 0x20 PUSH1 0x0 KECCAK256 SWAP1 JUMPDEST DUP2 SLOAD DUP2 MSTORE SWAP1 PUSH1 0x1 ADD SWAP1 PUSH1 0x20 ADD DUP1 DUP4 GT PUSH2 0xFBD JUMPI DUP3 SWAP1 SUB PUSH1 0x1F AND DUP3 ADD SWAP2 JUMPDEST POP POP POP POP POP DUP10 PUSH2 0x2920 JUMP JUMPDEST SWAP1 POP DUP1 PUSH2 0x104A JUMPI PUSH1 0x40 MLOAD PUSH3 0x461BCD PUSH1 0xE5 SHL DUP2 MSTORE PUSH1 0x20 PUSH1 0x4 DUP3 ADD MSTORE PUSH1 0x2D PUSH1 0x24 DUP3 ADD MSTORE PUSH32 0x54686520676976656E2053656C6C6572206973206E6F7420746865206F776E65 PUSH1 0x44 DUP3 ADD MSTORE PUSH13 0x1C881BD9881D1A19481B185B99 PUSH1 0x9A SHL PUSH1 0x64 DUP3 ADD MSTORE PUSH1 0x84 ADD PUSH2 0x788 JUMP JUMPDEST DUP2 PUSH1 0x60 ADD MLOAD PUSH2 0x1094 JUMPI PUSH1 0x40 MLOAD PUSH3 0x461BCD PUSH1 0xE5 SHL DUP2 MSTORE PUSH1 0x20 PUSH1 0x4 DUP3 ADD MSTORE PUSH1 0x16 PUSH1 0x24 DUP3 ADD MSTORE PUSH22 0x24B73B30B634B21029B0B6329021B7B73234BA34B7B7 PUSH1 0x51 SHL PUSH1 0x44 DUP3 ADD MSTORE PUSH1 0x64 ADD PUSH2 0x788 JUMP JUMPDEST PUSH2 0x109F DUP9 DUP9 DUP9 PUSH2 0x258D JUMP JUMPDEST POP JUMPDEST PUSH1 0x0 PUSH2 0x10E6 DUP8 PUSH1 0x40 MLOAD PUSH1 0x20 ADD PUSH2 0x10B7 SWAP2 SWAP1 PUSH2 0x379B JUMP JUMPDEST PUSH1 0x40 DUP1 MLOAD PUSH1 0x1F NOT DUP2 DUP5 SUB ADD DUP2 MSTORE DUP3 DUP3 ADD SWAP1 SWAP2 MSTORE PUSH1 0x9 DUP3 MSTORE PUSH9 0x4F574E45525F534947 PUSH1 0xB8 SHL PUSH1 0x20 DUP4 ADD MSTORE SWAP1 PUSH2 0x277C JUMP JUMPDEST SWAP1 POP PUSH1 0x40 MLOAD DUP1 PUSH1 0xE0 ADD PUSH1 0x40 MSTORE DUP1 DUP8 DUP2 MSTORE PUSH1 0x20 ADD PUSH1 0xA PUSH1 0x0 DUP12 PUSH1 0x1 PUSH1 0x1 PUSH1 0xA0 SHL SUB AND PUSH1 0x1 PUSH1 0x1 PUSH1 0xA0 SHL SUB AND DUP2 MSTORE PUSH1 0x20 ADD SWAP1 DUP2 MSTORE PUSH1 0x20 ADD PUSH1 0x0 KECCAK256 PUSH1 0x40 MLOAD DUP1 PUSH1 0x80 ADD PUSH1 0x40 MSTORE SWAP1 DUP2 PUSH1 0x0 DUP3 ADD DUP1 SLOAD PUSH2 0x1139 SWAP1 PUSH2 0x3605 JUMP JUMPDEST DUP1 PUSH1 0x1F ADD PUSH1 0x20 DUP1 SWAP2 DIV MUL PUSH1 0x20 ADD PUSH1 0x40 MLOAD SWAP1 DUP2 ADD PUSH1 0x40 MSTORE DUP1 SWAP3 SWAP2 SWAP1 DUP2 DUP2 MSTORE PUSH1 0x20 ADD DUP3 DUP1 SLOAD PUSH2 0x1165 SWAP1 PUSH2 0x3605 JUMP JUMPDEST DUP1 ISZERO PUSH2 0x11B2 JUMPI DUP1 PUSH1 0x1F LT PUSH2 0x1187 JUMPI PUSH2 0x100 DUP1 DUP4 SLOAD DIV MUL DUP4 MSTORE SWAP2 PUSH1 0x20 ADD SWAP2 PUSH2 0x11B2 JUMP JUMPDEST DUP3 ADD SWAP2 SWAP1 PUSH1 0x0 MSTORE PUSH1 0x20 PUSH1 0x0 KECCAK256 SWAP1 JUMPDEST DUP2 SLOAD DUP2 MSTORE SWAP1 PUSH1 0x1 ADD SWAP1 PUSH1 0x20 ADD DUP1 DUP4 GT PUSH2 0x1195 JUMPI DUP3 SWAP1 SUB PUSH1 0x1F AND DUP3 ADD SWAP2 JUMPDEST POP POP POP POP POP DUP2 MSTORE PUSH1 0x20 ADD PUSH1 0x1 DUP3 ADD DUP1 SLOAD PUSH2 0x11CB SWAP1 PUSH2 0x3605 JUMP JUMPDEST DUP1 PUSH1 0x1F ADD PUSH1 0x20 DUP1 SWAP2 DIV MUL PUSH1 0x20 ADD PUSH1 0x40 MLOAD SWAP1 DUP2 ADD PUSH1 0x40 MSTORE DUP1 SWAP3 SWAP2 SWAP1 DUP2 DUP2 MSTORE PUSH1 0x20 ADD DUP3 DUP1 SLOAD PUSH2 0x11F7 SWAP1 PUSH2 0x3605 JUMP JUMPDEST DUP1 ISZERO PUSH2 0x1244 JUMPI DUP1 PUSH1 0x1F LT PUSH2 0x1219 JUMPI PUSH2 0x100 DUP1 DUP4 SLOAD DIV MUL DUP4 MSTORE SWAP2 PUSH1 0x20 ADD SWAP2 PUSH2 0x1244 JUMP JUMPDEST DUP3 ADD SWAP2 SWAP1 PUSH1 0x0 MSTORE PUSH1 0x20 PUSH1 0x0 KECCAK256 SWAP1 JUMPDEST DUP2 SLOAD DUP2 MSTORE SWAP1 PUSH1 0x1 ADD SWAP1 PUSH1 0x20 ADD DUP1 DUP4 GT PUSH2 0x1227 JUMPI DUP3 SWAP1 SUB PUSH1 0x1F AND DUP3 ADD SWAP2 JUMPDEST POP POP POP POP POP DUP2 MSTORE PUSH1 0x20 ADD PUSH1 0x2 DUP3 ADD DUP1 SLOAD PUSH2 0x125D SWAP1 PUSH2 0x3605 JUMP JUMPDEST DUP1 PUSH1 0x1F ADD PUSH1 0x20 DUP1 SWAP2 DIV MUL PUSH1 0x20 ADD PUSH1 0x40 MLOAD SWAP1 DUP2 ADD PUSH1 0x40 MSTORE DUP1 SWAP3 SWAP2 SWAP1 DUP2 DUP2 MSTORE PUSH1 0x20 ADD DUP3 DUP1 SLOAD PUSH2 0x1289 SWAP1 PUSH2 0x3605 JUMP JUMPDEST DUP1 ISZERO PUSH2 0x12D6 JUMPI DUP1 PUSH1 0x1F LT PUSH2 0x12AB JUMPI PUSH2 0x100 DUP1 DUP4 SLOAD DIV MUL DUP4 MSTORE SWAP2 PUSH1 0x20 ADD SWAP2 PUSH2 0x12D6 JUMP JUMPDEST DUP3 ADD SWAP2 SWAP1 PUSH1 0x0 MSTORE PUSH1 0x20 PUSH1 0x0 KECCAK256 SWAP1 JUMPDEST DUP2 SLOAD DUP2 MSTORE SWAP1 PUSH1 0x1 ADD SWAP1 PUSH1 0x20 ADD DUP1 DUP4 GT PUSH2 0x12B9 JUMPI DUP3 SWAP1 SUB PUSH1 0x1F AND DUP3 ADD SWAP2 JUMPDEST POP POP POP POP POP DUP2 MSTORE PUSH1 0x20 ADD PUSH1 0x3 DUP3 ADD DUP1 SLOAD PUSH2 0x12EF SWAP1 PUSH2 0x3605 JUMP JUMPDEST DUP1 PUSH1 0x1F ADD PUSH1 0x20 DUP1 SWAP2 DIV MUL PUSH1 0x20 ADD PUSH1 0x40 MLOAD SWAP1 DUP2 ADD PUSH1 0x40 MSTORE DUP1 SWAP3 SWAP2 SWAP1 DUP2 DUP2 MSTORE PUSH1 0x20 ADD DUP3 DUP1 SLOAD PUSH2 0x131B SWAP1 PUSH2 0x3605 JUMP JUMPDEST DUP1 ISZERO PUSH2 0x1368 JUMPI DUP1 PUSH1 0x1F LT PUSH2 0x133D JUMPI PUSH2 0x100 DUP1 DUP4 SLOAD DIV MUL DUP4 MSTORE SWAP2 PUSH1 0x20 ADD SWAP2 PUSH2 0x1368 JUMP JUMPDEST DUP3 ADD SWAP2 SWAP1 PUSH1 0x0 MSTORE PUSH1 0x20 PUSH1 0x0 KECCAK256 SWAP1 JUMPDEST DUP2 SLOAD DUP2 MSTORE SWAP1 PUSH1 0x1 ADD SWAP1 PUSH1 0x20 ADD DUP1 DUP4 GT PUSH2 0x134B JUMPI DUP3 SWAP1 SUB PUSH1 0x1F AND DUP3 ADD SWAP2 JUMPDEST POP POP POP POP POP DUP2 MSTORE POP POP DUP2 MSTORE PUSH1 0x20 ADD PUSH1 0xA PUSH1 0x0 DUP11 PUSH1 0x1 PUSH1 0x1 PUSH1 0xA0 SHL SUB AND PUSH1 0x1 PUSH1 0x1 PUSH1 0xA0 SHL SUB AND DUP2 MSTORE PUSH1 0x20 ADD SWAP1 DUP2 MSTORE PUSH1 0x20 ADD PUSH1 0x0 KECCAK256 PUSH1 0x40 MLOAD DUP1 PUSH1 0x80 ADD PUSH1 0x40 MSTORE SWAP1 DUP2 PUSH1 0x0 DUP3 ADD DUP1 SLOAD PUSH2 0x13B6 SWAP1 PUSH2 0x3605 JUMP JUMPDEST DUP1 PUSH1 0x1F ADD PUSH1 0x20 DUP1 SWAP2 DIV MUL PUSH1 0x20 ADD PUSH1 0x40 MLOAD SWAP1 DUP2 ADD PUSH1 0x40 MSTORE DUP1 SWAP3 SWAP2 SWAP1 DUP2 DUP2 MSTORE PUSH1 0x20 ADD DUP3 DUP1 SLOAD PUSH2 0x13E2 SWAP1 PUSH2 0x3605 JUMP JUMPDEST DUP1 ISZERO PUSH2 0x142F JUMPI DUP1 PUSH1 0x1F LT PUSH2 0x1404 JUMPI PUSH2 0x100 DUP1 DUP4 SLOAD DIV MUL DUP4 MSTORE SWAP2 PUSH1 0x20 ADD SWAP2 PUSH2 0x142F JUMP JUMPDEST DUP3 ADD SWAP2 SWAP1 PUSH1 0x0 MSTORE PUSH1 0x20 PUSH1 0x0 KECCAK256 SWAP1 JUMPDEST DUP2 SLOAD DUP2 MSTORE SWAP1 PUSH1 0x1 ADD SWAP1 PUSH1 0x20 ADD DUP1 DUP4 GT PUSH2 0x1412 JUMPI DUP3 SWAP1 SUB PUSH1 0x1F AND DUP3 ADD SWAP2 JUMPDEST POP POP POP POP POP DUP2 MSTORE PUSH1 0x20 ADD PUSH1 0x1 DUP3 ADD DUP1 SLOAD PUSH2 0x1448 SWAP1 PUSH2 0x3605 JUMP JUMPDEST DUP1 PUSH1 0x1F ADD PUSH1 0x20 DUP1 SWAP2 DIV MUL PUSH1 0x20 ADD PUSH1 0x40 MLOAD SWAP1 DUP2 ADD PUSH1 0x40 MSTORE DUP1 SWAP3 SWAP2 SWAP1 DUP2 DUP2 MSTORE PUSH1 0x20 ADD DUP3 DUP1 SLOAD PUSH2 0x1474 SWAP1 PUSH2 0x3605 JUMP JUMPDEST DUP1 ISZERO PUSH2 0x14C1 JUMPI DUP1 PUSH1 0x1F LT PUSH2 0x1496 JUMPI PUSH2 0x100 DUP1 DUP4 SLOAD DIV MUL DUP4 MSTORE SWAP2 PUSH1 0x20 ADD SWAP2 PUSH2 0x14C1 JUMP JUMPDEST DUP3 ADD SWAP2 SWAP1 PUSH1 0x0 MSTORE PUSH1 0x20 PUSH1 0x0 KECCAK256 SWAP1 JUMPDEST DUP2 SLOAD DUP2 MSTORE SWAP1 PUSH1 0x1 ADD SWAP1 PUSH1 0x20 ADD DUP1 DUP4 GT PUSH2 0x14A4 JUMPI DUP3 SWAP1 SUB PUSH1 0x1F AND DUP3 ADD SWAP2 JUMPDEST POP POP POP POP POP DUP2 MSTORE PUSH1 0x20 ADD PUSH1 0x2 DUP3 ADD DUP1 SLOAD PUSH2 0x14DA SWAP1 PUSH2 0x3605 JUMP JUMPDEST DUP1 PUSH1 0x1F ADD PUSH1 0x20 DUP1 SWAP2 DIV MUL PUSH1 0x20 ADD PUSH1 0x40 MLOAD SWAP1 DUP2 ADD PUSH1 0x40 MSTORE DUP1 SWAP3 SWAP2 SWAP1 DUP2 DUP2 MSTORE PUSH1 0x20 ADD DUP3 DUP1 SLOAD PUSH2 0x1506 SWAP1 PUSH2 0x3605 JUMP JUMPDEST DUP1 ISZERO PUSH2 0x1553 JUMPI DUP1 PUSH1 0x1F LT PUSH2 0x1528 JUMPI PUSH2 0x100 DUP1 DUP4 SLOAD DIV MUL DUP4 MSTORE SWAP2 PUSH1 0x20 ADD SWAP2 PUSH2 0x1553 JUMP JUMPDEST DUP3 ADD SWAP2 SWAP1 PUSH1 0x0 MSTORE PUSH1 0x20 PUSH1 0x0 KECCAK256 SWAP1 JUMPDEST DUP2 SLOAD DUP2 MSTORE SWAP1 PUSH1 0x1 ADD SWAP1 PUSH1 0x20 ADD DUP1 DUP4 GT PUSH2 0x1536 JUMPI DUP3 SWAP1 SUB PUSH1 0x1F AND DUP3 ADD SWAP2 JUMPDEST POP POP POP POP POP DUP2 MSTORE PUSH1 0x20 ADD PUSH1 0x3 DUP3 ADD DUP1 SLOAD PUSH2 0x156C SWAP1 PUSH2 0x3605 JUMP JUMPDEST DUP1 PUSH1 0x1F ADD PUSH1 0x20 DUP1 SWAP2 DIV MUL PUSH1 0x20 ADD PUSH1 0x40 MLOAD SWAP1 DUP2 ADD PUSH1 0x40 MSTORE DUP1 SWAP3 SWAP2 SWAP1 DUP2 DUP2 MSTORE PUSH1 0x20 ADD DUP3 DUP1 SLOAD PUSH2 0x1598 SWAP1 PUSH2 0x3605 JUMP JUMPDEST DUP1 ISZERO PUSH2 0x15E5 JUMPI DUP1 PUSH1 0x1F LT PUSH2 0x15BA JUMPI PUSH2 0x100 DUP1 DUP4 SLOAD DIV MUL DUP4 MSTORE SWAP2 PUSH1 0x20 ADD SWAP2 PUSH2 0x15E5 JUMP JUMPDEST DUP3 ADD SWAP2 SWAP1 PUSH1 0x0 MSTORE PUSH1 0x20 PUSH1 0x0 KECCAK256 SWAP1 JUMPDEST DUP2 SLOAD DUP2 MSTORE SWAP1 PUSH1 0x1 ADD SWAP1 PUSH1 0x20 ADD DUP1 DUP4 GT PUSH2 0x15C8 JUMPI DUP3 SWAP1 SUB PUSH1 0x1F AND DUP3 ADD SWAP2 JUMPDEST POP POP POP POP POP DUP2 MSTORE POP POP DUP2 MSTORE PUSH1 0x20 ADD DUP7 PUSH1 0x3 DUP2 GT ISZERO PUSH2 0x1605 JUMPI PUSH2 0x1605 PUSH2 0x3572 JUMP JUMPDEST DUP2 MSTORE PUSH1 0x20 DUP1 DUP3 ADD DUP8 SWAP1 MSTORE PUSH1 0x40 DUP1 DUP4 ADD DUP8 SWAP1 MSTORE PUSH1 0x60 SWAP1 SWAP3 ADD DUP5 SWAP1 MSTORE PUSH1 0x0 DUP10 DUP2 MSTORE PUSH1 0xC DUP3 MSTORE SWAP2 SWAP1 SWAP2 KECCAK256 DUP3 MLOAD DUP2 SSTORE SWAP1 DUP3 ADD MLOAD DUP1 MLOAD PUSH1 0x1 DUP4 ADD SWAP1 DUP2 SWAP1 PUSH2 0x1647 SWAP1 DUP3 PUSH2 0x368D JUMP JUMPDEST POP PUSH1 0x20 DUP3 ADD MLOAD PUSH1 0x1 DUP3 ADD SWAP1 PUSH2 0x165C SWAP1 DUP3 PUSH2 0x368D JUMP JUMPDEST POP PUSH1 0x40 DUP3 ADD MLOAD PUSH1 0x2 DUP3 ADD SWAP1 PUSH2 0x1671 SWAP1 DUP3 PUSH2 0x368D JUMP JUMPDEST POP PUSH1 0x60 DUP3 ADD MLOAD PUSH1 0x3 DUP3 ADD SWAP1 PUSH2 0x1686 SWAP1 DUP3 PUSH2 0x368D JUMP JUMPDEST POP POP POP PUSH1 0x40 DUP3 ADD MLOAD DUP1 MLOAD PUSH1 0x5 DUP4 ADD SWAP1 DUP2 SWAP1 PUSH2 0x16A1 SWAP1 DUP3 PUSH2 0x368D JUMP JUMPDEST POP PUSH1 0x20 DUP3 ADD MLOAD PUSH1 0x1 DUP3 ADD SWAP1 PUSH2 0x16B6 SWAP1 DUP3 PUSH2 0x368D JUMP JUMPDEST POP PUSH1 0x40 DUP3 ADD MLOAD PUSH1 0x2 DUP3 ADD SWAP1 PUSH2 0x16CB SWAP1 DUP3 PUSH2 0x368D JUMP JUMPDEST POP PUSH1 0x60 DUP3 ADD MLOAD PUSH1 0x3 DUP3 ADD SWAP1 PUSH2 0x16E0 SWAP1 DUP3 PUSH2 0x368D JUMP JUMPDEST POP POP POP PUSH1 0x60 DUP3 ADD MLOAD PUSH1 0x9 DUP3 ADD DUP1 SLOAD PUSH1 0xFF NOT AND PUSH1 0x1 DUP4 PUSH1 0x3 DUP2 GT ISZERO PUSH2 0x1706 JUMPI PUSH2 0x1706 PUSH2 0x3572 JUMP JUMPDEST MUL OR SWAP1 SSTORE POP PUSH1 0x80 DUP3 ADD MLOAD PUSH1 0xA DUP3 ADD SSTORE PUSH1 0xA0 DUP3 ADD MLOAD PUSH1 0xB DUP3 ADD SSTORE PUSH1 0xC0 DUP3 ADD MLOAD PUSH1 0xC DUP3 ADD SWAP1 PUSH2 0x1733 SWAP1 DUP3 PUSH2 0x368D JUMP JUMPDEST POP PUSH1 0x0 SWAP2 POP PUSH2 0x173F SWAP1 POP JUMP JUMPDEST DUP6 PUSH1 0x3 DUP2 GT ISZERO PUSH2 0x1751 JUMPI PUSH2 0x1751 PUSH2 0x3572 JUMP JUMPDEST SUB PUSH2 0x1786 JUMPI PUSH1 0x1 PUSH1 0x1 PUSH1 0xA0 SHL SUB DUP8 AND PUSH1 0x0 SWAP1 DUP2 MSTORE PUSH1 0xD PUSH1 0x20 SWAP1 DUP2 MSTORE PUSH1 0x40 DUP3 KECCAK256 DUP1 SLOAD PUSH1 0x1 DUP2 ADD DUP3 SSTORE SWAP1 DUP4 MSTORE SWAP2 KECCAK256 ADD DUP7 SWAP1 SSTORE PUSH2 0x185F JUMP JUMPDEST PUSH1 0x0 JUMPDEST PUSH1 0x1 PUSH1 0x1 PUSH1 0xA0 SHL SUB DUP10 AND PUSH1 0x0 SWAP1 DUP2 MSTORE PUSH1 0xD PUSH1 0x20 MSTORE PUSH1 0x40 SWAP1 KECCAK256 SLOAD DUP2 LT ISZERO PUSH2 0x1832 JUMPI PUSH1 0x1 PUSH1 0x1 PUSH1 0xA0 SHL SUB DUP10 AND PUSH1 0x0 SWAP1 DUP2 MSTORE PUSH1 0xD PUSH1 0x20 MSTORE PUSH1 0x40 SWAP1 KECCAK256 DUP1 SLOAD DUP9 SWAP2 SWAP1 DUP4 SWAP1 DUP2 LT PUSH2 0x17D6 JUMPI PUSH2 0x17D6 PUSH2 0x3848 JUMP JUMPDEST SWAP1 PUSH1 0x0 MSTORE PUSH1 0x20 PUSH1 0x0 KECCAK256 ADD SLOAD SUB PUSH2 0x1820 JUMPI PUSH1 0x1 PUSH1 0x1 PUSH1 0xA0 SHL SUB DUP10 AND PUSH1 0x0 SWAP1 DUP2 MSTORE PUSH1 0xD PUSH1 0x20 MSTORE PUSH1 0x40 SWAP1 KECCAK256 DUP1 SLOAD DUP3 SWAP1 DUP2 LT PUSH2 0x1810 JUMPI PUSH2 0x1810 PUSH2 0x3848 JUMP JUMPDEST PUSH1 0x0 SWAP2 DUP3 MSTORE PUSH1 0x20 DUP3 KECCAK256 ADD SSTORE PUSH2 0x1832 JUMP JUMPDEST PUSH2 0x182B DUP2 PUSH1 0x1 PUSH2 0x3830 JUMP JUMPDEST SWAP1 POP PUSH2 0x1789 JUMP JUMPDEST POP PUSH1 0x1 PUSH1 0x1 PUSH1 0xA0 SHL SUB DUP8 AND PUSH1 0x0 SWAP1 DUP2 MSTORE PUSH1 0xD PUSH1 0x20 SWAP1 DUP2 MSTORE PUSH1 0x40 DUP3 KECCAK256 DUP1 SLOAD PUSH1 0x1 DUP2 ADD DUP3 SSTORE SWAP1 DUP4 MSTORE SWAP2 KECCAK256 ADD DUP7 SWAP1 SSTORE JUMPDEST DUP3 PUSH1 0x9 PUSH1 0x0 DUP3 DUP3 SLOAD PUSH2 0x1871 SWAP2 SWAP1 PUSH2 0x3830 JUMP JUMPDEST SWAP1 SWAP2 SSTORE POP POP POP POP POP POP POP POP POP POP JUMP JUMPDEST PUSH1 0x0 PUSH2 0x188A PUSH2 0x27A8 JUMP JUMPDEST POP PUSH1 0x9 SLOAD SWAP1 JUMP JUMPDEST PUSH1 0x0 PUSH1 0x1 PUSH1 0x1 PUSH1 0xA0 SHL SUB DUP3 AND PUSH2 0x18FB JUMPI PUSH1 0x40 MLOAD PUSH3 0x461BCD PUSH1 0xE5 SHL DUP2 MSTORE PUSH1 0x20 PUSH1 0x4 DUP3 ADD MSTORE PUSH1 0x29 PUSH1 0x24 DUP3 ADD MSTORE PUSH32 0x4552433732313A2061646472657373207A65726F206973206E6F742061207661 PUSH1 0x44 DUP3 ADD MSTORE PUSH9 0x3634B21037BBB732B9 PUSH1 0xB9 SHL PUSH1 0x64 DUP3 ADD MSTORE PUSH1 0x84 ADD PUSH2 0x788 JUMP JUMPDEST POP PUSH1 0x1 PUSH1 0x1 PUSH1 0xA0 SHL SUB AND PUSH1 0x0 SWAP1 DUP2 MSTORE PUSH1 0x3 PUSH1 0x20 MSTORE PUSH1 0x40 SWAP1 KECCAK256 SLOAD SWAP1 JUMP JUMPDEST PUSH2 0x191F PUSH2 0x27A8 JUMP JUMPDEST PUSH2 0x1929 PUSH1 0x0 PUSH2 0x2937 JUMP JUMPDEST JUMP JUMPDEST PUSH2 0x1956 PUSH1 0x40 MLOAD DUP1 PUSH1 0x80 ADD PUSH1 0x40 MSTORE DUP1 PUSH1 0x60 DUP2 MSTORE PUSH1 0x20 ADD PUSH1 0x60 DUP2 MSTORE PUSH1 0x20 ADD PUSH1 0x60 DUP2 MSTORE PUSH1 0x20 ADD PUSH1 0x60 DUP2 MSTORE POP SWAP1 JUMP JUMPDEST CALLER PUSH1 0x0 SWAP1 DUP2 MSTORE PUSH1 0xA PUSH1 0x20 MSTORE PUSH1 0x40 SWAP1 DUP2 SWAP1 KECCAK256 DUP2 MLOAD PUSH1 0x80 DUP2 ADD SWAP1 SWAP3 MSTORE DUP1 SLOAD DUP3 SWAP1 DUP3 SWAP1 PUSH2 0x197F SWAP1 PUSH2 0x3605 JUMP JUMPDEST DUP1 PUSH1 0x1F ADD PUSH1 0x20 DUP1 SWAP2 DIV MUL PUSH1 0x20 ADD PUSH1 0x40 MLOAD SWAP1 DUP2 ADD PUSH1 0x40 MSTORE DUP1 SWAP3 SWAP2 SWAP1 DUP2 DUP2 MSTORE PUSH1 0x20 ADD DUP3 DUP1 SLOAD PUSH2 0x19AB SWAP1 PUSH2 0x3605 JUMP JUMPDEST DUP1 ISZERO PUSH2 0x19F8 JUMPI DUP1 PUSH1 0x1F LT PUSH2 0x19CD JUMPI PUSH2 0x100 DUP1 DUP4 SLOAD DIV MUL DUP4 MSTORE SWAP2 PUSH1 0x20 ADD SWAP2 PUSH2 0x19F8 JUMP JUMPDEST DUP3 ADD SWAP2 SWAP1 PUSH1 0x0 MSTORE PUSH1 0x20 PUSH1 0x0 KECCAK256 SWAP1 JUMPDEST DUP2 SLOAD DUP2 MSTORE SWAP1 PUSH1 0x1 ADD SWAP1 PUSH1 0x20 ADD DUP1 DUP4 GT PUSH2 0x19DB JUMPI DUP3 SWAP1 SUB PUSH1 0x1F AND DUP3 ADD SWAP2 JUMPDEST POP POP POP POP POP DUP2 MSTORE PUSH1 0x20 ADD PUSH1 0x1 DUP3 ADD DUP1 SLOAD PUSH2 0x1A11 SWAP1 PUSH2 0x3605 JUMP JUMPDEST DUP1 PUSH1 0x1F ADD PUSH1 0x20 DUP1 SWAP2 DIV MUL PUSH1 0x20 ADD PUSH1 0x40 MLOAD SWAP1 DUP2 ADD PUSH1 0x40 MSTORE DUP1 SWAP3 SWAP2 SWAP1 DUP2 DUP2 MSTORE PUSH1 0x20 ADD DUP3 DUP1 SLOAD PUSH2 0x1A3D SWAP1 PUSH2 0x3605 JUMP JUMPDEST DUP1 ISZERO PUSH2 0x1A8A JUMPI DUP1 PUSH1 0x1F LT PUSH2 0x1A5F JUMPI PUSH2 0x100 DUP1 DUP4 SLOAD DIV MUL DUP4 MSTORE SWAP2 PUSH1 0x20 ADD SWAP2 PUSH2 0x1A8A JUMP JUMPDEST DUP3 ADD SWAP2 SWAP1 PUSH1 0x0 MSTORE PUSH1 0x20 PUSH1 0x0 KECCAK256 SWAP1 JUMPDEST DUP2 SLOAD DUP2 MSTORE SWAP1 PUSH1 0x1 ADD SWAP1 PUSH1 0x20 ADD DUP1 DUP4 GT PUSH2 0x1A6D JUMPI DUP3 SWAP1 SUB PUSH1 0x1F AND DUP3 ADD SWAP2 JUMPDEST POP POP POP POP POP DUP2 MSTORE PUSH1 0x20 ADD PUSH1 0x2 DUP3 ADD DUP1 SLOAD PUSH2 0x1AA3 SWAP1 PUSH2 0x3605 JUMP JUMPDEST DUP1 PUSH1 0x1F ADD PUSH1 0x20 DUP1 SWAP2 DIV MUL PUSH1 0x20 ADD PUSH1 0x40 MLOAD SWAP1 DUP2 ADD PUSH1 0x40 MSTORE DUP1 SWAP3 SWAP2 SWAP1 DUP2 DUP2 MSTORE PUSH1 0x20 ADD DUP3 DUP1 SLOAD PUSH2 0x1ACF SWAP1 PUSH2 0x3605 JUMP JUMPDEST DUP1 ISZERO PUSH2 0x1B1C JUMPI DUP1 PUSH1 0x1F LT PUSH2 0x1AF1 JUMPI PUSH2 0x100 DUP1 DUP4 SLOAD DIV MUL DUP4 MSTORE SWAP2 PUSH1 0x20 ADD SWAP2 PUSH2 0x1B1C JUMP JUMPDEST DUP3 ADD SWAP2 SWAP1 PUSH1 0x0 MSTORE PUSH1 0x20 PUSH1 0x0 KECCAK256 SWAP1 JUMPDEST DUP2 SLOAD DUP2 MSTORE SWAP1 PUSH1 0x1 ADD SWAP1 PUSH1 0x20 ADD DUP1 DUP4 GT PUSH2 0x1AFF JUMPI DUP3 SWAP1 SUB PUSH1 0x1F AND DUP3 ADD SWAP2 JUMPDEST POP POP POP POP POP DUP2 MSTORE PUSH1 0x20 ADD PUSH1 0x3 DUP3 ADD DUP1 SLOAD PUSH2 0x1B35 SWAP1 PUSH2 0x3605 JUMP JUMPDEST DUP1 PUSH1 0x1F ADD PUSH1 0x20 DUP1 SWAP2 DIV MUL PUSH1 0x20 ADD PUSH1 0x40 MLOAD SWAP1 DUP2 ADD PUSH1 0x40 MSTORE DUP1 SWAP3 SWAP2 SWAP1 DUP2 DUP2 MSTORE PUSH1 0x20 ADD DUP3 DUP1 SLOAD PUSH2 0x1B61 SWAP1 PUSH2 0x3605 JUMP JUMPDEST DUP1 ISZERO PUSH2 0x1BAE JUMPI DUP1 PUSH1 0x1F LT PUSH2 0x1B83 JUMPI PUSH2 0x100 DUP1 DUP4 SLOAD DIV MUL DUP4 MSTORE SWAP2 PUSH1 0x20 ADD SWAP2 PUSH2 0x1BAE JUMP JUMPDEST DUP3 ADD SWAP2 SWAP1 PUSH1 0x0 MSTORE PUSH1 0x20 PUSH1 0x0 KECCAK256 SWAP1 JUMPDEST DUP2 SLOAD DUP2 MSTORE SWAP1 PUSH1 0x1 ADD SWAP1 PUSH1 0x20 ADD DUP1 DUP4 GT PUSH2 0x1B91 JUMPI DUP3 SWAP1 SUB PUSH1 0x1F AND DUP3 ADD SWAP2 JUMPDEST POP POP POP POP POP DUP2 MSTORE POP POP SWAP1 POP SWAP1 JUMP JUMPDEST PUSH1 0x60 PUSH1 0x1 DUP1 SLOAD PUSH2 0x66A SWAP1 PUSH2 0x3605 JUMP JUMPDEST PUSH1 0xE PUSH1 0x20 MSTORE PUSH1 0x0 SWAP1 DUP2 MSTORE PUSH1 0x40 SWAP1 KECCAK256 DUP1 SLOAD DUP2 SWAP1 PUSH2 0x1BE6 SWAP1 PUSH2 0x3605 JUMP JUMPDEST DUP1 PUSH1 0x1F ADD PUSH1 0x20 DUP1 SWAP2 DIV MUL PUSH1 0x20 ADD PUSH1 0x40 MLOAD SWAP1 DUP2 ADD PUSH1 0x40 MSTORE DUP1 SWAP3 SWAP2 SWAP1 DUP2 DUP2 MSTORE PUSH1 0x20 ADD DUP3 DUP1 SLOAD PUSH2 0x1C12 SWAP1 PUSH2 0x3605 JUMP JUMPDEST DUP1 ISZERO PUSH2 0x1C5F JUMPI DUP1 PUSH1 0x1F LT PUSH2 0x1C34 JUMPI PUSH2 0x100 DUP1 DUP4 SLOAD DIV MUL DUP4 MSTORE SWAP2 PUSH1 0x20 ADD SWAP2 PUSH2 0x1C5F JUMP JUMPDEST DUP3 ADD SWAP2 SWAP1 PUSH1 0x0 MSTORE PUSH1 0x20 PUSH1 0x0 KECCAK256 SWAP1 JUMPDEST DUP2 SLOAD DUP2 MSTORE SWAP1 PUSH1 0x1 ADD SWAP1 PUSH1 0x20 ADD DUP1 DUP4 GT PUSH2 0x1C42 JUMPI DUP3 SWAP1 SUB PUSH1 0x1F AND DUP3 ADD SWAP2 JUMPDEST POP POP POP PUSH1 0x1 SWAP1 SWAP4 ADD SLOAD SWAP2 SWAP3 POP POP PUSH1 0xFF AND DUP3 JUMP JUMPDEST PUSH2 0x1C7D CALLER DUP4 DUP4 PUSH2 0x2989 JUMP JUMPDEST POP POP JUMP JUMPDEST PUSH1 0xD PUSH1 0x20 MSTORE DUP2 PUSH1 0x0 MSTORE PUSH1 0x40 PUSH1 0x0 KECCAK256 DUP2 DUP2 SLOAD DUP2 LT PUSH2 0x1C9D JUMPI PUSH1 0x0 DUP1 REVERT JUMPDEST SWAP1 PUSH1 0x0 MSTORE PUSH1 0x20 PUSH1 0x0 KECCAK256 ADD PUSH1 0x0 SWAP2 POP SWAP2 POP POP SLOAD DUP2 JUMP JUMPDEST PUSH2 0x1CBC CALLER DUP4 PUSH2 0x250E JUMP JUMPDEST PUSH2 0x1CD8 JUMPI PUSH1 0x40 MLOAD PUSH3 0x461BCD PUSH1 0xE5 SHL DUP2 MSTORE PUSH1 0x4 ADD PUSH2 0x788 SWAP1 PUSH2 0x374D JUMP JUMPDEST PUSH2 0x1CE4 DUP5 DUP5 DUP5 DUP5 PUSH2 0x2A57 JUMP JUMPDEST POP POP POP POP JUMP JUMPDEST PUSH1 0x60 PUSH2 0x655 DUP3 PUSH2 0x2A8A JUMP JUMPDEST PUSH2 0x1CFD PUSH2 0x27A8 JUMP JUMPDEST PUSH2 0x1D07 DUP4 DUP4 PUSH2 0x2873 JUMP JUMPDEST PUSH2 0x829 DUP3 DUP3 PUSH2 0x288D JUMP JUMPDEST PUSH1 0xB PUSH1 0x20 MSTORE PUSH1 0x0 SWAP1 DUP2 MSTORE PUSH1 0x40 SWAP1 KECCAK256 DUP1 SLOAD PUSH1 0x1 DUP3 ADD SLOAD PUSH1 0x2 DUP4 ADD DUP1 SLOAD SWAP3 SWAP4 SWAP2 SWAP3 PUSH2 0x1D39 SWAP1 PUSH2 0x3605 JUMP JUMPDEST DUP1 PUSH1 0x1F ADD PUSH1 0x20 DUP1 SWAP2 DIV MUL PUSH1 0x20 ADD PUSH1 0x40 MLOAD SWAP1 DUP2 ADD PUSH1 0x40 MSTORE DUP1 SWAP3 SWAP2 SWAP1 DUP2 DUP2 MSTORE PUSH1 0x20 ADD DUP3 DUP1 SLOAD PUSH2 0x1D65 SWAP1 PUSH2 0x3605 JUMP JUMPDEST DUP1 ISZERO PUSH2 0x1DB2 JUMPI DUP1 PUSH1 0x1F LT PUSH2 0x1D87 JUMPI PUSH2 0x100 DUP1 DUP4 SLOAD DIV MUL DUP4 MSTORE SWAP2 PUSH1 0x20 ADD SWAP2 PUSH2 0x1DB2 JUMP JUMPDEST DUP3 ADD SWAP2 SWAP1 PUSH1 0x0 MSTORE PUSH1 0x20 PUSH1 0x0 KECCAK256 SWAP1 JUMPDEST DUP2 SLOAD DUP2 MSTORE SWAP1 PUSH1 0x1 ADD SWAP1 PUSH1 0x20 ADD DUP1 DUP4 GT PUSH2 0x1D95 JUMPI DUP3 SWAP1 SUB PUSH1 0x1F AND DUP3 ADD SWAP2 JUMPDEST POP POP POP PUSH1 0x3 DUP5 ADD SLOAD PUSH1 0x4 DUP6 ADD DUP1 SLOAD SWAP5 SWAP6 PUSH1 0xFF SWAP1 SWAP3 AND SWAP5 SWAP2 SWAP4 POP SWAP2 POP PUSH2 0x1DD6 SWAP1 PUSH2 0x3605 JUMP JUMPDEST DUP1 PUSH1 0x1F ADD PUSH1 0x20 DUP1 SWAP2 DIV MUL PUSH1 0x20 ADD PUSH1 0x40 MLOAD SWAP1 DUP2 ADD PUSH1 0x40 MSTORE DUP1 SWAP3 SWAP2 SWAP1 DUP2 DUP2 MSTORE PUSH1 0x20 ADD DUP3 DUP1 SLOAD PUSH2 0x1E02 SWAP1 PUSH2 0x3605 JUMP JUMPDEST DUP1 ISZERO PUSH2 0x1E4F JUMPI DUP1 PUSH1 0x1F LT PUSH2 0x1E24 JUMPI PUSH2 0x100 DUP1 DUP4 SLOAD DIV MUL DUP4 MSTORE SWAP2 PUSH1 0x20 ADD SWAP2 PUSH2 0x1E4F JUMP JUMPDEST DUP3 ADD SWAP2 SWAP1 PUSH1 0x0 MSTORE PUSH1 0x20 PUSH1 0x0 KECCAK256 SWAP1 JUMPDEST DUP2 SLOAD DUP2 MSTORE SWAP1 PUSH1 0x1 ADD SWAP1 PUSH1 0x20 ADD DUP1 DUP4 GT PUSH2 0x1E32 JUMPI DUP3 SWAP1 SUB PUSH1 0x1F AND DUP3 ADD SWAP2 JUMPDEST POP POP POP POP POP SWAP1 POP DUP6 JUMP JUMPDEST PUSH1 0xC PUSH1 0x20 MSTORE PUSH1 0x0 SWAP1 DUP2 MSTORE PUSH1 0x40 SWAP1 DUP2 SWAP1 KECCAK256 DUP1 SLOAD DUP3 MLOAD PUSH1 0x80 DUP2 ADD SWAP1 SWAP4 MSTORE PUSH1 0x1 DUP3 ADD DUP1 SLOAD SWAP2 SWAP4 SWAP2 DUP3 SWAP1 DUP3 SWAP1 PUSH2 0x1E8A SWAP1 PUSH2 0x3605 JUMP JUMPDEST DUP1 PUSH1 0x1F ADD PUSH1 0x20 DUP1 SWAP2 DIV MUL PUSH1 0x20 ADD PUSH1 0x40 MLOAD SWAP1 DUP2 ADD PUSH1 0x40 MSTORE DUP1 SWAP3 SWAP2 SWAP1 DUP2 DUP2 MSTORE PUSH1 0x20 ADD DUP3 DUP1 SLOAD PUSH2 0x1EB6 SWAP1 PUSH2 0x3605 JUMP JUMPDEST DUP1 ISZERO PUSH2 0x1F03 JUMPI DUP1 PUSH1 0x1F LT PUSH2 0x1ED8 JUMPI PUSH2 0x100 DUP1 DUP4 SLOAD DIV MUL DUP4 MSTORE SWAP2 PUSH1 0x20 ADD SWAP2 PUSH2 0x1F03 JUMP JUMPDEST DUP3 ADD SWAP2 SWAP1 PUSH1 0x0 MSTORE PUSH1 0x20 PUSH1 0x0 KECCAK256 SWAP1 JUMPDEST DUP2 SLOAD DUP2 MSTORE SWAP1 PUSH1 0x1 ADD SWAP1 PUSH1 0x20 ADD DUP1 DUP4 GT PUSH2 0x1EE6 JUMPI DUP3 SWAP1 SUB PUSH1 0x1F AND DUP3 ADD SWAP2 JUMPDEST POP POP POP POP POP DUP2 MSTORE PUSH1 0x20 ADD PUSH1 0x1 DUP3 ADD DUP1 SLOAD PUSH2 0x1F1C SWAP1 PUSH2 0x3605 JUMP JUMPDEST DUP1 PUSH1 0x1F ADD PUSH1 0x20 DUP1 SWAP2 DIV MUL PUSH1 0x20 ADD PUSH1 0x40 MLOAD SWAP1 DUP2 ADD PUSH1 0x40 MSTORE DUP1 SWAP3 SWAP2 SWAP1 DUP2 DUP2 MSTORE PUSH1 0x20 ADD DUP3 DUP1 SLOAD PUSH2 0x1F48 SWAP1 PUSH2 0x3605 JUMP JUMPDEST DUP1 ISZERO PUSH2 0x1F95 JUMPI DUP1 PUSH1 0x1F LT PUSH2 0x1F6A JUMPI PUSH2 0x100 DUP1 DUP4 SLOAD DIV MUL DUP4 MSTORE SWAP2 PUSH1 0x20 ADD SWAP2 PUSH2 0x1F95 JUMP JUMPDEST DUP3 ADD SWAP2 SWAP1 PUSH1 0x0 MSTORE PUSH1 0x20 PUSH1 0x0 KECCAK256 SWAP1 JUMPDEST DUP2 SLOAD DUP2 MSTORE SWAP1 PUSH1 0x1 ADD SWAP1 PUSH1 0x20 ADD DUP1 DUP4 GT PUSH2 0x1F78 JUMPI DUP3 SWAP1 SUB PUSH1 0x1F AND DUP3 ADD SWAP2 JUMPDEST POP POP POP POP POP DUP2 MSTORE PUSH1 0x20 ADD PUSH1 0x2 DUP3 ADD DUP1 SLOAD PUSH2 0x1FAE SWAP1 PUSH2 0x3605 JUMP JUMPDEST DUP1 PUSH1 0x1F ADD PUSH1 0x20 DUP1 SWAP2 DIV MUL PUSH1 0x20 ADD PUSH1 0x40 MLOAD SWAP1 DUP2 ADD PUSH1 0x40 MSTORE DUP1 SWAP3 SWAP2 SWAP1 DUP2 DUP2 MSTORE PUSH1 0x20 ADD DUP3 DUP1 SLOAD PUSH2 0x1FDA SWAP1 PUSH2 0x3605 JUMP JUMPDEST DUP1 ISZERO PUSH2 0x2027 JUMPI DUP1 PUSH1 0x1F LT PUSH2 0x1FFC JUMPI PUSH2 0x100 DUP1 DUP4 SLOAD DIV MUL DUP4 MSTORE SWAP2 PUSH1 0x20 ADD SWAP2 PUSH2 0x2027 JUMP JUMPDEST DUP3 ADD SWAP2 SWAP1 PUSH1 0x0 MSTORE PUSH1 0x20 PUSH1 0x0 KECCAK256 SWAP1 JUMPDEST DUP2 SLOAD DUP2 MSTORE SWAP1 PUSH1 0x1 ADD SWAP1 PUSH1 0x20 ADD DUP1 DUP4 GT PUSH2 0x200A JUMPI DUP3 SWAP1 SUB PUSH1 0x1F AND DUP3 ADD SWAP2 JUMPDEST POP POP POP POP POP DUP2 MSTORE PUSH1 0x20 ADD PUSH1 0x3 DUP3 ADD DUP1 SLOAD PUSH2 0x2040 SWAP1 PUSH2 0x3605 JUMP JUMPDEST DUP1 PUSH1 0x1F ADD PUSH1 0x20 DUP1 SWAP2 DIV MUL PUSH1 0x20 ADD PUSH1 0x40 MLOAD SWAP1 DUP2 ADD PUSH1 0x40 MSTORE DUP1 SWAP3 SWAP2 SWAP1 DUP2 DUP2 MSTORE PUSH1 0x20 ADD DUP3 DUP1 SLOAD PUSH2 0x206C SWAP1 PUSH2 0x3605 JUMP JUMPDEST DUP1 ISZERO PUSH2 0x20B9 JUMPI DUP1 PUSH1 0x1F LT PUSH2 0x208E JUMPI PUSH2 0x100 DUP1 DUP4 SLOAD DIV MUL DUP4 MSTORE SWAP2 PUSH1 0x20 ADD SWAP2 PUSH2 0x20B9 JUMP JUMPDEST DUP3 ADD SWAP2 SWAP1 PUSH1 0x0 MSTORE PUSH1 0x20 PUSH1 0x0 KECCAK256 SWAP1 JUMPDEST DUP2 SLOAD DUP2 MSTORE SWAP1 PUSH1 0x1 ADD SWAP1 PUSH1 0x20 ADD DUP1 DUP4 GT PUSH2 0x209C JUMPI DUP3 SWAP1 SUB PUSH1 0x1F AND DUP3 ADD SWAP2 JUMPDEST POP POP POP POP POP DUP2 MSTORE POP POP SWAP1 DUP1 PUSH1 0x5 ADD PUSH1 0x40 MLOAD DUP1 PUSH1 0x80 ADD PUSH1 0x40 MSTORE SWAP1 DUP2 PUSH1 0x0 DUP3 ADD DUP1 SLOAD PUSH2 0x20E2 SWAP1 PUSH2 0x3605 JUMP JUMPDEST DUP1 PUSH1 0x1F ADD PUSH1 0x20 DUP1 SWAP2 DIV MUL PUSH1 0x20 ADD PUSH1 0x40 MLOAD SWAP1 DUP2 ADD PUSH1 0x40 MSTORE DUP1 SWAP3 SWAP2 SWAP1 DUP2 DUP2 MSTORE PUSH1 0x20 ADD DUP3 DUP1 SLOAD PUSH2 0x210E SWAP1 PUSH2 0x3605 JUMP JUMPDEST DUP1 ISZERO PUSH2 0x215B JUMPI DUP1 PUSH1 0x1F LT PUSH2 0x2130 JUMPI PUSH2 0x100 DUP1 DUP4 SLOAD DIV MUL DUP4 MSTORE SWAP2 PUSH1 0x20 ADD SWAP2 PUSH2 0x215B JUMP JUMPDEST DUP3 ADD SWAP2 SWAP1 PUSH1 0x0 MSTORE PUSH1 0x20 PUSH1 0x0 KECCAK256 SWAP1 JUMPDEST DUP2 SLOAD DUP2 MSTORE SWAP1 PUSH1 0x1 ADD SWAP1 PUSH1 0x20 ADD DUP1 DUP4 GT PUSH2 0x213E JUMPI DUP3 SWAP1 SUB PUSH1 0x1F AND DUP3 ADD SWAP2 JUMPDEST POP POP POP POP POP DUP2 MSTORE PUSH1 0x20 ADD PUSH1 0x1 DUP3 ADD DUP1 SLOAD PUSH2 0x2174 SWAP1 PUSH2 0x3605 JUMP JUMPDEST DUP1 PUSH1 0x1F ADD PUSH1 0x20 DUP1 SWAP2 DIV MUL PUSH1 0x20 ADD PUSH1 0x40 MLOAD SWAP1 DUP2 ADD PUSH1 0x40 MSTORE DUP1 SWAP3 SWAP2 SWAP1 DUP2 DUP2 MSTORE PUSH1 0x20 ADD DUP3 DUP1 SLOAD PUSH2 0x21A0 SWAP1 PUSH2 0x3605 JUMP JUMPDEST DUP1 ISZERO PUSH2 0x21ED JUMPI DUP1 PUSH1 0x1F LT PUSH2 0x21C2 JUMPI PUSH2 0x100 DUP1 DUP4 SLOAD DIV MUL DUP4 MSTORE SWAP2 PUSH1 0x20 ADD SWAP2 PUSH2 0x21ED JUMP JUMPDEST DUP3 ADD SWAP2 SWAP1 PUSH1 0x0 MSTORE PUSH1 0x20 PUSH1 0x0 KECCAK256 SWAP1 JUMPDEST DUP2 SLOAD DUP2 MSTORE SWAP1 PUSH1 0x1 ADD SWAP1 PUSH1 0x20 ADD DUP1 DUP4 GT PUSH2 0x21D0 JUMPI DUP3 SWAP1 SUB PUSH1 0x1F AND DUP3 ADD SWAP2 JUMPDEST POP POP POP POP POP DUP2 MSTORE PUSH1 0x20 ADD PUSH1 0x2 DUP3 ADD DUP1 SLOAD PUSH2 0x2206 SWAP1 PUSH2 0x3605 JUMP JUMPDEST DUP1 PUSH1 0x1F ADD PUSH1 0x20 DUP1 SWAP2 DIV MUL PUSH1 0x20 ADD PUSH1 0x40 MLOAD SWAP1 DUP2 ADD PUSH1 0x40 MSTORE DUP1 SWAP3 SWAP2 SWAP1 DUP2 DUP2 MSTORE PUSH1 0x20 ADD DUP3 DUP1 SLOAD PUSH2 0x2232 SWAP1 PUSH2 0x3605 JUMP JUMPDEST DUP1 ISZERO PUSH2 0x227F JUMPI DUP1 PUSH1 0x1F LT PUSH2 0x2254 JUMPI PUSH2 0x100 DUP1 DUP4 SLOAD DIV MUL DUP4 MSTORE SWAP2 PUSH1 0x20 ADD SWAP2 PUSH2 0x227F JUMP JUMPDEST DUP3 ADD SWAP2 SWAP1 PUSH1 0x0 MSTORE PUSH1 0x20 PUSH1 0x0 KECCAK256 SWAP1 JUMPDEST DUP2 SLOAD DUP2 MSTORE SWAP1 PUSH1 0x1 ADD SWAP1 PUSH1 0x20 ADD DUP1 DUP4 GT PUSH2 0x2262 JUMPI DUP3 SWAP1 SUB PUSH1 0x1F AND DUP3 ADD SWAP2 JUMPDEST POP POP POP POP POP DUP2 MSTORE PUSH1 0x20 ADD PUSH1 0x3 DUP3 ADD DUP1 SLOAD PUSH2 0x2298 SWAP1 PUSH2 0x3605 JUMP JUMPDEST DUP1 PUSH1 0x1F ADD PUSH1 0x20 DUP1 SWAP2 DIV MUL PUSH1 0x20 ADD PUSH1 0x40 MLOAD SWAP1 DUP2 ADD PUSH1 0x40 MSTORE DUP1 SWAP3 SWAP2 SWAP1 DUP2 DUP2 MSTORE PUSH1 0x20 ADD DUP3 DUP1 SLOAD PUSH2 0x22C4 SWAP1 PUSH2 0x3605 JUMP JUMPDEST DUP1 ISZERO PUSH2 0x2311 JUMPI DUP1 PUSH1 0x1F LT PUSH2 0x22E6 JUMPI PUSH2 0x100 DUP1 DUP4 SLOAD DIV MUL DUP4 MSTORE SWAP2 PUSH1 0x20 ADD SWAP2 PUSH2 0x2311 JUMP JUMPDEST DUP3 ADD SWAP2 SWAP1 PUSH1 0x0 MSTORE PUSH1 0x20 PUSH1 0x0 KECCAK256 SWAP1 JUMPDEST DUP2 SLOAD DUP2 MSTORE SWAP1 PUSH1 0x1 ADD SWAP1 PUSH1 0x20 ADD DUP1 DUP4 GT PUSH2 0x22F4 JUMPI DUP3 SWAP1 SUB PUSH1 0x1F AND DUP3 ADD SWAP2 JUMPDEST POP POP POP SWAP2 SWAP1 SWAP3 MSTORE POP POP POP PUSH1 0x9 DUP3 ADD SLOAD PUSH1 0xA DUP4 ADD SLOAD PUSH1 0xB DUP5 ADD SLOAD PUSH1 0xC DUP6 ADD DUP1 SLOAD SWAP5 SWAP6 PUSH1 0xFF SWAP1 SWAP5 AND SWAP5 SWAP3 SWAP4 SWAP2 SWAP3 PUSH2 0x2345 SWAP1 PUSH2 0x3605 JUMP JUMPDEST DUP1 PUSH1 0x1F ADD PUSH1 0x20 DUP1 SWAP2 DIV MUL PUSH1 0x20 ADD PUSH1 0x40 MLOAD SWAP1 DUP2 ADD PUSH1 0x40 MSTORE DUP1 SWAP3 SWAP2 SWAP1 DUP2 DUP2 MSTORE PUSH1 0x20 ADD DUP3 DUP1 SLOAD PUSH2 0x2371 SWAP1 PUSH2 0x3605 JUMP JUMPDEST DUP1 ISZERO PUSH2 0x23BE JUMPI DUP1 PUSH1 0x1F LT PUSH2 0x2393 JUMPI PUSH2 0x100 DUP1 DUP4 SLOAD DIV MUL DUP4 MSTORE SWAP2 PUSH1 0x20 ADD SWAP2 PUSH2 0x23BE JUMP JUMPDEST DUP3 ADD SWAP2 SWAP1 PUSH1 0x0 MSTORE PUSH1 0x20 PUSH1 0x0 KECCAK256 SWAP1 JUMPDEST DUP2 SLOAD DUP2 MSTORE SWAP1 PUSH1 0x1 ADD SWAP1 PUSH1 0x20 ADD DUP1 DUP4 GT PUSH2 0x23A1 JUMPI DUP3 SWAP1 SUB PUSH1 0x1F AND DUP3 ADD SWAP2 JUMPDEST POP POP POP POP POP SWAP1 POP DUP8 JUMP JUMPDEST PUSH2 0x23D0 PUSH2 0x27A8 JUMP JUMPDEST PUSH1 0x1 PUSH1 0x1 PUSH1 0xA0 SHL SUB DUP2 AND PUSH2 0x2435 JUMPI PUSH1 0x40 MLOAD PUSH3 0x461BCD PUSH1 0xE5 SHL DUP2 MSTORE PUSH1 0x20 PUSH1 0x4 DUP3 ADD MSTORE PUSH1 0x26 PUSH1 0x24 DUP3 ADD MSTORE PUSH32 0x4F776E61626C653A206E6577206F776E657220697320746865207A65726F2061 PUSH1 0x44 DUP3 ADD MSTORE PUSH6 0x646472657373 PUSH1 0xD0 SHL PUSH1 0x64 DUP3 ADD MSTORE PUSH1 0x84 ADD PUSH2 0x788 JUMP JUMPDEST PUSH2 0x243E DUP2 PUSH2 0x2937 JUMP JUMPDEST POP JUMP JUMPDEST PUSH1 0x0 DUP2 DUP2 MSTORE PUSH1 0x2 PUSH1 0x20 MSTORE PUSH1 0x40 SWAP1 KECCAK256 SLOAD PUSH1 0x1 PUSH1 0x1 PUSH1 0xA0 SHL SUB AND PUSH2 0x243E JUMPI PUSH1 0x40 MLOAD PUSH3 0x461BCD PUSH1 0xE5 SHL DUP2 MSTORE PUSH1 0x20 PUSH1 0x4 DUP3 ADD MSTORE PUSH1 0x18 PUSH1 0x24 DUP3 ADD MSTORE PUSH24 0x115490CDCC8C4E881A5B9D985B1A59081D1BDAD95B881251 PUSH1 0x42 SHL PUSH1 0x44 DUP3 ADD MSTORE PUSH1 0x64 ADD PUSH2 0x788 JUMP JUMPDEST PUSH1 0x0 DUP2 DUP2 MSTORE PUSH1 0x4 PUSH1 0x20 MSTORE PUSH1 0x40 SWAP1 KECCAK256 DUP1 SLOAD PUSH1 0x1 PUSH1 0x1 PUSH1 0xA0 SHL SUB NOT AND PUSH1 0x1 PUSH1 0x1 PUSH1 0xA0 SHL SUB DUP5 AND SWAP1 DUP2 OR SWAP1 SWAP2 SSTORE DUP2 SWAP1 PUSH2 0x24D5 DUP3 PUSH2 0xAFE JUMP JUMPDEST PUSH1 0x1 PUSH1 0x1 PUSH1 0xA0 SHL SUB AND PUSH32 0x8C5BE1E5EBEC7D5BD14F71427D1E84F3DD0314C0F7B2291E5B200AC8C7C3B925 PUSH1 0x40 MLOAD PUSH1 0x40 MLOAD DUP1 SWAP2 SUB SWAP1 LOG4 POP POP JUMP JUMPDEST PUSH1 0x0 DUP1 PUSH2 0x251A DUP4 PUSH2 0xAFE JUMP JUMPDEST SWAP1 POP DUP1 PUSH1 0x1 PUSH1 0x1 PUSH1 0xA0 SHL SUB AND DUP5 PUSH1 0x1 PUSH1 0x1 PUSH1 0xA0 SHL SUB AND EQ DUP1 PUSH2 0x2561 JUMPI POP PUSH1 0x1 PUSH1 0x1 PUSH1 0xA0 SHL SUB DUP1 DUP3 AND PUSH1 0x0 SWAP1 DUP2 MSTORE PUSH1 0x5 PUSH1 0x20 SWAP1 DUP2 MSTORE PUSH1 0x40 DUP1 DUP4 KECCAK256 SWAP4 DUP9 AND DUP4 MSTORE SWAP3 SWAP1 MSTORE KECCAK256 SLOAD PUSH1 0xFF AND JUMPDEST DUP1 PUSH2 0x2585 JUMPI POP DUP4 PUSH1 0x1 PUSH1 0x1 PUSH1 0xA0 SHL SUB AND PUSH2 0x257A DUP5 PUSH2 0x6ED JUMP JUMPDEST PUSH1 0x1 PUSH1 0x1 PUSH1 0xA0 SHL SUB AND EQ JUMPDEST SWAP5 SWAP4 POP POP POP POP JUMP JUMPDEST DUP3 PUSH1 0x1 PUSH1 0x1 PUSH1 0xA0 SHL SUB AND PUSH2 0x25A0 DUP3 PUSH2 0xAFE JUMP JUMPDEST PUSH1 0x1 PUSH1 0x1 PUSH1 0xA0 SHL SUB AND EQ PUSH2 0x2604 JUMPI PUSH1 0x40 MLOAD PUSH3 0x461BCD PUSH1 0xE5 SHL DUP2 MSTORE PUSH1 0x20 PUSH1 0x4 DUP3 ADD MSTORE PUSH1 0x25 PUSH1 0x24 DUP3 ADD MSTORE PUSH32 0x4552433732313A207472616E736665722066726F6D20696E636F727265637420 PUSH1 0x44 DUP3 ADD MSTORE PUSH5 0x37BBB732B9 PUSH1 0xD9 SHL PUSH1 0x64 DUP3 ADD MSTORE PUSH1 0x84 ADD PUSH2 0x788 JUMP JUMPDEST PUSH1 0x1 PUSH1 0x1 PUSH1 0xA0 SHL SUB DUP3 AND PUSH2 0x2666 JUMPI PUSH1 0x40 MLOAD PUSH3 0x461BCD PUSH1 0xE5 SHL DUP2 MSTORE PUSH1 0x20 PUSH1 0x4 DUP3 ADD MSTORE PUSH1 0x24 DUP1 DUP3 ADD MSTORE PUSH32 0x4552433732313A207472616E7366657220746F20746865207A65726F20616464 PUSH1 0x44 DUP3 ADD MSTORE PUSH4 0x72657373 PUSH1 0xE0 SHL PUSH1 0x64 DUP3 ADD MSTORE PUSH1 0x84 ADD PUSH2 0x788 JUMP JUMPDEST PUSH2 0x2671 PUSH1 0x0 DUP3 PUSH2 0x24A0 JUMP JUMPDEST PUSH1 0x1 PUSH1 0x1 PUSH1 0xA0 SHL SUB DUP4 AND PUSH1 0x0 SWAP1 DUP2 MSTORE PUSH1 0x3 PUSH1 0x20 MSTORE PUSH1 0x40 DUP2 KECCAK256 DUP1 SLOAD PUSH1 0x1 SWAP3 SWAP1 PUSH2 0x269A SWAP1 DUP5 SWAP1 PUSH2 0x385E JUMP JUMPDEST SWAP1 SWAP2 SSTORE POP POP PUSH1 0x1 PUSH1 0x1 PUSH1 0xA0 SHL SUB DUP3 AND PUSH1 0x0 SWAP1 DUP2 MSTORE PUSH1 0x3 PUSH1 0x20 MSTORE PUSH1 0x40 DUP2 KECCAK256 DUP1 SLOAD PUSH1 0x1 SWAP3 SWAP1 PUSH2 0x26C8 SWAP1 DUP5 SWAP1 PUSH2 0x3830 JUMP JUMPDEST SWAP1 SWAP2 SSTORE POP POP PUSH1 0x0 DUP2 DUP2 MSTORE PUSH1 0x2 PUSH1 0x20 MSTORE PUSH1 0x40 DUP1 DUP3 KECCAK256 DUP1 SLOAD PUSH1 0x1 PUSH1 0x1 PUSH1 0xA0 SHL SUB NOT AND PUSH1 0x1 PUSH1 0x1 PUSH1 0xA0 SHL SUB DUP7 DUP2 AND SWAP2 DUP3 OR SWAP1 SWAP3 SSTORE SWAP2 MLOAD DUP5 SWAP4 SWAP2 DUP8 AND SWAP2 PUSH32 0xDDF252AD1BE2C89B69C2B068FC378DAA952BA7F163C4A11628F55A4DF523B3EF SWAP2 LOG4 POP POP POP JUMP JUMPDEST CALLER PUSH1 0x0 SWAP1 DUP2 MSTORE PUSH1 0xE PUSH1 0x20 MSTORE PUSH1 0x40 SWAP1 KECCAK256 PUSH1 0x1 ADD SLOAD PUSH1 0xFF AND PUSH2 0x1929 JUMPI PUSH1 0x40 MLOAD PUSH3 0x461BCD PUSH1 0xE5 SHL DUP2 MSTORE PUSH1 0x20 PUSH1 0x4 DUP3 ADD MSTORE PUSH1 0xE PUSH1 0x24 DUP3 ADD MSTORE PUSH14 0x4F6E6C79204578656375746F7273 PUSH1 0x90 SHL PUSH1 0x44 DUP3 ADD MSTORE PUSH1 0x64 ADD PUSH2 0x788 JUMP JUMPDEST PUSH1 0x60 DUP3 DUP3 PUSH1 0x40 MLOAD PUSH1 0x20 ADD PUSH2 0x2791 SWAP3 SWAP2 SWAP1 PUSH2 0x3875 JUMP JUMPDEST PUSH1 0x40 MLOAD PUSH1 0x20 DUP2 DUP4 SUB SUB DUP2 MSTORE SWAP1 PUSH1 0x40 MSTORE SWAP1 POP SWAP3 SWAP2 POP POP JUMP JUMPDEST PUSH1 0x7 SLOAD PUSH1 0x1 PUSH1 0x1 PUSH1 0xA0 SHL SUB AND CALLER EQ PUSH2 0x1929 JUMPI PUSH1 0x40 MLOAD PUSH3 0x461BCD PUSH1 0xE5 SHL DUP2 MSTORE PUSH1 0x20 PUSH1 0x4 DUP3 ADD DUP2 SWAP1 MSTORE PUSH1 0x24 DUP3 ADD MSTORE PUSH32 0x4F776E61626C653A2063616C6C6572206973206E6F7420746865206F776E6572 PUSH1 0x44 DUP3 ADD MSTORE PUSH1 0x64 ADD PUSH2 0x788 JUMP JUMPDEST PUSH1 0x0 DUP1 PUSH2 0x2819 DUP4 PUSH1 0x40 MLOAD PUSH1 0x20 ADD PUSH2 0x964 SWAP2 SWAP1 PUSH2 0x379B JUMP JUMPDEST SWAP1 POP DUP4 PUSH1 0x40 MLOAD PUSH1 0x20 ADD PUSH2 0x282C SWAP2 SWAP1 PUSH2 0x38B1 JUMP JUMPDEST PUSH1 0x40 MLOAD PUSH1 0x20 DUP2 DUP4 SUB SUB DUP2 MSTORE SWAP1 PUSH1 0x40 MSTORE DUP1 MLOAD SWAP1 PUSH1 0x20 ADD KECCAK256 DUP2 PUSH1 0x40 MLOAD PUSH1 0x20 ADD PUSH2 0x2853 SWAP2 SWAP1 PUSH2 0x38B1 JUMP JUMPDEST PUSH1 0x40 MLOAD PUSH1 0x20 DUP2 DUP4 SUB SUB DUP2 MSTORE SWAP1 PUSH1 0x40 MSTORE DUP1 MLOAD SWAP1 PUSH1 0x20 ADD KECCAK256 EQ SWAP2 POP POP SWAP3 SWAP2 POP POP JUMP JUMPDEST PUSH2 0x1C7D DUP3 DUP3 PUSH1 0x40 MLOAD DUP1 PUSH1 0x20 ADD PUSH1 0x40 MSTORE DUP1 PUSH1 0x0 DUP2 MSTORE POP PUSH2 0x2B92 JUMP JUMPDEST PUSH1 0x0 DUP3 DUP2 MSTORE PUSH1 0x2 PUSH1 0x20 MSTORE PUSH1 0x40 SWAP1 KECCAK256 SLOAD PUSH1 0x1 PUSH1 0x1 PUSH1 0xA0 SHL SUB AND PUSH2 0x2908 JUMPI PUSH1 0x40 MLOAD PUSH3 0x461BCD PUSH1 0xE5 SHL DUP2 MSTORE PUSH1 0x20 PUSH1 0x4 DUP3 ADD MSTORE PUSH1 0x2E PUSH1 0x24 DUP3 ADD MSTORE PUSH32 0x45524337323155524953746F726167653A2055524920736574206F66206E6F6E PUSH1 0x44 DUP3 ADD MSTORE PUSH14 0x32BC34B9BA32B73A103A37B5B2B7 PUSH1 0x91 SHL PUSH1 0x64 DUP3 ADD MSTORE PUSH1 0x84 ADD PUSH2 0x788 JUMP JUMPDEST PUSH1 0x0 DUP3 DUP2 MSTORE PUSH1 0x6 PUSH1 0x20 MSTORE PUSH1 0x40 SWAP1 KECCAK256 PUSH2 0x829 DUP3 DUP3 PUSH2 0x368D JUMP JUMPDEST PUSH1 0x0 DUP1 PUSH2 0x2819 DUP4 PUSH1 0x40 MLOAD PUSH1 0x20 ADD PUSH2 0x10B7 SWAP2 SWAP1 PUSH2 0x379B JUMP JUMPDEST PUSH1 0x7 DUP1 SLOAD PUSH1 0x1 PUSH1 0x1 PUSH1 0xA0 SHL SUB DUP4 DUP2 AND PUSH1 0x1 PUSH1 0x1 PUSH1 0xA0 SHL SUB NOT DUP4 AND DUP2 OR SWAP1 SWAP4 SSTORE PUSH1 0x40 MLOAD SWAP2 AND SWAP2 SWAP1 DUP3 SWAP1 PUSH32 0x8BE0079C531659141344CD1FD0A4F28419497F9722A3DAAFE3B4186F6B6457E0 SWAP1 PUSH1 0x0 SWAP1 LOG3 POP POP JUMP JUMPDEST DUP2 PUSH1 0x1 PUSH1 0x1 PUSH1 0xA0 SHL SUB AND DUP4 PUSH1 0x1 PUSH1 0x1 PUSH1 0xA0 SHL SUB AND SUB PUSH2 0x29EA JUMPI PUSH1 0x40 MLOAD PUSH3 0x461BCD PUSH1 0xE5 SHL DUP2 MSTORE PUSH1 0x20 PUSH1 0x4 DUP3 ADD MSTORE PUSH1 0x19 PUSH1 0x24 DUP3 ADD MSTORE PUSH32 0x4552433732313A20617070726F766520746F2063616C6C657200000000000000 PUSH1 0x44 DUP3 ADD MSTORE PUSH1 0x64 ADD PUSH2 0x788 JUMP JUMPDEST PUSH1 0x1 PUSH1 0x1 PUSH1 0xA0 SHL SUB DUP4 DUP2 AND PUSH1 0x0 DUP2 DUP2 MSTORE PUSH1 0x5 PUSH1 0x20 SWAP1 DUP2 MSTORE PUSH1 0x40 DUP1 DUP4 KECCAK256 SWAP5 DUP8 AND DUP1 DUP5 MSTORE SWAP5 DUP3 MSTORE SWAP2 DUP3 SWAP1 KECCAK256 DUP1 SLOAD PUSH1 0xFF NOT AND DUP7 ISZERO ISZERO SWAP1 DUP2 OR SWAP1 SWAP2 SSTORE SWAP2 MLOAD SWAP2 DUP3 MSTORE PUSH32 0x17307EAB39AB6107E8899845AD3D59BD9653F200F220920489CA2B5937696C31 SWAP2 ADD PUSH1 0x40 MLOAD DUP1 SWAP2 SUB SWAP1 LOG3 POP POP POP JUMP JUMPDEST PUSH2 0x2A62 DUP5 DUP5 DUP5 PUSH2 0x258D JUMP JUMPDEST PUSH2 0x2A6E DUP5 DUP5 DUP5 DUP5 PUSH2 0x2BC5 JUMP JUMPDEST PUSH2 0x1CE4 JUMPI PUSH1 0x40 MLOAD PUSH3 0x461BCD PUSH1 0xE5 SHL DUP2 MSTORE PUSH1 0x4 ADD PUSH2 0x788 SWAP1 PUSH2 0x38CD JUMP JUMPDEST PUSH1 0x60 PUSH2 0x2A95 DUP3 PUSH2 0x2441 JUMP JUMPDEST PUSH1 0x0 DUP3 DUP2 MSTORE PUSH1 0x6 PUSH1 0x20 MSTORE PUSH1 0x40 DUP2 KECCAK256 DUP1 SLOAD PUSH2 0x2AAE SWAP1 PUSH2 0x3605 JUMP JUMPDEST DUP1 PUSH1 0x1F ADD PUSH1 0x20 DUP1 SWAP2 DIV MUL PUSH1 0x20 ADD PUSH1 0x40 MLOAD SWAP1 DUP2 ADD PUSH1 0x40 MSTORE DUP1 SWAP3 SWAP2 SWAP1 DUP2 DUP2 MSTORE PUSH1 0x20 ADD DUP3 DUP1 SLOAD PUSH2 0x2ADA SWAP1 PUSH2 0x3605 JUMP JUMPDEST DUP1 ISZERO PUSH2 0x2B27 JUMPI DUP1 PUSH1 0x1F LT PUSH2 0x2AFC JUMPI PUSH2 0x100 DUP1 DUP4 SLOAD DIV MUL DUP4 MSTORE SWAP2 PUSH1 0x20 ADD SWAP2 PUSH2 0x2B27 JUMP JUMPDEST DUP3 ADD SWAP2 SWAP1 PUSH1 0x0 MSTORE PUSH1 0x20 PUSH1 0x0 KECCAK256 SWAP1 JUMPDEST DUP2 SLOAD DUP2 MSTORE SWAP1 PUSH1 0x1 ADD SWAP1 PUSH1 0x20 ADD DUP1 DUP4 GT PUSH2 0x2B0A JUMPI DUP3 SWAP1 SUB PUSH1 0x1F AND DUP3 ADD SWAP2 JUMPDEST POP POP POP POP POP SWAP1 POP PUSH1 0x0 PUSH2 0x2B45 PUSH1 0x40 DUP1 MLOAD PUSH1 0x20 DUP2 ADD SWAP1 SWAP2 MSTORE PUSH1 0x0 DUP2 MSTORE SWAP1 JUMP JUMPDEST SWAP1 POP DUP1 MLOAD PUSH1 0x0 SUB PUSH2 0x2B57 JUMPI POP SWAP3 SWAP2 POP POP JUMP JUMPDEST DUP2 MLOAD ISZERO PUSH2 0x2B89 JUMPI DUP1 DUP3 PUSH1 0x40 MLOAD PUSH1 0x20 ADD PUSH2 0x2B71 SWAP3 SWAP2 SWAP1 PUSH2 0x391F JUMP JUMPDEST PUSH1 0x40 MLOAD PUSH1 0x20 DUP2 DUP4 SUB SUB DUP2 MSTORE SWAP1 PUSH1 0x40 MSTORE SWAP3 POP POP POP SWAP2 SWAP1 POP JUMP JUMPDEST PUSH2 0x2585 DUP5 PUSH2 0x2CC6 JUMP JUMPDEST PUSH2 0x2B9C DUP4 DUP4 PUSH2 0x2D3A JUMP JUMPDEST PUSH2 0x2BA9 PUSH1 0x0 DUP5 DUP5 DUP5 PUSH2 0x2BC5 JUMP JUMPDEST PUSH2 0x829 JUMPI PUSH1 0x40 MLOAD PUSH3 0x461BCD PUSH1 0xE5 SHL DUP2 MSTORE PUSH1 0x4 ADD PUSH2 0x788 SWAP1 PUSH2 0x38CD JUMP JUMPDEST PUSH1 0x0 PUSH1 0x1 PUSH1 0x1 PUSH1 0xA0 SHL SUB DUP5 AND EXTCODESIZE ISZERO PUSH2 0x2CBB JUMPI PUSH1 0x40 MLOAD PUSH4 0xA85BD01 PUSH1 0xE1 SHL DUP2 MSTORE PUSH1 0x1 PUSH1 0x1 PUSH1 0xA0 SHL SUB DUP6 AND SWAP1 PUSH4 0x150B7A02 SWAP1 PUSH2 0x2C09 SWAP1 CALLER SWAP1 DUP10 SWAP1 DUP9 SWAP1 DUP9 SWAP1 PUSH1 0x4 ADD PUSH2 0x394E JUMP JUMPDEST PUSH1 0x20 PUSH1 0x40 MLOAD DUP1 DUP4 SUB DUP2 PUSH1 0x0 DUP8 GAS CALL SWAP3 POP POP POP DUP1 ISZERO PUSH2 0x2C44 JUMPI POP PUSH1 0x40 DUP1 MLOAD PUSH1 0x1F RETURNDATASIZE SWAP1 DUP2 ADD PUSH1 0x1F NOT AND DUP3 ADD SWAP1 SWAP3 MSTORE PUSH2 0x2C41 SWAP2 DUP2 ADD SWAP1 PUSH2 0x398B JUMP JUMPDEST PUSH1 0x1 JUMPDEST PUSH2 0x2CA1 JUMPI RETURNDATASIZE DUP1 DUP1 ISZERO PUSH2 0x2C72 JUMPI PUSH1 0x40 MLOAD SWAP2 POP PUSH1 0x1F NOT PUSH1 0x3F RETURNDATASIZE ADD AND DUP3 ADD PUSH1 0x40 MSTORE RETURNDATASIZE DUP3 MSTORE RETURNDATASIZE PUSH1 0x0 PUSH1 0x20 DUP5 ADD RETURNDATACOPY PUSH2 0x2C77 JUMP JUMPDEST PUSH1 0x60 SWAP2 POP JUMPDEST POP DUP1 MLOAD PUSH1 0x0 SUB PUSH2 0x2C99 JUMPI PUSH1 0x40 MLOAD PUSH3 0x461BCD PUSH1 0xE5 SHL DUP2 MSTORE PUSH1 0x4 ADD PUSH2 0x788 SWAP1 PUSH2 0x38CD JUMP JUMPDEST DUP1 MLOAD DUP2 PUSH1 0x20 ADD REVERT JUMPDEST PUSH1 0x1 PUSH1 0x1 PUSH1 0xE0 SHL SUB NOT AND PUSH4 0xA85BD01 PUSH1 0xE1 SHL EQ SWAP1 POP PUSH2 0x2585 JUMP JUMPDEST POP PUSH1 0x1 SWAP5 SWAP4 POP POP POP POP JUMP JUMPDEST PUSH1 0x60 PUSH2 0x2CD1 DUP3 PUSH2 0x2441 JUMP JUMPDEST PUSH1 0x0 PUSH2 0x2CE8 PUSH1 0x40 DUP1 MLOAD PUSH1 0x20 DUP2 ADD SWAP1 SWAP2 MSTORE PUSH1 0x0 DUP2 MSTORE SWAP1 JUMP JUMPDEST SWAP1 POP PUSH1 0x0 DUP2 MLOAD GT PUSH2 0x2D08 JUMPI PUSH1 0x40 MLOAD DUP1 PUSH1 0x20 ADD PUSH1 0x40 MSTORE DUP1 PUSH1 0x0 DUP2 MSTORE POP PUSH2 0x2D33 JUMP JUMPDEST DUP1 PUSH2 0x2D12 DUP5 PUSH2 0x2E7C JUMP JUMPDEST PUSH1 0x40 MLOAD PUSH1 0x20 ADD PUSH2 0x2D23 SWAP3 SWAP2 SWAP1 PUSH2 0x391F JUMP JUMPDEST PUSH1 0x40 MLOAD PUSH1 0x20 DUP2 DUP4 SUB SUB DUP2 MSTORE SWAP1 PUSH1 0x40 MSTORE JUMPDEST SWAP4 SWAP3 POP POP POP JUMP JUMPDEST PUSH1 0x1 PUSH1 0x1 PUSH1 0xA0 SHL SUB DUP3 AND PUSH2 0x2D90 JUMPI PUSH1 0x40 MLOAD PUSH3 0x461BCD PUSH1 0xE5 SHL DUP2 MSTORE PUSH1 0x20 PUSH1 0x4 DUP3 ADD DUP2 SWAP1 MSTORE PUSH1 0x24 DUP3 ADD MSTORE PUSH32 0x4552433732313A206D696E7420746F20746865207A65726F2061646472657373 PUSH1 0x44 DUP3 ADD MSTORE PUSH1 0x64 ADD PUSH2 0x788 JUMP JUMPDEST PUSH1 0x0 DUP2 DUP2 MSTORE PUSH1 0x2 PUSH1 0x20 MSTORE PUSH1 0x40 SWAP1 KECCAK256 SLOAD PUSH1 0x1 PUSH1 0x1 PUSH1 0xA0 SHL SUB AND ISZERO PUSH2 0x2DF5 JUMPI PUSH1 0x40 MLOAD PUSH3 0x461BCD PUSH1 0xE5 SHL DUP2 MSTORE PUSH1 0x20 PUSH1 0x4 DUP3 ADD MSTORE PUSH1 0x1C PUSH1 0x24 DUP3 ADD MSTORE PUSH32 0x4552433732313A20746F6B656E20616C7265616479206D696E74656400000000 PUSH1 0x44 DUP3 ADD MSTORE PUSH1 0x64 ADD PUSH2 0x788 JUMP JUMPDEST PUSH1 0x1 PUSH1 0x1 PUSH1 0xA0 SHL SUB DUP3 AND PUSH1 0x0 SWAP1 DUP2 MSTORE PUSH1 0x3 PUSH1 0x20 MSTORE PUSH1 0x40 DUP2 KECCAK256 DUP1 SLOAD PUSH1 0x1 SWAP3 SWAP1 PUSH2 0x2E1E SWAP1 DUP5 SWAP1 PUSH2 0x3830 JUMP JUMPDEST SWAP1 SWAP2 SSTORE POP POP PUSH1 0x0 DUP2 DUP2 MSTORE PUSH1 0x2 PUSH1 0x20 MSTORE PUSH1 0x40 DUP1 DUP3 KECCAK256 DUP1 SLOAD PUSH1 0x1 PUSH1 0x1 PUSH1 0xA0 SHL SUB NOT AND PUSH1 0x1 PUSH1 0x1 PUSH1 0xA0 SHL SUB DUP7 AND SWAP1 DUP2 OR SWAP1 SWAP2 SSTORE SWAP1 MLOAD DUP4 SWAP3 SWAP1 PUSH32 0xDDF252AD1BE2C89B69C2B068FC378DAA952BA7F163C4A11628F55A4DF523B3EF SWAP1 DUP3 SWAP1 LOG4 POP POP JUMP JUMPDEST PUSH1 0x60 DUP2 PUSH1 0x0 SUB PUSH2 0x2EA3 JUMPI POP POP PUSH1 0x40 DUP1 MLOAD DUP1 DUP3 ADD SWAP1 SWAP2 MSTORE PUSH1 0x1 DUP2 MSTORE PUSH1 0x3 PUSH1 0xFC SHL PUSH1 0x20 DUP3 ADD MSTORE SWAP1 JUMP JUMPDEST DUP2 PUSH1 0x0 JUMPDEST DUP2 ISZERO PUSH2 0x2ECD JUMPI DUP1 PUSH2 0x2EB7 DUP2 PUSH2 0x37CE JUMP JUMPDEST SWAP2 POP PUSH2 0x2EC6 SWAP1 POP PUSH1 0xA DUP4 PUSH2 0x37FD JUMP JUMPDEST SWAP2 POP PUSH2 0x2EA7 JUMP JUMPDEST PUSH1 0x0 DUP2 PUSH8 0xFFFFFFFFFFFFFFFF DUP2 GT ISZERO PUSH2 0x2EE8 JUMPI PUSH2 0x2EE8 PUSH2 0x307A JUMP JUMPDEST PUSH1 0x40 MLOAD SWAP1 DUP1 DUP3 MSTORE DUP1 PUSH1 0x1F ADD PUSH1 0x1F NOT AND PUSH1 0x20 ADD DUP3 ADD PUSH1 0x40 MSTORE DUP1 ISZERO PUSH2 0x2F12 JUMPI PUSH1 0x20 DUP3 ADD DUP2 DUP1 CALLDATASIZE DUP4 CALLDATACOPY ADD SWAP1 POP JUMPDEST POP SWAP1 POP JUMPDEST DUP5 ISZERO PUSH2 0x2585 JUMPI PUSH2 0x2F27 PUSH1 0x1 DUP4 PUSH2 0x385E JUMP JUMPDEST SWAP2 POP PUSH2 0x2F34 PUSH1 0xA DUP7 PUSH2 0x39A8 JUMP JUMPDEST PUSH2 0x2F3F SWAP1 PUSH1 0x30 PUSH2 0x3830 JUMP JUMPDEST PUSH1 0xF8 SHL DUP2 DUP4 DUP2 MLOAD DUP2 LT PUSH2 0x2F54 JUMPI PUSH2 0x2F54 PUSH2 0x3848 JUMP JUMPDEST PUSH1 0x20 ADD ADD SWAP1 PUSH1 0x1 PUSH1 0x1 PUSH1 0xF8 SHL SUB NOT AND SWAP1 DUP2 PUSH1 0x0 BYTE SWAP1 MSTORE8 POP PUSH2 0x2F76 PUSH1 0xA DUP7 PUSH2 0x37FD JUMP JUMPDEST SWAP5 POP PUSH2 0x2F16 JUMP JUMPDEST PUSH1 0x1 PUSH1 0x1 PUSH1 0xE0 SHL SUB NOT DUP2 AND DUP2 EQ PUSH2 0x243E JUMPI PUSH1 0x0 DUP1 REVERT JUMPDEST PUSH1 0x0 PUSH1 0x20 DUP3 DUP5 SUB SLT ISZERO PUSH2 0x2FA5 JUMPI PUSH1 0x0 DUP1 REVERT JUMPDEST DUP2 CALLDATALOAD PUSH2 0x2D33 DUP2 PUSH2 0x2F7D JUMP JUMPDEST PUSH1 0x0 JUMPDEST DUP4 DUP2 LT ISZERO PUSH2 0x2FCB JUMPI DUP2 DUP2 ADD MLOAD DUP4 DUP3 ADD MSTORE PUSH1 0x20 ADD PUSH2 0x2FB3 JUMP JUMPDEST DUP4 DUP2 GT ISZERO PUSH2 0x1CE4 JUMPI POP POP PUSH1 0x0 SWAP2 ADD MSTORE JUMP JUMPDEST PUSH1 0x0 DUP2 MLOAD DUP1 DUP5 MSTORE PUSH2 0x2FF4 DUP2 PUSH1 0x20 DUP7 ADD PUSH1 0x20 DUP7 ADD PUSH2 0x2FB0 JUMP JUMPDEST PUSH1 0x1F ADD PUSH1 0x1F NOT AND SWAP3 SWAP1 SWAP3 ADD PUSH1 0x20 ADD SWAP3 SWAP2 POP POP JUMP JUMPDEST PUSH1 0x20 DUP2 MSTORE PUSH1 0x0 PUSH2 0x2D33 PUSH1 0x20 DUP4 ADD DUP5 PUSH2 0x2FDC JUMP JUMPDEST PUSH1 0x0 PUSH1 0x20 DUP3 DUP5 SUB SLT ISZERO PUSH2 0x302D JUMPI PUSH1 0x0 DUP1 REVERT JUMPDEST POP CALLDATALOAD SWAP2 SWAP1 POP JUMP JUMPDEST DUP1 CALLDATALOAD PUSH1 0x1 PUSH1 0x1 PUSH1 0xA0 SHL SUB DUP2 AND DUP2 EQ PUSH2 0x304B JUMPI PUSH1 0x0 DUP1 REVERT JUMPDEST SWAP2 SWAP1 POP JUMP JUMPDEST PUSH1 0x0 DUP1 PUSH1 0x40 DUP4 DUP6 SUB SLT ISZERO PUSH2 0x3063 JUMPI PUSH1 0x0 DUP1 REVERT JUMPDEST PUSH2 0x306C DUP4 PUSH2 0x3034 JUMP JUMPDEST SWAP5 PUSH1 0x20 SWAP4 SWAP1 SWAP4 ADD CALLDATALOAD SWAP4 POP POP POP JUMP JUMPDEST PUSH4 0x4E487B71 PUSH1 0xE0 SHL PUSH1 0x0 MSTORE PUSH1 0x41 PUSH1 0x4 MSTORE PUSH1 0x24 PUSH1 0x0 REVERT JUMPDEST PUSH1 0x0 PUSH8 0xFFFFFFFFFFFFFFFF DUP1 DUP5 GT ISZERO PUSH2 0x30AB JUMPI PUSH2 0x30AB PUSH2 0x307A JUMP JUMPDEST PUSH1 0x40 MLOAD PUSH1 0x1F DUP6 ADD PUSH1 0x1F NOT SWAP1 DUP2 AND PUSH1 0x3F ADD AND DUP2 ADD SWAP1 DUP3 DUP3 GT DUP2 DUP4 LT OR ISZERO PUSH2 0x30D3 JUMPI PUSH2 0x30D3 PUSH2 0x307A JUMP JUMPDEST DUP2 PUSH1 0x40 MSTORE DUP1 SWAP4 POP DUP6 DUP2 MSTORE DUP7 DUP7 DUP7 ADD GT ISZERO PUSH2 0x30EC JUMPI PUSH1 0x0 DUP1 REVERT JUMPDEST DUP6 DUP6 PUSH1 0x20 DUP4 ADD CALLDATACOPY PUSH1 0x0 PUSH1 0x20 DUP8 DUP4 ADD ADD MSTORE POP POP POP SWAP4 SWAP3 POP POP POP JUMP JUMPDEST PUSH1 0x0 DUP3 PUSH1 0x1F DUP4 ADD SLT PUSH2 0x3117 JUMPI PUSH1 0x0 DUP1 REVERT JUMPDEST PUSH2 0x2D33 DUP4 DUP4 CALLDATALOAD PUSH1 0x20 DUP6 ADD PUSH2 0x3090 JUMP JUMPDEST PUSH1 0x0 DUP1 PUSH1 0x0 DUP1 PUSH1 0x80 DUP6 DUP8 SUB SLT ISZERO PUSH2 0x313C JUMPI PUSH1 0x0 DUP1 REVERT JUMPDEST DUP5 CALLDATALOAD PUSH8 0xFFFFFFFFFFFFFFFF DUP1 DUP3 GT ISZERO PUSH2 0x3154 JUMPI PUSH1 0x0 DUP1 REVERT JUMPDEST PUSH2 0x3160 DUP9 DUP4 DUP10 ADD PUSH2 0x3106 JUMP JUMPDEST SWAP6 POP PUSH1 0x20 DUP8 ADD CALLDATALOAD SWAP2 POP DUP1 DUP3 GT ISZERO PUSH2 0x3176 JUMPI PUSH1 0x0 DUP1 REVERT JUMPDEST PUSH2 0x3182 DUP9 DUP4 DUP10 ADD PUSH2 0x3106 JUMP JUMPDEST SWAP5 POP PUSH1 0x40 DUP8 ADD CALLDATALOAD SWAP2 POP DUP1 DUP3 GT ISZERO PUSH2 0x3198 JUMPI PUSH1 0x0 DUP1 REVERT JUMPDEST PUSH2 0x31A4 DUP9 DUP4 DUP10 ADD PUSH2 0x3106 JUMP JUMPDEST SWAP4 POP PUSH1 0x60 DUP8 ADD CALLDATALOAD SWAP2 POP DUP1 DUP3 GT ISZERO PUSH2 0x31BA JUMPI PUSH1 0x0 DUP1 REVERT JUMPDEST POP PUSH2 0x31C7 DUP8 DUP3 DUP9 ADD PUSH2 0x3106 JUMP JUMPDEST SWAP2 POP POP SWAP3 SWAP6 SWAP2 SWAP5 POP SWAP3 POP JUMP JUMPDEST PUSH1 0x0 DUP1 PUSH1 0x0 PUSH1 0x60 DUP5 DUP7 SUB SLT ISZERO PUSH2 0x31E8 JUMPI PUSH1 0x0 DUP1 REVERT JUMPDEST PUSH2 0x31F1 DUP5 PUSH2 0x3034 JUMP JUMPDEST SWAP3 POP PUSH2 0x31FF PUSH1 0x20 DUP6 ADD PUSH2 0x3034 JUMP JUMPDEST SWAP2 POP PUSH1 0x40 DUP5 ADD CALLDATALOAD SWAP1 POP SWAP3 POP SWAP3 POP SWAP3 JUMP JUMPDEST PUSH1 0x20 DUP1 DUP3 MSTORE DUP3 MLOAD DUP3 DUP3 ADD DUP2 SWAP1 MSTORE PUSH1 0x0 SWAP2 SWAP1 DUP5 DUP3 ADD SWAP1 PUSH1 0x40 DUP6 ADD SWAP1 DUP5 JUMPDEST DUP2 DUP2 LT ISZERO PUSH2 0x3247 JUMPI DUP4 MLOAD DUP4 MSTORE SWAP3 DUP5 ADD SWAP3 SWAP2 DUP5 ADD SWAP2 PUSH1 0x1 ADD PUSH2 0x322B JUMP JUMPDEST POP SWAP1 SWAP7 SWAP6 POP POP POP POP POP POP JUMP JUMPDEST PUSH1 0x0 DUP1 PUSH1 0x0 PUSH1 0x60 DUP5 DUP7 SUB SLT ISZERO PUSH2 0x3268 JUMPI PUSH1 0x0 DUP1 REVERT JUMPDEST DUP4 CALLDATALOAD PUSH8 0xFFFFFFFFFFFFFFFF DUP2 GT ISZERO PUSH2 0x327F JUMPI PUSH1 0x0 DUP1 REVERT JUMPDEST PUSH2 0x328B DUP7 DUP3 DUP8 ADD PUSH2 0x3106 JUMP JUMPDEST SWAP4 POP POP PUSH2 0x31FF PUSH1 0x20 DUP6 ADD PUSH2 0x3034 JUMP JUMPDEST PUSH1 0x0 DUP1 PUSH1 0x40 DUP4 DUP6 SUB SLT ISZERO PUSH2 0x32AD JUMPI PUSH1 0x0 DUP1 REVERT JUMPDEST DUP3 CALLDATALOAD PUSH8 0xFFFFFFFFFFFFFFFF DUP2 GT ISZERO PUSH2 0x32C4 JUMPI PUSH1 0x0 DUP1 REVERT JUMPDEST PUSH2 0x32D0 DUP6 DUP3 DUP7 ADD PUSH2 0x3106 JUMP JUMPDEST SWAP3 POP POP PUSH2 0x32DF PUSH1 0x20 DUP5 ADD PUSH2 0x3034 JUMP JUMPDEST SWAP1 POP SWAP3 POP SWAP3 SWAP1 POP JUMP JUMPDEST PUSH1 0x0 DUP1 PUSH1 0x0 DUP1 PUSH1 0x0 PUSH1 0xA0 DUP7 DUP9 SUB SLT ISZERO PUSH2 0x3300 JUMPI PUSH1 0x0 DUP1 REVERT JUMPDEST PUSH2 0x3309 DUP7 PUSH2 0x3034 JUMP JUMPDEST SWAP5 POP PUSH2 0x3317 PUSH1 0x20 DUP8 ADD PUSH2 0x3034 JUMP JUMPDEST SWAP4 POP PUSH1 0x40 DUP7 ADD CALLDATALOAD SWAP3 POP PUSH1 0x60 DUP7 ADD CALLDATALOAD PUSH1 0x4 DUP2 LT PUSH2 0x3332 JUMPI PUSH1 0x0 DUP1 REVERT JUMPDEST SWAP5 SWAP8 SWAP4 SWAP7 POP SWAP2 SWAP5 PUSH1 0x80 ADD CALLDATALOAD SWAP3 SWAP2 POP POP JUMP JUMPDEST PUSH1 0x0 PUSH1 0x20 DUP3 DUP5 SUB SLT ISZERO PUSH2 0x3355 JUMPI PUSH1 0x0 DUP1 REVERT JUMPDEST PUSH2 0x2D33 DUP3 PUSH2 0x3034 JUMP JUMPDEST PUSH1 0x0 DUP2 MLOAD PUSH1 0x80 DUP5 MSTORE PUSH2 0x3373 PUSH1 0x80 DUP6 ADD DUP3 PUSH2 0x2FDC JUMP JUMPDEST SWAP1 POP PUSH1 0x20 DUP4 ADD MLOAD DUP5 DUP3 SUB PUSH1 0x20 DUP7 ADD MSTORE PUSH2 0x338C DUP3 DUP3 PUSH2 0x2FDC JUMP JUMPDEST SWAP2 POP POP PUSH1 0x40 DUP4 ADD MLOAD DUP5 DUP3 SUB PUSH1 0x40 DUP7 ADD MSTORE PUSH2 0x33A6 DUP3 DUP3 PUSH2 0x2FDC JUMP JUMPDEST SWAP2 POP POP PUSH1 0x60 DUP4 ADD MLOAD DUP5 DUP3 SUB PUSH1 0x60 DUP7 ADD MSTORE PUSH2 0x33C0 DUP3 DUP3 PUSH2 0x2FDC JUMP JUMPDEST SWAP6 SWAP5 POP POP POP POP POP JUMP JUMPDEST PUSH1 0x20 DUP2 MSTORE PUSH1 0x0 PUSH2 0x2D33 PUSH1 0x20 DUP4 ADD DUP5 PUSH2 0x335E JUMP JUMPDEST PUSH1 0x40 DUP2 MSTORE PUSH1 0x0 PUSH2 0x33EF PUSH1 0x40 DUP4 ADD DUP6 PUSH2 0x2FDC JUMP JUMPDEST SWAP1 POP DUP3 ISZERO ISZERO PUSH1 0x20 DUP4 ADD MSTORE SWAP4 SWAP3 POP POP POP JUMP JUMPDEST PUSH1 0x0 DUP1 PUSH1 0x40 DUP4 DUP6 SUB SLT ISZERO PUSH2 0x3413 JUMPI PUSH1 0x0 DUP1 REVERT JUMPDEST PUSH2 0x341C DUP4 PUSH2 0x3034 JUMP JUMPDEST SWAP2 POP PUSH1 0x20 DUP4 ADD CALLDATALOAD DUP1 ISZERO ISZERO DUP2 EQ PUSH2 0x3431 JUMPI PUSH1 0x0 DUP1 REVERT JUMPDEST DUP1 SWAP2 POP POP SWAP3 POP SWAP3 SWAP1 POP JUMP JUMPDEST PUSH1 0x0 DUP1 PUSH1 0x0 DUP1 PUSH1 0x80 DUP6 DUP8 SUB SLT ISZERO PUSH2 0x3452 JUMPI PUSH1 0x0 DUP1 REVERT JUMPDEST PUSH2 0x345B DUP6 PUSH2 0x3034 JUMP JUMPDEST SWAP4 POP PUSH2 0x3469 PUSH1 0x20 DUP7 ADD PUSH2 0x3034 JUMP JUMPDEST SWAP3 POP PUSH1 0x40 DUP6 ADD CALLDATALOAD SWAP2 POP PUSH1 0x60 DUP6 ADD CALLDATALOAD PUSH8 0xFFFFFFFFFFFFFFFF DUP2 GT ISZERO PUSH2 0x348C JUMPI PUSH1 0x0 DUP1 REVERT JUMPDEST DUP6 ADD PUSH1 0x1F DUP2 ADD DUP8 SGT PUSH2 0x349D JUMPI PUSH1 0x0 DUP1 REVERT JUMPDEST PUSH2 0x31C7 DUP8 DUP3 CALLDATALOAD PUSH1 0x20 DUP5 ADD PUSH2 0x3090 JUMP JUMPDEST PUSH1 0x0 DUP1 PUSH1 0x0 PUSH1 0x60 DUP5 DUP7 SUB SLT ISZERO PUSH2 0x34C1 JUMPI PUSH1 0x0 DUP1 REVERT JUMPDEST PUSH2 0x34CA DUP5 PUSH2 0x3034 JUMP JUMPDEST SWAP3 POP PUSH1 0x20 DUP5 ADD CALLDATALOAD SWAP2 POP PUSH1 0x40 DUP5 ADD CALLDATALOAD PUSH8 0xFFFFFFFFFFFFFFFF DUP2 GT ISZERO PUSH2 0x34ED JUMPI PUSH1 0x0 DUP1 REVERT JUMPDEST PUSH2 0x34F9 DUP7 DUP3 DUP8 ADD PUSH2 0x3106 JUMP JUMPDEST SWAP2 POP POP SWAP3 POP SWAP3 POP SWAP3 JUMP JUMPDEST DUP6 DUP2 MSTORE DUP5 PUSH1 0x20 DUP3 ADD MSTORE PUSH1 0xA0 PUSH1 0x40 DUP3 ADD MSTORE PUSH1 0x0 PUSH2 0x3522 PUSH1 0xA0 DUP4 ADD DUP7 PUSH2 0x2FDC JUMP JUMPDEST DUP5 ISZERO ISZERO PUSH1 0x60 DUP5 ADD MSTORE DUP3 DUP2 SUB PUSH1 0x80 DUP5 ADD MSTORE PUSH2 0x353C DUP2 DUP6 PUSH2 0x2FDC JUMP JUMPDEST SWAP9 SWAP8 POP POP POP POP POP POP POP POP JUMP JUMPDEST PUSH1 0x0 DUP1 PUSH1 0x40 DUP4 DUP6 SUB SLT ISZERO PUSH2 0x355B JUMPI PUSH1 0x0 DUP1 REVERT JUMPDEST PUSH2 0x3564 DUP4 PUSH2 0x3034 JUMP JUMPDEST SWAP2 POP PUSH2 0x32DF PUSH1 0x20 DUP5 ADD PUSH2 0x3034 JUMP JUMPDEST PUSH4 0x4E487B71 PUSH1 0xE0 SHL PUSH1 0x0 MSTORE PUSH1 0x21 PUSH1 0x4 MSTORE PUSH1 0x24 PUSH1 0x0 REVERT JUMPDEST DUP8 DUP2 MSTORE PUSH1 0xE0 PUSH1 0x20 DUP3 ADD MSTORE PUSH1 0x0 PUSH2 0x35A1 PUSH1 0xE0 DUP4 ADD DUP10 PUSH2 0x335E JUMP JUMPDEST DUP3 DUP2 SUB PUSH1 0x40 DUP5 ADD MSTORE PUSH2 0x35B3 DUP2 DUP10 PUSH2 0x335E JUMP JUMPDEST SWAP1 POP PUSH1 0x4 DUP8 LT PUSH2 0x35D3 JUMPI PUSH4 0x4E487B71 PUSH1 0xE0 SHL PUSH1 0x0 MSTORE PUSH1 0x21 PUSH1 0x4 MSTORE PUSH1 0x24 PUSH1 0x0 REVERT JUMPDEST DUP7 PUSH1 0x60 DUP5 ADD MSTORE DUP6 PUSH1 0x80 DUP5 ADD MSTORE DUP5 PUSH1 0xA0 DUP5 ADD MSTORE DUP3 DUP2 SUB PUSH1 0xC0 DUP5 ADD MSTORE PUSH2 0x35F7 DUP2 DUP6 PUSH2 0x2FDC JUMP JUMPDEST SWAP11 SWAP10 POP POP POP POP POP POP POP POP POP POP JUMP JUMPDEST PUSH1 0x1 DUP2 DUP2 SHR SWAP1 DUP3 AND DUP1 PUSH2 0x3619 JUMPI PUSH1 0x7F DUP3 AND SWAP2 POP JUMPDEST PUSH1 0x20 DUP3 LT DUP2 SUB PUSH2 0x3639 JUMPI PUSH4 0x4E487B71 PUSH1 0xE0 SHL PUSH1 0x0 MSTORE PUSH1 0x22 PUSH1 0x4 MSTORE PUSH1 0x24 PUSH1 0x0 REVERT JUMPDEST POP SWAP2 SWAP1 POP JUMP JUMPDEST PUSH1 0x1F DUP3 GT ISZERO PUSH2 0x829 JUMPI PUSH1 0x0 DUP2 DUP2 MSTORE PUSH1 0x20 DUP2 KECCAK256 PUSH1 0x1F DUP6 ADD PUSH1 0x5 SHR DUP2 ADD PUSH1 0x20 DUP7 LT ISZERO PUSH2 0x3666 JUMPI POP DUP1 JUMPDEST PUSH1 0x1F DUP6 ADD PUSH1 0x5 SHR DUP3 ADD SWAP2 POP JUMPDEST DUP2 DUP2 LT ISZERO PUSH2 0x3685 JUMPI DUP3 DUP2 SSTORE PUSH1 0x1 ADD PUSH2 0x3672 JUMP JUMPDEST POP POP POP POP POP POP JUMP JUMPDEST DUP2 MLOAD PUSH8 0xFFFFFFFFFFFFFFFF DUP2 GT ISZERO PUSH2 0x36A7 JUMPI PUSH2 0x36A7 PUSH2 0x307A JUMP JUMPDEST PUSH2 0x36BB DUP2 PUSH2 0x36B5 DUP5 SLOAD PUSH2 0x3605 JUMP JUMPDEST DUP5 PUSH2 0x363F JUMP JUMPDEST PUSH1 0x20 DUP1 PUSH1 0x1F DUP4 GT PUSH1 0x1 DUP2 EQ PUSH2 0x36F0 JUMPI PUSH1 0x0 DUP5 ISZERO PUSH2 0x36D8 JUMPI POP DUP6 DUP4 ADD MLOAD JUMPDEST PUSH1 0x0 NOT PUSH1 0x3 DUP7 SWAP1 SHL SHR NOT AND PUSH1 0x1 DUP6 SWAP1 SHL OR DUP6 SSTORE PUSH2 0x3685 JUMP JUMPDEST PUSH1 0x0 DUP6 DUP2 MSTORE PUSH1 0x20 DUP2 KECCAK256 PUSH1 0x1F NOT DUP7 AND SWAP2 JUMPDEST DUP3 DUP2 LT ISZERO PUSH2 0x371F JUMPI DUP9 DUP7 ADD MLOAD DUP3 SSTORE SWAP5 DUP5 ADD SWAP5 PUSH1 0x1 SWAP1 SWAP2 ADD SWAP1 DUP5 ADD PUSH2 0x3700 JUMP JUMPDEST POP DUP6 DUP3 LT ISZERO PUSH2 0x373D JUMPI DUP8 DUP6 ADD MLOAD PUSH1 0x0 NOT PUSH1 0x3 DUP9 SWAP1 SHL PUSH1 0xF8 AND SHR NOT AND DUP2 SSTORE JUMPDEST POP POP POP POP POP PUSH1 0x1 SWAP1 DUP2 SHL ADD SWAP1 SSTORE POP JUMP JUMPDEST PUSH1 0x20 DUP1 DUP3 MSTORE PUSH1 0x2E SWAP1 DUP3 ADD MSTORE PUSH32 0x4552433732313A2063616C6C6572206973206E6F7420746F6B656E206F776E65 PUSH1 0x40 DUP3 ADD MSTORE PUSH14 0x1C881B9BDC88185C1C1C9BDD9959 PUSH1 0x92 SHL PUSH1 0x60 DUP3 ADD MSTORE PUSH1 0x80 ADD SWAP1 JUMP JUMPDEST PUSH1 0x60 SWAP2 SWAP1 SWAP2 SHL PUSH12 0xFFFFFFFFFFFFFFFFFFFFFFFF NOT AND DUP2 MSTORE PUSH1 0x14 ADD SWAP1 JUMP JUMPDEST PUSH4 0x4E487B71 PUSH1 0xE0 SHL PUSH1 0x0 MSTORE PUSH1 0x11 PUSH1 0x4 MSTORE PUSH1 0x24 PUSH1 0x0 REVERT JUMPDEST PUSH1 0x0 PUSH1 0x1 DUP3 ADD PUSH2 0x37E0 JUMPI PUSH2 0x37E0 PUSH2 0x37B8 JUMP JUMPDEST POP PUSH1 0x1 ADD SWAP1 JUMP JUMPDEST PUSH4 0x4E487B71 PUSH1 0xE0 SHL PUSH1 0x0 MSTORE PUSH1 0x12 PUSH1 0x4 MSTORE PUSH1 0x24 PUSH1 0x0 REVERT JUMPDEST PUSH1 0x0 DUP3 PUSH2 0x380C JUMPI PUSH2 0x380C PUSH2 0x37E7 JUMP JUMPDEST POP DIV SWAP1 JUMP JUMPDEST PUSH1 0x0 DUP2 PUSH1 0x0 NOT DIV DUP4 GT DUP3 ISZERO ISZERO AND ISZERO PUSH2 0x382B JUMPI PUSH2 0x382B PUSH2 0x37B8 JUMP JUMPDEST POP MUL SWAP1 JUMP JUMPDEST PUSH1 0x0 DUP3 NOT DUP3 GT ISZERO PUSH2 0x3843 JUMPI PUSH2 0x3843 PUSH2 0x37B8 JUMP JUMPDEST POP ADD SWAP1 JUMP JUMPDEST PUSH4 0x4E487B71 PUSH1 0xE0 SHL PUSH1 0x0 MSTORE PUSH1 0x32 PUSH1 0x4 MSTORE PUSH1 0x24 PUSH1 0x0 REVERT JUMPDEST PUSH1 0x0 DUP3 DUP3 LT ISZERO PUSH2 0x3870 JUMPI PUSH2 0x3870 PUSH2 0x37B8 JUMP JUMPDEST POP SUB SWAP1 JUMP JUMPDEST PUSH1 0x0 DUP4 MLOAD PUSH2 0x3887 DUP2 DUP5 PUSH1 0x20 DUP9 ADD PUSH2 0x2FB0 JUMP JUMPDEST PUSH1 0x5F PUSH1 0xF8 SHL SWAP1 DUP4 ADD SWAP1 DUP2 MSTORE DUP4 MLOAD PUSH2 0x38A5 DUP2 PUSH1 0x1 DUP5 ADD PUSH1 0x20 DUP9 ADD PUSH2 0x2FB0 JUMP JUMPDEST ADD PUSH1 0x1 ADD SWAP5 SWAP4 POP POP POP POP JUMP JUMPDEST PUSH1 0x0 DUP3 MLOAD PUSH2 0x38C3 DUP2 DUP5 PUSH1 0x20 DUP8 ADD PUSH2 0x2FB0 JUMP JUMPDEST SWAP2 SWAP1 SWAP2 ADD SWAP3 SWAP2 POP POP JUMP JUMPDEST PUSH1 0x20 DUP1 DUP3 MSTORE PUSH1 0x32 SWAP1 DUP3 ADD MSTORE PUSH32 0x4552433732313A207472616E7366657220746F206E6F6E204552433732315265 PUSH1 0x40 DUP3 ADD MSTORE PUSH18 0x31B2B4BB32B91034B6B83632B6B2B73A32B9 PUSH1 0x71 SHL PUSH1 0x60 DUP3 ADD MSTORE PUSH1 0x80 ADD SWAP1 JUMP JUMPDEST PUSH1 0x0 DUP4 MLOAD PUSH2 0x3931 DUP2 DUP5 PUSH1 0x20 DUP9 ADD PUSH2 0x2FB0 JUMP JUMPDEST DUP4 MLOAD SWAP1 DUP4 ADD SWAP1 PUSH2 0x3945 DUP2 DUP4 PUSH1 0x20 DUP9 ADD PUSH2 0x2FB0 JUMP JUMPDEST ADD SWAP5 SWAP4 POP POP POP POP JUMP JUMPDEST PUSH1 0x1 PUSH1 0x1 PUSH1 0xA0 SHL SUB DUP6 DUP2 AND DUP3 MSTORE DUP5 AND PUSH1 0x20 DUP3 ADD MSTORE PUSH1 0x40 DUP2 ADD DUP4 SWAP1 MSTORE PUSH1 0x80 PUSH1 0x60 DUP3 ADD DUP2 SWAP1 MSTORE PUSH1 0x0 SWAP1 PUSH2 0x3981 SWAP1 DUP4 ADD DUP5 PUSH2 0x2FDC JUMP JUMPDEST SWAP7 SWAP6 POP POP POP POP POP POP JUMP JUMPDEST PUSH1 0x0 PUSH1 0x20 DUP3 DUP5 SUB SLT ISZERO PUSH2 0x399D JUMPI PUSH1 0x0 DUP1 REVERT JUMPDEST DUP2 MLOAD PUSH2 0x2D33 DUP2 PUSH2 0x2F7D JUMP JUMPDEST PUSH1 0x0 DUP3 PUSH2 0x39B7 JUMPI PUSH2 0x39B7 PUSH2 0x37E7 JUMP JUMPDEST POP MOD SWAP1 JUMP INVALID LOG2 PUSH5 0x6970667358 0x22 SLT KECCAK256 SWAP16 0xB3 CALLDATALOAD 0xDB SWAP11 CALLDATACOPY SWAP6 0x2B 0x1E DIFFICULTY DUP5 0xE9 PUSH17 0xBE31FE42C074CBDCB3F390A0AE6610D05D 0x5F DUP6 PUSH5 0x736F6C6343 STOP ADDMOD 0xF STOP CALLER ",
  "sha1": "ddbdf2e4d1d337c0ad454e0d6d086454d6f0a285",
  "source": "// SPDX-License-Identifier: MIT\npragma solidity ^0.8.14;\npragma experimental ABIEncoderV2;\n\nimport \"@openzeppelin/contracts/token/ERC721/ERC721.sol\";\nimport \"@openzeppelin/contracts/token/ERC721/extensions/ERC721URIStorage.sol\";\nimport \"@openzeppelin/contracts/access/Ownable.sol\";\nimport \"@openzeppelin/contracts/utils/cryptography/ECDSA.sol\";\n\ncontract LandRegistry is ERC721, ERC721URIStorage, Ownable {\n    using ECDSA for bytes32;\n    bytes32 public constant EXECUTOR_ROLE = keccak256(\"EXECUTOR\");\n    uint256 registerIndex;\n    uint256 contractBalance;\n\n    constructor() ERC721(\"LandRegistry\", \"LRY\") {\n        registerIndex = 0;\n        contractBalance = 0;\n    }\n\n    enum SaleType {\n        NEW,\n        RESALE,\n        INHERITANCE,\n        GIFT\n    }\n\n    struct OwnerType {\n        string name;\n        string resAddress;\n        string care_of;\n        string gender;\n    }\n\n    struct RegisterEntry {\n        uint256 landId;\n        OwnerType seller;\n        OwnerType buyer;\n        SaleType sale;\n        uint256 salePrice;\n        uint256 fee;\n        bytes ownerSignature;\n    }\n\n    struct LandVoucher {\n        uint256 tokenId;\n        uint256 minPrice;\n        string uri;\n        bool isSold;\n        bytes builderSignature;\n    }\n\n    struct Executor {\n        string name;\n        bool isVal;\n    }\n\n    mapping(address => OwnerType) users;\n    mapping(uint256 => LandVoucher) public lands;\n    mapping(uint256 => RegisterEntry) public landRegister;\n    mapping(address => uint256[]) public ownedLands;\n    mapping(address => Executor) public executors;\n\n    function hasRole(address _addr) internal view returns (bool) {\n        return executors[_addr].isVal;\n    }\n\n    function getUserDetails() external view returns (OwnerType memory) {\n        return users[msg.sender];\n    }\n\n    function getOwnedAssets() external view returns (uint256[] memory) {\n        return ownedLands[msg.sender];\n    }\n\n    function onlyExecutor() internal view {\n        require(\n            hasRole(msg.sender),\n            \"Only Executors\"\n        );\n    }\n\n    function safeMint(\n        address to,\n        uint256 tokenId,\n        string memory uri\n    ) public onlyOwner {\n        _safeMint(to, tokenId);\n        _setTokenURI(tokenId, uri);\n    }\n\n    function getContractBalance() public view onlyOwner returns (uint256) {\n        return contractBalance;\n    }\n\n    function withdrawBalance() public payable onlyOwner {\n        payable(owner()).transfer(contractBalance);\n        contractBalance = 0;\n    }\n\n    function addExecutor(string memory name, address _addr) public onlyOwner {\n        executors[_addr] = Executor(name, true);\n    }\n\n    function registerUserInRegistry(\n        string memory _name,\n        string memory _cof,\n        string memory _resAddress,\n        string memory _gender\n    ) public {\n        users[msg.sender] = OwnerType(_name, _resAddress, _cof, _gender);\n    }\n\n    function concat(string memory a, string memory b)\n        internal\n        pure\n        returns (string memory)\n    {\n        return string(abi.encodePacked(a, \"_\", b));\n    }\n\n    function registerLand(\n        string memory _uri,\n        address builder,\n        uint256 _price\n    ) public {\n        onlyExecutor();\n        bytes memory signature = bytes(\n            concat(string(abi.encodePacked(builder)), \"BSIG\")\n        );\n        lands[registerIndex] = LandVoucher(\n            registerIndex,\n            _price,\n            _uri,\n            false,\n            signature\n        );\n        registerIndex++;\n    }\n\n    function _verify(bytes memory _builderSignature, address _asSigner)\n        private\n        pure\n        returns (bool)\n    {\n        bytes memory tempSignature = bytes(\n            concat(string(abi.encodePacked(_asSigner)), \"BSIG\")\n        );\n        return\n            keccak256(abi.encodePacked(tempSignature)) ==\n            keccak256(abi.encodePacked(_builderSignature));\n    }\n\n    function _verifyOwnerSignature(bytes memory _lrOwnerSignature, address _asOwner)\n        private\n        pure\n        returns (bool)\n    {\n        bytes memory tempSignature = bytes(\n            concat(string(abi.encodePacked(_asOwner)), \"OWNER_SIG\")\n        );\n        return\n            keccak256(abi.encodePacked(tempSignature)) ==\n            keccak256(abi.encodePacked(_lrOwnerSignature));\n    }\n\n    function executeSale(\n        address _seller,\n        address _buyer,\n        uint256 _landToken,\n        SaleType _sType,\n        uint256 _salePrice\n    ) public {\n        onlyExecutor();\n        require(\n            (_sType == SaleType.NEW && lands[_landToken].isSold == false) ||\n                (_sType != SaleType.NEW && lands[_landToken].isSold),\n            \"Invalid\"\n        );\n\n        uint256 fees = 10000000;\n\n        if (_sType == SaleType.NEW || _sType == SaleType.RESALE) {\n            fees += (_salePrice / 1000) * 1;\n        } else if (_sType == SaleType.INHERITANCE) {\n            fees += (_salePrice / 1000) * 5;\n        } else if (_sType == SaleType.GIFT) {\n            fees += (_salePrice / 1000) * 8;\n        }\n        LandVoucher memory lv = lands[_landToken];\n        if (_sType == SaleType.NEW) {\n            bool verified = _verify(lv.builderSignature, _seller);\n            require(verified, \"Signature Error\");\n            require(lv.isSold == false, \"Invalid\");\n            _safeMint(_seller, _landToken);\n            _setTokenURI(_landToken, lv.uri);\n            _transfer(_seller, _buyer, _landToken);\n            lands[_landToken].isSold = true;\n        } else {\n            bool verifyOwnershipOfSeller = _verifyOwnerSignature(\n                landRegister[_landToken].ownerSignature,\n                _seller\n            );\n            require(\n                verifyOwnershipOfSeller,\n                \"The given Seller is not the owner of the land\"\n            );\n            require(lv.isSold, \"Invalid Sale Condition\");\n            _transfer(_seller, _buyer, _landToken);\n        }\n        bytes memory newOwnerSignature = bytes(\n            concat(string(abi.encodePacked(_buyer)), \"OWNER_SIG\")\n        );\n        landRegister[_landToken] = RegisterEntry(\n            _landToken,\n            users[_seller],\n            users[_buyer],\n            _sType,\n            _salePrice,\n            fees,\n            newOwnerSignature\n        );\n        if (_sType == SaleType.NEW) {\n            ownedLands[_buyer].push(_landToken);\n        } else {\n            for (uint256 i = 0; i < ownedLands[_seller].length; i = i + 1) {\n                if (ownedLands[_seller][i] == _landToken) {\n                    delete ownedLands[_seller][i];\n                    break;\n                }\n            }\n            ownedLands[_buyer].push(_landToken);\n        }\n        contractBalance += fees;\n    }\n\n    // The following functions are overrides required by Solidity.\n\n    function _burn(uint256 tokenId)\n        internal\n        override(ERC721, ERC721URIStorage)\n    {\n        super._burn(tokenId);\n    }\n\n    function tokenURI(uint256 tokenId)\n        public\n        view\n        override(ERC721, ERC721URIStorage)\n        returns (string memory)\n    {\n        return super.tokenURI(tokenId);\n    }\n}\n",
  "sourcePath": "contracts/LandRegistry.sol",
  "type": "contract"
}